{
	"struct.sol": {
		"Struct": {
			"abi": [
				{
					"inputs": [
						{
							"internalType": "string",
							"name": "_name",
							"type": "string"
						},
						{
							"internalType": "uint256",
							"name": "_age",
							"type": "uint256"
						}
					],
					"name": "UpdateDetails",
					"outputs": [],
					"stateMutability": "nonpayable",
					"type": "function"
				},
				{
					"inputs": [],
					"name": "person",
					"outputs": [
						{
							"internalType": "string",
							"name": "Name",
							"type": "string"
						},
						{
							"internalType": "uint256",
							"name": "Age",
							"type": "uint256"
						}
					],
					"stateMutability": "view",
					"type": "function"
				}
			],
			"devdoc": {
				"kind": "dev",
				"methods": {},
				"version": 1
			},
			"evm": {
				"assembly": "    /* \"struct.sol\":62:381  contract Struct{... */\n  mstore(0x40, 0x80)\n  callvalue\n  dup1\n  iszero\n  tag_1\n  jumpi\n  0x00\n  dup1\n  revert\ntag_1:\n  pop\n  dataSize(sub_0)\n  dup1\n  dataOffset(sub_0)\n  0x00\n  codecopy\n  0x00\n  return\nstop\n\nsub_0: assembly {\n        /* \"struct.sol\":62:381  contract Struct{... */\n      mstore(0x40, 0x80)\n      callvalue\n      dup1\n      iszero\n      tag_1\n      jumpi\n      0x00\n      dup1\n      revert\n    tag_1:\n      pop\n      jumpi(tag_2, lt(calldatasize, 0x04))\n      shr(0xe0, calldataload(0x00))\n      dup1\n      0x77ec2b55\n      eq\n      tag_3\n      jumpi\n      dup1\n      0xc8218e54\n      eq\n      tag_4\n      jumpi\n    tag_2:\n      0x00\n      dup1\n      revert\n        /* \"struct.sol\":154:189  Person /* Variable */ public person */\n    tag_3:\n      tag_5\n      tag_6\n      jump\t// in\n    tag_5:\n      mload(0x40)\n      tag_7\n      swap3\n      swap2\n      swap1\n      tag_8\n      jump\t// in\n    tag_7:\n      mload(0x40)\n      dup1\n      swap2\n      sub\n      swap1\n      return\n        /* \"struct.sol\":198:376  function UpdateDetails(string memory _name , uint _age) public {... */\n    tag_4:\n      tag_9\n      0x04\n      dup1\n      calldatasize\n      sub\n      dup2\n      add\n      swap1\n      tag_10\n      swap2\n      swap1\n      tag_11\n      jump\t// in\n    tag_10:\n      tag_12\n      jump\t// in\n    tag_9:\n      stop\n        /* \"struct.sol\":154:189  Person /* Variable */ public person */\n    tag_6:\n      0x00\n      dup1\n      0x00\n      add\n      dup1\n      sload\n      tag_13\n      swap1\n      tag_14\n      jump\t// in\n    tag_13:\n      dup1\n      0x1f\n      add\n      0x20\n      dup1\n      swap2\n      div\n      mul\n      0x20\n      add\n      mload(0x40)\n      swap1\n      dup2\n      add\n      0x40\n      mstore\n      dup1\n      swap3\n      swap2\n      swap1\n      dup2\n      dup2\n      mstore\n      0x20\n      add\n      dup3\n      dup1\n      sload\n      tag_15\n      swap1\n      tag_14\n      jump\t// in\n    tag_15:\n      dup1\n      iszero\n      tag_16\n      jumpi\n      dup1\n      0x1f\n      lt\n      tag_17\n      jumpi\n      0x0100\n      dup1\n      dup4\n      sload\n      div\n      mul\n      dup4\n      mstore\n      swap2\n      0x20\n      add\n      swap2\n      jump(tag_16)\n    tag_17:\n      dup3\n      add\n      swap2\n      swap1\n      0x00\n      mstore\n      keccak256(0x00, 0x20)\n      swap1\n    tag_18:\n      dup2\n      sload\n      dup2\n      mstore\n      swap1\n      0x01\n      add\n      swap1\n      0x20\n      add\n      dup1\n      dup4\n      gt\n      tag_18\n      jumpi\n      dup3\n      swap1\n      sub\n      0x1f\n      and\n      dup3\n      add\n      swap2\n    tag_16:\n      pop\n      pop\n      pop\n      pop\n      pop\n      swap1\n      dup1\n      0x01\n      add\n      sload\n      swap1\n      pop\n      dup3\n      jump\t// out\n        /* \"struct.sol\":198:376  function UpdateDetails(string memory _name , uint _age) public {... */\n    tag_12:\n        /* \"struct.sol\":281:301  Person(_name , _age) */\n      mload(0x40)\n      dup1\n      0x40\n      add\n      0x40\n      mstore\n      dup1\n        /* \"struct.sol\":288:293  _name */\n      dup4\n        /* \"struct.sol\":281:301  Person(_name , _age) */\n      dup2\n      mstore\n      0x20\n      add\n        /* \"struct.sol\":296:300  _age */\n      dup3\n        /* \"struct.sol\":281:301  Person(_name , _age) */\n      dup2\n      mstore\n      pop\n        /* \"struct.sol\":272:278  person */\n      0x00\n        /* \"struct.sol\":272:301  person = Person(_name , _age) */\n      dup1\n      dup3\n      add\n      mload\n      dup2\n      0x00\n      add\n      swap1\n      dup2\n      tag_20\n      swap2\n      swap1\n      tag_21\n      jump\t// in\n    tag_20:\n      pop\n      0x20\n      dup3\n      add\n      mload\n      dup2\n      0x01\n      add\n      sstore\n      swap1\n      pop\n      pop\n        /* \"struct.sol\":198:376  function UpdateDetails(string memory _name , uint _age) public {... */\n      pop\n      pop\n      jump\t// out\n        /* \"#utility.yul\":7:106   */\n    tag_22:\n        /* \"#utility.yul\":59:65   */\n      0x00\n        /* \"#utility.yul\":93:98   */\n      dup2\n        /* \"#utility.yul\":87:99   */\n      mload\n        /* \"#utility.yul\":77:99   */\n      swap1\n      pop\n        /* \"#utility.yul\":7:106   */\n      swap2\n      swap1\n      pop\n      jump\t// out\n        /* \"#utility.yul\":112:281   */\n    tag_23:\n        /* \"#utility.yul\":196:207   */\n      0x00\n        /* \"#utility.yul\":230:236   */\n      dup3\n        /* \"#utility.yul\":225:228   */\n      dup3\n        /* \"#utility.yul\":218:237   */\n      mstore\n        /* \"#utility.yul\":270:274   */\n      0x20\n        /* \"#utility.yul\":265:268   */\n      dup3\n        /* \"#utility.yul\":261:275   */\n      add\n        /* \"#utility.yul\":246:275   */\n      swap1\n      pop\n        /* \"#utility.yul\":112:281   */\n      swap3\n      swap2\n      pop\n      pop\n      jump\t// out\n        /* \"#utility.yul\":287:533   */\n    tag_24:\n        /* \"#utility.yul\":368:369   */\n      0x00\n        /* \"#utility.yul\":378:491   */\n    tag_63:\n        /* \"#utility.yul\":392:398   */\n      dup4\n        /* \"#utility.yul\":389:390   */\n      dup2\n        /* \"#utility.yul\":386:399   */\n      lt\n        /* \"#utility.yul\":378:491   */\n      iszero\n      tag_65\n      jumpi\n        /* \"#utility.yul\":477:478   */\n      dup1\n        /* \"#utility.yul\":472:475   */\n      dup3\n        /* \"#utility.yul\":468:479   */\n      add\n        /* \"#utility.yul\":462:480   */\n      mload\n        /* \"#utility.yul\":458:459   */\n      dup2\n        /* \"#utility.yul\":453:456   */\n      dup5\n        /* \"#utility.yul\":449:460   */\n      add\n        /* \"#utility.yul\":442:481   */\n      mstore\n        /* \"#utility.yul\":414:416   */\n      0x20\n        /* \"#utility.yul\":411:412   */\n      dup2\n        /* \"#utility.yul\":407:417   */\n      add\n        /* \"#utility.yul\":402:417   */\n      swap1\n      pop\n        /* \"#utility.yul\":378:491   */\n      jump(tag_63)\n    tag_65:\n        /* \"#utility.yul\":525:526   */\n      0x00\n        /* \"#utility.yul\":516:522   */\n      dup5\n        /* \"#utility.yul\":511:514   */\n      dup5\n        /* \"#utility.yul\":507:523   */\n      add\n        /* \"#utility.yul\":500:527   */\n      mstore\n        /* \"#utility.yul\":349:533   */\n      pop\n        /* \"#utility.yul\":287:533   */\n      pop\n      pop\n      pop\n      jump\t// out\n        /* \"#utility.yul\":539:641   */\n    tag_25:\n        /* \"#utility.yul\":580:586   */\n      0x00\n        /* \"#utility.yul\":631:633   */\n      0x1f\n        /* \"#utility.yul\":627:634   */\n      not\n        /* \"#utility.yul\":622:624   */\n      0x1f\n        /* \"#utility.yul\":615:620   */\n      dup4\n        /* \"#utility.yul\":611:625   */\n      add\n        /* \"#utility.yul\":607:635   */\n      and\n        /* \"#utility.yul\":597:635   */\n      swap1\n      pop\n        /* \"#utility.yul\":539:641   */\n      swap2\n      swap1\n      pop\n      jump\t// out\n        /* \"#utility.yul\":647:1024   */\n    tag_26:\n        /* \"#utility.yul\":735:738   */\n      0x00\n        /* \"#utility.yul\":763:802   */\n      tag_68\n        /* \"#utility.yul\":796:801   */\n      dup3\n        /* \"#utility.yul\":763:802   */\n      tag_22\n      jump\t// in\n    tag_68:\n        /* \"#utility.yul\":818:889   */\n      tag_69\n        /* \"#utility.yul\":882:888   */\n      dup2\n        /* \"#utility.yul\":877:880   */\n      dup6\n        /* \"#utility.yul\":818:889   */\n      tag_23\n      jump\t// in\n    tag_69:\n        /* \"#utility.yul\":811:889   */\n      swap4\n      pop\n        /* \"#utility.yul\":898:963   */\n      tag_70\n        /* \"#utility.yul\":956:962   */\n      dup2\n        /* \"#utility.yul\":951:954   */\n      dup6\n        /* \"#utility.yul\":944:948   */\n      0x20\n        /* \"#utility.yul\":937:942   */\n      dup7\n        /* \"#utility.yul\":933:949   */\n      add\n        /* \"#utility.yul\":898:963   */\n      tag_24\n      jump\t// in\n    tag_70:\n        /* \"#utility.yul\":988:1017   */\n      tag_71\n        /* \"#utility.yul\":1010:1016   */\n      dup2\n        /* \"#utility.yul\":988:1017   */\n      tag_25\n      jump\t// in\n    tag_71:\n        /* \"#utility.yul\":983:986   */\n      dup5\n        /* \"#utility.yul\":979:1018   */\n      add\n        /* \"#utility.yul\":972:1018   */\n      swap2\n      pop\n        /* \"#utility.yul\":739:1024   */\n      pop\n        /* \"#utility.yul\":647:1024   */\n      swap3\n      swap2\n      pop\n      pop\n      jump\t// out\n        /* \"#utility.yul\":1030:1107   */\n    tag_27:\n        /* \"#utility.yul\":1067:1074   */\n      0x00\n        /* \"#utility.yul\":1096:1101   */\n      dup2\n        /* \"#utility.yul\":1085:1101   */\n      swap1\n      pop\n        /* \"#utility.yul\":1030:1107   */\n      swap2\n      swap1\n      pop\n      jump\t// out\n        /* \"#utility.yul\":1113:1231   */\n    tag_28:\n        /* \"#utility.yul\":1200:1224   */\n      tag_74\n        /* \"#utility.yul\":1218:1223   */\n      dup2\n        /* \"#utility.yul\":1200:1224   */\n      tag_27\n      jump\t// in\n    tag_74:\n        /* \"#utility.yul\":1195:1198   */\n      dup3\n        /* \"#utility.yul\":1188:1225   */\n      mstore\n        /* \"#utility.yul\":1113:1231   */\n      pop\n      pop\n      jump\t// out\n        /* \"#utility.yul\":1237:1660   */\n    tag_8:\n        /* \"#utility.yul\":1378:1382   */\n      0x00\n        /* \"#utility.yul\":1416:1418   */\n      0x40\n        /* \"#utility.yul\":1405:1414   */\n      dup3\n        /* \"#utility.yul\":1401:1419   */\n      add\n        /* \"#utility.yul\":1393:1419   */\n      swap1\n      pop\n        /* \"#utility.yul\":1465:1474   */\n      dup2\n        /* \"#utility.yul\":1459:1463   */\n      dup2\n        /* \"#utility.yul\":1455:1475   */\n      sub\n        /* \"#utility.yul\":1451:1452   */\n      0x00\n        /* \"#utility.yul\":1440:1449   */\n      dup4\n        /* \"#utility.yul\":1436:1453   */\n      add\n        /* \"#utility.yul\":1429:1476   */\n      mstore\n        /* \"#utility.yul\":1493:1571   */\n      tag_76\n        /* \"#utility.yul\":1566:1570   */\n      dup2\n        /* \"#utility.yul\":1557:1563   */\n      dup6\n        /* \"#utility.yul\":1493:1571   */\n      tag_26\n      jump\t// in\n    tag_76:\n        /* \"#utility.yul\":1485:1571   */\n      swap1\n      pop\n        /* \"#utility.yul\":1581:1653   */\n      tag_77\n        /* \"#utility.yul\":1649:1651   */\n      0x20\n        /* \"#utility.yul\":1638:1647   */\n      dup4\n        /* \"#utility.yul\":1634:1652   */\n      add\n        /* \"#utility.yul\":1625:1631   */\n      dup5\n        /* \"#utility.yul\":1581:1653   */\n      tag_28\n      jump\t// in\n    tag_77:\n        /* \"#utility.yul\":1237:1660   */\n      swap4\n      swap3\n      pop\n      pop\n      pop\n      jump\t// out\n        /* \"#utility.yul\":1666:1741   */\n    tag_29:\n        /* \"#utility.yul\":1699:1705   */\n      0x00\n        /* \"#utility.yul\":1732:1734   */\n      0x40\n        /* \"#utility.yul\":1726:1735   */\n      mload\n        /* \"#utility.yul\":1716:1735   */\n      swap1\n      pop\n        /* \"#utility.yul\":1666:1741   */\n      swap1\n      jump\t// out\n        /* \"#utility.yul\":1747:1864   */\n    tag_30:\n        /* \"#utility.yul\":1856:1857   */\n      0x00\n        /* \"#utility.yul\":1853:1854   */\n      dup1\n        /* \"#utility.yul\":1846:1858   */\n      revert\n        /* \"#utility.yul\":1870:1987   */\n    tag_31:\n        /* \"#utility.yul\":1979:1980   */\n      0x00\n        /* \"#utility.yul\":1976:1977   */\n      dup1\n        /* \"#utility.yul\":1969:1981   */\n      revert\n        /* \"#utility.yul\":1993:2110   */\n    tag_32:\n        /* \"#utility.yul\":2102:2103   */\n      0x00\n        /* \"#utility.yul\":2099:2100   */\n      dup1\n        /* \"#utility.yul\":2092:2104   */\n      revert\n        /* \"#utility.yul\":2116:2233   */\n    tag_33:\n        /* \"#utility.yul\":2225:2226   */\n      0x00\n        /* \"#utility.yul\":2222:2223   */\n      dup1\n        /* \"#utility.yul\":2215:2227   */\n      revert\n        /* \"#utility.yul\":2239:2419   */\n    tag_34:\n        /* \"#utility.yul\":2287:2364   */\n      0x4e487b7100000000000000000000000000000000000000000000000000000000\n        /* \"#utility.yul\":2284:2285   */\n      0x00\n        /* \"#utility.yul\":2277:2365   */\n      mstore\n        /* \"#utility.yul\":2384:2388   */\n      0x41\n        /* \"#utility.yul\":2381:2382   */\n      0x04\n        /* \"#utility.yul\":2374:2389   */\n      mstore\n        /* \"#utility.yul\":2408:2412   */\n      0x24\n        /* \"#utility.yul\":2405:2406   */\n      0x00\n        /* \"#utility.yul\":2398:2413   */\n      revert\n        /* \"#utility.yul\":2425:2706   */\n    tag_35:\n        /* \"#utility.yul\":2508:2535   */\n      tag_85\n        /* \"#utility.yul\":2530:2534   */\n      dup3\n        /* \"#utility.yul\":2508:2535   */\n      tag_25\n      jump\t// in\n    tag_85:\n        /* \"#utility.yul\":2500:2506   */\n      dup2\n        /* \"#utility.yul\":2496:2536   */\n      add\n        /* \"#utility.yul\":2638:2644   */\n      dup2\n        /* \"#utility.yul\":2626:2636   */\n      dup2\n        /* \"#utility.yul\":2623:2645   */\n      lt\n        /* \"#utility.yul\":2602:2620   */\n      0xffffffffffffffff\n        /* \"#utility.yul\":2590:2600   */\n      dup3\n        /* \"#utility.yul\":2587:2621   */\n      gt\n        /* \"#utility.yul\":2584:2646   */\n      or\n        /* \"#utility.yul\":2581:2669   */\n      iszero\n      tag_86\n      jumpi\n        /* \"#utility.yul\":2649:2667   */\n      tag_87\n      tag_34\n      jump\t// in\n    tag_87:\n        /* \"#utility.yul\":2581:2669   */\n    tag_86:\n        /* \"#utility.yul\":2689:2699   */\n      dup1\n        /* \"#utility.yul\":2685:2687   */\n      0x40\n        /* \"#utility.yul\":2678:2700   */\n      mstore\n        /* \"#utility.yul\":2468:2706   */\n      pop\n        /* \"#utility.yul\":2425:2706   */\n      pop\n      pop\n      jump\t// out\n        /* \"#utility.yul\":2712:2841   */\n    tag_36:\n        /* \"#utility.yul\":2746:2752   */\n      0x00\n        /* \"#utility.yul\":2773:2793   */\n      tag_89\n      tag_29\n      jump\t// in\n    tag_89:\n        /* \"#utility.yul\":2763:2793   */\n      swap1\n      pop\n        /* \"#utility.yul\":2802:2835   */\n      tag_90\n        /* \"#utility.yul\":2830:2834   */\n      dup3\n        /* \"#utility.yul\":2822:2828   */\n      dup3\n        /* \"#utility.yul\":2802:2835   */\n      tag_35\n      jump\t// in\n    tag_90:\n        /* \"#utility.yul\":2712:2841   */\n      swap2\n      swap1\n      pop\n      jump\t// out\n        /* \"#utility.yul\":2847:3155   */\n    tag_37:\n        /* \"#utility.yul\":2909:2913   */\n      0x00\n        /* \"#utility.yul\":2999:3017   */\n      0xffffffffffffffff\n        /* \"#utility.yul\":2991:2997   */\n      dup3\n        /* \"#utility.yul\":2988:3018   */\n      gt\n        /* \"#utility.yul\":2985:3041   */\n      iszero\n      tag_92\n      jumpi\n        /* \"#utility.yul\":3021:3039   */\n      tag_93\n      tag_34\n      jump\t// in\n    tag_93:\n        /* \"#utility.yul\":2985:3041   */\n    tag_92:\n        /* \"#utility.yul\":3059:3088   */\n      tag_94\n        /* \"#utility.yul\":3081:3087   */\n      dup3\n        /* \"#utility.yul\":3059:3088   */\n      tag_25\n      jump\t// in\n    tag_94:\n        /* \"#utility.yul\":3051:3088   */\n      swap1\n      pop\n        /* \"#utility.yul\":3143:3147   */\n      0x20\n        /* \"#utility.yul\":3137:3141   */\n      dup2\n        /* \"#utility.yul\":3133:3148   */\n      add\n        /* \"#utility.yul\":3125:3148   */\n      swap1\n      pop\n        /* \"#utility.yul\":2847:3155   */\n      swap2\n      swap1\n      pop\n      jump\t// out\n        /* \"#utility.yul\":3161:3307   */\n    tag_38:\n        /* \"#utility.yul\":3258:3264   */\n      dup3\n        /* \"#utility.yul\":3253:3256   */\n      dup2\n        /* \"#utility.yul\":3248:3251   */\n      dup4\n        /* \"#utility.yul\":3235:3265   */\n      calldatacopy\n        /* \"#utility.yul\":3299:3300   */\n      0x00\n        /* \"#utility.yul\":3290:3296   */\n      dup4\n        /* \"#utility.yul\":3285:3288   */\n      dup4\n        /* \"#utility.yul\":3281:3297   */\n      add\n        /* \"#utility.yul\":3274:3301   */\n      mstore\n        /* \"#utility.yul\":3161:3307   */\n      pop\n      pop\n      pop\n      jump\t// out\n        /* \"#utility.yul\":3313:3738   */\n    tag_39:\n        /* \"#utility.yul\":3391:3396   */\n      0x00\n        /* \"#utility.yul\":3416:3482   */\n      tag_97\n        /* \"#utility.yul\":3432:3481   */\n      tag_98\n        /* \"#utility.yul\":3474:3480   */\n      dup5\n        /* \"#utility.yul\":3432:3481   */\n      tag_37\n      jump\t// in\n    tag_98:\n        /* \"#utility.yul\":3416:3482   */\n      tag_36\n      jump\t// in\n    tag_97:\n        /* \"#utility.yul\":3407:3482   */\n      swap1\n      pop\n        /* \"#utility.yul\":3505:3511   */\n      dup3\n        /* \"#utility.yul\":3498:3503   */\n      dup2\n        /* \"#utility.yul\":3491:3512   */\n      mstore\n        /* \"#utility.yul\":3543:3547   */\n      0x20\n        /* \"#utility.yul\":3536:3541   */\n      dup2\n        /* \"#utility.yul\":3532:3548   */\n      add\n        /* \"#utility.yul\":3581:3584   */\n      dup5\n        /* \"#utility.yul\":3572:3578   */\n      dup5\n        /* \"#utility.yul\":3567:3570   */\n      dup5\n        /* \"#utility.yul\":3563:3579   */\n      add\n        /* \"#utility.yul\":3560:3585   */\n      gt\n        /* \"#utility.yul\":3557:3669   */\n      iszero\n      tag_99\n      jumpi\n        /* \"#utility.yul\":3588:3667   */\n      tag_100\n      tag_33\n      jump\t// in\n    tag_100:\n        /* \"#utility.yul\":3557:3669   */\n    tag_99:\n        /* \"#utility.yul\":3678:3732   */\n      tag_101\n        /* \"#utility.yul\":3725:3731   */\n      dup5\n        /* \"#utility.yul\":3720:3723   */\n      dup3\n        /* \"#utility.yul\":3715:3718   */\n      dup6\n        /* \"#utility.yul\":3678:3732   */\n      tag_38\n      jump\t// in\n    tag_101:\n        /* \"#utility.yul\":3397:3738   */\n      pop\n        /* \"#utility.yul\":3313:3738   */\n      swap4\n      swap3\n      pop\n      pop\n      pop\n      jump\t// out\n        /* \"#utility.yul\":3758:4098   */\n    tag_40:\n        /* \"#utility.yul\":3814:3819   */\n      0x00\n        /* \"#utility.yul\":3863:3866   */\n      dup3\n        /* \"#utility.yul\":3856:3860   */\n      0x1f\n        /* \"#utility.yul\":3848:3854   */\n      dup4\n        /* \"#utility.yul\":3844:3861   */\n      add\n        /* \"#utility.yul\":3840:3867   */\n      slt\n        /* \"#utility.yul\":3830:3952   */\n      tag_103\n      jumpi\n        /* \"#utility.yul\":3871:3950   */\n      tag_104\n      tag_32\n      jump\t// in\n    tag_104:\n        /* \"#utility.yul\":3830:3952   */\n    tag_103:\n        /* \"#utility.yul\":3988:3994   */\n      dup2\n        /* \"#utility.yul\":3975:3995   */\n      calldataload\n        /* \"#utility.yul\":4013:4092   */\n      tag_105\n        /* \"#utility.yul\":4088:4091   */\n      dup5\n        /* \"#utility.yul\":4080:4086   */\n      dup3\n        /* \"#utility.yul\":4073:4077   */\n      0x20\n        /* \"#utility.yul\":4065:4071   */\n      dup7\n        /* \"#utility.yul\":4061:4078   */\n      add\n        /* \"#utility.yul\":4013:4092   */\n      tag_39\n      jump\t// in\n    tag_105:\n        /* \"#utility.yul\":4004:4092   */\n      swap2\n      pop\n        /* \"#utility.yul\":3820:4098   */\n      pop\n        /* \"#utility.yul\":3758:4098   */\n      swap3\n      swap2\n      pop\n      pop\n      jump\t// out\n        /* \"#utility.yul\":4104:4226   */\n    tag_41:\n        /* \"#utility.yul\":4177:4201   */\n      tag_107\n        /* \"#utility.yul\":4195:4200   */\n      dup2\n        /* \"#utility.yul\":4177:4201   */\n      tag_27\n      jump\t// in\n    tag_107:\n        /* \"#utility.yul\":4170:4175   */\n      dup2\n        /* \"#utility.yul\":4167:4202   */\n      eq\n        /* \"#utility.yul\":4157:4220   */\n      tag_108\n      jumpi\n        /* \"#utility.yul\":4216:4217   */\n      0x00\n        /* \"#utility.yul\":4213:4214   */\n      dup1\n        /* \"#utility.yul\":4206:4218   */\n      revert\n        /* \"#utility.yul\":4157:4220   */\n    tag_108:\n        /* \"#utility.yul\":4104:4226   */\n      pop\n      jump\t// out\n        /* \"#utility.yul\":4232:4371   */\n    tag_42:\n        /* \"#utility.yul\":4278:4283   */\n      0x00\n        /* \"#utility.yul\":4316:4322   */\n      dup2\n        /* \"#utility.yul\":4303:4323   */\n      calldataload\n        /* \"#utility.yul\":4294:4323   */\n      swap1\n      pop\n        /* \"#utility.yul\":4332:4365   */\n      tag_110\n        /* \"#utility.yul\":4359:4364   */\n      dup2\n        /* \"#utility.yul\":4332:4365   */\n      tag_41\n      jump\t// in\n    tag_110:\n        /* \"#utility.yul\":4232:4371   */\n      swap3\n      swap2\n      pop\n      pop\n      jump\t// out\n        /* \"#utility.yul\":4377:5031   */\n    tag_11:\n        /* \"#utility.yul\":4455:4461   */\n      0x00\n        /* \"#utility.yul\":4463:4469   */\n      dup1\n        /* \"#utility.yul\":4512:4514   */\n      0x40\n        /* \"#utility.yul\":4500:4509   */\n      dup4\n        /* \"#utility.yul\":4491:4498   */\n      dup6\n        /* \"#utility.yul\":4487:4510   */\n      sub\n        /* \"#utility.yul\":4483:4515   */\n      slt\n        /* \"#utility.yul\":4480:4599   */\n      iszero\n      tag_112\n      jumpi\n        /* \"#utility.yul\":4518:4597   */\n      tag_113\n      tag_30\n      jump\t// in\n    tag_113:\n        /* \"#utility.yul\":4480:4599   */\n    tag_112:\n        /* \"#utility.yul\":4666:4667   */\n      0x00\n        /* \"#utility.yul\":4655:4664   */\n      dup4\n        /* \"#utility.yul\":4651:4668   */\n      add\n        /* \"#utility.yul\":4638:4669   */\n      calldataload\n        /* \"#utility.yul\":4696:4714   */\n      0xffffffffffffffff\n        /* \"#utility.yul\":4688:4694   */\n      dup2\n        /* \"#utility.yul\":4685:4715   */\n      gt\n        /* \"#utility.yul\":4682:4799   */\n      iszero\n      tag_114\n      jumpi\n        /* \"#utility.yul\":4718:4797   */\n      tag_115\n      tag_31\n      jump\t// in\n    tag_115:\n        /* \"#utility.yul\":4682:4799   */\n    tag_114:\n        /* \"#utility.yul\":4823:4886   */\n      tag_116\n        /* \"#utility.yul\":4878:4885   */\n      dup6\n        /* \"#utility.yul\":4869:4875   */\n      dup3\n        /* \"#utility.yul\":4858:4867   */\n      dup7\n        /* \"#utility.yul\":4854:4876   */\n      add\n        /* \"#utility.yul\":4823:4886   */\n      tag_40\n      jump\t// in\n    tag_116:\n        /* \"#utility.yul\":4813:4886   */\n      swap3\n      pop\n        /* \"#utility.yul\":4609:4896   */\n      pop\n        /* \"#utility.yul\":4935:4937   */\n      0x20\n        /* \"#utility.yul\":4961:5014   */\n      tag_117\n        /* \"#utility.yul\":5006:5013   */\n      dup6\n        /* \"#utility.yul\":4997:5003   */\n      dup3\n        /* \"#utility.yul\":4986:4995   */\n      dup7\n        /* \"#utility.yul\":4982:5004   */\n      add\n        /* \"#utility.yul\":4961:5014   */\n      tag_42\n      jump\t// in\n    tag_117:\n        /* \"#utility.yul\":4951:5014   */\n      swap2\n      pop\n        /* \"#utility.yul\":4906:5024   */\n      pop\n        /* \"#utility.yul\":4377:5031   */\n      swap3\n      pop\n      swap3\n      swap1\n      pop\n      jump\t// out\n        /* \"#utility.yul\":5037:5217   */\n    tag_43:\n        /* \"#utility.yul\":5085:5162   */\n      0x4e487b7100000000000000000000000000000000000000000000000000000000\n        /* \"#utility.yul\":5082:5083   */\n      0x00\n        /* \"#utility.yul\":5075:5163   */\n      mstore\n        /* \"#utility.yul\":5182:5186   */\n      0x22\n        /* \"#utility.yul\":5179:5180   */\n      0x04\n        /* \"#utility.yul\":5172:5187   */\n      mstore\n        /* \"#utility.yul\":5206:5210   */\n      0x24\n        /* \"#utility.yul\":5203:5204   */\n      0x00\n        /* \"#utility.yul\":5196:5211   */\n      revert\n        /* \"#utility.yul\":5223:5543   */\n    tag_14:\n        /* \"#utility.yul\":5267:5273   */\n      0x00\n        /* \"#utility.yul\":5304:5305   */\n      0x02\n        /* \"#utility.yul\":5298:5302   */\n      dup3\n        /* \"#utility.yul\":5294:5306   */\n      div\n        /* \"#utility.yul\":5284:5306   */\n      swap1\n      pop\n        /* \"#utility.yul\":5351:5352   */\n      0x01\n        /* \"#utility.yul\":5345:5349   */\n      dup3\n        /* \"#utility.yul\":5341:5353   */\n      and\n        /* \"#utility.yul\":5372:5390   */\n      dup1\n        /* \"#utility.yul\":5362:5443   */\n      tag_120\n      jumpi\n        /* \"#utility.yul\":5428:5432   */\n      0x7f\n        /* \"#utility.yul\":5420:5426   */\n      dup3\n        /* \"#utility.yul\":5416:5433   */\n      and\n        /* \"#utility.yul\":5406:5433   */\n      swap2\n      pop\n        /* \"#utility.yul\":5362:5443   */\n    tag_120:\n        /* \"#utility.yul\":5490:5492   */\n      0x20\n        /* \"#utility.yul\":5482:5488   */\n      dup3\n        /* \"#utility.yul\":5479:5493   */\n      lt\n        /* \"#utility.yul\":5459:5477   */\n      dup2\n        /* \"#utility.yul\":5456:5494   */\n      sub\n        /* \"#utility.yul\":5453:5537   */\n      tag_121\n      jumpi\n        /* \"#utility.yul\":5509:5527   */\n      tag_122\n      tag_43\n      jump\t// in\n    tag_122:\n        /* \"#utility.yul\":5453:5537   */\n    tag_121:\n        /* \"#utility.yul\":5274:5543   */\n      pop\n        /* \"#utility.yul\":5223:5543   */\n      swap2\n      swap1\n      pop\n      jump\t// out\n        /* \"#utility.yul\":5549:5690   */\n    tag_44:\n        /* \"#utility.yul\":5598:5602   */\n      0x00\n        /* \"#utility.yul\":5621:5624   */\n      dup2\n        /* \"#utility.yul\":5613:5624   */\n      swap1\n      pop\n        /* \"#utility.yul\":5644:5647   */\n      dup2\n        /* \"#utility.yul\":5641:5642   */\n      0x00\n        /* \"#utility.yul\":5634:5648   */\n      mstore\n        /* \"#utility.yul\":5678:5682   */\n      0x20\n        /* \"#utility.yul\":5675:5676   */\n      0x00\n        /* \"#utility.yul\":5665:5683   */\n      keccak256\n        /* \"#utility.yul\":5657:5683   */\n      swap1\n      pop\n        /* \"#utility.yul\":5549:5690   */\n      swap2\n      swap1\n      pop\n      jump\t// out\n        /* \"#utility.yul\":5696:5789   */\n    tag_45:\n        /* \"#utility.yul\":5733:5739   */\n      0x00\n        /* \"#utility.yul\":5780:5782   */\n      0x20\n        /* \"#utility.yul\":5775:5777   */\n      0x1f\n        /* \"#utility.yul\":5768:5773   */\n      dup4\n        /* \"#utility.yul\":5764:5778   */\n      add\n        /* \"#utility.yul\":5760:5783   */\n      div\n        /* \"#utility.yul\":5750:5783   */\n      swap1\n      pop\n        /* \"#utility.yul\":5696:5789   */\n      swap2\n      swap1\n      pop\n      jump\t// out\n        /* \"#utility.yul\":5795:5902   */\n    tag_46:\n        /* \"#utility.yul\":5839:5847   */\n      0x00\n        /* \"#utility.yul\":5889:5894   */\n      dup3\n        /* \"#utility.yul\":5883:5887   */\n      dup3\n        /* \"#utility.yul\":5879:5895   */\n      shl\n        /* \"#utility.yul\":5858:5895   */\n      swap1\n      pop\n        /* \"#utility.yul\":5795:5902   */\n      swap3\n      swap2\n      pop\n      pop\n      jump\t// out\n        /* \"#utility.yul\":5908:6301   */\n    tag_47:\n        /* \"#utility.yul\":5977:5983   */\n      0x00\n        /* \"#utility.yul\":6027:6028   */\n      0x08\n        /* \"#utility.yul\":6015:6025   */\n      dup4\n        /* \"#utility.yul\":6011:6029   */\n      mul\n        /* \"#utility.yul\":6050:6147   */\n      tag_127\n        /* \"#utility.yul\":6080:6146   */\n      0xffffffffffffffffffffffffffffffffffffffffffffffffffffffffffffffff\n        /* \"#utility.yul\":6069:6078   */\n      dup3\n        /* \"#utility.yul\":6050:6147   */\n      tag_46\n      jump\t// in\n    tag_127:\n        /* \"#utility.yul\":6168:6207   */\n      tag_128\n        /* \"#utility.yul\":6198:6206   */\n      dup7\n        /* \"#utility.yul\":6187:6196   */\n      dup4\n        /* \"#utility.yul\":6168:6207   */\n      tag_46\n      jump\t// in\n    tag_128:\n        /* \"#utility.yul\":6156:6207   */\n      swap6\n      pop\n        /* \"#utility.yul\":6240:6244   */\n      dup1\n        /* \"#utility.yul\":6236:6245   */\n      not\n        /* \"#utility.yul\":6229:6234   */\n      dup5\n        /* \"#utility.yul\":6225:6246   */\n      and\n        /* \"#utility.yul\":6216:6246   */\n      swap4\n      pop\n        /* \"#utility.yul\":6289:6293   */\n      dup1\n        /* \"#utility.yul\":6279:6287   */\n      dup7\n        /* \"#utility.yul\":6275:6294   */\n      and\n        /* \"#utility.yul\":6268:6273   */\n      dup5\n        /* \"#utility.yul\":6265:6295   */\n      or\n        /* \"#utility.yul\":6255:6295   */\n      swap3\n      pop\n        /* \"#utility.yul\":5984:6301   */\n      pop\n      pop\n        /* \"#utility.yul\":5908:6301   */\n      swap4\n      swap3\n      pop\n      pop\n      pop\n      jump\t// out\n        /* \"#utility.yul\":6307:6367   */\n    tag_48:\n        /* \"#utility.yul\":6335:6338   */\n      0x00\n        /* \"#utility.yul\":6356:6361   */\n      dup2\n        /* \"#utility.yul\":6349:6361   */\n      swap1\n      pop\n        /* \"#utility.yul\":6307:6367   */\n      swap2\n      swap1\n      pop\n      jump\t// out\n        /* \"#utility.yul\":6373:6515   */\n    tag_49:\n        /* \"#utility.yul\":6423:6432   */\n      0x00\n        /* \"#utility.yul\":6456:6509   */\n      tag_131\n        /* \"#utility.yul\":6474:6508   */\n      tag_132\n        /* \"#utility.yul\":6483:6507   */\n      tag_133\n        /* \"#utility.yul\":6501:6506   */\n      dup5\n        /* \"#utility.yul\":6483:6507   */\n      tag_27\n      jump\t// in\n    tag_133:\n        /* \"#utility.yul\":6474:6508   */\n      tag_48\n      jump\t// in\n    tag_132:\n        /* \"#utility.yul\":6456:6509   */\n      tag_27\n      jump\t// in\n    tag_131:\n        /* \"#utility.yul\":6443:6509   */\n      swap1\n      pop\n        /* \"#utility.yul\":6373:6515   */\n      swap2\n      swap1\n      pop\n      jump\t// out\n        /* \"#utility.yul\":6521:6596   */\n    tag_50:\n        /* \"#utility.yul\":6564:6567   */\n      0x00\n        /* \"#utility.yul\":6585:6590   */\n      dup2\n        /* \"#utility.yul\":6578:6590   */\n      swap1\n      pop\n        /* \"#utility.yul\":6521:6596   */\n      swap2\n      swap1\n      pop\n      jump\t// out\n        /* \"#utility.yul\":6602:6871   */\n    tag_51:\n        /* \"#utility.yul\":6712:6751   */\n      tag_136\n        /* \"#utility.yul\":6743:6750   */\n      dup4\n        /* \"#utility.yul\":6712:6751   */\n      tag_49\n      jump\t// in\n    tag_136:\n        /* \"#utility.yul\":6773:6864   */\n      tag_137\n        /* \"#utility.yul\":6822:6863   */\n      tag_138\n        /* \"#utility.yul\":6846:6862   */\n      dup3\n        /* \"#utility.yul\":6822:6863   */\n      tag_50\n      jump\t// in\n    tag_138:\n        /* \"#utility.yul\":6814:6820   */\n      dup5\n        /* \"#utility.yul\":6807:6811   */\n      dup5\n        /* \"#utility.yul\":6801:6812   */\n      sload\n        /* \"#utility.yul\":6773:6864   */\n      tag_47\n      jump\t// in\n    tag_137:\n        /* \"#utility.yul\":6767:6771   */\n      dup3\n        /* \"#utility.yul\":6760:6865   */\n      sstore\n        /* \"#utility.yul\":6678:6871   */\n      pop\n        /* \"#utility.yul\":6602:6871   */\n      pop\n      pop\n      pop\n      jump\t// out\n        /* \"#utility.yul\":6877:6950   */\n    tag_52:\n        /* \"#utility.yul\":6922:6925   */\n      0x00\n        /* \"#utility.yul\":6877:6950   */\n      swap1\n      jump\t// out\n        /* \"#utility.yul\":6956:7145   */\n    tag_53:\n        /* \"#utility.yul\":7033:7065   */\n      tag_141\n      tag_52\n      jump\t// in\n    tag_141:\n        /* \"#utility.yul\":7074:7139   */\n      tag_142\n        /* \"#utility.yul\":7132:7138   */\n      dup2\n        /* \"#utility.yul\":7124:7130   */\n      dup5\n        /* \"#utility.yul\":7118:7122   */\n      dup5\n        /* \"#utility.yul\":7074:7139   */\n      tag_51\n      jump\t// in\n    tag_142:\n        /* \"#utility.yul\":7009:7145   */\n      pop\n        /* \"#utility.yul\":6956:7145   */\n      pop\n      pop\n      jump\t// out\n        /* \"#utility.yul\":7151:7337   */\n    tag_54:\n        /* \"#utility.yul\":7211:7331   */\n    tag_144:\n        /* \"#utility.yul\":7228:7231   */\n      dup2\n        /* \"#utility.yul\":7221:7226   */\n      dup2\n        /* \"#utility.yul\":7218:7232   */\n      lt\n        /* \"#utility.yul\":7211:7331   */\n      iszero\n      tag_146\n      jumpi\n        /* \"#utility.yul\":7282:7321   */\n      tag_147\n        /* \"#utility.yul\":7319:7320   */\n      0x00\n        /* \"#utility.yul\":7312:7317   */\n      dup3\n        /* \"#utility.yul\":7282:7321   */\n      tag_53\n      jump\t// in\n    tag_147:\n        /* \"#utility.yul\":7255:7256   */\n      0x01\n        /* \"#utility.yul\":7248:7253   */\n      dup2\n        /* \"#utility.yul\":7244:7257   */\n      add\n        /* \"#utility.yul\":7235:7257   */\n      swap1\n      pop\n        /* \"#utility.yul\":7211:7331   */\n      jump(tag_144)\n    tag_146:\n        /* \"#utility.yul\":7151:7337   */\n      pop\n      pop\n      jump\t// out\n        /* \"#utility.yul\":7343:7886   */\n    tag_55:\n        /* \"#utility.yul\":7444:7446   */\n      0x1f\n        /* \"#utility.yul\":7439:7442   */\n      dup3\n        /* \"#utility.yul\":7436:7447   */\n      gt\n        /* \"#utility.yul\":7433:7879   */\n      iszero\n      tag_149\n      jumpi\n        /* \"#utility.yul\":7478:7516   */\n      tag_150\n        /* \"#utility.yul\":7510:7515   */\n      dup2\n        /* \"#utility.yul\":7478:7516   */\n      tag_44\n      jump\t// in\n    tag_150:\n        /* \"#utility.yul\":7562:7591   */\n      tag_151\n        /* \"#utility.yul\":7580:7590   */\n      dup5\n        /* \"#utility.yul\":7562:7591   */\n      tag_45\n      jump\t// in\n    tag_151:\n        /* \"#utility.yul\":7552:7560   */\n      dup2\n        /* \"#utility.yul\":7548:7592   */\n      add\n        /* \"#utility.yul\":7745:7747   */\n      0x20\n        /* \"#utility.yul\":7733:7743   */\n      dup6\n        /* \"#utility.yul\":7730:7748   */\n      lt\n        /* \"#utility.yul\":7727:7776   */\n      iszero\n      tag_152\n      jumpi\n        /* \"#utility.yul\":7766:7774   */\n      dup2\n        /* \"#utility.yul\":7751:7774   */\n      swap1\n      pop\n        /* \"#utility.yul\":7727:7776   */\n    tag_152:\n        /* \"#utility.yul\":7789:7869   */\n      tag_153\n        /* \"#utility.yul\":7845:7867   */\n      tag_154\n        /* \"#utility.yul\":7863:7866   */\n      dup6\n        /* \"#utility.yul\":7845:7867   */\n      tag_45\n      jump\t// in\n    tag_154:\n        /* \"#utility.yul\":7835:7843   */\n      dup4\n        /* \"#utility.yul\":7831:7868   */\n      add\n        /* \"#utility.yul\":7818:7829   */\n      dup3\n        /* \"#utility.yul\":7789:7869   */\n      tag_54\n      jump\t// in\n    tag_153:\n        /* \"#utility.yul\":7448:7879   */\n      pop\n      pop\n        /* \"#utility.yul\":7433:7879   */\n    tag_149:\n        /* \"#utility.yul\":7343:7886   */\n      pop\n      pop\n      pop\n      jump\t// out\n        /* \"#utility.yul\":7892:8009   */\n    tag_56:\n        /* \"#utility.yul\":7946:7954   */\n      0x00\n        /* \"#utility.yul\":7996:8001   */\n      dup3\n        /* \"#utility.yul\":7990:7994   */\n      dup3\n        /* \"#utility.yul\":7986:8002   */\n      shr\n        /* \"#utility.yul\":7965:8002   */\n      swap1\n      pop\n        /* \"#utility.yul\":7892:8009   */\n      swap3\n      swap2\n      pop\n      pop\n      jump\t// out\n        /* \"#utility.yul\":8015:8184   */\n    tag_57:\n        /* \"#utility.yul\":8059:8065   */\n      0x00\n        /* \"#utility.yul\":8092:8143   */\n      tag_157\n        /* \"#utility.yul\":8140:8141   */\n      0x00\n        /* \"#utility.yul\":8136:8142   */\n      not\n        /* \"#utility.yul\":8128:8133   */\n      dup5\n        /* \"#utility.yul\":8125:8126   */\n      0x08\n        /* \"#utility.yul\":8121:8134   */\n      mul\n        /* \"#utility.yul\":8092:8143   */\n      tag_56\n      jump\t// in\n    tag_157:\n        /* \"#utility.yul\":8088:8144   */\n      not\n        /* \"#utility.yul\":8173:8177   */\n      dup1\n        /* \"#utility.yul\":8167:8171   */\n      dup4\n        /* \"#utility.yul\":8163:8178   */\n      and\n        /* \"#utility.yul\":8153:8178   */\n      swap2\n      pop\n        /* \"#utility.yul\":8066:8184   */\n      pop\n        /* \"#utility.yul\":8015:8184   */\n      swap3\n      swap2\n      pop\n      pop\n      jump\t// out\n        /* \"#utility.yul\":8189:8484   */\n    tag_58:\n        /* \"#utility.yul\":8265:8269   */\n      0x00\n        /* \"#utility.yul\":8411:8440   */\n      tag_159\n        /* \"#utility.yul\":8436:8439   */\n      dup4\n        /* \"#utility.yul\":8430:8434   */\n      dup4\n        /* \"#utility.yul\":8411:8440   */\n      tag_57\n      jump\t// in\n    tag_159:\n        /* \"#utility.yul\":8403:8440   */\n      swap2\n      pop\n        /* \"#utility.yul\":8473:8476   */\n      dup3\n        /* \"#utility.yul\":8470:8471   */\n      0x02\n        /* \"#utility.yul\":8466:8477   */\n      mul\n        /* \"#utility.yul\":8460:8464   */\n      dup3\n        /* \"#utility.yul\":8457:8478   */\n      or\n        /* \"#utility.yul\":8449:8478   */\n      swap1\n      pop\n        /* \"#utility.yul\":8189:8484   */\n      swap3\n      swap2\n      pop\n      pop\n      jump\t// out\n        /* \"#utility.yul\":8489:9884   */\n    tag_21:\n        /* \"#utility.yul\":8606:8643   */\n      tag_161\n        /* \"#utility.yul\":8639:8642   */\n      dup3\n        /* \"#utility.yul\":8606:8643   */\n      tag_22\n      jump\t// in\n    tag_161:\n        /* \"#utility.yul\":8708:8726   */\n      0xffffffffffffffff\n        /* \"#utility.yul\":8700:8706   */\n      dup2\n        /* \"#utility.yul\":8697:8727   */\n      gt\n        /* \"#utility.yul\":8694:8750   */\n      iszero\n      tag_162\n      jumpi\n        /* \"#utility.yul\":8730:8748   */\n      tag_163\n      tag_34\n      jump\t// in\n    tag_163:\n        /* \"#utility.yul\":8694:8750   */\n    tag_162:\n        /* \"#utility.yul\":8774:8812   */\n      tag_164\n        /* \"#utility.yul\":8806:8810   */\n      dup3\n        /* \"#utility.yul\":8800:8811   */\n      sload\n        /* \"#utility.yul\":8774:8812   */\n      tag_14\n      jump\t// in\n    tag_164:\n        /* \"#utility.yul\":8859:8926   */\n      tag_165\n        /* \"#utility.yul\":8919:8925   */\n      dup3\n        /* \"#utility.yul\":8911:8917   */\n      dup3\n        /* \"#utility.yul\":8905:8909   */\n      dup6\n        /* \"#utility.yul\":8859:8926   */\n      tag_55\n      jump\t// in\n    tag_165:\n        /* \"#utility.yul\":8953:8954   */\n      0x00\n        /* \"#utility.yul\":8977:8981   */\n      0x20\n        /* \"#utility.yul\":8964:8981   */\n      swap1\n      pop\n        /* \"#utility.yul\":9009:9011   */\n      0x1f\n        /* \"#utility.yul\":9001:9007   */\n      dup4\n        /* \"#utility.yul\":8998:9012   */\n      gt\n        /* \"#utility.yul\":9026:9027   */\n      0x01\n        /* \"#utility.yul\":9021:9639   */\n      dup2\n      eq\n      tag_167\n      jumpi\n        /* \"#utility.yul\":9683:9684   */\n      0x00\n        /* \"#utility.yul\":9700:9706   */\n      dup5\n        /* \"#utility.yul\":9697:9774   */\n      iszero\n      tag_168\n      jumpi\n        /* \"#utility.yul\":9749:9758   */\n      dup3\n        /* \"#utility.yul\":9744:9747   */\n      dup8\n        /* \"#utility.yul\":9740:9759   */\n      add\n        /* \"#utility.yul\":9734:9760   */\n      mload\n        /* \"#utility.yul\":9725:9760   */\n      swap1\n      pop\n        /* \"#utility.yul\":9697:9774   */\n    tag_168:\n        /* \"#utility.yul\":9800:9867   */\n      tag_169\n        /* \"#utility.yul\":9860:9866   */\n      dup6\n        /* \"#utility.yul\":9853:9858   */\n      dup3\n        /* \"#utility.yul\":9800:9867   */\n      tag_58\n      jump\t// in\n    tag_169:\n        /* \"#utility.yul\":9794:9798   */\n      dup7\n        /* \"#utility.yul\":9787:9868   */\n      sstore\n        /* \"#utility.yul\":9656:9878   */\n      pop\n        /* \"#utility.yul\":8991:9878   */\n      jump(tag_166)\n        /* \"#utility.yul\":9021:9639   */\n    tag_167:\n        /* \"#utility.yul\":9073:9077   */\n      0x1f\n        /* \"#utility.yul\":9069:9078   */\n      not\n        /* \"#utility.yul\":9061:9067   */\n      dup5\n        /* \"#utility.yul\":9057:9079   */\n      and\n        /* \"#utility.yul\":9107:9144   */\n      tag_170\n        /* \"#utility.yul\":9139:9143   */\n      dup7\n        /* \"#utility.yul\":9107:9144   */\n      tag_44\n      jump\t// in\n    tag_170:\n        /* \"#utility.yul\":9166:9167   */\n      0x00\n        /* \"#utility.yul\":9180:9388   */\n    tag_171:\n        /* \"#utility.yul\":9194:9201   */\n      dup3\n        /* \"#utility.yul\":9191:9192   */\n      dup2\n        /* \"#utility.yul\":9188:9202   */\n      lt\n        /* \"#utility.yul\":9180:9388   */\n      iszero\n      tag_173\n      jumpi\n        /* \"#utility.yul\":9273:9282   */\n      dup5\n        /* \"#utility.yul\":9268:9271   */\n      dup10\n        /* \"#utility.yul\":9264:9283   */\n      add\n        /* \"#utility.yul\":9258:9284   */\n      mload\n        /* \"#utility.yul\":9250:9256   */\n      dup3\n        /* \"#utility.yul\":9243:9285   */\n      sstore\n        /* \"#utility.yul\":9324:9325   */\n      0x01\n        /* \"#utility.yul\":9316:9322   */\n      dup3\n        /* \"#utility.yul\":9312:9326   */\n      add\n        /* \"#utility.yul\":9302:9326   */\n      swap2\n      pop\n        /* \"#utility.yul\":9371:9373   */\n      0x20\n        /* \"#utility.yul\":9360:9369   */\n      dup6\n        /* \"#utility.yul\":9356:9374   */\n      add\n        /* \"#utility.yul\":9343:9374   */\n      swap5\n      pop\n        /* \"#utility.yul\":9217:9221   */\n      0x20\n        /* \"#utility.yul\":9214:9215   */\n      dup2\n        /* \"#utility.yul\":9210:9222   */\n      add\n        /* \"#utility.yul\":9205:9222   */\n      swap1\n      pop\n        /* \"#utility.yul\":9180:9388   */\n      jump(tag_171)\n    tag_173:\n        /* \"#utility.yul\":9416:9422   */\n      dup7\n        /* \"#utility.yul\":9407:9414   */\n      dup4\n        /* \"#utility.yul\":9404:9423   */\n      lt\n        /* \"#utility.yul\":9401:9580   */\n      iszero\n      tag_174\n      jumpi\n        /* \"#utility.yul\":9474:9483   */\n      dup5\n        /* \"#utility.yul\":9469:9472   */\n      dup10\n        /* \"#utility.yul\":9465:9484   */\n      add\n        /* \"#utility.yul\":9459:9485   */\n      mload\n        /* \"#utility.yul\":9517:9565   */\n      tag_175\n        /* \"#utility.yul\":9559:9563   */\n      0x1f\n        /* \"#utility.yul\":9551:9557   */\n      dup10\n        /* \"#utility.yul\":9547:9564   */\n      and\n        /* \"#utility.yul\":9536:9545   */\n      dup3\n        /* \"#utility.yul\":9517:9565   */\n      tag_57\n      jump\t// in\n    tag_175:\n        /* \"#utility.yul\":9509:9515   */\n      dup4\n        /* \"#utility.yul\":9502:9566   */\n      sstore\n        /* \"#utility.yul\":9424:9580   */\n      pop\n        /* \"#utility.yul\":9401:9580   */\n    tag_174:\n        /* \"#utility.yul\":9626:9627   */\n      0x01\n        /* \"#utility.yul\":9622:9623   */\n      0x02\n        /* \"#utility.yul\":9614:9620   */\n      dup9\n        /* \"#utility.yul\":9610:9624   */\n      mul\n        /* \"#utility.yul\":9606:9628   */\n      add\n        /* \"#utility.yul\":9600:9604   */\n      dup9\n        /* \"#utility.yul\":9593:9629   */\n      sstore\n        /* \"#utility.yul\":9028:9639   */\n      pop\n      pop\n      pop\n        /* \"#utility.yul\":8991:9878   */\n    tag_166:\n      pop\n        /* \"#utility.yul\":8581:9884   */\n      pop\n      pop\n      pop\n        /* \"#utility.yul\":8489:9884   */\n      pop\n      pop\n      jump\t// out\n\n    auxdata: 0xa2646970667358221220ed0a6fe0ce505b0c1b76969dcedda618b7d8160f9753ef9b3ce43479bc635ee664736f6c63430008120033\n}\n",
				"bytecode": {
					"linkReferences": {},
					"object": "608060405234801561001057600080fd5b5061070b806100206000396000f3fe608060405234801561001057600080fd5b50600436106100365760003560e01c806377ec2b551461003b578063c8218e541461005a575b600080fd5b610043610076565b6040516100519291906101f6565b60405180910390f35b610074600480360381019061006f919061039b565b610110565b005b600080600001805461008790610426565b80601f01602080910402602001604051908101604052809291908181526020018280546100b390610426565b80156101005780601f106100d557610100808354040283529160200191610100565b820191906000526020600020905b8154815290600101906020018083116100e357829003601f168201915b5050505050908060010154905082565b60405180604001604052808381526020018281525060008082015181600001908161013b9190610603565b50602082015181600101559050505050565b600081519050919050565b600082825260208201905092915050565b60005b8381101561018757808201518184015260208101905061016c565b60008484015250505050565b6000601f19601f8301169050919050565b60006101af8261014d565b6101b98185610158565b93506101c9818560208601610169565b6101d281610193565b840191505092915050565b6000819050919050565b6101f0816101dd565b82525050565b6000604082019050818103600083015261021081856101a4565b905061021f60208301846101e7565b9392505050565b6000604051905090565b600080fd5b600080fd5b600080fd5b600080fd5b7f4e487b7100000000000000000000000000000000000000000000000000000000600052604160045260246000fd5b61027c82610193565b810181811067ffffffffffffffff8211171561029b5761029a610244565b5b80604052505050565b60006102ae610226565b90506102ba8282610273565b919050565b600067ffffffffffffffff8211156102da576102d9610244565b5b6102e382610193565b9050602081019050919050565b82818337600083830152505050565b600061031261030d846102bf565b6102a4565b90508281526020810184848401111561032e5761032d61023f565b5b6103398482856102f0565b509392505050565b600082601f8301126103565761035561023a565b5b81356103668482602086016102ff565b91505092915050565b610378816101dd565b811461038357600080fd5b50565b6000813590506103958161036f565b92915050565b600080604083850312156103b2576103b1610230565b5b600083013567ffffffffffffffff8111156103d0576103cf610235565b5b6103dc85828601610341565b92505060206103ed85828601610386565b9150509250929050565b7f4e487b7100000000000000000000000000000000000000000000000000000000600052602260045260246000fd5b6000600282049050600182168061043e57607f821691505b602082108103610451576104506103f7565b5b50919050565b60008190508160005260206000209050919050565b60006020601f8301049050919050565b600082821b905092915050565b6000600883026104b97fffffffffffffffffffffffffffffffffffffffffffffffffffffffffffffffff8261047c565b6104c3868361047c565b95508019841693508086168417925050509392505050565b6000819050919050565b60006105006104fb6104f6846101dd565b6104db565b6101dd565b9050919050565b6000819050919050565b61051a836104e5565b61052e61052682610507565b848454610489565b825550505050565b600090565b610543610536565b61054e818484610511565b505050565b5b818110156105725761056760008261053b565b600181019050610554565b5050565b601f8211156105b75761058881610457565b6105918461046c565b810160208510156105a0578190505b6105b46105ac8561046c565b830182610553565b50505b505050565b600082821c905092915050565b60006105da600019846008026105bc565b1980831691505092915050565b60006105f383836105c9565b9150826002028217905092915050565b61060c8261014d565b67ffffffffffffffff81111561062557610624610244565b5b61062f8254610426565b61063a828285610576565b600060209050601f83116001811461066d576000841561065b578287015190505b61066585826105e7565b8655506106cd565b601f19841661067b86610457565b60005b828110156106a35784890151825560018201915060208501945060208101905061067e565b868310156106c057848901516106bc601f8916826105c9565b8355505b6001600288020188555050505b50505050505056fea2646970667358221220ed0a6fe0ce505b0c1b76969dcedda618b7d8160f9753ef9b3ce43479bc635ee664736f6c63430008120033",
					"opcodes": "PUSH1 0x80 PUSH1 0x40 MSTORE CALLVALUE DUP1 ISZERO PUSH2 0x10 JUMPI PUSH1 0x0 DUP1 REVERT JUMPDEST POP PUSH2 0x70B DUP1 PUSH2 0x20 PUSH1 0x0 CODECOPY PUSH1 0x0 RETURN INVALID PUSH1 0x80 PUSH1 0x40 MSTORE CALLVALUE DUP1 ISZERO PUSH2 0x10 JUMPI PUSH1 0x0 DUP1 REVERT JUMPDEST POP PUSH1 0x4 CALLDATASIZE LT PUSH2 0x36 JUMPI PUSH1 0x0 CALLDATALOAD PUSH1 0xE0 SHR DUP1 PUSH4 0x77EC2B55 EQ PUSH2 0x3B JUMPI DUP1 PUSH4 0xC8218E54 EQ PUSH2 0x5A JUMPI JUMPDEST PUSH1 0x0 DUP1 REVERT JUMPDEST PUSH2 0x43 PUSH2 0x76 JUMP JUMPDEST PUSH1 0x40 MLOAD PUSH2 0x51 SWAP3 SWAP2 SWAP1 PUSH2 0x1F6 JUMP JUMPDEST PUSH1 0x40 MLOAD DUP1 SWAP2 SUB SWAP1 RETURN JUMPDEST PUSH2 0x74 PUSH1 0x4 DUP1 CALLDATASIZE SUB DUP2 ADD SWAP1 PUSH2 0x6F SWAP2 SWAP1 PUSH2 0x39B JUMP JUMPDEST PUSH2 0x110 JUMP JUMPDEST STOP JUMPDEST PUSH1 0x0 DUP1 PUSH1 0x0 ADD DUP1 SLOAD PUSH2 0x87 SWAP1 PUSH2 0x426 JUMP JUMPDEST DUP1 PUSH1 0x1F ADD PUSH1 0x20 DUP1 SWAP2 DIV MUL PUSH1 0x20 ADD PUSH1 0x40 MLOAD SWAP1 DUP2 ADD PUSH1 0x40 MSTORE DUP1 SWAP3 SWAP2 SWAP1 DUP2 DUP2 MSTORE PUSH1 0x20 ADD DUP3 DUP1 SLOAD PUSH2 0xB3 SWAP1 PUSH2 0x426 JUMP JUMPDEST DUP1 ISZERO PUSH2 0x100 JUMPI DUP1 PUSH1 0x1F LT PUSH2 0xD5 JUMPI PUSH2 0x100 DUP1 DUP4 SLOAD DIV MUL DUP4 MSTORE SWAP2 PUSH1 0x20 ADD SWAP2 PUSH2 0x100 JUMP JUMPDEST DUP3 ADD SWAP2 SWAP1 PUSH1 0x0 MSTORE PUSH1 0x20 PUSH1 0x0 KECCAK256 SWAP1 JUMPDEST DUP2 SLOAD DUP2 MSTORE SWAP1 PUSH1 0x1 ADD SWAP1 PUSH1 0x20 ADD DUP1 DUP4 GT PUSH2 0xE3 JUMPI DUP3 SWAP1 SUB PUSH1 0x1F AND DUP3 ADD SWAP2 JUMPDEST POP POP POP POP POP SWAP1 DUP1 PUSH1 0x1 ADD SLOAD SWAP1 POP DUP3 JUMP JUMPDEST PUSH1 0x40 MLOAD DUP1 PUSH1 0x40 ADD PUSH1 0x40 MSTORE DUP1 DUP4 DUP2 MSTORE PUSH1 0x20 ADD DUP3 DUP2 MSTORE POP PUSH1 0x0 DUP1 DUP3 ADD MLOAD DUP2 PUSH1 0x0 ADD SWAP1 DUP2 PUSH2 0x13B SWAP2 SWAP1 PUSH2 0x603 JUMP JUMPDEST POP PUSH1 0x20 DUP3 ADD MLOAD DUP2 PUSH1 0x1 ADD SSTORE SWAP1 POP POP POP POP JUMP JUMPDEST PUSH1 0x0 DUP2 MLOAD SWAP1 POP SWAP2 SWAP1 POP JUMP JUMPDEST PUSH1 0x0 DUP3 DUP3 MSTORE PUSH1 0x20 DUP3 ADD SWAP1 POP SWAP3 SWAP2 POP POP JUMP JUMPDEST PUSH1 0x0 JUMPDEST DUP4 DUP2 LT ISZERO PUSH2 0x187 JUMPI DUP1 DUP3 ADD MLOAD DUP2 DUP5 ADD MSTORE PUSH1 0x20 DUP2 ADD SWAP1 POP PUSH2 0x16C JUMP JUMPDEST PUSH1 0x0 DUP5 DUP5 ADD MSTORE POP POP POP POP JUMP JUMPDEST PUSH1 0x0 PUSH1 0x1F NOT PUSH1 0x1F DUP4 ADD AND SWAP1 POP SWAP2 SWAP1 POP JUMP JUMPDEST PUSH1 0x0 PUSH2 0x1AF DUP3 PUSH2 0x14D JUMP JUMPDEST PUSH2 0x1B9 DUP2 DUP6 PUSH2 0x158 JUMP JUMPDEST SWAP4 POP PUSH2 0x1C9 DUP2 DUP6 PUSH1 0x20 DUP7 ADD PUSH2 0x169 JUMP JUMPDEST PUSH2 0x1D2 DUP2 PUSH2 0x193 JUMP JUMPDEST DUP5 ADD SWAP2 POP POP SWAP3 SWAP2 POP POP JUMP JUMPDEST PUSH1 0x0 DUP2 SWAP1 POP SWAP2 SWAP1 POP JUMP JUMPDEST PUSH2 0x1F0 DUP2 PUSH2 0x1DD JUMP JUMPDEST DUP3 MSTORE POP POP JUMP JUMPDEST PUSH1 0x0 PUSH1 0x40 DUP3 ADD SWAP1 POP DUP2 DUP2 SUB PUSH1 0x0 DUP4 ADD MSTORE PUSH2 0x210 DUP2 DUP6 PUSH2 0x1A4 JUMP JUMPDEST SWAP1 POP PUSH2 0x21F PUSH1 0x20 DUP4 ADD DUP5 PUSH2 0x1E7 JUMP JUMPDEST SWAP4 SWAP3 POP POP POP JUMP JUMPDEST PUSH1 0x0 PUSH1 0x40 MLOAD SWAP1 POP SWAP1 JUMP JUMPDEST PUSH1 0x0 DUP1 REVERT JUMPDEST PUSH1 0x0 DUP1 REVERT JUMPDEST PUSH1 0x0 DUP1 REVERT JUMPDEST PUSH1 0x0 DUP1 REVERT JUMPDEST PUSH32 0x4E487B7100000000000000000000000000000000000000000000000000000000 PUSH1 0x0 MSTORE PUSH1 0x41 PUSH1 0x4 MSTORE PUSH1 0x24 PUSH1 0x0 REVERT JUMPDEST PUSH2 0x27C DUP3 PUSH2 0x193 JUMP JUMPDEST DUP2 ADD DUP2 DUP2 LT PUSH8 0xFFFFFFFFFFFFFFFF DUP3 GT OR ISZERO PUSH2 0x29B JUMPI PUSH2 0x29A PUSH2 0x244 JUMP JUMPDEST JUMPDEST DUP1 PUSH1 0x40 MSTORE POP POP POP JUMP JUMPDEST PUSH1 0x0 PUSH2 0x2AE PUSH2 0x226 JUMP JUMPDEST SWAP1 POP PUSH2 0x2BA DUP3 DUP3 PUSH2 0x273 JUMP JUMPDEST SWAP2 SWAP1 POP JUMP JUMPDEST PUSH1 0x0 PUSH8 0xFFFFFFFFFFFFFFFF DUP3 GT ISZERO PUSH2 0x2DA JUMPI PUSH2 0x2D9 PUSH2 0x244 JUMP JUMPDEST JUMPDEST PUSH2 0x2E3 DUP3 PUSH2 0x193 JUMP JUMPDEST SWAP1 POP PUSH1 0x20 DUP2 ADD SWAP1 POP SWAP2 SWAP1 POP JUMP JUMPDEST DUP3 DUP2 DUP4 CALLDATACOPY PUSH1 0x0 DUP4 DUP4 ADD MSTORE POP POP POP JUMP JUMPDEST PUSH1 0x0 PUSH2 0x312 PUSH2 0x30D DUP5 PUSH2 0x2BF JUMP JUMPDEST PUSH2 0x2A4 JUMP JUMPDEST SWAP1 POP DUP3 DUP2 MSTORE PUSH1 0x20 DUP2 ADD DUP5 DUP5 DUP5 ADD GT ISZERO PUSH2 0x32E JUMPI PUSH2 0x32D PUSH2 0x23F JUMP JUMPDEST JUMPDEST PUSH2 0x339 DUP5 DUP3 DUP6 PUSH2 0x2F0 JUMP JUMPDEST POP SWAP4 SWAP3 POP POP POP JUMP JUMPDEST PUSH1 0x0 DUP3 PUSH1 0x1F DUP4 ADD SLT PUSH2 0x356 JUMPI PUSH2 0x355 PUSH2 0x23A JUMP JUMPDEST JUMPDEST DUP2 CALLDATALOAD PUSH2 0x366 DUP5 DUP3 PUSH1 0x20 DUP7 ADD PUSH2 0x2FF JUMP JUMPDEST SWAP2 POP POP SWAP3 SWAP2 POP POP JUMP JUMPDEST PUSH2 0x378 DUP2 PUSH2 0x1DD JUMP JUMPDEST DUP2 EQ PUSH2 0x383 JUMPI PUSH1 0x0 DUP1 REVERT JUMPDEST POP JUMP JUMPDEST PUSH1 0x0 DUP2 CALLDATALOAD SWAP1 POP PUSH2 0x395 DUP2 PUSH2 0x36F JUMP JUMPDEST SWAP3 SWAP2 POP POP JUMP JUMPDEST PUSH1 0x0 DUP1 PUSH1 0x40 DUP4 DUP6 SUB SLT ISZERO PUSH2 0x3B2 JUMPI PUSH2 0x3B1 PUSH2 0x230 JUMP JUMPDEST JUMPDEST PUSH1 0x0 DUP4 ADD CALLDATALOAD PUSH8 0xFFFFFFFFFFFFFFFF DUP2 GT ISZERO PUSH2 0x3D0 JUMPI PUSH2 0x3CF PUSH2 0x235 JUMP JUMPDEST JUMPDEST PUSH2 0x3DC DUP6 DUP3 DUP7 ADD PUSH2 0x341 JUMP JUMPDEST SWAP3 POP POP PUSH1 0x20 PUSH2 0x3ED DUP6 DUP3 DUP7 ADD PUSH2 0x386 JUMP JUMPDEST SWAP2 POP POP SWAP3 POP SWAP3 SWAP1 POP JUMP JUMPDEST PUSH32 0x4E487B7100000000000000000000000000000000000000000000000000000000 PUSH1 0x0 MSTORE PUSH1 0x22 PUSH1 0x4 MSTORE PUSH1 0x24 PUSH1 0x0 REVERT JUMPDEST PUSH1 0x0 PUSH1 0x2 DUP3 DIV SWAP1 POP PUSH1 0x1 DUP3 AND DUP1 PUSH2 0x43E JUMPI PUSH1 0x7F DUP3 AND SWAP2 POP JUMPDEST PUSH1 0x20 DUP3 LT DUP2 SUB PUSH2 0x451 JUMPI PUSH2 0x450 PUSH2 0x3F7 JUMP JUMPDEST JUMPDEST POP SWAP2 SWAP1 POP JUMP JUMPDEST PUSH1 0x0 DUP2 SWAP1 POP DUP2 PUSH1 0x0 MSTORE PUSH1 0x20 PUSH1 0x0 KECCAK256 SWAP1 POP SWAP2 SWAP1 POP JUMP JUMPDEST PUSH1 0x0 PUSH1 0x20 PUSH1 0x1F DUP4 ADD DIV SWAP1 POP SWAP2 SWAP1 POP JUMP JUMPDEST PUSH1 0x0 DUP3 DUP3 SHL SWAP1 POP SWAP3 SWAP2 POP POP JUMP JUMPDEST PUSH1 0x0 PUSH1 0x8 DUP4 MUL PUSH2 0x4B9 PUSH32 0xFFFFFFFFFFFFFFFFFFFFFFFFFFFFFFFFFFFFFFFFFFFFFFFFFFFFFFFFFFFFFFFF DUP3 PUSH2 0x47C JUMP JUMPDEST PUSH2 0x4C3 DUP7 DUP4 PUSH2 0x47C JUMP JUMPDEST SWAP6 POP DUP1 NOT DUP5 AND SWAP4 POP DUP1 DUP7 AND DUP5 OR SWAP3 POP POP POP SWAP4 SWAP3 POP POP POP JUMP JUMPDEST PUSH1 0x0 DUP2 SWAP1 POP SWAP2 SWAP1 POP JUMP JUMPDEST PUSH1 0x0 PUSH2 0x500 PUSH2 0x4FB PUSH2 0x4F6 DUP5 PUSH2 0x1DD JUMP JUMPDEST PUSH2 0x4DB JUMP JUMPDEST PUSH2 0x1DD JUMP JUMPDEST SWAP1 POP SWAP2 SWAP1 POP JUMP JUMPDEST PUSH1 0x0 DUP2 SWAP1 POP SWAP2 SWAP1 POP JUMP JUMPDEST PUSH2 0x51A DUP4 PUSH2 0x4E5 JUMP JUMPDEST PUSH2 0x52E PUSH2 0x526 DUP3 PUSH2 0x507 JUMP JUMPDEST DUP5 DUP5 SLOAD PUSH2 0x489 JUMP JUMPDEST DUP3 SSTORE POP POP POP POP JUMP JUMPDEST PUSH1 0x0 SWAP1 JUMP JUMPDEST PUSH2 0x543 PUSH2 0x536 JUMP JUMPDEST PUSH2 0x54E DUP2 DUP5 DUP5 PUSH2 0x511 JUMP JUMPDEST POP POP POP JUMP JUMPDEST JUMPDEST DUP2 DUP2 LT ISZERO PUSH2 0x572 JUMPI PUSH2 0x567 PUSH1 0x0 DUP3 PUSH2 0x53B JUMP JUMPDEST PUSH1 0x1 DUP2 ADD SWAP1 POP PUSH2 0x554 JUMP JUMPDEST POP POP JUMP JUMPDEST PUSH1 0x1F DUP3 GT ISZERO PUSH2 0x5B7 JUMPI PUSH2 0x588 DUP2 PUSH2 0x457 JUMP JUMPDEST PUSH2 0x591 DUP5 PUSH2 0x46C JUMP JUMPDEST DUP2 ADD PUSH1 0x20 DUP6 LT ISZERO PUSH2 0x5A0 JUMPI DUP2 SWAP1 POP JUMPDEST PUSH2 0x5B4 PUSH2 0x5AC DUP6 PUSH2 0x46C JUMP JUMPDEST DUP4 ADD DUP3 PUSH2 0x553 JUMP JUMPDEST POP POP JUMPDEST POP POP POP JUMP JUMPDEST PUSH1 0x0 DUP3 DUP3 SHR SWAP1 POP SWAP3 SWAP2 POP POP JUMP JUMPDEST PUSH1 0x0 PUSH2 0x5DA PUSH1 0x0 NOT DUP5 PUSH1 0x8 MUL PUSH2 0x5BC JUMP JUMPDEST NOT DUP1 DUP4 AND SWAP2 POP POP SWAP3 SWAP2 POP POP JUMP JUMPDEST PUSH1 0x0 PUSH2 0x5F3 DUP4 DUP4 PUSH2 0x5C9 JUMP JUMPDEST SWAP2 POP DUP3 PUSH1 0x2 MUL DUP3 OR SWAP1 POP SWAP3 SWAP2 POP POP JUMP JUMPDEST PUSH2 0x60C DUP3 PUSH2 0x14D JUMP JUMPDEST PUSH8 0xFFFFFFFFFFFFFFFF DUP2 GT ISZERO PUSH2 0x625 JUMPI PUSH2 0x624 PUSH2 0x244 JUMP JUMPDEST JUMPDEST PUSH2 0x62F DUP3 SLOAD PUSH2 0x426 JUMP JUMPDEST PUSH2 0x63A DUP3 DUP3 DUP6 PUSH2 0x576 JUMP JUMPDEST PUSH1 0x0 PUSH1 0x20 SWAP1 POP PUSH1 0x1F DUP4 GT PUSH1 0x1 DUP2 EQ PUSH2 0x66D JUMPI PUSH1 0x0 DUP5 ISZERO PUSH2 0x65B JUMPI DUP3 DUP8 ADD MLOAD SWAP1 POP JUMPDEST PUSH2 0x665 DUP6 DUP3 PUSH2 0x5E7 JUMP JUMPDEST DUP7 SSTORE POP PUSH2 0x6CD JUMP JUMPDEST PUSH1 0x1F NOT DUP5 AND PUSH2 0x67B DUP7 PUSH2 0x457 JUMP JUMPDEST PUSH1 0x0 JUMPDEST DUP3 DUP2 LT ISZERO PUSH2 0x6A3 JUMPI DUP5 DUP10 ADD MLOAD DUP3 SSTORE PUSH1 0x1 DUP3 ADD SWAP2 POP PUSH1 0x20 DUP6 ADD SWAP5 POP PUSH1 0x20 DUP2 ADD SWAP1 POP PUSH2 0x67E JUMP JUMPDEST DUP7 DUP4 LT ISZERO PUSH2 0x6C0 JUMPI DUP5 DUP10 ADD MLOAD PUSH2 0x6BC PUSH1 0x1F DUP10 AND DUP3 PUSH2 0x5C9 JUMP JUMPDEST DUP4 SSTORE POP JUMPDEST PUSH1 0x1 PUSH1 0x2 DUP9 MUL ADD DUP9 SSTORE POP POP POP JUMPDEST POP POP POP POP POP POP JUMP INVALID LOG2 PUSH5 0x6970667358 0x22 SLT KECCAK256 0xED EXP PUSH16 0xE0CE505B0C1B76969DCEDDA618B7D816 0xF SWAP8 MSTORE8 0xEF SWAP12 EXTCODECOPY 0xE4 CALLVALUE PUSH26 0xBC635EE664736F6C634300081200330000000000000000000000 "
				},
				"gasEstimates": {
					"creation": {
						"codeDepositCost": "360600",
						"executionCost": "399",
						"totalCost": "360999"
					},
					"external": {
						"UpdateDetails(string,uint256)": "infinite",
						"person()": "infinite"
					}
				},
				"methodIdentifiers": {
					"UpdateDetails(string,uint256)": "c8218e54",
					"person()": "77ec2b55"
				}
			},
			"storageLayout": {
				"storage": [
					{
						"astId": 9,
						"contract": "struct.sol:Struct",
						"label": "person",
						"offset": 0,
						"slot": "0",
						"type": "t_struct(Person)6_storage"
					}
				],
				"types": {
					"t_string_storage": {
						"encoding": "bytes",
						"label": "string",
						"numberOfBytes": "32"
					},
					"t_struct(Person)6_storage": {
						"encoding": "inplace",
						"label": "struct Struct.Person",
						"members": [
							{
								"astId": 3,
								"contract": "struct.sol:Struct",
								"label": "Name",
								"offset": 0,
								"slot": "0",
								"type": "t_string_storage"
							},
							{
								"astId": 5,
								"contract": "struct.sol:Struct",
								"label": "Age",
								"offset": 0,
								"slot": "1",
								"type": "t_uint256"
							}
						],
						"numberOfBytes": "64"
					},
					"t_uint256": {
						"encoding": "inplace",
						"label": "uint256",
						"numberOfBytes": "32"
					}
				}
			},
			"userdoc": {
				"kind": "user",
				"methods": {},
				"version": 1
			}
		}
	}
}