{
	"struct_mapping.sol": {
		"Struct_mapping": {
			"abi": [
				{
					"inputs": [
						{
							"internalType": "string",
							"name": "",
							"type": "string"
						}
					],
					"name": "books",
					"outputs": [
						{
							"internalType": "string",
							"name": "name",
							"type": "string"
						},
						{
							"internalType": "uint256",
							"name": "amount",
							"type": "uint256"
						}
					],
					"stateMutability": "view",
					"type": "function"
				},
				{
					"inputs": [
						{
							"internalType": "string",
							"name": "_author",
							"type": "string"
						},
						{
							"internalType": "string",
							"name": "_bookname",
							"type": "string"
						},
						{
							"internalType": "uint256",
							"name": "_amount",
							"type": "uint256"
						}
					],
					"name": "fundMe",
					"outputs": [],
					"stateMutability": "nonpayable",
					"type": "function"
				}
			],
			"devdoc": {
				"kind": "dev",
				"methods": {},
				"version": 1
			},
			"evm": {
				"assembly": "    /* \"struct_mapping.sol\":68:434  contract Struct_mapping{... */\n  mstore(0x40, 0x80)\n  callvalue\n  dup1\n  iszero\n  tag_1\n  jumpi\n  0x00\n  dup1\n  revert\ntag_1:\n  pop\n  dataSize(sub_0)\n  dup1\n  dataOffset(sub_0)\n  0x00\n  codecopy\n  0x00\n  return\nstop\n\nsub_0: assembly {\n        /* \"struct_mapping.sol\":68:434  contract Struct_mapping{... */\n      mstore(0x40, 0x80)\n      callvalue\n      dup1\n      iszero\n      tag_1\n      jumpi\n      0x00\n      dup1\n      revert\n    tag_1:\n      pop\n      jumpi(tag_2, lt(calldatasize, 0x04))\n      shr(0xe0, calldataload(0x00))\n      dup1\n      0x2b9dfe80\n      eq\n      tag_3\n      jumpi\n      dup1\n      0x557cd941\n      eq\n      tag_4\n      jumpi\n    tag_2:\n      0x00\n      dup1\n      revert\n        /* \"struct_mapping.sol\":222:258  mapping(string => book) public books */\n    tag_3:\n      tag_5\n      0x04\n      dup1\n      calldatasize\n      sub\n      dup2\n      add\n      swap1\n      tag_6\n      swap2\n      swap1\n      tag_7\n      jump\t// in\n    tag_6:\n      tag_8\n      jump\t// in\n    tag_5:\n      mload(0x40)\n      tag_9\n      swap3\n      swap2\n      swap1\n      tag_10\n      jump\t// in\n    tag_9:\n      mload(0x40)\n      dup1\n      swap2\n      sub\n      swap1\n      return\n        /* \"struct_mapping.sol\":267:431  function fundMe(string memory _author , string memory _bookname, uint _amount) public{... */\n    tag_4:\n      tag_11\n      0x04\n      dup1\n      calldatasize\n      sub\n      dup2\n      add\n      swap1\n      tag_12\n      swap2\n      swap1\n      tag_13\n      jump\t// in\n    tag_12:\n      tag_14\n      jump\t// in\n    tag_11:\n      stop\n        /* \"struct_mapping.sol\":222:258  mapping(string => book) public books */\n    tag_8:\n      0x00\n      dup2\n      dup1\n      mload\n      0x20\n      dup2\n      add\n      dup3\n      add\n      dup1\n      mload\n      dup5\n      dup3\n      mstore\n      0x20\n      dup4\n      add\n      0x20\n      dup6\n      add\n      keccak256\n      dup2\n      dup4\n      mstore\n      dup1\n      swap6\n      pop\n      pop\n      pop\n      pop\n      pop\n      pop\n      0x00\n      swap2\n      pop\n      swap1\n      pop\n      dup1\n      0x00\n      add\n      dup1\n      sload\n      tag_15\n      swap1\n      tag_16\n      jump\t// in\n    tag_15:\n      dup1\n      0x1f\n      add\n      0x20\n      dup1\n      swap2\n      div\n      mul\n      0x20\n      add\n      mload(0x40)\n      swap1\n      dup2\n      add\n      0x40\n      mstore\n      dup1\n      swap3\n      swap2\n      swap1\n      dup2\n      dup2\n      mstore\n      0x20\n      add\n      dup3\n      dup1\n      sload\n      tag_17\n      swap1\n      tag_16\n      jump\t// in\n    tag_17:\n      dup1\n      iszero\n      tag_18\n      jumpi\n      dup1\n      0x1f\n      lt\n      tag_19\n      jumpi\n      0x0100\n      dup1\n      dup4\n      sload\n      div\n      mul\n      dup4\n      mstore\n      swap2\n      0x20\n      add\n      swap2\n      jump(tag_18)\n    tag_19:\n      dup3\n      add\n      swap2\n      swap1\n      0x00\n      mstore\n      keccak256(0x00, 0x20)\n      swap1\n    tag_20:\n      dup2\n      sload\n      dup2\n      mstore\n      swap1\n      0x01\n      add\n      swap1\n      0x20\n      add\n      dup1\n      dup4\n      gt\n      tag_20\n      jumpi\n      dup3\n      swap1\n      sub\n      0x1f\n      and\n      dup3\n      add\n      swap2\n    tag_18:\n      pop\n      pop\n      pop\n      pop\n      pop\n      swap1\n      dup1\n      0x01\n      add\n      sload\n      swap1\n      pop\n      dup3\n      jump\t// out\n        /* \"struct_mapping.sol\":267:431  function fundMe(string memory _author , string memory _bookname, uint _amount) public{... */\n    tag_14:\n        /* \"struct_mapping.sol\":380:423  book({name : _bookname , amount : _amount}) */\n      mload(0x40)\n      dup1\n      0x40\n      add\n      0x40\n      mstore\n      dup1\n        /* \"struct_mapping.sol\":393:402  _bookname */\n      dup4\n        /* \"struct_mapping.sol\":380:423  book({name : _bookname , amount : _amount}) */\n      dup2\n      mstore\n      0x20\n      add\n        /* \"struct_mapping.sol\":414:421  _amount */\n      dup3\n        /* \"struct_mapping.sol\":380:423  book({name : _bookname , amount : _amount}) */\n      dup2\n      mstore\n      pop\n        /* \"struct_mapping.sol\":363:368  books */\n      0x00\n        /* \"struct_mapping.sol\":369:376  _author */\n      dup5\n        /* \"struct_mapping.sol\":363:377  books[_author] */\n      mload(0x40)\n      tag_22\n      swap2\n      swap1\n      tag_23\n      jump\t// in\n    tag_22:\n      swap1\n      dup2\n      mstore\n      0x20\n      add\n      mload(0x40)\n      dup1\n      swap2\n      sub\n      swap1\n      keccak256\n        /* \"struct_mapping.sol\":363:423  books[_author] = book({name : _bookname , amount : _amount}) */\n      0x00\n      dup3\n      add\n      mload\n      dup2\n      0x00\n      add\n      swap1\n      dup2\n      tag_24\n      swap2\n      swap1\n      tag_25\n      jump\t// in\n    tag_24:\n      pop\n      0x20\n      dup3\n      add\n      mload\n      dup2\n      0x01\n      add\n      sstore\n      swap1\n      pop\n      pop\n        /* \"struct_mapping.sol\":267:431  function fundMe(string memory _author , string memory _bookname, uint _amount) public{... */\n      pop\n      pop\n      pop\n      jump\t// out\n        /* \"#utility.yul\":7:82   */\n    tag_26:\n        /* \"#utility.yul\":40:46   */\n      0x00\n        /* \"#utility.yul\":73:75   */\n      0x40\n        /* \"#utility.yul\":67:76   */\n      mload\n        /* \"#utility.yul\":57:76   */\n      swap1\n      pop\n        /* \"#utility.yul\":7:82   */\n      swap1\n      jump\t// out\n        /* \"#utility.yul\":88:205   */\n    tag_27:\n        /* \"#utility.yul\":197:198   */\n      0x00\n        /* \"#utility.yul\":194:195   */\n      dup1\n        /* \"#utility.yul\":187:199   */\n      revert\n        /* \"#utility.yul\":211:328   */\n    tag_28:\n        /* \"#utility.yul\":320:321   */\n      0x00\n        /* \"#utility.yul\":317:318   */\n      dup1\n        /* \"#utility.yul\":310:322   */\n      revert\n        /* \"#utility.yul\":334:451   */\n    tag_29:\n        /* \"#utility.yul\":443:444   */\n      0x00\n        /* \"#utility.yul\":440:441   */\n      dup1\n        /* \"#utility.yul\":433:445   */\n      revert\n        /* \"#utility.yul\":457:574   */\n    tag_30:\n        /* \"#utility.yul\":566:567   */\n      0x00\n        /* \"#utility.yul\":563:564   */\n      dup1\n        /* \"#utility.yul\":556:568   */\n      revert\n        /* \"#utility.yul\":580:682   */\n    tag_31:\n        /* \"#utility.yul\":621:627   */\n      0x00\n        /* \"#utility.yul\":672:674   */\n      0x1f\n        /* \"#utility.yul\":668:675   */\n      not\n        /* \"#utility.yul\":663:665   */\n      0x1f\n        /* \"#utility.yul\":656:661   */\n      dup4\n        /* \"#utility.yul\":652:666   */\n      add\n        /* \"#utility.yul\":648:676   */\n      and\n        /* \"#utility.yul\":638:676   */\n      swap1\n      pop\n        /* \"#utility.yul\":580:682   */\n      swap2\n      swap1\n      pop\n      jump\t// out\n        /* \"#utility.yul\":688:868   */\n    tag_32:\n        /* \"#utility.yul\":736:813   */\n      0x4e487b7100000000000000000000000000000000000000000000000000000000\n        /* \"#utility.yul\":733:734   */\n      0x00\n        /* \"#utility.yul\":726:814   */\n      mstore\n        /* \"#utility.yul\":833:837   */\n      0x41\n        /* \"#utility.yul\":830:831   */\n      0x04\n        /* \"#utility.yul\":823:838   */\n      mstore\n        /* \"#utility.yul\":857:861   */\n      0x24\n        /* \"#utility.yul\":854:855   */\n      0x00\n        /* \"#utility.yul\":847:862   */\n      revert\n        /* \"#utility.yul\":874:1155   */\n    tag_33:\n        /* \"#utility.yul\":957:984   */\n      tag_74\n        /* \"#utility.yul\":979:983   */\n      dup3\n        /* \"#utility.yul\":957:984   */\n      tag_31\n      jump\t// in\n    tag_74:\n        /* \"#utility.yul\":949:955   */\n      dup2\n        /* \"#utility.yul\":945:985   */\n      add\n        /* \"#utility.yul\":1087:1093   */\n      dup2\n        /* \"#utility.yul\":1075:1085   */\n      dup2\n        /* \"#utility.yul\":1072:1094   */\n      lt\n        /* \"#utility.yul\":1051:1069   */\n      0xffffffffffffffff\n        /* \"#utility.yul\":1039:1049   */\n      dup3\n        /* \"#utility.yul\":1036:1070   */\n      gt\n        /* \"#utility.yul\":1033:1095   */\n      or\n        /* \"#utility.yul\":1030:1118   */\n      iszero\n      tag_75\n      jumpi\n        /* \"#utility.yul\":1098:1116   */\n      tag_76\n      tag_32\n      jump\t// in\n    tag_76:\n        /* \"#utility.yul\":1030:1118   */\n    tag_75:\n        /* \"#utility.yul\":1138:1148   */\n      dup1\n        /* \"#utility.yul\":1134:1136   */\n      0x40\n        /* \"#utility.yul\":1127:1149   */\n      mstore\n        /* \"#utility.yul\":917:1155   */\n      pop\n        /* \"#utility.yul\":874:1155   */\n      pop\n      pop\n      jump\t// out\n        /* \"#utility.yul\":1161:1290   */\n    tag_34:\n        /* \"#utility.yul\":1195:1201   */\n      0x00\n        /* \"#utility.yul\":1222:1242   */\n      tag_78\n      tag_26\n      jump\t// in\n    tag_78:\n        /* \"#utility.yul\":1212:1242   */\n      swap1\n      pop\n        /* \"#utility.yul\":1251:1284   */\n      tag_79\n        /* \"#utility.yul\":1279:1283   */\n      dup3\n        /* \"#utility.yul\":1271:1277   */\n      dup3\n        /* \"#utility.yul\":1251:1284   */\n      tag_33\n      jump\t// in\n    tag_79:\n        /* \"#utility.yul\":1161:1290   */\n      swap2\n      swap1\n      pop\n      jump\t// out\n        /* \"#utility.yul\":1296:1604   */\n    tag_35:\n        /* \"#utility.yul\":1358:1362   */\n      0x00\n        /* \"#utility.yul\":1448:1466   */\n      0xffffffffffffffff\n        /* \"#utility.yul\":1440:1446   */\n      dup3\n        /* \"#utility.yul\":1437:1467   */\n      gt\n        /* \"#utility.yul\":1434:1490   */\n      iszero\n      tag_81\n      jumpi\n        /* \"#utility.yul\":1470:1488   */\n      tag_82\n      tag_32\n      jump\t// in\n    tag_82:\n        /* \"#utility.yul\":1434:1490   */\n    tag_81:\n        /* \"#utility.yul\":1508:1537   */\n      tag_83\n        /* \"#utility.yul\":1530:1536   */\n      dup3\n        /* \"#utility.yul\":1508:1537   */\n      tag_31\n      jump\t// in\n    tag_83:\n        /* \"#utility.yul\":1500:1537   */\n      swap1\n      pop\n        /* \"#utility.yul\":1592:1596   */\n      0x20\n        /* \"#utility.yul\":1586:1590   */\n      dup2\n        /* \"#utility.yul\":1582:1597   */\n      add\n        /* \"#utility.yul\":1574:1597   */\n      swap1\n      pop\n        /* \"#utility.yul\":1296:1604   */\n      swap2\n      swap1\n      pop\n      jump\t// out\n        /* \"#utility.yul\":1610:1756   */\n    tag_36:\n        /* \"#utility.yul\":1707:1713   */\n      dup3\n        /* \"#utility.yul\":1702:1705   */\n      dup2\n        /* \"#utility.yul\":1697:1700   */\n      dup4\n        /* \"#utility.yul\":1684:1714   */\n      calldatacopy\n        /* \"#utility.yul\":1748:1749   */\n      0x00\n        /* \"#utility.yul\":1739:1745   */\n      dup4\n        /* \"#utility.yul\":1734:1737   */\n      dup4\n        /* \"#utility.yul\":1730:1746   */\n      add\n        /* \"#utility.yul\":1723:1750   */\n      mstore\n        /* \"#utility.yul\":1610:1756   */\n      pop\n      pop\n      pop\n      jump\t// out\n        /* \"#utility.yul\":1762:2187   */\n    tag_37:\n        /* \"#utility.yul\":1840:1845   */\n      0x00\n        /* \"#utility.yul\":1865:1931   */\n      tag_86\n        /* \"#utility.yul\":1881:1930   */\n      tag_87\n        /* \"#utility.yul\":1923:1929   */\n      dup5\n        /* \"#utility.yul\":1881:1930   */\n      tag_35\n      jump\t// in\n    tag_87:\n        /* \"#utility.yul\":1865:1931   */\n      tag_34\n      jump\t// in\n    tag_86:\n        /* \"#utility.yul\":1856:1931   */\n      swap1\n      pop\n        /* \"#utility.yul\":1954:1960   */\n      dup3\n        /* \"#utility.yul\":1947:1952   */\n      dup2\n        /* \"#utility.yul\":1940:1961   */\n      mstore\n        /* \"#utility.yul\":1992:1996   */\n      0x20\n        /* \"#utility.yul\":1985:1990   */\n      dup2\n        /* \"#utility.yul\":1981:1997   */\n      add\n        /* \"#utility.yul\":2030:2033   */\n      dup5\n        /* \"#utility.yul\":2021:2027   */\n      dup5\n        /* \"#utility.yul\":2016:2019   */\n      dup5\n        /* \"#utility.yul\":2012:2028   */\n      add\n        /* \"#utility.yul\":2009:2034   */\n      gt\n        /* \"#utility.yul\":2006:2118   */\n      iszero\n      tag_88\n      jumpi\n        /* \"#utility.yul\":2037:2116   */\n      tag_89\n      tag_30\n      jump\t// in\n    tag_89:\n        /* \"#utility.yul\":2006:2118   */\n    tag_88:\n        /* \"#utility.yul\":2127:2181   */\n      tag_90\n        /* \"#utility.yul\":2174:2180   */\n      dup5\n        /* \"#utility.yul\":2169:2172   */\n      dup3\n        /* \"#utility.yul\":2164:2167   */\n      dup6\n        /* \"#utility.yul\":2127:2181   */\n      tag_36\n      jump\t// in\n    tag_90:\n        /* \"#utility.yul\":1846:2187   */\n      pop\n        /* \"#utility.yul\":1762:2187   */\n      swap4\n      swap3\n      pop\n      pop\n      pop\n      jump\t// out\n        /* \"#utility.yul\":2207:2547   */\n    tag_38:\n        /* \"#utility.yul\":2263:2268   */\n      0x00\n        /* \"#utility.yul\":2312:2315   */\n      dup3\n        /* \"#utility.yul\":2305:2309   */\n      0x1f\n        /* \"#utility.yul\":2297:2303   */\n      dup4\n        /* \"#utility.yul\":2293:2310   */\n      add\n        /* \"#utility.yul\":2289:2316   */\n      slt\n        /* \"#utility.yul\":2279:2401   */\n      tag_92\n      jumpi\n        /* \"#utility.yul\":2320:2399   */\n      tag_93\n      tag_29\n      jump\t// in\n    tag_93:\n        /* \"#utility.yul\":2279:2401   */\n    tag_92:\n        /* \"#utility.yul\":2437:2443   */\n      dup2\n        /* \"#utility.yul\":2424:2444   */\n      calldataload\n        /* \"#utility.yul\":2462:2541   */\n      tag_94\n        /* \"#utility.yul\":2537:2540   */\n      dup5\n        /* \"#utility.yul\":2529:2535   */\n      dup3\n        /* \"#utility.yul\":2522:2526   */\n      0x20\n        /* \"#utility.yul\":2514:2520   */\n      dup7\n        /* \"#utility.yul\":2510:2527   */\n      add\n        /* \"#utility.yul\":2462:2541   */\n      tag_37\n      jump\t// in\n    tag_94:\n        /* \"#utility.yul\":2453:2541   */\n      swap2\n      pop\n        /* \"#utility.yul\":2269:2547   */\n      pop\n        /* \"#utility.yul\":2207:2547   */\n      swap3\n      swap2\n      pop\n      pop\n      jump\t// out\n        /* \"#utility.yul\":2553:3062   */\n    tag_7:\n        /* \"#utility.yul\":2622:2628   */\n      0x00\n        /* \"#utility.yul\":2671:2673   */\n      0x20\n        /* \"#utility.yul\":2659:2668   */\n      dup3\n        /* \"#utility.yul\":2650:2657   */\n      dup5\n        /* \"#utility.yul\":2646:2669   */\n      sub\n        /* \"#utility.yul\":2642:2674   */\n      slt\n        /* \"#utility.yul\":2639:2758   */\n      iszero\n      tag_96\n      jumpi\n        /* \"#utility.yul\":2677:2756   */\n      tag_97\n      tag_27\n      jump\t// in\n    tag_97:\n        /* \"#utility.yul\":2639:2758   */\n    tag_96:\n        /* \"#utility.yul\":2825:2826   */\n      0x00\n        /* \"#utility.yul\":2814:2823   */\n      dup3\n        /* \"#utility.yul\":2810:2827   */\n      add\n        /* \"#utility.yul\":2797:2828   */\n      calldataload\n        /* \"#utility.yul\":2855:2873   */\n      0xffffffffffffffff\n        /* \"#utility.yul\":2847:2853   */\n      dup2\n        /* \"#utility.yul\":2844:2874   */\n      gt\n        /* \"#utility.yul\":2841:2958   */\n      iszero\n      tag_98\n      jumpi\n        /* \"#utility.yul\":2877:2956   */\n      tag_99\n      tag_28\n      jump\t// in\n    tag_99:\n        /* \"#utility.yul\":2841:2958   */\n    tag_98:\n        /* \"#utility.yul\":2982:3045   */\n      tag_100\n        /* \"#utility.yul\":3037:3044   */\n      dup5\n        /* \"#utility.yul\":3028:3034   */\n      dup3\n        /* \"#utility.yul\":3017:3026   */\n      dup6\n        /* \"#utility.yul\":3013:3035   */\n      add\n        /* \"#utility.yul\":2982:3045   */\n      tag_38\n      jump\t// in\n    tag_100:\n        /* \"#utility.yul\":2972:3045   */\n      swap2\n      pop\n        /* \"#utility.yul\":2768:3055   */\n      pop\n        /* \"#utility.yul\":2553:3062   */\n      swap3\n      swap2\n      pop\n      pop\n      jump\t// out\n        /* \"#utility.yul\":3068:3167   */\n    tag_39:\n        /* \"#utility.yul\":3120:3126   */\n      0x00\n        /* \"#utility.yul\":3154:3159   */\n      dup2\n        /* \"#utility.yul\":3148:3160   */\n      mload\n        /* \"#utility.yul\":3138:3160   */\n      swap1\n      pop\n        /* \"#utility.yul\":3068:3167   */\n      swap2\n      swap1\n      pop\n      jump\t// out\n        /* \"#utility.yul\":3173:3342   */\n    tag_40:\n        /* \"#utility.yul\":3257:3268   */\n      0x00\n        /* \"#utility.yul\":3291:3297   */\n      dup3\n        /* \"#utility.yul\":3286:3289   */\n      dup3\n        /* \"#utility.yul\":3279:3298   */\n      mstore\n        /* \"#utility.yul\":3331:3335   */\n      0x20\n        /* \"#utility.yul\":3326:3329   */\n      dup3\n        /* \"#utility.yul\":3322:3336   */\n      add\n        /* \"#utility.yul\":3307:3336   */\n      swap1\n      pop\n        /* \"#utility.yul\":3173:3342   */\n      swap3\n      swap2\n      pop\n      pop\n      jump\t// out\n        /* \"#utility.yul\":3348:3594   */\n    tag_41:\n        /* \"#utility.yul\":3429:3430   */\n      0x00\n        /* \"#utility.yul\":3439:3552   */\n    tag_104:\n        /* \"#utility.yul\":3453:3459   */\n      dup4\n        /* \"#utility.yul\":3450:3451   */\n      dup2\n        /* \"#utility.yul\":3447:3460   */\n      lt\n        /* \"#utility.yul\":3439:3552   */\n      iszero\n      tag_106\n      jumpi\n        /* \"#utility.yul\":3538:3539   */\n      dup1\n        /* \"#utility.yul\":3533:3536   */\n      dup3\n        /* \"#utility.yul\":3529:3540   */\n      add\n        /* \"#utility.yul\":3523:3541   */\n      mload\n        /* \"#utility.yul\":3519:3520   */\n      dup2\n        /* \"#utility.yul\":3514:3517   */\n      dup5\n        /* \"#utility.yul\":3510:3521   */\n      add\n        /* \"#utility.yul\":3503:3542   */\n      mstore\n        /* \"#utility.yul\":3475:3477   */\n      0x20\n        /* \"#utility.yul\":3472:3473   */\n      dup2\n        /* \"#utility.yul\":3468:3478   */\n      add\n        /* \"#utility.yul\":3463:3478   */\n      swap1\n      pop\n        /* \"#utility.yul\":3439:3552   */\n      jump(tag_104)\n    tag_106:\n        /* \"#utility.yul\":3586:3587   */\n      0x00\n        /* \"#utility.yul\":3577:3583   */\n      dup5\n        /* \"#utility.yul\":3572:3575   */\n      dup5\n        /* \"#utility.yul\":3568:3584   */\n      add\n        /* \"#utility.yul\":3561:3588   */\n      mstore\n        /* \"#utility.yul\":3410:3594   */\n      pop\n        /* \"#utility.yul\":3348:3594   */\n      pop\n      pop\n      pop\n      jump\t// out\n        /* \"#utility.yul\":3600:3977   */\n    tag_42:\n        /* \"#utility.yul\":3688:3691   */\n      0x00\n        /* \"#utility.yul\":3716:3755   */\n      tag_108\n        /* \"#utility.yul\":3749:3754   */\n      dup3\n        /* \"#utility.yul\":3716:3755   */\n      tag_39\n      jump\t// in\n    tag_108:\n        /* \"#utility.yul\":3771:3842   */\n      tag_109\n        /* \"#utility.yul\":3835:3841   */\n      dup2\n        /* \"#utility.yul\":3830:3833   */\n      dup6\n        /* \"#utility.yul\":3771:3842   */\n      tag_40\n      jump\t// in\n    tag_109:\n        /* \"#utility.yul\":3764:3842   */\n      swap4\n      pop\n        /* \"#utility.yul\":3851:3916   */\n      tag_110\n        /* \"#utility.yul\":3909:3915   */\n      dup2\n        /* \"#utility.yul\":3904:3907   */\n      dup6\n        /* \"#utility.yul\":3897:3901   */\n      0x20\n        /* \"#utility.yul\":3890:3895   */\n      dup7\n        /* \"#utility.yul\":3886:3902   */\n      add\n        /* \"#utility.yul\":3851:3916   */\n      tag_41\n      jump\t// in\n    tag_110:\n        /* \"#utility.yul\":3941:3970   */\n      tag_111\n        /* \"#utility.yul\":3963:3969   */\n      dup2\n        /* \"#utility.yul\":3941:3970   */\n      tag_31\n      jump\t// in\n    tag_111:\n        /* \"#utility.yul\":3936:3939   */\n      dup5\n        /* \"#utility.yul\":3932:3971   */\n      add\n        /* \"#utility.yul\":3925:3971   */\n      swap2\n      pop\n        /* \"#utility.yul\":3692:3977   */\n      pop\n        /* \"#utility.yul\":3600:3977   */\n      swap3\n      swap2\n      pop\n      pop\n      jump\t// out\n        /* \"#utility.yul\":3983:4060   */\n    tag_43:\n        /* \"#utility.yul\":4020:4027   */\n      0x00\n        /* \"#utility.yul\":4049:4054   */\n      dup2\n        /* \"#utility.yul\":4038:4054   */\n      swap1\n      pop\n        /* \"#utility.yul\":3983:4060   */\n      swap2\n      swap1\n      pop\n      jump\t// out\n        /* \"#utility.yul\":4066:4184   */\n    tag_44:\n        /* \"#utility.yul\":4153:4177   */\n      tag_114\n        /* \"#utility.yul\":4171:4176   */\n      dup2\n        /* \"#utility.yul\":4153:4177   */\n      tag_43\n      jump\t// in\n    tag_114:\n        /* \"#utility.yul\":4148:4151   */\n      dup3\n        /* \"#utility.yul\":4141:4178   */\n      mstore\n        /* \"#utility.yul\":4066:4184   */\n      pop\n      pop\n      jump\t// out\n        /* \"#utility.yul\":4190:4613   */\n    tag_10:\n        /* \"#utility.yul\":4331:4335   */\n      0x00\n        /* \"#utility.yul\":4369:4371   */\n      0x40\n        /* \"#utility.yul\":4358:4367   */\n      dup3\n        /* \"#utility.yul\":4354:4372   */\n      add\n        /* \"#utility.yul\":4346:4372   */\n      swap1\n      pop\n        /* \"#utility.yul\":4418:4427   */\n      dup2\n        /* \"#utility.yul\":4412:4416   */\n      dup2\n        /* \"#utility.yul\":4408:4428   */\n      sub\n        /* \"#utility.yul\":4404:4405   */\n      0x00\n        /* \"#utility.yul\":4393:4402   */\n      dup4\n        /* \"#utility.yul\":4389:4406   */\n      add\n        /* \"#utility.yul\":4382:4429   */\n      mstore\n        /* \"#utility.yul\":4446:4524   */\n      tag_116\n        /* \"#utility.yul\":4519:4523   */\n      dup2\n        /* \"#utility.yul\":4510:4516   */\n      dup6\n        /* \"#utility.yul\":4446:4524   */\n      tag_42\n      jump\t// in\n    tag_116:\n        /* \"#utility.yul\":4438:4524   */\n      swap1\n      pop\n        /* \"#utility.yul\":4534:4606   */\n      tag_117\n        /* \"#utility.yul\":4602:4604   */\n      0x20\n        /* \"#utility.yul\":4591:4600   */\n      dup4\n        /* \"#utility.yul\":4587:4605   */\n      add\n        /* \"#utility.yul\":4578:4584   */\n      dup5\n        /* \"#utility.yul\":4534:4606   */\n      tag_44\n      jump\t// in\n    tag_117:\n        /* \"#utility.yul\":4190:4613   */\n      swap4\n      swap3\n      pop\n      pop\n      pop\n      jump\t// out\n        /* \"#utility.yul\":4619:4741   */\n    tag_45:\n        /* \"#utility.yul\":4692:4716   */\n      tag_119\n        /* \"#utility.yul\":4710:4715   */\n      dup2\n        /* \"#utility.yul\":4692:4716   */\n      tag_43\n      jump\t// in\n    tag_119:\n        /* \"#utility.yul\":4685:4690   */\n      dup2\n        /* \"#utility.yul\":4682:4717   */\n      eq\n        /* \"#utility.yul\":4672:4735   */\n      tag_120\n      jumpi\n        /* \"#utility.yul\":4731:4732   */\n      0x00\n        /* \"#utility.yul\":4728:4729   */\n      dup1\n        /* \"#utility.yul\":4721:4733   */\n      revert\n        /* \"#utility.yul\":4672:4735   */\n    tag_120:\n        /* \"#utility.yul\":4619:4741   */\n      pop\n      jump\t// out\n        /* \"#utility.yul\":4747:4886   */\n    tag_46:\n        /* \"#utility.yul\":4793:4798   */\n      0x00\n        /* \"#utility.yul\":4831:4837   */\n      dup2\n        /* \"#utility.yul\":4818:4838   */\n      calldataload\n        /* \"#utility.yul\":4809:4838   */\n      swap1\n      pop\n        /* \"#utility.yul\":4847:4880   */\n      tag_122\n        /* \"#utility.yul\":4874:4879   */\n      dup2\n        /* \"#utility.yul\":4847:4880   */\n      tag_45\n      jump\t// in\n    tag_122:\n        /* \"#utility.yul\":4747:4886   */\n      swap3\n      swap2\n      pop\n      pop\n      jump\t// out\n        /* \"#utility.yul\":4892:5871   */\n    tag_13:\n        /* \"#utility.yul\":4989:4995   */\n      0x00\n        /* \"#utility.yul\":4997:5003   */\n      dup1\n        /* \"#utility.yul\":5005:5011   */\n      0x00\n        /* \"#utility.yul\":5054:5056   */\n      0x60\n        /* \"#utility.yul\":5042:5051   */\n      dup5\n        /* \"#utility.yul\":5033:5040   */\n      dup7\n        /* \"#utility.yul\":5029:5052   */\n      sub\n        /* \"#utility.yul\":5025:5057   */\n      slt\n        /* \"#utility.yul\":5022:5141   */\n      iszero\n      tag_124\n      jumpi\n        /* \"#utility.yul\":5060:5139   */\n      tag_125\n      tag_27\n      jump\t// in\n    tag_125:\n        /* \"#utility.yul\":5022:5141   */\n    tag_124:\n        /* \"#utility.yul\":5208:5209   */\n      0x00\n        /* \"#utility.yul\":5197:5206   */\n      dup5\n        /* \"#utility.yul\":5193:5210   */\n      add\n        /* \"#utility.yul\":5180:5211   */\n      calldataload\n        /* \"#utility.yul\":5238:5256   */\n      0xffffffffffffffff\n        /* \"#utility.yul\":5230:5236   */\n      dup2\n        /* \"#utility.yul\":5227:5257   */\n      gt\n        /* \"#utility.yul\":5224:5341   */\n      iszero\n      tag_126\n      jumpi\n        /* \"#utility.yul\":5260:5339   */\n      tag_127\n      tag_28\n      jump\t// in\n    tag_127:\n        /* \"#utility.yul\":5224:5341   */\n    tag_126:\n        /* \"#utility.yul\":5365:5428   */\n      tag_128\n        /* \"#utility.yul\":5420:5427   */\n      dup7\n        /* \"#utility.yul\":5411:5417   */\n      dup3\n        /* \"#utility.yul\":5400:5409   */\n      dup8\n        /* \"#utility.yul\":5396:5418   */\n      add\n        /* \"#utility.yul\":5365:5428   */\n      tag_38\n      jump\t// in\n    tag_128:\n        /* \"#utility.yul\":5355:5428   */\n      swap4\n      pop\n        /* \"#utility.yul\":5151:5438   */\n      pop\n        /* \"#utility.yul\":5505:5507   */\n      0x20\n        /* \"#utility.yul\":5494:5503   */\n      dup5\n        /* \"#utility.yul\":5490:5508   */\n      add\n        /* \"#utility.yul\":5477:5509   */\n      calldataload\n        /* \"#utility.yul\":5536:5554   */\n      0xffffffffffffffff\n        /* \"#utility.yul\":5528:5534   */\n      dup2\n        /* \"#utility.yul\":5525:5555   */\n      gt\n        /* \"#utility.yul\":5522:5639   */\n      iszero\n      tag_129\n      jumpi\n        /* \"#utility.yul\":5558:5637   */\n      tag_130\n      tag_28\n      jump\t// in\n    tag_130:\n        /* \"#utility.yul\":5522:5639   */\n    tag_129:\n        /* \"#utility.yul\":5663:5726   */\n      tag_131\n        /* \"#utility.yul\":5718:5725   */\n      dup7\n        /* \"#utility.yul\":5709:5715   */\n      dup3\n        /* \"#utility.yul\":5698:5707   */\n      dup8\n        /* \"#utility.yul\":5694:5716   */\n      add\n        /* \"#utility.yul\":5663:5726   */\n      tag_38\n      jump\t// in\n    tag_131:\n        /* \"#utility.yul\":5653:5726   */\n      swap3\n      pop\n        /* \"#utility.yul\":5448:5736   */\n      pop\n        /* \"#utility.yul\":5775:5777   */\n      0x40\n        /* \"#utility.yul\":5801:5854   */\n      tag_132\n        /* \"#utility.yul\":5846:5853   */\n      dup7\n        /* \"#utility.yul\":5837:5843   */\n      dup3\n        /* \"#utility.yul\":5826:5835   */\n      dup8\n        /* \"#utility.yul\":5822:5844   */\n      add\n        /* \"#utility.yul\":5801:5854   */\n      tag_46\n      jump\t// in\n    tag_132:\n        /* \"#utility.yul\":5791:5854   */\n      swap2\n      pop\n        /* \"#utility.yul\":5746:5864   */\n      pop\n        /* \"#utility.yul\":4892:5871   */\n      swap3\n      pop\n      swap3\n      pop\n      swap3\n      jump\t// out\n        /* \"#utility.yul\":5877:6057   */\n    tag_47:\n        /* \"#utility.yul\":5925:6002   */\n      0x4e487b7100000000000000000000000000000000000000000000000000000000\n        /* \"#utility.yul\":5922:5923   */\n      0x00\n        /* \"#utility.yul\":5915:6003   */\n      mstore\n        /* \"#utility.yul\":6022:6026   */\n      0x22\n        /* \"#utility.yul\":6019:6020   */\n      0x04\n        /* \"#utility.yul\":6012:6027   */\n      mstore\n        /* \"#utility.yul\":6046:6050   */\n      0x24\n        /* \"#utility.yul\":6043:6044   */\n      0x00\n        /* \"#utility.yul\":6036:6051   */\n      revert\n        /* \"#utility.yul\":6063:6383   */\n    tag_16:\n        /* \"#utility.yul\":6107:6113   */\n      0x00\n        /* \"#utility.yul\":6144:6145   */\n      0x02\n        /* \"#utility.yul\":6138:6142   */\n      dup3\n        /* \"#utility.yul\":6134:6146   */\n      div\n        /* \"#utility.yul\":6124:6146   */\n      swap1\n      pop\n        /* \"#utility.yul\":6191:6192   */\n      0x01\n        /* \"#utility.yul\":6185:6189   */\n      dup3\n        /* \"#utility.yul\":6181:6193   */\n      and\n        /* \"#utility.yul\":6212:6230   */\n      dup1\n        /* \"#utility.yul\":6202:6283   */\n      tag_135\n      jumpi\n        /* \"#utility.yul\":6268:6272   */\n      0x7f\n        /* \"#utility.yul\":6260:6266   */\n      dup3\n        /* \"#utility.yul\":6256:6273   */\n      and\n        /* \"#utility.yul\":6246:6273   */\n      swap2\n      pop\n        /* \"#utility.yul\":6202:6283   */\n    tag_135:\n        /* \"#utility.yul\":6330:6332   */\n      0x20\n        /* \"#utility.yul\":6322:6328   */\n      dup3\n        /* \"#utility.yul\":6319:6333   */\n      lt\n        /* \"#utility.yul\":6299:6317   */\n      dup2\n        /* \"#utility.yul\":6296:6334   */\n      sub\n        /* \"#utility.yul\":6293:6377   */\n      tag_136\n      jumpi\n        /* \"#utility.yul\":6349:6367   */\n      tag_137\n      tag_47\n      jump\t// in\n    tag_137:\n        /* \"#utility.yul\":6293:6377   */\n    tag_136:\n        /* \"#utility.yul\":6114:6383   */\n      pop\n        /* \"#utility.yul\":6063:6383   */\n      swap2\n      swap1\n      pop\n      jump\t// out\n        /* \"#utility.yul\":6389:6537   */\n    tag_48:\n        /* \"#utility.yul\":6491:6502   */\n      0x00\n        /* \"#utility.yul\":6528:6531   */\n      dup2\n        /* \"#utility.yul\":6513:6531   */\n      swap1\n      pop\n        /* \"#utility.yul\":6389:6537   */\n      swap3\n      swap2\n      pop\n      pop\n      jump\t// out\n        /* \"#utility.yul\":6543:6933   */\n    tag_49:\n        /* \"#utility.yul\":6649:6652   */\n      0x00\n        /* \"#utility.yul\":6677:6716   */\n      tag_140\n        /* \"#utility.yul\":6710:6715   */\n      dup3\n        /* \"#utility.yul\":6677:6716   */\n      tag_39\n      jump\t// in\n    tag_140:\n        /* \"#utility.yul\":6732:6821   */\n      tag_141\n        /* \"#utility.yul\":6814:6820   */\n      dup2\n        /* \"#utility.yul\":6809:6812   */\n      dup6\n        /* \"#utility.yul\":6732:6821   */\n      tag_48\n      jump\t// in\n    tag_141:\n        /* \"#utility.yul\":6725:6821   */\n      swap4\n      pop\n        /* \"#utility.yul\":6830:6895   */\n      tag_142\n        /* \"#utility.yul\":6888:6894   */\n      dup2\n        /* \"#utility.yul\":6883:6886   */\n      dup6\n        /* \"#utility.yul\":6876:6880   */\n      0x20\n        /* \"#utility.yul\":6869:6874   */\n      dup7\n        /* \"#utility.yul\":6865:6881   */\n      add\n        /* \"#utility.yul\":6830:6895   */\n      tag_41\n      jump\t// in\n    tag_142:\n        /* \"#utility.yul\":6920:6926   */\n      dup1\n        /* \"#utility.yul\":6915:6918   */\n      dup5\n        /* \"#utility.yul\":6911:6927   */\n      add\n        /* \"#utility.yul\":6904:6927   */\n      swap2\n      pop\n        /* \"#utility.yul\":6653:6933   */\n      pop\n        /* \"#utility.yul\":6543:6933   */\n      swap3\n      swap2\n      pop\n      pop\n      jump\t// out\n        /* \"#utility.yul\":6939:7214   */\n    tag_23:\n        /* \"#utility.yul\":7071:7074   */\n      0x00\n        /* \"#utility.yul\":7093:7188   */\n      tag_144\n        /* \"#utility.yul\":7184:7187   */\n      dup3\n        /* \"#utility.yul\":7175:7181   */\n      dup5\n        /* \"#utility.yul\":7093:7188   */\n      tag_49\n      jump\t// in\n    tag_144:\n        /* \"#utility.yul\":7086:7188   */\n      swap2\n      pop\n        /* \"#utility.yul\":7205:7208   */\n      dup2\n        /* \"#utility.yul\":7198:7208   */\n      swap1\n      pop\n        /* \"#utility.yul\":6939:7214   */\n      swap3\n      swap2\n      pop\n      pop\n      jump\t// out\n        /* \"#utility.yul\":7220:7361   */\n    tag_50:\n        /* \"#utility.yul\":7269:7273   */\n      0x00\n        /* \"#utility.yul\":7292:7295   */\n      dup2\n        /* \"#utility.yul\":7284:7295   */\n      swap1\n      pop\n        /* \"#utility.yul\":7315:7318   */\n      dup2\n        /* \"#utility.yul\":7312:7313   */\n      0x00\n        /* \"#utility.yul\":7305:7319   */\n      mstore\n        /* \"#utility.yul\":7349:7353   */\n      0x20\n        /* \"#utility.yul\":7346:7347   */\n      0x00\n        /* \"#utility.yul\":7336:7354   */\n      keccak256\n        /* \"#utility.yul\":7328:7354   */\n      swap1\n      pop\n        /* \"#utility.yul\":7220:7361   */\n      swap2\n      swap1\n      pop\n      jump\t// out\n        /* \"#utility.yul\":7367:7460   */\n    tag_51:\n        /* \"#utility.yul\":7404:7410   */\n      0x00\n        /* \"#utility.yul\":7451:7453   */\n      0x20\n        /* \"#utility.yul\":7446:7448   */\n      0x1f\n        /* \"#utility.yul\":7439:7444   */\n      dup4\n        /* \"#utility.yul\":7435:7449   */\n      add\n        /* \"#utility.yul\":7431:7454   */\n      div\n        /* \"#utility.yul\":7421:7454   */\n      swap1\n      pop\n        /* \"#utility.yul\":7367:7460   */\n      swap2\n      swap1\n      pop\n      jump\t// out\n        /* \"#utility.yul\":7466:7573   */\n    tag_52:\n        /* \"#utility.yul\":7510:7518   */\n      0x00\n        /* \"#utility.yul\":7560:7565   */\n      dup3\n        /* \"#utility.yul\":7554:7558   */\n      dup3\n        /* \"#utility.yul\":7550:7566   */\n      shl\n        /* \"#utility.yul\":7529:7566   */\n      swap1\n      pop\n        /* \"#utility.yul\":7466:7573   */\n      swap3\n      swap2\n      pop\n      pop\n      jump\t// out\n        /* \"#utility.yul\":7579:7972   */\n    tag_53:\n        /* \"#utility.yul\":7648:7654   */\n      0x00\n        /* \"#utility.yul\":7698:7699   */\n      0x08\n        /* \"#utility.yul\":7686:7696   */\n      dup4\n        /* \"#utility.yul\":7682:7700   */\n      mul\n        /* \"#utility.yul\":7721:7818   */\n      tag_149\n        /* \"#utility.yul\":7751:7817   */\n      0xffffffffffffffffffffffffffffffffffffffffffffffffffffffffffffffff\n        /* \"#utility.yul\":7740:7749   */\n      dup3\n        /* \"#utility.yul\":7721:7818   */\n      tag_52\n      jump\t// in\n    tag_149:\n        /* \"#utility.yul\":7839:7878   */\n      tag_150\n        /* \"#utility.yul\":7869:7877   */\n      dup7\n        /* \"#utility.yul\":7858:7867   */\n      dup4\n        /* \"#utility.yul\":7839:7878   */\n      tag_52\n      jump\t// in\n    tag_150:\n        /* \"#utility.yul\":7827:7878   */\n      swap6\n      pop\n        /* \"#utility.yul\":7911:7915   */\n      dup1\n        /* \"#utility.yul\":7907:7916   */\n      not\n        /* \"#utility.yul\":7900:7905   */\n      dup5\n        /* \"#utility.yul\":7896:7917   */\n      and\n        /* \"#utility.yul\":7887:7917   */\n      swap4\n      pop\n        /* \"#utility.yul\":7960:7964   */\n      dup1\n        /* \"#utility.yul\":7950:7958   */\n      dup7\n        /* \"#utility.yul\":7946:7965   */\n      and\n        /* \"#utility.yul\":7939:7944   */\n      dup5\n        /* \"#utility.yul\":7936:7966   */\n      or\n        /* \"#utility.yul\":7926:7966   */\n      swap3\n      pop\n        /* \"#utility.yul\":7655:7972   */\n      pop\n      pop\n        /* \"#utility.yul\":7579:7972   */\n      swap4\n      swap3\n      pop\n      pop\n      pop\n      jump\t// out\n        /* \"#utility.yul\":7978:8038   */\n    tag_54:\n        /* \"#utility.yul\":8006:8009   */\n      0x00\n        /* \"#utility.yul\":8027:8032   */\n      dup2\n        /* \"#utility.yul\":8020:8032   */\n      swap1\n      pop\n        /* \"#utility.yul\":7978:8038   */\n      swap2\n      swap1\n      pop\n      jump\t// out\n        /* \"#utility.yul\":8044:8186   */\n    tag_55:\n        /* \"#utility.yul\":8094:8103   */\n      0x00\n        /* \"#utility.yul\":8127:8180   */\n      tag_153\n        /* \"#utility.yul\":8145:8179   */\n      tag_154\n        /* \"#utility.yul\":8154:8178   */\n      tag_155\n        /* \"#utility.yul\":8172:8177   */\n      dup5\n        /* \"#utility.yul\":8154:8178   */\n      tag_43\n      jump\t// in\n    tag_155:\n        /* \"#utility.yul\":8145:8179   */\n      tag_54\n      jump\t// in\n    tag_154:\n        /* \"#utility.yul\":8127:8180   */\n      tag_43\n      jump\t// in\n    tag_153:\n        /* \"#utility.yul\":8114:8180   */\n      swap1\n      pop\n        /* \"#utility.yul\":8044:8186   */\n      swap2\n      swap1\n      pop\n      jump\t// out\n        /* \"#utility.yul\":8192:8267   */\n    tag_56:\n        /* \"#utility.yul\":8235:8238   */\n      0x00\n        /* \"#utility.yul\":8256:8261   */\n      dup2\n        /* \"#utility.yul\":8249:8261   */\n      swap1\n      pop\n        /* \"#utility.yul\":8192:8267   */\n      swap2\n      swap1\n      pop\n      jump\t// out\n        /* \"#utility.yul\":8273:8542   */\n    tag_57:\n        /* \"#utility.yul\":8383:8422   */\n      tag_158\n        /* \"#utility.yul\":8414:8421   */\n      dup4\n        /* \"#utility.yul\":8383:8422   */\n      tag_55\n      jump\t// in\n    tag_158:\n        /* \"#utility.yul\":8444:8535   */\n      tag_159\n        /* \"#utility.yul\":8493:8534   */\n      tag_160\n        /* \"#utility.yul\":8517:8533   */\n      dup3\n        /* \"#utility.yul\":8493:8534   */\n      tag_56\n      jump\t// in\n    tag_160:\n        /* \"#utility.yul\":8485:8491   */\n      dup5\n        /* \"#utility.yul\":8478:8482   */\n      dup5\n        /* \"#utility.yul\":8472:8483   */\n      sload\n        /* \"#utility.yul\":8444:8535   */\n      tag_53\n      jump\t// in\n    tag_159:\n        /* \"#utility.yul\":8438:8442   */\n      dup3\n        /* \"#utility.yul\":8431:8536   */\n      sstore\n        /* \"#utility.yul\":8349:8542   */\n      pop\n        /* \"#utility.yul\":8273:8542   */\n      pop\n      pop\n      pop\n      jump\t// out\n        /* \"#utility.yul\":8548:8621   */\n    tag_58:\n        /* \"#utility.yul\":8593:8596   */\n      0x00\n        /* \"#utility.yul\":8548:8621   */\n      swap1\n      jump\t// out\n        /* \"#utility.yul\":8627:8816   */\n    tag_59:\n        /* \"#utility.yul\":8704:8736   */\n      tag_163\n      tag_58\n      jump\t// in\n    tag_163:\n        /* \"#utility.yul\":8745:8810   */\n      tag_164\n        /* \"#utility.yul\":8803:8809   */\n      dup2\n        /* \"#utility.yul\":8795:8801   */\n      dup5\n        /* \"#utility.yul\":8789:8793   */\n      dup5\n        /* \"#utility.yul\":8745:8810   */\n      tag_57\n      jump\t// in\n    tag_164:\n        /* \"#utility.yul\":8680:8816   */\n      pop\n        /* \"#utility.yul\":8627:8816   */\n      pop\n      pop\n      jump\t// out\n        /* \"#utility.yul\":8822:9008   */\n    tag_60:\n        /* \"#utility.yul\":8882:9002   */\n    tag_166:\n        /* \"#utility.yul\":8899:8902   */\n      dup2\n        /* \"#utility.yul\":8892:8897   */\n      dup2\n        /* \"#utility.yul\":8889:8903   */\n      lt\n        /* \"#utility.yul\":8882:9002   */\n      iszero\n      tag_168\n      jumpi\n        /* \"#utility.yul\":8953:8992   */\n      tag_169\n        /* \"#utility.yul\":8990:8991   */\n      0x00\n        /* \"#utility.yul\":8983:8988   */\n      dup3\n        /* \"#utility.yul\":8953:8992   */\n      tag_59\n      jump\t// in\n    tag_169:\n        /* \"#utility.yul\":8926:8927   */\n      0x01\n        /* \"#utility.yul\":8919:8924   */\n      dup2\n        /* \"#utility.yul\":8915:8928   */\n      add\n        /* \"#utility.yul\":8906:8928   */\n      swap1\n      pop\n        /* \"#utility.yul\":8882:9002   */\n      jump(tag_166)\n    tag_168:\n        /* \"#utility.yul\":8822:9008   */\n      pop\n      pop\n      jump\t// out\n        /* \"#utility.yul\":9014:9557   */\n    tag_61:\n        /* \"#utility.yul\":9115:9117   */\n      0x1f\n        /* \"#utility.yul\":9110:9113   */\n      dup3\n        /* \"#utility.yul\":9107:9118   */\n      gt\n        /* \"#utility.yul\":9104:9550   */\n      iszero\n      tag_171\n      jumpi\n        /* \"#utility.yul\":9149:9187   */\n      tag_172\n        /* \"#utility.yul\":9181:9186   */\n      dup2\n        /* \"#utility.yul\":9149:9187   */\n      tag_50\n      jump\t// in\n    tag_172:\n        /* \"#utility.yul\":9233:9262   */\n      tag_173\n        /* \"#utility.yul\":9251:9261   */\n      dup5\n        /* \"#utility.yul\":9233:9262   */\n      tag_51\n      jump\t// in\n    tag_173:\n        /* \"#utility.yul\":9223:9231   */\n      dup2\n        /* \"#utility.yul\":9219:9263   */\n      add\n        /* \"#utility.yul\":9416:9418   */\n      0x20\n        /* \"#utility.yul\":9404:9414   */\n      dup6\n        /* \"#utility.yul\":9401:9419   */\n      lt\n        /* \"#utility.yul\":9398:9447   */\n      iszero\n      tag_174\n      jumpi\n        /* \"#utility.yul\":9437:9445   */\n      dup2\n        /* \"#utility.yul\":9422:9445   */\n      swap1\n      pop\n        /* \"#utility.yul\":9398:9447   */\n    tag_174:\n        /* \"#utility.yul\":9460:9540   */\n      tag_175\n        /* \"#utility.yul\":9516:9538   */\n      tag_176\n        /* \"#utility.yul\":9534:9537   */\n      dup6\n        /* \"#utility.yul\":9516:9538   */\n      tag_51\n      jump\t// in\n    tag_176:\n        /* \"#utility.yul\":9506:9514   */\n      dup4\n        /* \"#utility.yul\":9502:9539   */\n      add\n        /* \"#utility.yul\":9489:9500   */\n      dup3\n        /* \"#utility.yul\":9460:9540   */\n      tag_60\n      jump\t// in\n    tag_175:\n        /* \"#utility.yul\":9119:9550   */\n      pop\n      pop\n        /* \"#utility.yul\":9104:9550   */\n    tag_171:\n        /* \"#utility.yul\":9014:9557   */\n      pop\n      pop\n      pop\n      jump\t// out\n        /* \"#utility.yul\":9563:9680   */\n    tag_62:\n        /* \"#utility.yul\":9617:9625   */\n      0x00\n        /* \"#utility.yul\":9667:9672   */\n      dup3\n        /* \"#utility.yul\":9661:9665   */\n      dup3\n        /* \"#utility.yul\":9657:9673   */\n      shr\n        /* \"#utility.yul\":9636:9673   */\n      swap1\n      pop\n        /* \"#utility.yul\":9563:9680   */\n      swap3\n      swap2\n      pop\n      pop\n      jump\t// out\n        /* \"#utility.yul\":9686:9855   */\n    tag_63:\n        /* \"#utility.yul\":9730:9736   */\n      0x00\n        /* \"#utility.yul\":9763:9814   */\n      tag_179\n        /* \"#utility.yul\":9811:9812   */\n      0x00\n        /* \"#utility.yul\":9807:9813   */\n      not\n        /* \"#utility.yul\":9799:9804   */\n      dup5\n        /* \"#utility.yul\":9796:9797   */\n      0x08\n        /* \"#utility.yul\":9792:9805   */\n      mul\n        /* \"#utility.yul\":9763:9814   */\n      tag_62\n      jump\t// in\n    tag_179:\n        /* \"#utility.yul\":9759:9815   */\n      not\n        /* \"#utility.yul\":9844:9848   */\n      dup1\n        /* \"#utility.yul\":9838:9842   */\n      dup4\n        /* \"#utility.yul\":9834:9849   */\n      and\n        /* \"#utility.yul\":9824:9849   */\n      swap2\n      pop\n        /* \"#utility.yul\":9737:9855   */\n      pop\n        /* \"#utility.yul\":9686:9855   */\n      swap3\n      swap2\n      pop\n      pop\n      jump\t// out\n        /* \"#utility.yul\":9860:10155   */\n    tag_64:\n        /* \"#utility.yul\":9936:9940   */\n      0x00\n        /* \"#utility.yul\":10082:10111   */\n      tag_181\n        /* \"#utility.yul\":10107:10110   */\n      dup4\n        /* \"#utility.yul\":10101:10105   */\n      dup4\n        /* \"#utility.yul\":10082:10111   */\n      tag_63\n      jump\t// in\n    tag_181:\n        /* \"#utility.yul\":10074:10111   */\n      swap2\n      pop\n        /* \"#utility.yul\":10144:10147   */\n      dup3\n        /* \"#utility.yul\":10141:10142   */\n      0x02\n        /* \"#utility.yul\":10137:10148   */\n      mul\n        /* \"#utility.yul\":10131:10135   */\n      dup3\n        /* \"#utility.yul\":10128:10149   */\n      or\n        /* \"#utility.yul\":10120:10149   */\n      swap1\n      pop\n        /* \"#utility.yul\":9860:10155   */\n      swap3\n      swap2\n      pop\n      pop\n      jump\t// out\n        /* \"#utility.yul\":10160:11555   */\n    tag_25:\n        /* \"#utility.yul\":10277:10314   */\n      tag_183\n        /* \"#utility.yul\":10310:10313   */\n      dup3\n        /* \"#utility.yul\":10277:10314   */\n      tag_39\n      jump\t// in\n    tag_183:\n        /* \"#utility.yul\":10379:10397   */\n      0xffffffffffffffff\n        /* \"#utility.yul\":10371:10377   */\n      dup2\n        /* \"#utility.yul\":10368:10398   */\n      gt\n        /* \"#utility.yul\":10365:10421   */\n      iszero\n      tag_184\n      jumpi\n        /* \"#utility.yul\":10401:10419   */\n      tag_185\n      tag_32\n      jump\t// in\n    tag_185:\n        /* \"#utility.yul\":10365:10421   */\n    tag_184:\n        /* \"#utility.yul\":10445:10483   */\n      tag_186\n        /* \"#utility.yul\":10477:10481   */\n      dup3\n        /* \"#utility.yul\":10471:10482   */\n      sload\n        /* \"#utility.yul\":10445:10483   */\n      tag_16\n      jump\t// in\n    tag_186:\n        /* \"#utility.yul\":10530:10597   */\n      tag_187\n        /* \"#utility.yul\":10590:10596   */\n      dup3\n        /* \"#utility.yul\":10582:10588   */\n      dup3\n        /* \"#utility.yul\":10576:10580   */\n      dup6\n        /* \"#utility.yul\":10530:10597   */\n      tag_61\n      jump\t// in\n    tag_187:\n        /* \"#utility.yul\":10624:10625   */\n      0x00\n        /* \"#utility.yul\":10648:10652   */\n      0x20\n        /* \"#utility.yul\":10635:10652   */\n      swap1\n      pop\n        /* \"#utility.yul\":10680:10682   */\n      0x1f\n        /* \"#utility.yul\":10672:10678   */\n      dup4\n        /* \"#utility.yul\":10669:10683   */\n      gt\n        /* \"#utility.yul\":10697:10698   */\n      0x01\n        /* \"#utility.yul\":10692:11310   */\n      dup2\n      eq\n      tag_189\n      jumpi\n        /* \"#utility.yul\":11354:11355   */\n      0x00\n        /* \"#utility.yul\":11371:11377   */\n      dup5\n        /* \"#utility.yul\":11368:11445   */\n      iszero\n      tag_190\n      jumpi\n        /* \"#utility.yul\":11420:11429   */\n      dup3\n        /* \"#utility.yul\":11415:11418   */\n      dup8\n        /* \"#utility.yul\":11411:11430   */\n      add\n        /* \"#utility.yul\":11405:11431   */\n      mload\n        /* \"#utility.yul\":11396:11431   */\n      swap1\n      pop\n        /* \"#utility.yul\":11368:11445   */\n    tag_190:\n        /* \"#utility.yul\":11471:11538   */\n      tag_191\n        /* \"#utility.yul\":11531:11537   */\n      dup6\n        /* \"#utility.yul\":11524:11529   */\n      dup3\n        /* \"#utility.yul\":11471:11538   */\n      tag_64\n      jump\t// in\n    tag_191:\n        /* \"#utility.yul\":11465:11469   */\n      dup7\n        /* \"#utility.yul\":11458:11539   */\n      sstore\n        /* \"#utility.yul\":11327:11549   */\n      pop\n        /* \"#utility.yul\":10662:11549   */\n      jump(tag_188)\n        /* \"#utility.yul\":10692:11310   */\n    tag_189:\n        /* \"#utility.yul\":10744:10748   */\n      0x1f\n        /* \"#utility.yul\":10740:10749   */\n      not\n        /* \"#utility.yul\":10732:10738   */\n      dup5\n        /* \"#utility.yul\":10728:10750   */\n      and\n        /* \"#utility.yul\":10778:10815   */\n      tag_192\n        /* \"#utility.yul\":10810:10814   */\n      dup7\n        /* \"#utility.yul\":10778:10815   */\n      tag_50\n      jump\t// in\n    tag_192:\n        /* \"#utility.yul\":10837:10838   */\n      0x00\n        /* \"#utility.yul\":10851:11059   */\n    tag_193:\n        /* \"#utility.yul\":10865:10872   */\n      dup3\n        /* \"#utility.yul\":10862:10863   */\n      dup2\n        /* \"#utility.yul\":10859:10873   */\n      lt\n        /* \"#utility.yul\":10851:11059   */\n      iszero\n      tag_195\n      jumpi\n        /* \"#utility.yul\":10944:10953   */\n      dup5\n        /* \"#utility.yul\":10939:10942   */\n      dup10\n        /* \"#utility.yul\":10935:10954   */\n      add\n        /* \"#utility.yul\":10929:10955   */\n      mload\n        /* \"#utility.yul\":10921:10927   */\n      dup3\n        /* \"#utility.yul\":10914:10956   */\n      sstore\n        /* \"#utility.yul\":10995:10996   */\n      0x01\n        /* \"#utility.yul\":10987:10993   */\n      dup3\n        /* \"#utility.yul\":10983:10997   */\n      add\n        /* \"#utility.yul\":10973:10997   */\n      swap2\n      pop\n        /* \"#utility.yul\":11042:11044   */\n      0x20\n        /* \"#utility.yul\":11031:11040   */\n      dup6\n        /* \"#utility.yul\":11027:11045   */\n      add\n        /* \"#utility.yul\":11014:11045   */\n      swap5\n      pop\n        /* \"#utility.yul\":10888:10892   */\n      0x20\n        /* \"#utility.yul\":10885:10886   */\n      dup2\n        /* \"#utility.yul\":10881:10893   */\n      add\n        /* \"#utility.yul\":10876:10893   */\n      swap1\n      pop\n        /* \"#utility.yul\":10851:11059   */\n      jump(tag_193)\n    tag_195:\n        /* \"#utility.yul\":11087:11093   */\n      dup7\n        /* \"#utility.yul\":11078:11085   */\n      dup4\n        /* \"#utility.yul\":11075:11094   */\n      lt\n        /* \"#utility.yul\":11072:11251   */\n      iszero\n      tag_196\n      jumpi\n        /* \"#utility.yul\":11145:11154   */\n      dup5\n        /* \"#utility.yul\":11140:11143   */\n      dup10\n        /* \"#utility.yul\":11136:11155   */\n      add\n        /* \"#utility.yul\":11130:11156   */\n      mload\n        /* \"#utility.yul\":11188:11236   */\n      tag_197\n        /* \"#utility.yul\":11230:11234   */\n      0x1f\n        /* \"#utility.yul\":11222:11228   */\n      dup10\n        /* \"#utility.yul\":11218:11235   */\n      and\n        /* \"#utility.yul\":11207:11216   */\n      dup3\n        /* \"#utility.yul\":11188:11236   */\n      tag_63\n      jump\t// in\n    tag_197:\n        /* \"#utility.yul\":11180:11186   */\n      dup4\n        /* \"#utility.yul\":11173:11237   */\n      sstore\n        /* \"#utility.yul\":11095:11251   */\n      pop\n        /* \"#utility.yul\":11072:11251   */\n    tag_196:\n        /* \"#utility.yul\":11297:11298   */\n      0x01\n        /* \"#utility.yul\":11293:11294   */\n      0x02\n        /* \"#utility.yul\":11285:11291   */\n      dup9\n        /* \"#utility.yul\":11281:11295   */\n      mul\n        /* \"#utility.yul\":11277:11299   */\n      add\n        /* \"#utility.yul\":11271:11275   */\n      dup9\n        /* \"#utility.yul\":11264:11300   */\n      sstore\n        /* \"#utility.yul\":10699:11310   */\n      pop\n      pop\n      pop\n        /* \"#utility.yul\":10662:11549   */\n    tag_188:\n      pop\n        /* \"#utility.yul\":10252:11555   */\n      pop\n      pop\n      pop\n        /* \"#utility.yul\":10160:11555   */\n      pop\n      pop\n      jump\t// out\n\n    auxdata: 0xa2646970667358221220062e2f2908b8d960bfa00fa97ae1f05a55d2cf1621414bba53c55d8a69632aed64736f6c63430008120033\n}\n",
				"bytecode": {
					"linkReferences": {},
					"object": "608060405234801561001057600080fd5b5061082e806100206000396000f3fe608060405234801561001057600080fd5b50600436106100365760003560e01c80632b9dfe801461003b578063557cd9411461006c575b600080fd5b610055600480360381019061005091906102ff565b610088565b6040516100639291906103e0565b60405180910390f35b6100866004803603810190610081919061043c565b61014a565b005b6000818051602081018201805184825260208301602085012081835280955050505050506000915090508060000180546100c1906104f6565b80601f01602080910402602001604051908101604052809291908181526020018280546100ed906104f6565b801561013a5780601f1061010f5761010080835404028352916020019161013a565b820191906000526020600020905b81548152906001019060200180831161011d57829003601f168201915b5050505050908060010154905082565b60405180604001604052808381526020018281525060008460405161016f9190610563565b908152602001604051809103902060008201518160000190816101929190610726565b5060208201518160010155905050505050565b6000604051905090565b600080fd5b600080fd5b600080fd5b600080fd5b6000601f19601f8301169050919050565b7f4e487b7100000000000000000000000000000000000000000000000000000000600052604160045260246000fd5b61020c826101c3565b810181811067ffffffffffffffff8211171561022b5761022a6101d4565b5b80604052505050565b600061023e6101a5565b905061024a8282610203565b919050565b600067ffffffffffffffff82111561026a576102696101d4565b5b610273826101c3565b9050602081019050919050565b82818337600083830152505050565b60006102a261029d8461024f565b610234565b9050828152602081018484840111156102be576102bd6101be565b5b6102c9848285610280565b509392505050565b600082601f8301126102e6576102e56101b9565b5b81356102f684826020860161028f565b91505092915050565b600060208284031215610315576103146101af565b5b600082013567ffffffffffffffff811115610333576103326101b4565b5b61033f848285016102d1565b91505092915050565b600081519050919050565b600082825260208201905092915050565b60005b83811015610382578082015181840152602081019050610367565b60008484015250505050565b600061039982610348565b6103a38185610353565b93506103b3818560208601610364565b6103bc816101c3565b840191505092915050565b6000819050919050565b6103da816103c7565b82525050565b600060408201905081810360008301526103fa818561038e565b905061040960208301846103d1565b9392505050565b610419816103c7565b811461042457600080fd5b50565b60008135905061043681610410565b92915050565b600080600060608486031215610455576104546101af565b5b600084013567ffffffffffffffff811115610473576104726101b4565b5b61047f868287016102d1565b935050602084013567ffffffffffffffff8111156104a05761049f6101b4565b5b6104ac868287016102d1565b92505060406104bd86828701610427565b9150509250925092565b7f4e487b7100000000000000000000000000000000000000000000000000000000600052602260045260246000fd5b6000600282049050600182168061050e57607f821691505b602082108103610521576105206104c7565b5b50919050565b600081905092915050565b600061053d82610348565b6105478185610527565b9350610557818560208601610364565b80840191505092915050565b600061056f8284610532565b915081905092915050565b60008190508160005260206000209050919050565b60006020601f8301049050919050565b600082821b905092915050565b6000600883026105dc7fffffffffffffffffffffffffffffffffffffffffffffffffffffffffffffffff8261059f565b6105e6868361059f565b95508019841693508086168417925050509392505050565b6000819050919050565b600061062361061e610619846103c7565b6105fe565b6103c7565b9050919050565b6000819050919050565b61063d83610608565b6106516106498261062a565b8484546105ac565b825550505050565b600090565b610666610659565b610671818484610634565b505050565b5b818110156106955761068a60008261065e565b600181019050610677565b5050565b601f8211156106da576106ab8161057a565b6106b48461058f565b810160208510156106c3578190505b6106d76106cf8561058f565b830182610676565b50505b505050565b600082821c905092915050565b60006106fd600019846008026106df565b1980831691505092915050565b600061071683836106ec565b9150826002028217905092915050565b61072f82610348565b67ffffffffffffffff811115610748576107476101d4565b5b61075282546104f6565b61075d828285610699565b600060209050601f831160018114610790576000841561077e578287015190505b610788858261070a565b8655506107f0565b601f19841661079e8661057a565b60005b828110156107c6578489015182556001820191506020850194506020810190506107a1565b868310156107e357848901516107df601f8916826106ec565b8355505b6001600288020188555050505b50505050505056fea2646970667358221220062e2f2908b8d960bfa00fa97ae1f05a55d2cf1621414bba53c55d8a69632aed64736f6c63430008120033",
					"opcodes": "PUSH1 0x80 PUSH1 0x40 MSTORE CALLVALUE DUP1 ISZERO PUSH2 0x10 JUMPI PUSH1 0x0 DUP1 REVERT JUMPDEST POP PUSH2 0x82E DUP1 PUSH2 0x20 PUSH1 0x0 CODECOPY PUSH1 0x0 RETURN INVALID PUSH1 0x80 PUSH1 0x40 MSTORE CALLVALUE DUP1 ISZERO PUSH2 0x10 JUMPI PUSH1 0x0 DUP1 REVERT JUMPDEST POP PUSH1 0x4 CALLDATASIZE LT PUSH2 0x36 JUMPI PUSH1 0x0 CALLDATALOAD PUSH1 0xE0 SHR DUP1 PUSH4 0x2B9DFE80 EQ PUSH2 0x3B JUMPI DUP1 PUSH4 0x557CD941 EQ PUSH2 0x6C JUMPI JUMPDEST PUSH1 0x0 DUP1 REVERT JUMPDEST PUSH2 0x55 PUSH1 0x4 DUP1 CALLDATASIZE SUB DUP2 ADD SWAP1 PUSH2 0x50 SWAP2 SWAP1 PUSH2 0x2FF JUMP JUMPDEST PUSH2 0x88 JUMP JUMPDEST PUSH1 0x40 MLOAD PUSH2 0x63 SWAP3 SWAP2 SWAP1 PUSH2 0x3E0 JUMP JUMPDEST PUSH1 0x40 MLOAD DUP1 SWAP2 SUB SWAP1 RETURN JUMPDEST PUSH2 0x86 PUSH1 0x4 DUP1 CALLDATASIZE SUB DUP2 ADD SWAP1 PUSH2 0x81 SWAP2 SWAP1 PUSH2 0x43C JUMP JUMPDEST PUSH2 0x14A JUMP JUMPDEST STOP JUMPDEST PUSH1 0x0 DUP2 DUP1 MLOAD PUSH1 0x20 DUP2 ADD DUP3 ADD DUP1 MLOAD DUP5 DUP3 MSTORE PUSH1 0x20 DUP4 ADD PUSH1 0x20 DUP6 ADD KECCAK256 DUP2 DUP4 MSTORE DUP1 SWAP6 POP POP POP POP POP POP PUSH1 0x0 SWAP2 POP SWAP1 POP DUP1 PUSH1 0x0 ADD DUP1 SLOAD PUSH2 0xC1 SWAP1 PUSH2 0x4F6 JUMP JUMPDEST DUP1 PUSH1 0x1F ADD PUSH1 0x20 DUP1 SWAP2 DIV MUL PUSH1 0x20 ADD PUSH1 0x40 MLOAD SWAP1 DUP2 ADD PUSH1 0x40 MSTORE DUP1 SWAP3 SWAP2 SWAP1 DUP2 DUP2 MSTORE PUSH1 0x20 ADD DUP3 DUP1 SLOAD PUSH2 0xED SWAP1 PUSH2 0x4F6 JUMP JUMPDEST DUP1 ISZERO PUSH2 0x13A JUMPI DUP1 PUSH1 0x1F LT PUSH2 0x10F JUMPI PUSH2 0x100 DUP1 DUP4 SLOAD DIV MUL DUP4 MSTORE SWAP2 PUSH1 0x20 ADD SWAP2 PUSH2 0x13A JUMP JUMPDEST DUP3 ADD SWAP2 SWAP1 PUSH1 0x0 MSTORE PUSH1 0x20 PUSH1 0x0 KECCAK256 SWAP1 JUMPDEST DUP2 SLOAD DUP2 MSTORE SWAP1 PUSH1 0x1 ADD SWAP1 PUSH1 0x20 ADD DUP1 DUP4 GT PUSH2 0x11D JUMPI DUP3 SWAP1 SUB PUSH1 0x1F AND DUP3 ADD SWAP2 JUMPDEST POP POP POP POP POP SWAP1 DUP1 PUSH1 0x1 ADD SLOAD SWAP1 POP DUP3 JUMP JUMPDEST PUSH1 0x40 MLOAD DUP1 PUSH1 0x40 ADD PUSH1 0x40 MSTORE DUP1 DUP4 DUP2 MSTORE PUSH1 0x20 ADD DUP3 DUP2 MSTORE POP PUSH1 0x0 DUP5 PUSH1 0x40 MLOAD PUSH2 0x16F SWAP2 SWAP1 PUSH2 0x563 JUMP JUMPDEST SWAP1 DUP2 MSTORE PUSH1 0x20 ADD PUSH1 0x40 MLOAD DUP1 SWAP2 SUB SWAP1 KECCAK256 PUSH1 0x0 DUP3 ADD MLOAD DUP2 PUSH1 0x0 ADD SWAP1 DUP2 PUSH2 0x192 SWAP2 SWAP1 PUSH2 0x726 JUMP JUMPDEST POP PUSH1 0x20 DUP3 ADD MLOAD DUP2 PUSH1 0x1 ADD SSTORE SWAP1 POP POP POP POP POP JUMP JUMPDEST PUSH1 0x0 PUSH1 0x40 MLOAD SWAP1 POP SWAP1 JUMP JUMPDEST PUSH1 0x0 DUP1 REVERT JUMPDEST PUSH1 0x0 DUP1 REVERT JUMPDEST PUSH1 0x0 DUP1 REVERT JUMPDEST PUSH1 0x0 DUP1 REVERT JUMPDEST PUSH1 0x0 PUSH1 0x1F NOT PUSH1 0x1F DUP4 ADD AND SWAP1 POP SWAP2 SWAP1 POP JUMP JUMPDEST PUSH32 0x4E487B7100000000000000000000000000000000000000000000000000000000 PUSH1 0x0 MSTORE PUSH1 0x41 PUSH1 0x4 MSTORE PUSH1 0x24 PUSH1 0x0 REVERT JUMPDEST PUSH2 0x20C DUP3 PUSH2 0x1C3 JUMP JUMPDEST DUP2 ADD DUP2 DUP2 LT PUSH8 0xFFFFFFFFFFFFFFFF DUP3 GT OR ISZERO PUSH2 0x22B JUMPI PUSH2 0x22A PUSH2 0x1D4 JUMP JUMPDEST JUMPDEST DUP1 PUSH1 0x40 MSTORE POP POP POP JUMP JUMPDEST PUSH1 0x0 PUSH2 0x23E PUSH2 0x1A5 JUMP JUMPDEST SWAP1 POP PUSH2 0x24A DUP3 DUP3 PUSH2 0x203 JUMP JUMPDEST SWAP2 SWAP1 POP JUMP JUMPDEST PUSH1 0x0 PUSH8 0xFFFFFFFFFFFFFFFF DUP3 GT ISZERO PUSH2 0x26A JUMPI PUSH2 0x269 PUSH2 0x1D4 JUMP JUMPDEST JUMPDEST PUSH2 0x273 DUP3 PUSH2 0x1C3 JUMP JUMPDEST SWAP1 POP PUSH1 0x20 DUP2 ADD SWAP1 POP SWAP2 SWAP1 POP JUMP JUMPDEST DUP3 DUP2 DUP4 CALLDATACOPY PUSH1 0x0 DUP4 DUP4 ADD MSTORE POP POP POP JUMP JUMPDEST PUSH1 0x0 PUSH2 0x2A2 PUSH2 0x29D DUP5 PUSH2 0x24F JUMP JUMPDEST PUSH2 0x234 JUMP JUMPDEST SWAP1 POP DUP3 DUP2 MSTORE PUSH1 0x20 DUP2 ADD DUP5 DUP5 DUP5 ADD GT ISZERO PUSH2 0x2BE JUMPI PUSH2 0x2BD PUSH2 0x1BE JUMP JUMPDEST JUMPDEST PUSH2 0x2C9 DUP5 DUP3 DUP6 PUSH2 0x280 JUMP JUMPDEST POP SWAP4 SWAP3 POP POP POP JUMP JUMPDEST PUSH1 0x0 DUP3 PUSH1 0x1F DUP4 ADD SLT PUSH2 0x2E6 JUMPI PUSH2 0x2E5 PUSH2 0x1B9 JUMP JUMPDEST JUMPDEST DUP2 CALLDATALOAD PUSH2 0x2F6 DUP5 DUP3 PUSH1 0x20 DUP7 ADD PUSH2 0x28F JUMP JUMPDEST SWAP2 POP POP SWAP3 SWAP2 POP POP JUMP JUMPDEST PUSH1 0x0 PUSH1 0x20 DUP3 DUP5 SUB SLT ISZERO PUSH2 0x315 JUMPI PUSH2 0x314 PUSH2 0x1AF JUMP JUMPDEST JUMPDEST PUSH1 0x0 DUP3 ADD CALLDATALOAD PUSH8 0xFFFFFFFFFFFFFFFF DUP2 GT ISZERO PUSH2 0x333 JUMPI PUSH2 0x332 PUSH2 0x1B4 JUMP JUMPDEST JUMPDEST PUSH2 0x33F DUP5 DUP3 DUP6 ADD PUSH2 0x2D1 JUMP JUMPDEST SWAP2 POP POP SWAP3 SWAP2 POP POP JUMP JUMPDEST PUSH1 0x0 DUP2 MLOAD SWAP1 POP SWAP2 SWAP1 POP JUMP JUMPDEST PUSH1 0x0 DUP3 DUP3 MSTORE PUSH1 0x20 DUP3 ADD SWAP1 POP SWAP3 SWAP2 POP POP JUMP JUMPDEST PUSH1 0x0 JUMPDEST DUP4 DUP2 LT ISZERO PUSH2 0x382 JUMPI DUP1 DUP3 ADD MLOAD DUP2 DUP5 ADD MSTORE PUSH1 0x20 DUP2 ADD SWAP1 POP PUSH2 0x367 JUMP JUMPDEST PUSH1 0x0 DUP5 DUP5 ADD MSTORE POP POP POP POP JUMP JUMPDEST PUSH1 0x0 PUSH2 0x399 DUP3 PUSH2 0x348 JUMP JUMPDEST PUSH2 0x3A3 DUP2 DUP6 PUSH2 0x353 JUMP JUMPDEST SWAP4 POP PUSH2 0x3B3 DUP2 DUP6 PUSH1 0x20 DUP7 ADD PUSH2 0x364 JUMP JUMPDEST PUSH2 0x3BC DUP2 PUSH2 0x1C3 JUMP JUMPDEST DUP5 ADD SWAP2 POP POP SWAP3 SWAP2 POP POP JUMP JUMPDEST PUSH1 0x0 DUP2 SWAP1 POP SWAP2 SWAP1 POP JUMP JUMPDEST PUSH2 0x3DA DUP2 PUSH2 0x3C7 JUMP JUMPDEST DUP3 MSTORE POP POP JUMP JUMPDEST PUSH1 0x0 PUSH1 0x40 DUP3 ADD SWAP1 POP DUP2 DUP2 SUB PUSH1 0x0 DUP4 ADD MSTORE PUSH2 0x3FA DUP2 DUP6 PUSH2 0x38E JUMP JUMPDEST SWAP1 POP PUSH2 0x409 PUSH1 0x20 DUP4 ADD DUP5 PUSH2 0x3D1 JUMP JUMPDEST SWAP4 SWAP3 POP POP POP JUMP JUMPDEST PUSH2 0x419 DUP2 PUSH2 0x3C7 JUMP JUMPDEST DUP2 EQ PUSH2 0x424 JUMPI PUSH1 0x0 DUP1 REVERT JUMPDEST POP JUMP JUMPDEST PUSH1 0x0 DUP2 CALLDATALOAD SWAP1 POP PUSH2 0x436 DUP2 PUSH2 0x410 JUMP JUMPDEST SWAP3 SWAP2 POP POP JUMP JUMPDEST PUSH1 0x0 DUP1 PUSH1 0x0 PUSH1 0x60 DUP5 DUP7 SUB SLT ISZERO PUSH2 0x455 JUMPI PUSH2 0x454 PUSH2 0x1AF JUMP JUMPDEST JUMPDEST PUSH1 0x0 DUP5 ADD CALLDATALOAD PUSH8 0xFFFFFFFFFFFFFFFF DUP2 GT ISZERO PUSH2 0x473 JUMPI PUSH2 0x472 PUSH2 0x1B4 JUMP JUMPDEST JUMPDEST PUSH2 0x47F DUP7 DUP3 DUP8 ADD PUSH2 0x2D1 JUMP JUMPDEST SWAP4 POP POP PUSH1 0x20 DUP5 ADD CALLDATALOAD PUSH8 0xFFFFFFFFFFFFFFFF DUP2 GT ISZERO PUSH2 0x4A0 JUMPI PUSH2 0x49F PUSH2 0x1B4 JUMP JUMPDEST JUMPDEST PUSH2 0x4AC DUP7 DUP3 DUP8 ADD PUSH2 0x2D1 JUMP JUMPDEST SWAP3 POP POP PUSH1 0x40 PUSH2 0x4BD DUP7 DUP3 DUP8 ADD PUSH2 0x427 JUMP JUMPDEST SWAP2 POP POP SWAP3 POP SWAP3 POP SWAP3 JUMP JUMPDEST PUSH32 0x4E487B7100000000000000000000000000000000000000000000000000000000 PUSH1 0x0 MSTORE PUSH1 0x22 PUSH1 0x4 MSTORE PUSH1 0x24 PUSH1 0x0 REVERT JUMPDEST PUSH1 0x0 PUSH1 0x2 DUP3 DIV SWAP1 POP PUSH1 0x1 DUP3 AND DUP1 PUSH2 0x50E JUMPI PUSH1 0x7F DUP3 AND SWAP2 POP JUMPDEST PUSH1 0x20 DUP3 LT DUP2 SUB PUSH2 0x521 JUMPI PUSH2 0x520 PUSH2 0x4C7 JUMP JUMPDEST JUMPDEST POP SWAP2 SWAP1 POP JUMP JUMPDEST PUSH1 0x0 DUP2 SWAP1 POP SWAP3 SWAP2 POP POP JUMP JUMPDEST PUSH1 0x0 PUSH2 0x53D DUP3 PUSH2 0x348 JUMP JUMPDEST PUSH2 0x547 DUP2 DUP6 PUSH2 0x527 JUMP JUMPDEST SWAP4 POP PUSH2 0x557 DUP2 DUP6 PUSH1 0x20 DUP7 ADD PUSH2 0x364 JUMP JUMPDEST DUP1 DUP5 ADD SWAP2 POP POP SWAP3 SWAP2 POP POP JUMP JUMPDEST PUSH1 0x0 PUSH2 0x56F DUP3 DUP5 PUSH2 0x532 JUMP JUMPDEST SWAP2 POP DUP2 SWAP1 POP SWAP3 SWAP2 POP POP JUMP JUMPDEST PUSH1 0x0 DUP2 SWAP1 POP DUP2 PUSH1 0x0 MSTORE PUSH1 0x20 PUSH1 0x0 KECCAK256 SWAP1 POP SWAP2 SWAP1 POP JUMP JUMPDEST PUSH1 0x0 PUSH1 0x20 PUSH1 0x1F DUP4 ADD DIV SWAP1 POP SWAP2 SWAP1 POP JUMP JUMPDEST PUSH1 0x0 DUP3 DUP3 SHL SWAP1 POP SWAP3 SWAP2 POP POP JUMP JUMPDEST PUSH1 0x0 PUSH1 0x8 DUP4 MUL PUSH2 0x5DC PUSH32 0xFFFFFFFFFFFFFFFFFFFFFFFFFFFFFFFFFFFFFFFFFFFFFFFFFFFFFFFFFFFFFFFF DUP3 PUSH2 0x59F JUMP JUMPDEST PUSH2 0x5E6 DUP7 DUP4 PUSH2 0x59F JUMP JUMPDEST SWAP6 POP DUP1 NOT DUP5 AND SWAP4 POP DUP1 DUP7 AND DUP5 OR SWAP3 POP POP POP SWAP4 SWAP3 POP POP POP JUMP JUMPDEST PUSH1 0x0 DUP2 SWAP1 POP SWAP2 SWAP1 POP JUMP JUMPDEST PUSH1 0x0 PUSH2 0x623 PUSH2 0x61E PUSH2 0x619 DUP5 PUSH2 0x3C7 JUMP JUMPDEST PUSH2 0x5FE JUMP JUMPDEST PUSH2 0x3C7 JUMP JUMPDEST SWAP1 POP SWAP2 SWAP1 POP JUMP JUMPDEST PUSH1 0x0 DUP2 SWAP1 POP SWAP2 SWAP1 POP JUMP JUMPDEST PUSH2 0x63D DUP4 PUSH2 0x608 JUMP JUMPDEST PUSH2 0x651 PUSH2 0x649 DUP3 PUSH2 0x62A JUMP JUMPDEST DUP5 DUP5 SLOAD PUSH2 0x5AC JUMP JUMPDEST DUP3 SSTORE POP POP POP POP JUMP JUMPDEST PUSH1 0x0 SWAP1 JUMP JUMPDEST PUSH2 0x666 PUSH2 0x659 JUMP JUMPDEST PUSH2 0x671 DUP2 DUP5 DUP5 PUSH2 0x634 JUMP JUMPDEST POP POP POP JUMP JUMPDEST JUMPDEST DUP2 DUP2 LT ISZERO PUSH2 0x695 JUMPI PUSH2 0x68A PUSH1 0x0 DUP3 PUSH2 0x65E JUMP JUMPDEST PUSH1 0x1 DUP2 ADD SWAP1 POP PUSH2 0x677 JUMP JUMPDEST POP POP JUMP JUMPDEST PUSH1 0x1F DUP3 GT ISZERO PUSH2 0x6DA JUMPI PUSH2 0x6AB DUP2 PUSH2 0x57A JUMP JUMPDEST PUSH2 0x6B4 DUP5 PUSH2 0x58F JUMP JUMPDEST DUP2 ADD PUSH1 0x20 DUP6 LT ISZERO PUSH2 0x6C3 JUMPI DUP2 SWAP1 POP JUMPDEST PUSH2 0x6D7 PUSH2 0x6CF DUP6 PUSH2 0x58F JUMP JUMPDEST DUP4 ADD DUP3 PUSH2 0x676 JUMP JUMPDEST POP POP JUMPDEST POP POP POP JUMP JUMPDEST PUSH1 0x0 DUP3 DUP3 SHR SWAP1 POP SWAP3 SWAP2 POP POP JUMP JUMPDEST PUSH1 0x0 PUSH2 0x6FD PUSH1 0x0 NOT DUP5 PUSH1 0x8 MUL PUSH2 0x6DF JUMP JUMPDEST NOT DUP1 DUP4 AND SWAP2 POP POP SWAP3 SWAP2 POP POP JUMP JUMPDEST PUSH1 0x0 PUSH2 0x716 DUP4 DUP4 PUSH2 0x6EC JUMP JUMPDEST SWAP2 POP DUP3 PUSH1 0x2 MUL DUP3 OR SWAP1 POP SWAP3 SWAP2 POP POP JUMP JUMPDEST PUSH2 0x72F DUP3 PUSH2 0x348 JUMP JUMPDEST PUSH8 0xFFFFFFFFFFFFFFFF DUP2 GT ISZERO PUSH2 0x748 JUMPI PUSH2 0x747 PUSH2 0x1D4 JUMP JUMPDEST JUMPDEST PUSH2 0x752 DUP3 SLOAD PUSH2 0x4F6 JUMP JUMPDEST PUSH2 0x75D DUP3 DUP3 DUP6 PUSH2 0x699 JUMP JUMPDEST PUSH1 0x0 PUSH1 0x20 SWAP1 POP PUSH1 0x1F DUP4 GT PUSH1 0x1 DUP2 EQ PUSH2 0x790 JUMPI PUSH1 0x0 DUP5 ISZERO PUSH2 0x77E JUMPI DUP3 DUP8 ADD MLOAD SWAP1 POP JUMPDEST PUSH2 0x788 DUP6 DUP3 PUSH2 0x70A JUMP JUMPDEST DUP7 SSTORE POP PUSH2 0x7F0 JUMP JUMPDEST PUSH1 0x1F NOT DUP5 AND PUSH2 0x79E DUP7 PUSH2 0x57A JUMP JUMPDEST PUSH1 0x0 JUMPDEST DUP3 DUP2 LT ISZERO PUSH2 0x7C6 JUMPI DUP5 DUP10 ADD MLOAD DUP3 SSTORE PUSH1 0x1 DUP3 ADD SWAP2 POP PUSH1 0x20 DUP6 ADD SWAP5 POP PUSH1 0x20 DUP2 ADD SWAP1 POP PUSH2 0x7A1 JUMP JUMPDEST DUP7 DUP4 LT ISZERO PUSH2 0x7E3 JUMPI DUP5 DUP10 ADD MLOAD PUSH2 0x7DF PUSH1 0x1F DUP10 AND DUP3 PUSH2 0x6EC JUMP JUMPDEST DUP4 SSTORE POP JUMPDEST PUSH1 0x1 PUSH1 0x2 DUP9 MUL ADD DUP9 SSTORE POP POP POP JUMPDEST POP POP POP POP POP POP JUMP INVALID LOG2 PUSH5 0x6970667358 0x22 SLT KECCAK256 MOD 0x2E 0x2F 0x29 ADDMOD 0xB8 0xD9 PUSH1 0xBF LOG0 0xF 0xA9 PUSH27 0xE1F05A55D2CF1621414BBA53C55D8A69632AED64736F6C63430008 SLT STOP CALLER "
				},
				"gasEstimates": {
					"creation": {
						"codeDepositCost": "418800",
						"executionCost": "455",
						"totalCost": "419255"
					},
					"external": {
						"books(string)": "infinite",
						"fundMe(string,string,uint256)": "infinite"
					}
				},
				"methodIdentifiers": {
					"books(string)": "2b9dfe80",
					"fundMe(string,string,uint256)": "557cd941"
				}
			},
			"storageLayout": {
				"storage": [
					{
						"astId": 11,
						"contract": "struct_mapping.sol:Struct_mapping",
						"label": "books",
						"offset": 0,
						"slot": "0",
						"type": "t_mapping(t_string_memory_ptr,t_struct(book)6_storage)"
					}
				],
				"types": {
					"t_mapping(t_string_memory_ptr,t_struct(book)6_storage)": {
						"encoding": "mapping",
						"key": "t_string_memory_ptr",
						"label": "mapping(string => struct Struct_mapping.book)",
						"numberOfBytes": "32",
						"value": "t_struct(book)6_storage"
					},
					"t_string_memory_ptr": {
						"encoding": "bytes",
						"label": "string",
						"numberOfBytes": "32"
					},
					"t_string_storage": {
						"encoding": "bytes",
						"label": "string",
						"numberOfBytes": "32"
					},
					"t_struct(book)6_storage": {
						"encoding": "inplace",
						"label": "struct Struct_mapping.book",
						"members": [
							{
								"astId": 3,
								"contract": "struct_mapping.sol:Struct_mapping",
								"label": "name",
								"offset": 0,
								"slot": "0",
								"type": "t_string_storage"
							},
							{
								"astId": 5,
								"contract": "struct_mapping.sol:Struct_mapping",
								"label": "amount",
								"offset": 0,
								"slot": "1",
								"type": "t_uint256"
							}
						],
						"numberOfBytes": "64"
					},
					"t_uint256": {
						"encoding": "inplace",
						"label": "uint256",
						"numberOfBytes": "32"
					}
				}
			},
			"userdoc": {
				"kind": "user",
				"methods": {},
				"version": 1
			}
		}
	}
}