{
	"B.sol": {
		"B": {
			"abi": [
				{
					"inputs": [],
					"name": "ReadAInfo",
					"outputs": [
						{
							"internalType": "uint256",
							"name": "",
							"type": "uint256"
						}
					],
					"stateMutability": "view",
					"type": "function"
				},
				{
					"inputs": [
						{
							"internalType": "uint256",
							"name": "_number",
							"type": "uint256"
						}
					],
					"name": "UpdateAInfo",
					"outputs": [],
					"stateMutability": "nonpayable",
					"type": "function"
				},
				{
					"inputs": [],
					"name": "a",
					"outputs": [
						{
							"internalType": "contract A",
							"name": "",
							"type": "address"
						}
					],
					"stateMutability": "view",
					"type": "function"
				}
			],
			"devdoc": {
				"kind": "dev",
				"methods": {},
				"version": 1
			},
			"evm": {
				"assembly": "    /* \"B.sol\":83:359  contract B{... */\n  mstore(0x40, 0x80)\n    /* \"B.sol\":137:179  0x0fC5025C764cE34df352757e82f7B5c4Df39A836 */\n  0x0fc5025c764ce34df352757e82f7b5c4df39a836\n    /* \"B.sol\":122:180  A public a = A(0x0fC5025C764cE34df352757e82f7B5c4Df39A836) */\n  0x00\n  dup1\n  0x0100\n  exp\n  dup2\n  sload\n  dup2\n  0xffffffffffffffffffffffffffffffffffffffff\n  mul\n  not\n  and\n  swap1\n  dup4\n  0xffffffffffffffffffffffffffffffffffffffff\n  and\n  mul\n  or\n  swap1\n  sstore\n  pop\n    /* \"B.sol\":83:359  contract B{... */\n  callvalue\n  dup1\n  iszero\n  tag_1\n  jumpi\n  0x00\n  dup1\n  revert\ntag_1:\n  pop\n  dataSize(sub_0)\n  dup1\n  dataOffset(sub_0)\n  0x00\n  codecopy\n  0x00\n  return\nstop\n\nsub_0: assembly {\n        /* \"B.sol\":83:359  contract B{... */\n      mstore(0x40, 0x80)\n      callvalue\n      dup1\n      iszero\n      tag_1\n      jumpi\n      0x00\n      dup1\n      revert\n    tag_1:\n      pop\n      jumpi(tag_2, lt(calldatasize, 0x04))\n      shr(0xe0, calldataload(0x00))\n      dup1\n      0x0dbe671f\n      eq\n      tag_3\n      jumpi\n      dup1\n      0x68a0f1b9\n      eq\n      tag_4\n      jumpi\n      dup1\n      0x7154d5bf\n      eq\n      tag_5\n      jumpi\n    tag_2:\n      0x00\n      dup1\n      revert\n        /* \"B.sol\":122:180  A public a = A(0x0fC5025C764cE34df352757e82f7B5c4Df39A836) */\n    tag_3:\n      tag_6\n      tag_7\n      jump\t// in\n    tag_6:\n      mload(0x40)\n      tag_8\n      swap2\n      swap1\n      tag_9\n      jump\t// in\n    tag_8:\n      mload(0x40)\n      dup1\n      swap2\n      sub\n      swap1\n      return\n        /* \"B.sol\":187:266  function UpdateAInfo(uint _number) public{... */\n    tag_4:\n      tag_10\n      0x04\n      dup1\n      calldatasize\n      sub\n      dup2\n      add\n      swap1\n      tag_11\n      swap2\n      swap1\n      tag_12\n      jump\t// in\n    tag_11:\n      tag_13\n      jump\t// in\n    tag_10:\n      stop\n        /* \"B.sol\":274:356  function ReadAInfo() public view returns(uint){... */\n    tag_5:\n      tag_14\n      tag_15\n      jump\t// in\n    tag_14:\n      mload(0x40)\n      tag_16\n      swap2\n      swap1\n      tag_17\n      jump\t// in\n    tag_16:\n      mload(0x40)\n      dup1\n      swap2\n      sub\n      swap1\n      return\n        /* \"B.sol\":122:180  A public a = A(0x0fC5025C764cE34df352757e82f7B5c4Df39A836) */\n    tag_7:\n      0x00\n      dup1\n      sload\n      swap1\n      0x0100\n      exp\n      swap1\n      div\n      0xffffffffffffffffffffffffffffffffffffffff\n      and\n      dup2\n      jump\t// out\n        /* \"B.sol\":187:266  function UpdateAInfo(uint _number) public{... */\n    tag_13:\n        /* \"B.sol\":239:240  a */\n      0x00\n      dup1\n      sload\n      swap1\n      0x0100\n      exp\n      swap1\n      div\n      0xffffffffffffffffffffffffffffffffffffffff\n      and\n        /* \"B.sol\":239:249  a.UpdateNo */\n      0xffffffffffffffffffffffffffffffffffffffff\n      and\n      0x3b7c9713\n        /* \"B.sol\":250:257  _number */\n      dup3\n        /* \"B.sol\":239:258  a.UpdateNo(_number) */\n      mload(0x40)\n      dup3\n      0xffffffff\n      and\n      0xe0\n      shl\n      dup2\n      mstore\n      0x04\n      add\n      tag_19\n      swap2\n      swap1\n      tag_17\n      jump\t// in\n    tag_19:\n      0x00\n      mload(0x40)\n      dup1\n      dup4\n      sub\n      dup2\n      0x00\n      dup8\n      dup1\n      extcodesize\n      iszero\n      dup1\n      iszero\n      tag_20\n      jumpi\n      0x00\n      dup1\n      revert\n    tag_20:\n      pop\n      gas\n      call\n      iszero\n      dup1\n      iszero\n      tag_22\n      jumpi\n      returndatasize\n      0x00\n      dup1\n      returndatacopy\n      revert(0x00, returndatasize)\n    tag_22:\n      pop\n      pop\n      pop\n      pop\n        /* \"B.sol\":187:266  function UpdateAInfo(uint _number) public{... */\n      pop\n      jump\t// out\n        /* \"B.sol\":274:356  function ReadAInfo() public view returns(uint){... */\n    tag_15:\n        /* \"B.sol\":315:319  uint */\n      0x00\n        /* \"B.sol\":338:339  a */\n      dup1\n      0x00\n      swap1\n      sload\n      swap1\n      0x0100\n      exp\n      swap1\n      div\n      0xffffffffffffffffffffffffffffffffffffffff\n      and\n        /* \"B.sol\":338:346  a.ReadNo */\n      0xffffffffffffffffffffffffffffffffffffffff\n      and\n      0x7e48e9fd\n        /* \"B.sol\":338:348  a.ReadNo() */\n      mload(0x40)\n      dup2\n      0xffffffff\n      and\n      0xe0\n      shl\n      dup2\n      mstore\n      0x04\n      add\n      0x20\n      mload(0x40)\n      dup1\n      dup4\n      sub\n      dup2\n      dup7\n      gas\n      staticcall\n      iszero\n      dup1\n      iszero\n      tag_25\n      jumpi\n      returndatasize\n      0x00\n      dup1\n      returndatacopy\n      revert(0x00, returndatasize)\n    tag_25:\n      pop\n      pop\n      pop\n      pop\n      mload(0x40)\n      returndatasize\n      not(0x1f)\n      0x1f\n      dup3\n      add\n      and\n      dup3\n      add\n      dup1\n      0x40\n      mstore\n      pop\n      dup2\n      add\n      swap1\n      tag_26\n      swap2\n      swap1\n      tag_27\n      jump\t// in\n    tag_26:\n        /* \"B.sol\":331:348  return a.ReadNo() */\n      swap1\n      pop\n        /* \"B.sol\":274:356  function ReadAInfo() public view returns(uint){... */\n      swap1\n      jump\t// out\n        /* \"#utility.yul\":7:133   */\n    tag_28:\n        /* \"#utility.yul\":44:51   */\n      0x00\n        /* \"#utility.yul\":84:126   */\n      0xffffffffffffffffffffffffffffffffffffffff\n        /* \"#utility.yul\":77:82   */\n      dup3\n        /* \"#utility.yul\":73:127   */\n      and\n        /* \"#utility.yul\":62:127   */\n      swap1\n      pop\n        /* \"#utility.yul\":7:133   */\n      swap2\n      swap1\n      pop\n      jump\t// out\n        /* \"#utility.yul\":139:199   */\n    tag_29:\n        /* \"#utility.yul\":167:170   */\n      0x00\n        /* \"#utility.yul\":188:193   */\n      dup2\n        /* \"#utility.yul\":181:193   */\n      swap1\n      pop\n        /* \"#utility.yul\":139:199   */\n      swap2\n      swap1\n      pop\n      jump\t// out\n        /* \"#utility.yul\":205:347   */\n    tag_30:\n        /* \"#utility.yul\":255:264   */\n      0x00\n        /* \"#utility.yul\":288:341   */\n      tag_46\n        /* \"#utility.yul\":306:340   */\n      tag_47\n        /* \"#utility.yul\":315:339   */\n      tag_48\n        /* \"#utility.yul\":333:338   */\n      dup5\n        /* \"#utility.yul\":315:339   */\n      tag_28\n      jump\t// in\n    tag_48:\n        /* \"#utility.yul\":306:340   */\n      tag_29\n      jump\t// in\n    tag_47:\n        /* \"#utility.yul\":288:341   */\n      tag_28\n      jump\t// in\n    tag_46:\n        /* \"#utility.yul\":275:341   */\n      swap1\n      pop\n        /* \"#utility.yul\":205:347   */\n      swap2\n      swap1\n      pop\n      jump\t// out\n        /* \"#utility.yul\":353:479   */\n    tag_31:\n        /* \"#utility.yul\":403:412   */\n      0x00\n        /* \"#utility.yul\":436:473   */\n      tag_50\n        /* \"#utility.yul\":467:472   */\n      dup3\n        /* \"#utility.yul\":436:473   */\n      tag_30\n      jump\t// in\n    tag_50:\n        /* \"#utility.yul\":423:473   */\n      swap1\n      pop\n        /* \"#utility.yul\":353:479   */\n      swap2\n      swap1\n      pop\n      jump\t// out\n        /* \"#utility.yul\":485:619   */\n    tag_32:\n        /* \"#utility.yul\":543:552   */\n      0x00\n        /* \"#utility.yul\":576:613   */\n      tag_52\n        /* \"#utility.yul\":607:612   */\n      dup3\n        /* \"#utility.yul\":576:613   */\n      tag_31\n      jump\t// in\n    tag_52:\n        /* \"#utility.yul\":563:613   */\n      swap1\n      pop\n        /* \"#utility.yul\":485:619   */\n      swap2\n      swap1\n      pop\n      jump\t// out\n        /* \"#utility.yul\":625:772   */\n    tag_33:\n        /* \"#utility.yul\":720:765   */\n      tag_54\n        /* \"#utility.yul\":759:764   */\n      dup2\n        /* \"#utility.yul\":720:765   */\n      tag_32\n      jump\t// in\n    tag_54:\n        /* \"#utility.yul\":715:718   */\n      dup3\n        /* \"#utility.yul\":708:766   */\n      mstore\n        /* \"#utility.yul\":625:772   */\n      pop\n      pop\n      jump\t// out\n        /* \"#utility.yul\":778:1016   */\n    tag_9:\n        /* \"#utility.yul\":879:883   */\n      0x00\n        /* \"#utility.yul\":917:919   */\n      0x20\n        /* \"#utility.yul\":906:915   */\n      dup3\n        /* \"#utility.yul\":902:920   */\n      add\n        /* \"#utility.yul\":894:920   */\n      swap1\n      pop\n        /* \"#utility.yul\":930:1009   */\n      tag_56\n        /* \"#utility.yul\":1006:1007   */\n      0x00\n        /* \"#utility.yul\":995:1004   */\n      dup4\n        /* \"#utility.yul\":991:1008   */\n      add\n        /* \"#utility.yul\":982:988   */\n      dup5\n        /* \"#utility.yul\":930:1009   */\n      tag_33\n      jump\t// in\n    tag_56:\n        /* \"#utility.yul\":778:1016   */\n      swap3\n      swap2\n      pop\n      pop\n      jump\t// out\n        /* \"#utility.yul\":1103:1220   */\n    tag_35:\n        /* \"#utility.yul\":1212:1213   */\n      0x00\n        /* \"#utility.yul\":1209:1210   */\n      dup1\n        /* \"#utility.yul\":1202:1214   */\n      revert\n        /* \"#utility.yul\":1349:1426   */\n    tag_37:\n        /* \"#utility.yul\":1386:1393   */\n      0x00\n        /* \"#utility.yul\":1415:1420   */\n      dup2\n        /* \"#utility.yul\":1404:1420   */\n      swap1\n      pop\n        /* \"#utility.yul\":1349:1426   */\n      swap2\n      swap1\n      pop\n      jump\t// out\n        /* \"#utility.yul\":1432:1554   */\n    tag_38:\n        /* \"#utility.yul\":1505:1529   */\n      tag_62\n        /* \"#utility.yul\":1523:1528   */\n      dup2\n        /* \"#utility.yul\":1505:1529   */\n      tag_37\n      jump\t// in\n    tag_62:\n        /* \"#utility.yul\":1498:1503   */\n      dup2\n        /* \"#utility.yul\":1495:1530   */\n      eq\n        /* \"#utility.yul\":1485:1548   */\n      tag_63\n      jumpi\n        /* \"#utility.yul\":1544:1545   */\n      0x00\n        /* \"#utility.yul\":1541:1542   */\n      dup1\n        /* \"#utility.yul\":1534:1546   */\n      revert\n        /* \"#utility.yul\":1485:1548   */\n    tag_63:\n        /* \"#utility.yul\":1432:1554   */\n      pop\n      jump\t// out\n        /* \"#utility.yul\":1560:1699   */\n    tag_39:\n        /* \"#utility.yul\":1606:1611   */\n      0x00\n        /* \"#utility.yul\":1644:1650   */\n      dup2\n        /* \"#utility.yul\":1631:1651   */\n      calldataload\n        /* \"#utility.yul\":1622:1651   */\n      swap1\n      pop\n        /* \"#utility.yul\":1660:1693   */\n      tag_65\n        /* \"#utility.yul\":1687:1692   */\n      dup2\n        /* \"#utility.yul\":1660:1693   */\n      tag_38\n      jump\t// in\n    tag_65:\n        /* \"#utility.yul\":1560:1699   */\n      swap3\n      swap2\n      pop\n      pop\n      jump\t// out\n        /* \"#utility.yul\":1705:2034   */\n    tag_12:\n        /* \"#utility.yul\":1764:1770   */\n      0x00\n        /* \"#utility.yul\":1813:1815   */\n      0x20\n        /* \"#utility.yul\":1801:1810   */\n      dup3\n        /* \"#utility.yul\":1792:1799   */\n      dup5\n        /* \"#utility.yul\":1788:1811   */\n      sub\n        /* \"#utility.yul\":1784:1816   */\n      slt\n        /* \"#utility.yul\":1781:1900   */\n      iszero\n      tag_67\n      jumpi\n        /* \"#utility.yul\":1819:1898   */\n      tag_68\n      tag_35\n      jump\t// in\n    tag_68:\n        /* \"#utility.yul\":1781:1900   */\n    tag_67:\n        /* \"#utility.yul\":1939:1940   */\n      0x00\n        /* \"#utility.yul\":1964:2017   */\n      tag_69\n        /* \"#utility.yul\":2009:2016   */\n      dup5\n        /* \"#utility.yul\":2000:2006   */\n      dup3\n        /* \"#utility.yul\":1989:1998   */\n      dup6\n        /* \"#utility.yul\":1985:2007   */\n      add\n        /* \"#utility.yul\":1964:2017   */\n      tag_39\n      jump\t// in\n    tag_69:\n        /* \"#utility.yul\":1954:2017   */\n      swap2\n      pop\n        /* \"#utility.yul\":1910:2027   */\n      pop\n        /* \"#utility.yul\":1705:2034   */\n      swap3\n      swap2\n      pop\n      pop\n      jump\t// out\n        /* \"#utility.yul\":2040:2158   */\n    tag_40:\n        /* \"#utility.yul\":2127:2151   */\n      tag_71\n        /* \"#utility.yul\":2145:2150   */\n      dup2\n        /* \"#utility.yul\":2127:2151   */\n      tag_37\n      jump\t// in\n    tag_71:\n        /* \"#utility.yul\":2122:2125   */\n      dup3\n        /* \"#utility.yul\":2115:2152   */\n      mstore\n        /* \"#utility.yul\":2040:2158   */\n      pop\n      pop\n      jump\t// out\n        /* \"#utility.yul\":2164:2386   */\n    tag_17:\n        /* \"#utility.yul\":2257:2261   */\n      0x00\n        /* \"#utility.yul\":2295:2297   */\n      0x20\n        /* \"#utility.yul\":2284:2293   */\n      dup3\n        /* \"#utility.yul\":2280:2298   */\n      add\n        /* \"#utility.yul\":2272:2298   */\n      swap1\n      pop\n        /* \"#utility.yul\":2308:2379   */\n      tag_73\n        /* \"#utility.yul\":2376:2377   */\n      0x00\n        /* \"#utility.yul\":2365:2374   */\n      dup4\n        /* \"#utility.yul\":2361:2378   */\n      add\n        /* \"#utility.yul\":2352:2358   */\n      dup5\n        /* \"#utility.yul\":2308:2379   */\n      tag_40\n      jump\t// in\n    tag_73:\n        /* \"#utility.yul\":2164:2386   */\n      swap3\n      swap2\n      pop\n      pop\n      jump\t// out\n        /* \"#utility.yul\":2392:2535   */\n    tag_41:\n        /* \"#utility.yul\":2449:2454   */\n      0x00\n        /* \"#utility.yul\":2480:2486   */\n      dup2\n        /* \"#utility.yul\":2474:2487   */\n      mload\n        /* \"#utility.yul\":2465:2487   */\n      swap1\n      pop\n        /* \"#utility.yul\":2496:2529   */\n      tag_75\n        /* \"#utility.yul\":2523:2528   */\n      dup2\n        /* \"#utility.yul\":2496:2529   */\n      tag_38\n      jump\t// in\n    tag_75:\n        /* \"#utility.yul\":2392:2535   */\n      swap3\n      swap2\n      pop\n      pop\n      jump\t// out\n        /* \"#utility.yul\":2541:2892   */\n    tag_27:\n        /* \"#utility.yul\":2611:2617   */\n      0x00\n        /* \"#utility.yul\":2660:2662   */\n      0x20\n        /* \"#utility.yul\":2648:2657   */\n      dup3\n        /* \"#utility.yul\":2639:2646   */\n      dup5\n        /* \"#utility.yul\":2635:2658   */\n      sub\n        /* \"#utility.yul\":2631:2663   */\n      slt\n        /* \"#utility.yul\":2628:2747   */\n      iszero\n      tag_77\n      jumpi\n        /* \"#utility.yul\":2666:2745   */\n      tag_78\n      tag_35\n      jump\t// in\n    tag_78:\n        /* \"#utility.yul\":2628:2747   */\n    tag_77:\n        /* \"#utility.yul\":2786:2787   */\n      0x00\n        /* \"#utility.yul\":2811:2875   */\n      tag_79\n        /* \"#utility.yul\":2867:2874   */\n      dup5\n        /* \"#utility.yul\":2858:2864   */\n      dup3\n        /* \"#utility.yul\":2847:2856   */\n      dup6\n        /* \"#utility.yul\":2843:2865   */\n      add\n        /* \"#utility.yul\":2811:2875   */\n      tag_41\n      jump\t// in\n    tag_79:\n        /* \"#utility.yul\":2801:2875   */\n      swap2\n      pop\n        /* \"#utility.yul\":2757:2885   */\n      pop\n        /* \"#utility.yul\":2541:2892   */\n      swap3\n      swap2\n      pop\n      pop\n      jump\t// out\n\n    auxdata: 0xa264697066735822122048c2174a1979113dd2f49710a23e28848601e43967deebac61fe3d09e4d2d3e364736f6c63430008120033\n}\n",
				"bytecode": {
					"linkReferences": {},
					"object": "6080604052730fc5025c764ce34df352757e82f7b5c4df39a8366000806101000a81548173ffffffffffffffffffffffffffffffffffffffff021916908373ffffffffffffffffffffffffffffffffffffffff16021790555034801561006457600080fd5b5061038b806100746000396000f3fe608060405234801561001057600080fd5b50600436106100415760003560e01c80630dbe671f1461004657806368a0f1b9146100645780637154d5bf14610080575b600080fd5b61004e61009e565b60405161005b9190610266565b60405180910390f35b61007e600480360381019061007991906102bc565b6100c2565b005b610088610150565b60405161009591906102f8565b60405180910390f35b60008054906101000a900473ffffffffffffffffffffffffffffffffffffffff1681565b60008054906101000a900473ffffffffffffffffffffffffffffffffffffffff1673ffffffffffffffffffffffffffffffffffffffff16633b7c9713826040518263ffffffff1660e01b815260040161011b91906102f8565b600060405180830381600087803b15801561013557600080fd5b505af1158015610149573d6000803e3d6000fd5b5050505050565b60008060009054906101000a900473ffffffffffffffffffffffffffffffffffffffff1673ffffffffffffffffffffffffffffffffffffffff16637e48e9fd6040518163ffffffff1660e01b8152600401602060405180830381865afa1580156101be573d6000803e3d6000fd5b505050506040513d601f19601f820116820180604052508101906101e29190610328565b905090565b600073ffffffffffffffffffffffffffffffffffffffff82169050919050565b6000819050919050565b600061022c610227610222846101e7565b610207565b6101e7565b9050919050565b600061023e82610211565b9050919050565b600061025082610233565b9050919050565b61026081610245565b82525050565b600060208201905061027b6000830184610257565b92915050565b600080fd5b6000819050919050565b61029981610286565b81146102a457600080fd5b50565b6000813590506102b681610290565b92915050565b6000602082840312156102d2576102d1610281565b5b60006102e0848285016102a7565b91505092915050565b6102f281610286565b82525050565b600060208201905061030d60008301846102e9565b92915050565b60008151905061032281610290565b92915050565b60006020828403121561033e5761033d610281565b5b600061034c84828501610313565b9150509291505056fea264697066735822122048c2174a1979113dd2f49710a23e28848601e43967deebac61fe3d09e4d2d3e364736f6c63430008120033",
					"opcodes": "PUSH1 0x80 PUSH1 0x40 MSTORE PUSH20 0xFC5025C764CE34DF352757E82F7B5C4DF39A836 PUSH1 0x0 DUP1 PUSH2 0x100 EXP DUP2 SLOAD DUP2 PUSH20 0xFFFFFFFFFFFFFFFFFFFFFFFFFFFFFFFFFFFFFFFF MUL NOT AND SWAP1 DUP4 PUSH20 0xFFFFFFFFFFFFFFFFFFFFFFFFFFFFFFFFFFFFFFFF AND MUL OR SWAP1 SSTORE POP CALLVALUE DUP1 ISZERO PUSH2 0x64 JUMPI PUSH1 0x0 DUP1 REVERT JUMPDEST POP PUSH2 0x38B DUP1 PUSH2 0x74 PUSH1 0x0 CODECOPY PUSH1 0x0 RETURN INVALID PUSH1 0x80 PUSH1 0x40 MSTORE CALLVALUE DUP1 ISZERO PUSH2 0x10 JUMPI PUSH1 0x0 DUP1 REVERT JUMPDEST POP PUSH1 0x4 CALLDATASIZE LT PUSH2 0x41 JUMPI PUSH1 0x0 CALLDATALOAD PUSH1 0xE0 SHR DUP1 PUSH4 0xDBE671F EQ PUSH2 0x46 JUMPI DUP1 PUSH4 0x68A0F1B9 EQ PUSH2 0x64 JUMPI DUP1 PUSH4 0x7154D5BF EQ PUSH2 0x80 JUMPI JUMPDEST PUSH1 0x0 DUP1 REVERT JUMPDEST PUSH2 0x4E PUSH2 0x9E JUMP JUMPDEST PUSH1 0x40 MLOAD PUSH2 0x5B SWAP2 SWAP1 PUSH2 0x266 JUMP JUMPDEST PUSH1 0x40 MLOAD DUP1 SWAP2 SUB SWAP1 RETURN JUMPDEST PUSH2 0x7E PUSH1 0x4 DUP1 CALLDATASIZE SUB DUP2 ADD SWAP1 PUSH2 0x79 SWAP2 SWAP1 PUSH2 0x2BC JUMP JUMPDEST PUSH2 0xC2 JUMP JUMPDEST STOP JUMPDEST PUSH2 0x88 PUSH2 0x150 JUMP JUMPDEST PUSH1 0x40 MLOAD PUSH2 0x95 SWAP2 SWAP1 PUSH2 0x2F8 JUMP JUMPDEST PUSH1 0x40 MLOAD DUP1 SWAP2 SUB SWAP1 RETURN JUMPDEST PUSH1 0x0 DUP1 SLOAD SWAP1 PUSH2 0x100 EXP SWAP1 DIV PUSH20 0xFFFFFFFFFFFFFFFFFFFFFFFFFFFFFFFFFFFFFFFF AND DUP2 JUMP JUMPDEST PUSH1 0x0 DUP1 SLOAD SWAP1 PUSH2 0x100 EXP SWAP1 DIV PUSH20 0xFFFFFFFFFFFFFFFFFFFFFFFFFFFFFFFFFFFFFFFF AND PUSH20 0xFFFFFFFFFFFFFFFFFFFFFFFFFFFFFFFFFFFFFFFF AND PUSH4 0x3B7C9713 DUP3 PUSH1 0x40 MLOAD DUP3 PUSH4 0xFFFFFFFF AND PUSH1 0xE0 SHL DUP2 MSTORE PUSH1 0x4 ADD PUSH2 0x11B SWAP2 SWAP1 PUSH2 0x2F8 JUMP JUMPDEST PUSH1 0x0 PUSH1 0x40 MLOAD DUP1 DUP4 SUB DUP2 PUSH1 0x0 DUP8 DUP1 EXTCODESIZE ISZERO DUP1 ISZERO PUSH2 0x135 JUMPI PUSH1 0x0 DUP1 REVERT JUMPDEST POP GAS CALL ISZERO DUP1 ISZERO PUSH2 0x149 JUMPI RETURNDATASIZE PUSH1 0x0 DUP1 RETURNDATACOPY RETURNDATASIZE PUSH1 0x0 REVERT JUMPDEST POP POP POP POP POP JUMP JUMPDEST PUSH1 0x0 DUP1 PUSH1 0x0 SWAP1 SLOAD SWAP1 PUSH2 0x100 EXP SWAP1 DIV PUSH20 0xFFFFFFFFFFFFFFFFFFFFFFFFFFFFFFFFFFFFFFFF AND PUSH20 0xFFFFFFFFFFFFFFFFFFFFFFFFFFFFFFFFFFFFFFFF AND PUSH4 0x7E48E9FD PUSH1 0x40 MLOAD DUP2 PUSH4 0xFFFFFFFF AND PUSH1 0xE0 SHL DUP2 MSTORE PUSH1 0x4 ADD PUSH1 0x20 PUSH1 0x40 MLOAD DUP1 DUP4 SUB DUP2 DUP7 GAS STATICCALL ISZERO DUP1 ISZERO PUSH2 0x1BE JUMPI RETURNDATASIZE PUSH1 0x0 DUP1 RETURNDATACOPY RETURNDATASIZE PUSH1 0x0 REVERT JUMPDEST POP POP POP POP PUSH1 0x40 MLOAD RETURNDATASIZE PUSH1 0x1F NOT PUSH1 0x1F DUP3 ADD AND DUP3 ADD DUP1 PUSH1 0x40 MSTORE POP DUP2 ADD SWAP1 PUSH2 0x1E2 SWAP2 SWAP1 PUSH2 0x328 JUMP JUMPDEST SWAP1 POP SWAP1 JUMP JUMPDEST PUSH1 0x0 PUSH20 0xFFFFFFFFFFFFFFFFFFFFFFFFFFFFFFFFFFFFFFFF DUP3 AND SWAP1 POP SWAP2 SWAP1 POP JUMP JUMPDEST PUSH1 0x0 DUP2 SWAP1 POP SWAP2 SWAP1 POP JUMP JUMPDEST PUSH1 0x0 PUSH2 0x22C PUSH2 0x227 PUSH2 0x222 DUP5 PUSH2 0x1E7 JUMP JUMPDEST PUSH2 0x207 JUMP JUMPDEST PUSH2 0x1E7 JUMP JUMPDEST SWAP1 POP SWAP2 SWAP1 POP JUMP JUMPDEST PUSH1 0x0 PUSH2 0x23E DUP3 PUSH2 0x211 JUMP JUMPDEST SWAP1 POP SWAP2 SWAP1 POP JUMP JUMPDEST PUSH1 0x0 PUSH2 0x250 DUP3 PUSH2 0x233 JUMP JUMPDEST SWAP1 POP SWAP2 SWAP1 POP JUMP JUMPDEST PUSH2 0x260 DUP2 PUSH2 0x245 JUMP JUMPDEST DUP3 MSTORE POP POP JUMP JUMPDEST PUSH1 0x0 PUSH1 0x20 DUP3 ADD SWAP1 POP PUSH2 0x27B PUSH1 0x0 DUP4 ADD DUP5 PUSH2 0x257 JUMP JUMPDEST SWAP3 SWAP2 POP POP JUMP JUMPDEST PUSH1 0x0 DUP1 REVERT JUMPDEST PUSH1 0x0 DUP2 SWAP1 POP SWAP2 SWAP1 POP JUMP JUMPDEST PUSH2 0x299 DUP2 PUSH2 0x286 JUMP JUMPDEST DUP2 EQ PUSH2 0x2A4 JUMPI PUSH1 0x0 DUP1 REVERT JUMPDEST POP JUMP JUMPDEST PUSH1 0x0 DUP2 CALLDATALOAD SWAP1 POP PUSH2 0x2B6 DUP2 PUSH2 0x290 JUMP JUMPDEST SWAP3 SWAP2 POP POP JUMP JUMPDEST PUSH1 0x0 PUSH1 0x20 DUP3 DUP5 SUB SLT ISZERO PUSH2 0x2D2 JUMPI PUSH2 0x2D1 PUSH2 0x281 JUMP JUMPDEST JUMPDEST PUSH1 0x0 PUSH2 0x2E0 DUP5 DUP3 DUP6 ADD PUSH2 0x2A7 JUMP JUMPDEST SWAP2 POP POP SWAP3 SWAP2 POP POP JUMP JUMPDEST PUSH2 0x2F2 DUP2 PUSH2 0x286 JUMP JUMPDEST DUP3 MSTORE POP POP JUMP JUMPDEST PUSH1 0x0 PUSH1 0x20 DUP3 ADD SWAP1 POP PUSH2 0x30D PUSH1 0x0 DUP4 ADD DUP5 PUSH2 0x2E9 JUMP JUMPDEST SWAP3 SWAP2 POP POP JUMP JUMPDEST PUSH1 0x0 DUP2 MLOAD SWAP1 POP PUSH2 0x322 DUP2 PUSH2 0x290 JUMP JUMPDEST SWAP3 SWAP2 POP POP JUMP JUMPDEST PUSH1 0x0 PUSH1 0x20 DUP3 DUP5 SUB SLT ISZERO PUSH2 0x33E JUMPI PUSH2 0x33D PUSH2 0x281 JUMP JUMPDEST JUMPDEST PUSH1 0x0 PUSH2 0x34C DUP5 DUP3 DUP6 ADD PUSH2 0x313 JUMP JUMPDEST SWAP2 POP POP SWAP3 SWAP2 POP POP JUMP INVALID LOG2 PUSH5 0x6970667358 0x22 SLT KECCAK256 BASEFEE 0xC2 OR 0x4A NOT PUSH26 0x113DD2F49710A23E28848601E43967DEEBAC61FE3D09E4D2D3E3 PUSH5 0x736F6C6343 STOP ADDMOD SLT STOP CALLER "
				},
				"gasEstimates": {
					"creation": {
						"codeDepositCost": "181400",
						"executionCost": "24493",
						"totalCost": "205893"
					},
					"external": {
						"ReadAInfo()": "infinite",
						"UpdateAInfo(uint256)": "infinite",
						"a()": "infinite"
					}
				},
				"methodIdentifiers": {
					"ReadAInfo()": "7154d5bf",
					"UpdateAInfo(uint256)": "68a0f1b9",
					"a()": "0dbe671f"
				}
			},
			"storageLayout": {
				"storage": [
					{
						"astId": 31,
						"contract": "B.sol:B",
						"label": "a",
						"offset": 0,
						"slot": "0",
						"type": "t_contract(A)22"
					}
				],
				"types": {
					"t_contract(A)22": {
						"encoding": "inplace",
						"label": "contract A",
						"numberOfBytes": "20"
					}
				}
			},
			"userdoc": {
				"kind": "user",
				"methods": {},
				"version": 1
			}
		}
	}
}