{
	"A.sol": {
		"A": {
			"abi": [
				{
					"inputs": [],
					"name": "ReadNo",
					"outputs": [
						{
							"internalType": "uint256",
							"name": "",
							"type": "uint256"
						}
					],
					"stateMutability": "view",
					"type": "function"
				},
				{
					"inputs": [
						{
							"internalType": "uint256",
							"name": "_number",
							"type": "uint256"
						}
					],
					"name": "UpdateNo",
					"outputs": [],
					"stateMutability": "nonpayable",
					"type": "function"
				}
			],
			"devdoc": {
				"kind": "dev",
				"methods": {},
				"version": 1
			},
			"evm": {
				"assembly": "    /* \"A.sol\":62:258  contract A{... */\n  mstore(0x40, 0x80)\n  callvalue\n  dup1\n  iszero\n  tag_1\n  jumpi\n  0x00\n  dup1\n  revert\ntag_1:\n  pop\n  dataSize(sub_0)\n  dup1\n  dataOffset(sub_0)\n  0x00\n  codecopy\n  0x00\n  return\nstop\n\nsub_0: assembly {\n        /* \"A.sol\":62:258  contract A{... */\n      mstore(0x40, 0x80)\n      callvalue\n      dup1\n      iszero\n      tag_1\n      jumpi\n      0x00\n      dup1\n      revert\n    tag_1:\n      pop\n      jumpi(tag_2, lt(calldatasize, 0x04))\n      shr(0xe0, calldataload(0x00))\n      dup1\n      0x3b7c9713\n      eq\n      tag_3\n      jumpi\n      dup1\n      0x7e48e9fd\n      eq\n      tag_4\n      jumpi\n    tag_2:\n      0x00\n      dup1\n      revert\n        /* \"A.sol\":99:172  function UpdateNo(uint _number) public{... */\n    tag_3:\n      tag_5\n      0x04\n      dup1\n      calldatasize\n      sub\n      dup2\n      add\n      swap1\n      tag_6\n      swap2\n      swap1\n      tag_7\n      jump\t// in\n    tag_6:\n      tag_8\n      jump\t// in\n    tag_5:\n      stop\n        /* \"A.sol\":180:255  function ReadNo() public view returns(uint){... */\n    tag_4:\n      tag_9\n      tag_10\n      jump\t// in\n    tag_9:\n      mload(0x40)\n      tag_11\n      swap2\n      swap1\n      tag_12\n      jump\t// in\n    tag_11:\n      mload(0x40)\n      dup1\n      swap2\n      sub\n      swap1\n      return\n        /* \"A.sol\":99:172  function UpdateNo(uint _number) public{... */\n    tag_8:\n        /* \"A.sol\":157:164  _number */\n      dup1\n        /* \"A.sol\":148:154  number */\n      0x00\n        /* \"A.sol\":148:164  number = _number */\n      dup2\n      swap1\n      sstore\n      pop\n        /* \"A.sol\":99:172  function UpdateNo(uint _number) public{... */\n      pop\n      jump\t// out\n        /* \"A.sol\":180:255  function ReadNo() public view returns(uint){... */\n    tag_10:\n        /* \"A.sol\":218:222  uint */\n      0x00\n        /* \"A.sol\":241:247  number */\n      dup1\n      sload\n        /* \"A.sol\":234:247  return number */\n      swap1\n      pop\n        /* \"A.sol\":180:255  function ReadNo() public view returns(uint){... */\n      swap1\n      jump\t// out\n        /* \"#utility.yul\":88:205   */\n    tag_16:\n        /* \"#utility.yul\":197:198   */\n      0x00\n        /* \"#utility.yul\":194:195   */\n      dup1\n        /* \"#utility.yul\":187:199   */\n      revert\n        /* \"#utility.yul\":334:411   */\n    tag_18:\n        /* \"#utility.yul\":371:378   */\n      0x00\n        /* \"#utility.yul\":400:405   */\n      dup2\n        /* \"#utility.yul\":389:405   */\n      swap1\n      pop\n        /* \"#utility.yul\":334:411   */\n      swap2\n      swap1\n      pop\n      jump\t// out\n        /* \"#utility.yul\":417:539   */\n    tag_19:\n        /* \"#utility.yul\":490:514   */\n      tag_28\n        /* \"#utility.yul\":508:513   */\n      dup2\n        /* \"#utility.yul\":490:514   */\n      tag_18\n      jump\t// in\n    tag_28:\n        /* \"#utility.yul\":483:488   */\n      dup2\n        /* \"#utility.yul\":480:515   */\n      eq\n        /* \"#utility.yul\":470:533   */\n      tag_29\n      jumpi\n        /* \"#utility.yul\":529:530   */\n      0x00\n        /* \"#utility.yul\":526:527   */\n      dup1\n        /* \"#utility.yul\":519:531   */\n      revert\n        /* \"#utility.yul\":470:533   */\n    tag_29:\n        /* \"#utility.yul\":417:539   */\n      pop\n      jump\t// out\n        /* \"#utility.yul\":545:684   */\n    tag_20:\n        /* \"#utility.yul\":591:596   */\n      0x00\n        /* \"#utility.yul\":629:635   */\n      dup2\n        /* \"#utility.yul\":616:636   */\n      calldataload\n        /* \"#utility.yul\":607:636   */\n      swap1\n      pop\n        /* \"#utility.yul\":645:678   */\n      tag_31\n        /* \"#utility.yul\":672:677   */\n      dup2\n        /* \"#utility.yul\":645:678   */\n      tag_19\n      jump\t// in\n    tag_31:\n        /* \"#utility.yul\":545:684   */\n      swap3\n      swap2\n      pop\n      pop\n      jump\t// out\n        /* \"#utility.yul\":690:1019   */\n    tag_7:\n        /* \"#utility.yul\":749:755   */\n      0x00\n        /* \"#utility.yul\":798:800   */\n      0x20\n        /* \"#utility.yul\":786:795   */\n      dup3\n        /* \"#utility.yul\":777:784   */\n      dup5\n        /* \"#utility.yul\":773:796   */\n      sub\n        /* \"#utility.yul\":769:801   */\n      slt\n        /* \"#utility.yul\":766:885   */\n      iszero\n      tag_33\n      jumpi\n        /* \"#utility.yul\":804:883   */\n      tag_34\n      tag_16\n      jump\t// in\n    tag_34:\n        /* \"#utility.yul\":766:885   */\n    tag_33:\n        /* \"#utility.yul\":924:925   */\n      0x00\n        /* \"#utility.yul\":949:1002   */\n      tag_35\n        /* \"#utility.yul\":994:1001   */\n      dup5\n        /* \"#utility.yul\":985:991   */\n      dup3\n        /* \"#utility.yul\":974:983   */\n      dup6\n        /* \"#utility.yul\":970:992   */\n      add\n        /* \"#utility.yul\":949:1002   */\n      tag_20\n      jump\t// in\n    tag_35:\n        /* \"#utility.yul\":939:1002   */\n      swap2\n      pop\n        /* \"#utility.yul\":895:1012   */\n      pop\n        /* \"#utility.yul\":690:1019   */\n      swap3\n      swap2\n      pop\n      pop\n      jump\t// out\n        /* \"#utility.yul\":1025:1143   */\n    tag_21:\n        /* \"#utility.yul\":1112:1136   */\n      tag_37\n        /* \"#utility.yul\":1130:1135   */\n      dup2\n        /* \"#utility.yul\":1112:1136   */\n      tag_18\n      jump\t// in\n    tag_37:\n        /* \"#utility.yul\":1107:1110   */\n      dup3\n        /* \"#utility.yul\":1100:1137   */\n      mstore\n        /* \"#utility.yul\":1025:1143   */\n      pop\n      pop\n      jump\t// out\n        /* \"#utility.yul\":1149:1371   */\n    tag_12:\n        /* \"#utility.yul\":1242:1246   */\n      0x00\n        /* \"#utility.yul\":1280:1282   */\n      0x20\n        /* \"#utility.yul\":1269:1278   */\n      dup3\n        /* \"#utility.yul\":1265:1283   */\n      add\n        /* \"#utility.yul\":1257:1283   */\n      swap1\n      pop\n        /* \"#utility.yul\":1293:1364   */\n      tag_39\n        /* \"#utility.yul\":1361:1362   */\n      0x00\n        /* \"#utility.yul\":1350:1359   */\n      dup4\n        /* \"#utility.yul\":1346:1363   */\n      add\n        /* \"#utility.yul\":1337:1343   */\n      dup5\n        /* \"#utility.yul\":1293:1364   */\n      tag_21\n      jump\t// in\n    tag_39:\n        /* \"#utility.yul\":1149:1371   */\n      swap3\n      swap2\n      pop\n      pop\n      jump\t// out\n\n    auxdata: 0xa264697066735822122019f54efa73345d3bbbcfd5a10992f937b80f5fb30f5ebb7dc7049c5efd5bd59764736f6c63430008120033\n}\n",
				"bytecode": {
					"linkReferences": {},
					"object": "608060405234801561001057600080fd5b50610150806100206000396000f3fe608060405234801561001057600080fd5b50600436106100365760003560e01c80633b7c97131461003b5780637e48e9fd14610057575b600080fd5b610055600480360381019061005091906100c3565b610075565b005b61005f61007f565b60405161006c91906100ff565b60405180910390f35b8060008190555050565b60008054905090565b600080fd5b6000819050919050565b6100a08161008d565b81146100ab57600080fd5b50565b6000813590506100bd81610097565b92915050565b6000602082840312156100d9576100d8610088565b5b60006100e7848285016100ae565b91505092915050565b6100f98161008d565b82525050565b600060208201905061011460008301846100f0565b9291505056fea264697066735822122019f54efa73345d3bbbcfd5a10992f937b80f5fb30f5ebb7dc7049c5efd5bd59764736f6c63430008120033",
					"opcodes": "PUSH1 0x80 PUSH1 0x40 MSTORE CALLVALUE DUP1 ISZERO PUSH2 0x10 JUMPI PUSH1 0x0 DUP1 REVERT JUMPDEST POP PUSH2 0x150 DUP1 PUSH2 0x20 PUSH1 0x0 CODECOPY PUSH1 0x0 RETURN INVALID PUSH1 0x80 PUSH1 0x40 MSTORE CALLVALUE DUP1 ISZERO PUSH2 0x10 JUMPI PUSH1 0x0 DUP1 REVERT JUMPDEST POP PUSH1 0x4 CALLDATASIZE LT PUSH2 0x36 JUMPI PUSH1 0x0 CALLDATALOAD PUSH1 0xE0 SHR DUP1 PUSH4 0x3B7C9713 EQ PUSH2 0x3B JUMPI DUP1 PUSH4 0x7E48E9FD EQ PUSH2 0x57 JUMPI JUMPDEST PUSH1 0x0 DUP1 REVERT JUMPDEST PUSH2 0x55 PUSH1 0x4 DUP1 CALLDATASIZE SUB DUP2 ADD SWAP1 PUSH2 0x50 SWAP2 SWAP1 PUSH2 0xC3 JUMP JUMPDEST PUSH2 0x75 JUMP JUMPDEST STOP JUMPDEST PUSH2 0x5F PUSH2 0x7F JUMP JUMPDEST PUSH1 0x40 MLOAD PUSH2 0x6C SWAP2 SWAP1 PUSH2 0xFF JUMP JUMPDEST PUSH1 0x40 MLOAD DUP1 SWAP2 SUB SWAP1 RETURN JUMPDEST DUP1 PUSH1 0x0 DUP2 SWAP1 SSTORE POP POP JUMP JUMPDEST PUSH1 0x0 DUP1 SLOAD SWAP1 POP SWAP1 JUMP JUMPDEST PUSH1 0x0 DUP1 REVERT JUMPDEST PUSH1 0x0 DUP2 SWAP1 POP SWAP2 SWAP1 POP JUMP JUMPDEST PUSH2 0xA0 DUP2 PUSH2 0x8D JUMP JUMPDEST DUP2 EQ PUSH2 0xAB JUMPI PUSH1 0x0 DUP1 REVERT JUMPDEST POP JUMP JUMPDEST PUSH1 0x0 DUP2 CALLDATALOAD SWAP1 POP PUSH2 0xBD DUP2 PUSH2 0x97 JUMP JUMPDEST SWAP3 SWAP2 POP POP JUMP JUMPDEST PUSH1 0x0 PUSH1 0x20 DUP3 DUP5 SUB SLT ISZERO PUSH2 0xD9 JUMPI PUSH2 0xD8 PUSH2 0x88 JUMP JUMPDEST JUMPDEST PUSH1 0x0 PUSH2 0xE7 DUP5 DUP3 DUP6 ADD PUSH2 0xAE JUMP JUMPDEST SWAP2 POP POP SWAP3 SWAP2 POP POP JUMP JUMPDEST PUSH2 0xF9 DUP2 PUSH2 0x8D JUMP JUMPDEST DUP3 MSTORE POP POP JUMP JUMPDEST PUSH1 0x0 PUSH1 0x20 DUP3 ADD SWAP1 POP PUSH2 0x114 PUSH1 0x0 DUP4 ADD DUP5 PUSH2 0xF0 JUMP JUMPDEST SWAP3 SWAP2 POP POP JUMP INVALID LOG2 PUSH5 0x6970667358 0x22 SLT KECCAK256 NOT CREATE2 0x4E STATICCALL PUSH20 0x345D3BBBCFD5A10992F937B80F5FB30F5EBB7DC7 DIV SWAP13 0x5E REVERT JUMPDEST 0xD5 SWAP8 PUSH5 0x736F6C6343 STOP ADDMOD SLT STOP CALLER "
				},
				"gasEstimates": {
					"creation": {
						"codeDepositCost": "67200",
						"executionCost": "117",
						"totalCost": "67317"
					},
					"external": {
						"ReadNo()": "2437",
						"UpdateNo(uint256)": "22498"
					}
				},
				"methodIdentifiers": {
					"ReadNo()": "7e48e9fd",
					"UpdateNo(uint256)": "3b7c9713"
				}
			},
			"storageLayout": {
				"storage": [
					{
						"astId": 3,
						"contract": "A.sol:A",
						"label": "number",
						"offset": 0,
						"slot": "0",
						"type": "t_uint256"
					}
				],
				"types": {
					"t_uint256": {
						"encoding": "inplace",
						"label": "uint256",
						"numberOfBytes": "32"
					}
				}
			},
			"userdoc": {
				"kind": "user",
				"methods": {},
				"version": 1
			}
		}
	}
}