{
	"Arithmeticoperator.sol": {
		"Arithmetic_operator": {
			"abi": [
				{
					"inputs": [],
					"name": "add",
					"outputs": [
						{
							"internalType": "uint256",
							"name": "",
							"type": "uint256"
						}
					],
					"stateMutability": "view",
					"type": "function"
				},
				{
					"inputs": [],
					"name": "div",
					"outputs": [
						{
							"internalType": "uint256",
							"name": "",
							"type": "uint256"
						}
					],
					"stateMutability": "view",
					"type": "function"
				},
				{
					"inputs": [],
					"name": "mul",
					"outputs": [
						{
							"internalType": "uint256",
							"name": "",
							"type": "uint256"
						}
					],
					"stateMutability": "view",
					"type": "function"
				},
				{
					"inputs": [],
					"name": "sub",
					"outputs": [
						{
							"internalType": "uint256",
							"name": "",
							"type": "uint256"
						}
					],
					"stateMutability": "view",
					"type": "function"
				}
			],
			"devdoc": {
				"kind": "dev",
				"methods": {},
				"version": 1
			},
			"evm": {
				"assembly": "    /* \"Arithmeticoperator.sol\":61:580  contract Arithmetic_operator{... */\n  mstore(0x40, 0x80)\n    /* \"Arithmeticoperator.sol\":246:248  10 */\n  0x0a\n    /* \"Arithmeticoperator.sol\":237:248  uint a = 10 */\n  0x00\n  sstore\n    /* \"Arithmeticoperator.sol\":264:266  67 */\n  0x43\n    /* \"Arithmeticoperator.sol\":255:266  uint b = 67 */\n  0x01\n  sstore\n    /* \"Arithmeticoperator.sol\":61:580  contract Arithmetic_operator{... */\n  callvalue\n  dup1\n  iszero\n  tag_1\n  jumpi\n  0x00\n  dup1\n  revert\ntag_1:\n  pop\n  dataSize(sub_0)\n  dup1\n  dataOffset(sub_0)\n  0x00\n  codecopy\n  0x00\n  return\nstop\n\nsub_0: assembly {\n        /* \"Arithmeticoperator.sol\":61:580  contract Arithmetic_operator{... */\n      mstore(0x40, 0x80)\n      callvalue\n      dup1\n      iszero\n      tag_1\n      jumpi\n      0x00\n      dup1\n      revert\n    tag_1:\n      pop\n      jumpi(tag_2, lt(calldatasize, 0x04))\n      shr(0xe0, calldataload(0x00))\n      dup1\n      0x4f2be91f\n      eq\n      tag_3\n      jumpi\n      dup1\n      0x58931c46\n      eq\n      tag_4\n      jumpi\n      dup1\n      0xc54124be\n      eq\n      tag_5\n      jumpi\n      dup1\n      0xf9fa48c3\n      eq\n      tag_6\n      jumpi\n    tag_2:\n      0x00\n      dup1\n      revert\n        /* \"Arithmeticoperator.sol\":275:344  function add() public view returns(uint){... */\n    tag_3:\n      tag_7\n      tag_8\n      jump\t// in\n    tag_7:\n      mload(0x40)\n      tag_9\n      swap2\n      swap1\n      tag_10\n      jump\t// in\n    tag_9:\n      mload(0x40)\n      dup1\n      swap2\n      sub\n      swap1\n      return\n        /* \"Arithmeticoperator.sol\":429:498  function mul() public view returns(uint){... */\n    tag_4:\n      tag_11\n      tag_12\n      jump\t// in\n    tag_11:\n      mload(0x40)\n      tag_13\n      swap2\n      swap1\n      tag_10\n      jump\t// in\n    tag_13:\n      mload(0x40)\n      dup1\n      swap2\n      sub\n      swap1\n      return\n        /* \"Arithmeticoperator.sol\":352:421  function sub() public view returns(uint){... */\n    tag_5:\n      tag_14\n      tag_15\n      jump\t// in\n    tag_14:\n      mload(0x40)\n      tag_16\n      swap2\n      swap1\n      tag_10\n      jump\t// in\n    tag_16:\n      mload(0x40)\n      dup1\n      swap2\n      sub\n      swap1\n      return\n        /* \"Arithmeticoperator.sol\":506:575  function div() public view returns(uint){... */\n    tag_6:\n      tag_17\n      tag_18\n      jump\t// in\n    tag_17:\n      mload(0x40)\n      tag_19\n      swap2\n      swap1\n      tag_10\n      jump\t// in\n    tag_19:\n      mload(0x40)\n      dup1\n      swap2\n      sub\n      swap1\n      return\n        /* \"Arithmeticoperator.sol\":275:344  function add() public view returns(uint){... */\n    tag_8:\n        /* \"Arithmeticoperator.sol\":310:314  uint */\n      0x00\n        /* \"Arithmeticoperator.sol\":335:336  b */\n      sload(0x01)\n        /* \"Arithmeticoperator.sol\":333:334  a */\n      sload(0x00)\n        /* \"Arithmeticoperator.sol\":333:336  a+b */\n      tag_21\n      swap2\n      swap1\n      tag_22\n      jump\t// in\n    tag_21:\n        /* \"Arithmeticoperator.sol\":326:336  return a+b */\n      swap1\n      pop\n        /* \"Arithmeticoperator.sol\":275:344  function add() public view returns(uint){... */\n      swap1\n      jump\t// out\n        /* \"Arithmeticoperator.sol\":429:498  function mul() public view returns(uint){... */\n    tag_12:\n        /* \"Arithmeticoperator.sol\":464:468  uint */\n      0x00\n        /* \"Arithmeticoperator.sol\":489:490  b */\n      sload(0x01)\n        /* \"Arithmeticoperator.sol\":487:488  a */\n      sload(0x00)\n        /* \"Arithmeticoperator.sol\":487:490  a*b */\n      tag_24\n      swap2\n      swap1\n      tag_25\n      jump\t// in\n    tag_24:\n        /* \"Arithmeticoperator.sol\":480:490  return a*b */\n      swap1\n      pop\n        /* \"Arithmeticoperator.sol\":429:498  function mul() public view returns(uint){... */\n      swap1\n      jump\t// out\n        /* \"Arithmeticoperator.sol\":352:421  function sub() public view returns(uint){... */\n    tag_15:\n        /* \"Arithmeticoperator.sol\":387:391  uint */\n      0x00\n        /* \"Arithmeticoperator.sol\":412:413  b */\n      sload(0x01)\n        /* \"Arithmeticoperator.sol\":410:411  a */\n      sload(0x00)\n        /* \"Arithmeticoperator.sol\":410:413  a-b */\n      tag_27\n      swap2\n      swap1\n      tag_28\n      jump\t// in\n    tag_27:\n        /* \"Arithmeticoperator.sol\":403:413  return a-b */\n      swap1\n      pop\n        /* \"Arithmeticoperator.sol\":352:421  function sub() public view returns(uint){... */\n      swap1\n      jump\t// out\n        /* \"Arithmeticoperator.sol\":506:575  function div() public view returns(uint){... */\n    tag_18:\n        /* \"Arithmeticoperator.sol\":541:545  uint */\n      0x00\n        /* \"Arithmeticoperator.sol\":566:567  b */\n      sload(0x01)\n        /* \"Arithmeticoperator.sol\":564:565  a */\n      sload(0x00)\n        /* \"Arithmeticoperator.sol\":564:567  a/b */\n      tag_30\n      swap2\n      swap1\n      tag_31\n      jump\t// in\n    tag_30:\n        /* \"Arithmeticoperator.sol\":557:567  return a/b */\n      swap1\n      pop\n        /* \"Arithmeticoperator.sol\":506:575  function div() public view returns(uint){... */\n      swap1\n      jump\t// out\n        /* \"#utility.yul\":7:84   */\n    tag_32:\n        /* \"#utility.yul\":44:51   */\n      0x00\n        /* \"#utility.yul\":73:78   */\n      dup2\n        /* \"#utility.yul\":62:78   */\n      swap1\n      pop\n        /* \"#utility.yul\":7:84   */\n      swap2\n      swap1\n      pop\n      jump\t// out\n        /* \"#utility.yul\":90:208   */\n    tag_33:\n        /* \"#utility.yul\":177:201   */\n      tag_39\n        /* \"#utility.yul\":195:200   */\n      dup2\n        /* \"#utility.yul\":177:201   */\n      tag_32\n      jump\t// in\n    tag_39:\n        /* \"#utility.yul\":172:175   */\n      dup3\n        /* \"#utility.yul\":165:202   */\n      mstore\n        /* \"#utility.yul\":90:208   */\n      pop\n      pop\n      jump\t// out\n        /* \"#utility.yul\":214:436   */\n    tag_10:\n        /* \"#utility.yul\":307:311   */\n      0x00\n        /* \"#utility.yul\":345:347   */\n      0x20\n        /* \"#utility.yul\":334:343   */\n      dup3\n        /* \"#utility.yul\":330:348   */\n      add\n        /* \"#utility.yul\":322:348   */\n      swap1\n      pop\n        /* \"#utility.yul\":358:429   */\n      tag_41\n        /* \"#utility.yul\":426:427   */\n      0x00\n        /* \"#utility.yul\":415:424   */\n      dup4\n        /* \"#utility.yul\":411:428   */\n      add\n        /* \"#utility.yul\":402:408   */\n      dup5\n        /* \"#utility.yul\":358:429   */\n      tag_33\n      jump\t// in\n    tag_41:\n        /* \"#utility.yul\":214:436   */\n      swap3\n      swap2\n      pop\n      pop\n      jump\t// out\n        /* \"#utility.yul\":442:622   */\n    tag_34:\n        /* \"#utility.yul\":490:567   */\n      0x4e487b7100000000000000000000000000000000000000000000000000000000\n        /* \"#utility.yul\":487:488   */\n      0x00\n        /* \"#utility.yul\":480:568   */\n      mstore\n        /* \"#utility.yul\":587:591   */\n      0x11\n        /* \"#utility.yul\":584:585   */\n      0x04\n        /* \"#utility.yul\":577:592   */\n      mstore\n        /* \"#utility.yul\":611:615   */\n      0x24\n        /* \"#utility.yul\":608:609   */\n      0x00\n        /* \"#utility.yul\":601:616   */\n      revert\n        /* \"#utility.yul\":628:819   */\n    tag_22:\n        /* \"#utility.yul\":668:671   */\n      0x00\n        /* \"#utility.yul\":687:707   */\n      tag_44\n        /* \"#utility.yul\":705:706   */\n      dup3\n        /* \"#utility.yul\":687:707   */\n      tag_32\n      jump\t// in\n    tag_44:\n        /* \"#utility.yul\":682:707   */\n      swap2\n      pop\n        /* \"#utility.yul\":721:741   */\n      tag_45\n        /* \"#utility.yul\":739:740   */\n      dup4\n        /* \"#utility.yul\":721:741   */\n      tag_32\n      jump\t// in\n    tag_45:\n        /* \"#utility.yul\":716:741   */\n      swap3\n      pop\n        /* \"#utility.yul\":764:765   */\n      dup3\n        /* \"#utility.yul\":761:762   */\n      dup3\n        /* \"#utility.yul\":757:766   */\n      add\n        /* \"#utility.yul\":750:766   */\n      swap1\n      pop\n        /* \"#utility.yul\":785:788   */\n      dup1\n        /* \"#utility.yul\":782:783   */\n      dup3\n        /* \"#utility.yul\":779:789   */\n      gt\n        /* \"#utility.yul\":776:812   */\n      iszero\n      tag_46\n      jumpi\n        /* \"#utility.yul\":792:810   */\n      tag_47\n      tag_34\n      jump\t// in\n    tag_47:\n        /* \"#utility.yul\":776:812   */\n    tag_46:\n        /* \"#utility.yul\":628:819   */\n      swap3\n      swap2\n      pop\n      pop\n      jump\t// out\n        /* \"#utility.yul\":825:1235   */\n    tag_25:\n        /* \"#utility.yul\":865:872   */\n      0x00\n        /* \"#utility.yul\":888:908   */\n      tag_49\n        /* \"#utility.yul\":906:907   */\n      dup3\n        /* \"#utility.yul\":888:908   */\n      tag_32\n      jump\t// in\n    tag_49:\n        /* \"#utility.yul\":883:908   */\n      swap2\n      pop\n        /* \"#utility.yul\":922:942   */\n      tag_50\n        /* \"#utility.yul\":940:941   */\n      dup4\n        /* \"#utility.yul\":922:942   */\n      tag_32\n      jump\t// in\n    tag_50:\n        /* \"#utility.yul\":917:942   */\n      swap3\n      pop\n        /* \"#utility.yul\":977:978   */\n      dup3\n        /* \"#utility.yul\":974:975   */\n      dup3\n        /* \"#utility.yul\":970:979   */\n      mul\n        /* \"#utility.yul\":999:1029   */\n      tag_51\n        /* \"#utility.yul\":1017:1028   */\n      dup2\n        /* \"#utility.yul\":999:1029   */\n      tag_32\n      jump\t// in\n    tag_51:\n        /* \"#utility.yul\":988:1029   */\n      swap2\n      pop\n        /* \"#utility.yul\":1178:1179   */\n      dup3\n        /* \"#utility.yul\":1169:1176   */\n      dup3\n        /* \"#utility.yul\":1165:1180   */\n      div\n        /* \"#utility.yul\":1162:1163   */\n      dup5\n        /* \"#utility.yul\":1159:1181   */\n      eq\n        /* \"#utility.yul\":1139:1140   */\n      dup4\n        /* \"#utility.yul\":1132:1141   */\n      iszero\n        /* \"#utility.yul\":1112:1195   */\n      or\n        /* \"#utility.yul\":1089:1228   */\n      tag_52\n      jumpi\n        /* \"#utility.yul\":1208:1226   */\n      tag_53\n      tag_34\n      jump\t// in\n    tag_53:\n        /* \"#utility.yul\":1089:1228   */\n    tag_52:\n        /* \"#utility.yul\":873:1235   */\n      pop\n        /* \"#utility.yul\":825:1235   */\n      swap3\n      swap2\n      pop\n      pop\n      jump\t// out\n        /* \"#utility.yul\":1241:1435   */\n    tag_28:\n        /* \"#utility.yul\":1281:1285   */\n      0x00\n        /* \"#utility.yul\":1301:1321   */\n      tag_55\n        /* \"#utility.yul\":1319:1320   */\n      dup3\n        /* \"#utility.yul\":1301:1321   */\n      tag_32\n      jump\t// in\n    tag_55:\n        /* \"#utility.yul\":1296:1321   */\n      swap2\n      pop\n        /* \"#utility.yul\":1335:1355   */\n      tag_56\n        /* \"#utility.yul\":1353:1354   */\n      dup4\n        /* \"#utility.yul\":1335:1355   */\n      tag_32\n      jump\t// in\n    tag_56:\n        /* \"#utility.yul\":1330:1355   */\n      swap3\n      pop\n        /* \"#utility.yul\":1379:1380   */\n      dup3\n        /* \"#utility.yul\":1376:1377   */\n      dup3\n        /* \"#utility.yul\":1372:1381   */\n      sub\n        /* \"#utility.yul\":1364:1381   */\n      swap1\n      pop\n        /* \"#utility.yul\":1403:1404   */\n      dup2\n        /* \"#utility.yul\":1397:1401   */\n      dup2\n        /* \"#utility.yul\":1394:1405   */\n      gt\n        /* \"#utility.yul\":1391:1428   */\n      iszero\n      tag_57\n      jumpi\n        /* \"#utility.yul\":1408:1426   */\n      tag_58\n      tag_34\n      jump\t// in\n    tag_58:\n        /* \"#utility.yul\":1391:1428   */\n    tag_57:\n        /* \"#utility.yul\":1241:1435   */\n      swap3\n      swap2\n      pop\n      pop\n      jump\t// out\n        /* \"#utility.yul\":1441:1621   */\n    tag_35:\n        /* \"#utility.yul\":1489:1566   */\n      0x4e487b7100000000000000000000000000000000000000000000000000000000\n        /* \"#utility.yul\":1486:1487   */\n      0x00\n        /* \"#utility.yul\":1479:1567   */\n      mstore\n        /* \"#utility.yul\":1586:1590   */\n      0x12\n        /* \"#utility.yul\":1583:1584   */\n      0x04\n        /* \"#utility.yul\":1576:1591   */\n      mstore\n        /* \"#utility.yul\":1610:1614   */\n      0x24\n        /* \"#utility.yul\":1607:1608   */\n      0x00\n        /* \"#utility.yul\":1600:1615   */\n      revert\n        /* \"#utility.yul\":1627:1812   */\n    tag_31:\n        /* \"#utility.yul\":1667:1668   */\n      0x00\n        /* \"#utility.yul\":1684:1704   */\n      tag_61\n        /* \"#utility.yul\":1702:1703   */\n      dup3\n        /* \"#utility.yul\":1684:1704   */\n      tag_32\n      jump\t// in\n    tag_61:\n        /* \"#utility.yul\":1679:1704   */\n      swap2\n      pop\n        /* \"#utility.yul\":1718:1738   */\n      tag_62\n        /* \"#utility.yul\":1736:1737   */\n      dup4\n        /* \"#utility.yul\":1718:1738   */\n      tag_32\n      jump\t// in\n    tag_62:\n        /* \"#utility.yul\":1713:1738   */\n      swap3\n      pop\n        /* \"#utility.yul\":1757:1758   */\n      dup3\n        /* \"#utility.yul\":1747:1782   */\n      tag_63\n      jumpi\n        /* \"#utility.yul\":1762:1780   */\n      tag_64\n      tag_35\n      jump\t// in\n    tag_64:\n        /* \"#utility.yul\":1747:1782   */\n    tag_63:\n        /* \"#utility.yul\":1804:1805   */\n      dup3\n        /* \"#utility.yul\":1801:1802   */\n      dup3\n        /* \"#utility.yul\":1797:1806   */\n      div\n        /* \"#utility.yul\":1792:1806   */\n      swap1\n      pop\n        /* \"#utility.yul\":1627:1812   */\n      swap3\n      swap2\n      pop\n      pop\n      jump\t// out\n\n    auxdata: 0xa2646970667358221220128d3183d0b8fbd8b6e4247997df4e006885bdb968aa6e19a5deaf148a7e01c964736f6c63430008120033\n}\n",
				"bytecode": {
					"linkReferences": {},
					"object": "6080604052600a600055604360015534801561001a57600080fd5b506102c88061002a6000396000f3fe608060405234801561001057600080fd5b506004361061004c5760003560e01c80634f2be91f1461005157806358931c461461006f578063c54124be1461008d578063f9fa48c3146100ab575b600080fd5b6100596100c9565b604051610066919061013e565b60405180910390f35b6100776100e0565b604051610084919061013e565b60405180910390f35b6100956100f7565b6040516100a2919061013e565b60405180910390f35b6100b361010e565b6040516100c0919061013e565b60405180910390f35b60006001546000546100db9190610188565b905090565b60006001546000546100f291906101bc565b905090565b600060015460005461010991906101fe565b905090565b60006001546000546101209190610261565b905090565b6000819050919050565b61013881610125565b82525050565b6000602082019050610153600083018461012f565b92915050565b7f4e487b7100000000000000000000000000000000000000000000000000000000600052601160045260246000fd5b600061019382610125565b915061019e83610125565b92508282019050808211156101b6576101b5610159565b5b92915050565b60006101c782610125565b91506101d283610125565b92508282026101e081610125565b915082820484148315176101f7576101f6610159565b5b5092915050565b600061020982610125565b915061021483610125565b925082820390508181111561022c5761022b610159565b5b92915050565b7f4e487b7100000000000000000000000000000000000000000000000000000000600052601260045260246000fd5b600061026c82610125565b915061027783610125565b92508261028757610286610232565b5b82820490509291505056fea2646970667358221220128d3183d0b8fbd8b6e4247997df4e006885bdb968aa6e19a5deaf148a7e01c964736f6c63430008120033",
					"opcodes": "PUSH1 0x80 PUSH1 0x40 MSTORE PUSH1 0xA PUSH1 0x0 SSTORE PUSH1 0x43 PUSH1 0x1 SSTORE CALLVALUE DUP1 ISZERO PUSH2 0x1A JUMPI PUSH1 0x0 DUP1 REVERT JUMPDEST POP PUSH2 0x2C8 DUP1 PUSH2 0x2A PUSH1 0x0 CODECOPY PUSH1 0x0 RETURN INVALID PUSH1 0x80 PUSH1 0x40 MSTORE CALLVALUE DUP1 ISZERO PUSH2 0x10 JUMPI PUSH1 0x0 DUP1 REVERT JUMPDEST POP PUSH1 0x4 CALLDATASIZE LT PUSH2 0x4C JUMPI PUSH1 0x0 CALLDATALOAD PUSH1 0xE0 SHR DUP1 PUSH4 0x4F2BE91F EQ PUSH2 0x51 JUMPI DUP1 PUSH4 0x58931C46 EQ PUSH2 0x6F JUMPI DUP1 PUSH4 0xC54124BE EQ PUSH2 0x8D JUMPI DUP1 PUSH4 0xF9FA48C3 EQ PUSH2 0xAB JUMPI JUMPDEST PUSH1 0x0 DUP1 REVERT JUMPDEST PUSH2 0x59 PUSH2 0xC9 JUMP JUMPDEST PUSH1 0x40 MLOAD PUSH2 0x66 SWAP2 SWAP1 PUSH2 0x13E JUMP JUMPDEST PUSH1 0x40 MLOAD DUP1 SWAP2 SUB SWAP1 RETURN JUMPDEST PUSH2 0x77 PUSH2 0xE0 JUMP JUMPDEST PUSH1 0x40 MLOAD PUSH2 0x84 SWAP2 SWAP1 PUSH2 0x13E JUMP JUMPDEST PUSH1 0x40 MLOAD DUP1 SWAP2 SUB SWAP1 RETURN JUMPDEST PUSH2 0x95 PUSH2 0xF7 JUMP JUMPDEST PUSH1 0x40 MLOAD PUSH2 0xA2 SWAP2 SWAP1 PUSH2 0x13E JUMP JUMPDEST PUSH1 0x40 MLOAD DUP1 SWAP2 SUB SWAP1 RETURN JUMPDEST PUSH2 0xB3 PUSH2 0x10E JUMP JUMPDEST PUSH1 0x40 MLOAD PUSH2 0xC0 SWAP2 SWAP1 PUSH2 0x13E JUMP JUMPDEST PUSH1 0x40 MLOAD DUP1 SWAP2 SUB SWAP1 RETURN JUMPDEST PUSH1 0x0 PUSH1 0x1 SLOAD PUSH1 0x0 SLOAD PUSH2 0xDB SWAP2 SWAP1 PUSH2 0x188 JUMP JUMPDEST SWAP1 POP SWAP1 JUMP JUMPDEST PUSH1 0x0 PUSH1 0x1 SLOAD PUSH1 0x0 SLOAD PUSH2 0xF2 SWAP2 SWAP1 PUSH2 0x1BC JUMP JUMPDEST SWAP1 POP SWAP1 JUMP JUMPDEST PUSH1 0x0 PUSH1 0x1 SLOAD PUSH1 0x0 SLOAD PUSH2 0x109 SWAP2 SWAP1 PUSH2 0x1FE JUMP JUMPDEST SWAP1 POP SWAP1 JUMP JUMPDEST PUSH1 0x0 PUSH1 0x1 SLOAD PUSH1 0x0 SLOAD PUSH2 0x120 SWAP2 SWAP1 PUSH2 0x261 JUMP JUMPDEST SWAP1 POP SWAP1 JUMP JUMPDEST PUSH1 0x0 DUP2 SWAP1 POP SWAP2 SWAP1 POP JUMP JUMPDEST PUSH2 0x138 DUP2 PUSH2 0x125 JUMP JUMPDEST DUP3 MSTORE POP POP JUMP JUMPDEST PUSH1 0x0 PUSH1 0x20 DUP3 ADD SWAP1 POP PUSH2 0x153 PUSH1 0x0 DUP4 ADD DUP5 PUSH2 0x12F JUMP JUMPDEST SWAP3 SWAP2 POP POP JUMP JUMPDEST PUSH32 0x4E487B7100000000000000000000000000000000000000000000000000000000 PUSH1 0x0 MSTORE PUSH1 0x11 PUSH1 0x4 MSTORE PUSH1 0x24 PUSH1 0x0 REVERT JUMPDEST PUSH1 0x0 PUSH2 0x193 DUP3 PUSH2 0x125 JUMP JUMPDEST SWAP2 POP PUSH2 0x19E DUP4 PUSH2 0x125 JUMP JUMPDEST SWAP3 POP DUP3 DUP3 ADD SWAP1 POP DUP1 DUP3 GT ISZERO PUSH2 0x1B6 JUMPI PUSH2 0x1B5 PUSH2 0x159 JUMP JUMPDEST JUMPDEST SWAP3 SWAP2 POP POP JUMP JUMPDEST PUSH1 0x0 PUSH2 0x1C7 DUP3 PUSH2 0x125 JUMP JUMPDEST SWAP2 POP PUSH2 0x1D2 DUP4 PUSH2 0x125 JUMP JUMPDEST SWAP3 POP DUP3 DUP3 MUL PUSH2 0x1E0 DUP2 PUSH2 0x125 JUMP JUMPDEST SWAP2 POP DUP3 DUP3 DIV DUP5 EQ DUP4 ISZERO OR PUSH2 0x1F7 JUMPI PUSH2 0x1F6 PUSH2 0x159 JUMP JUMPDEST JUMPDEST POP SWAP3 SWAP2 POP POP JUMP JUMPDEST PUSH1 0x0 PUSH2 0x209 DUP3 PUSH2 0x125 JUMP JUMPDEST SWAP2 POP PUSH2 0x214 DUP4 PUSH2 0x125 JUMP JUMPDEST SWAP3 POP DUP3 DUP3 SUB SWAP1 POP DUP2 DUP2 GT ISZERO PUSH2 0x22C JUMPI PUSH2 0x22B PUSH2 0x159 JUMP JUMPDEST JUMPDEST SWAP3 SWAP2 POP POP JUMP JUMPDEST PUSH32 0x4E487B7100000000000000000000000000000000000000000000000000000000 PUSH1 0x0 MSTORE PUSH1 0x12 PUSH1 0x4 MSTORE PUSH1 0x24 PUSH1 0x0 REVERT JUMPDEST PUSH1 0x0 PUSH2 0x26C DUP3 PUSH2 0x125 JUMP JUMPDEST SWAP2 POP PUSH2 0x277 DUP4 PUSH2 0x125 JUMP JUMPDEST SWAP3 POP DUP3 PUSH2 0x287 JUMPI PUSH2 0x286 PUSH2 0x232 JUMP JUMPDEST JUMPDEST DUP3 DUP3 DIV SWAP1 POP SWAP3 SWAP2 POP POP JUMP INVALID LOG2 PUSH5 0x6970667358 0x22 SLT KECCAK256 SLT DUP14 BALANCE DUP4 0xD0 0xB8 0xFB 0xD8 0xB6 0xE4 0x24 PUSH26 0x97DF4E006885BDB968AA6E19A5DEAF148A7E01C964736F6C6343 STOP ADDMOD SLT STOP CALLER "
				},
				"gasEstimates": {
					"creation": {
						"codeDepositCost": "142400",
						"executionCost": "44402",
						"totalCost": "186802"
					},
					"external": {
						"add()": "infinite",
						"div()": "infinite",
						"mul()": "infinite",
						"sub()": "infinite"
					}
				},
				"methodIdentifiers": {
					"add()": "4f2be91f",
					"div()": "f9fa48c3",
					"mul()": "58931c46",
					"sub()": "c54124be"
				}
			},
			"storageLayout": {
				"storage": [
					{
						"astId": 4,
						"contract": "Arithmeticoperator.sol:Arithmetic_operator",
						"label": "a",
						"offset": 0,
						"slot": "0",
						"type": "t_uint256"
					},
					{
						"astId": 7,
						"contract": "Arithmeticoperator.sol:Arithmetic_operator",
						"label": "b",
						"offset": 0,
						"slot": "1",
						"type": "t_uint256"
					}
				],
				"types": {
					"t_uint256": {
						"encoding": "inplace",
						"label": "uint256",
						"numberOfBytes": "32"
					}
				}
			},
			"userdoc": {
				"kind": "user",
				"methods": {},
				"version": 1
			}
		}
	}
}