{
	"First.sol": {
		"First": {
			"abi": [
				{
					"inputs": [],
					"name": "BlockNo",
					"outputs": [
						{
							"internalType": "uint256",
							"name": "",
							"type": "uint256"
						}
					],
					"stateMutability": "view",
					"type": "function"
				},
				{
					"inputs": [],
					"name": "ChainID",
					"outputs": [
						{
							"internalType": "uint256",
							"name": "",
							"type": "uint256"
						}
					],
					"stateMutability": "view",
					"type": "function"
				},
				{
					"inputs": [],
					"name": "EthValue",
					"outputs": [
						{
							"internalType": "uint256",
							"name": "",
							"type": "uint256"
						}
					],
					"stateMutability": "view",
					"type": "function"
				},
				{
					"inputs": [],
					"name": "InteractContracter",
					"outputs": [
						{
							"internalType": "address",
							"name": "",
							"type": "address"
						}
					],
					"stateMutability": "view",
					"type": "function"
				},
				{
					"inputs": [],
					"name": "TimeStamp",
					"outputs": [
						{
							"internalType": "uint256",
							"name": "",
							"type": "uint256"
						}
					],
					"stateMutability": "view",
					"type": "function"
				},
				{
					"inputs": [],
					"name": "gaslimit",
					"outputs": [
						{
							"internalType": "uint256",
							"name": "",
							"type": "uint256"
						}
					],
					"stateMutability": "view",
					"type": "function"
				}
			],
			"devdoc": {
				"kind": "dev",
				"methods": {},
				"version": 1
			},
			"evm": {
				"assembly": "    /* \"First.sol\":67:350  contract First{... */\n  mstore(0x40, 0x80)\n    /* \"First.sol\":111:125  block.gaslimit */\n  gaslimit\n    /* \"First.sol\":88:125  uint public gaslimit = block.gaslimit */\n  0x00\n  sstore\n    /* \"First.sol\":168:178  msg.sender */\n  caller\n    /* \"First.sol\":132:178  address public InteractContracter = msg.sender */\n  0x01\n  exp(0x0100, 0x00)\n  dup2\n  sload\n  dup2\n  0xffffffffffffffffffffffffffffffffffffffff\n  mul\n  not\n  and\n  swap1\n  dup4\n  0xffffffffffffffffffffffffffffffffffffffff\n  and\n  mul\n  or\n  swap1\n  sstore\n  pop\n    /* \"First.sol\":208:217  msg.value */\n  callvalue\n    /* \"First.sol\":185:217  uint public EthValue = msg.value */\n  0x02\n  sstore\n    /* \"First.sol\":246:258  block.number */\n  number\n    /* \"First.sol\":224:258  uint public BlockNo = block.number */\n  0x03\n  sstore\n    /* \"First.sol\":287:300  block.chainid */\n  chainid\n    /* \"First.sol\":265:300  uint public ChainID = block.chainid */\n  0x04\n  sstore\n    /* \"First.sol\":331:346  block.timestamp */\n  timestamp\n    /* \"First.sol\":307:346  uint public TimeStamp = block.timestamp */\n  0x05\n  sstore\n    /* \"First.sol\":67:350  contract First{... */\n  callvalue\n  dup1\n  iszero\n  tag_1\n  jumpi\n  0x00\n  dup1\n  revert\ntag_1:\n  pop\n  dataSize(sub_0)\n  dup1\n  dataOffset(sub_0)\n  0x00\n  codecopy\n  0x00\n  return\nstop\n\nsub_0: assembly {\n        /* \"First.sol\":67:350  contract First{... */\n      mstore(0x40, 0x80)\n      callvalue\n      dup1\n      iszero\n      tag_1\n      jumpi\n      0x00\n      dup1\n      revert\n    tag_1:\n      pop\n      jumpi(tag_2, lt(calldatasize, 0x04))\n      shr(0xe0, calldataload(0x00))\n      dup1\n      0x1b9052b8\n      eq\n      tag_3\n      jumpi\n      dup1\n      0x26a361d4\n      eq\n      tag_4\n      jumpi\n      dup1\n      0x2a722839\n      eq\n      tag_5\n      jumpi\n      dup1\n      0x6514242a\n      eq\n      tag_6\n      jumpi\n      dup1\n      0xadaa9e12\n      eq\n      tag_7\n      jumpi\n      dup1\n      0xe177644a\n      eq\n      tag_8\n      jumpi\n    tag_2:\n      0x00\n      dup1\n      revert\n        /* \"First.sol\":132:178  address public InteractContracter = msg.sender */\n    tag_3:\n      tag_9\n      tag_10\n      jump\t// in\n    tag_9:\n      mload(0x40)\n      tag_11\n      swap2\n      swap1\n      tag_12\n      jump\t// in\n    tag_11:\n      mload(0x40)\n      dup1\n      swap2\n      sub\n      swap1\n      return\n        /* \"First.sol\":185:217  uint public EthValue = msg.value */\n    tag_4:\n      tag_13\n      tag_14\n      jump\t// in\n    tag_13:\n      mload(0x40)\n      tag_15\n      swap2\n      swap1\n      tag_16\n      jump\t// in\n    tag_15:\n      mload(0x40)\n      dup1\n      swap2\n      sub\n      swap1\n      return\n        /* \"First.sol\":88:125  uint public gaslimit = block.gaslimit */\n    tag_5:\n      tag_17\n      tag_18\n      jump\t// in\n    tag_17:\n      mload(0x40)\n      tag_19\n      swap2\n      swap1\n      tag_16\n      jump\t// in\n    tag_19:\n      mload(0x40)\n      dup1\n      swap2\n      sub\n      swap1\n      return\n        /* \"First.sol\":265:300  uint public ChainID = block.chainid */\n    tag_6:\n      tag_20\n      tag_21\n      jump\t// in\n    tag_20:\n      mload(0x40)\n      tag_22\n      swap2\n      swap1\n      tag_16\n      jump\t// in\n    tag_22:\n      mload(0x40)\n      dup1\n      swap2\n      sub\n      swap1\n      return\n        /* \"First.sol\":224:258  uint public BlockNo = block.number */\n    tag_7:\n      tag_23\n      tag_24\n      jump\t// in\n    tag_23:\n      mload(0x40)\n      tag_25\n      swap2\n      swap1\n      tag_16\n      jump\t// in\n    tag_25:\n      mload(0x40)\n      dup1\n      swap2\n      sub\n      swap1\n      return\n        /* \"First.sol\":307:346  uint public TimeStamp = block.timestamp */\n    tag_8:\n      tag_26\n      tag_27\n      jump\t// in\n    tag_26:\n      mload(0x40)\n      tag_28\n      swap2\n      swap1\n      tag_16\n      jump\t// in\n    tag_28:\n      mload(0x40)\n      dup1\n      swap2\n      sub\n      swap1\n      return\n        /* \"First.sol\":132:178  address public InteractContracter = msg.sender */\n    tag_10:\n      0x01\n      0x00\n      swap1\n      sload\n      swap1\n      0x0100\n      exp\n      swap1\n      div\n      0xffffffffffffffffffffffffffffffffffffffff\n      and\n      dup2\n      jump\t// out\n        /* \"First.sol\":185:217  uint public EthValue = msg.value */\n    tag_14:\n      sload(0x02)\n      dup2\n      jump\t// out\n        /* \"First.sol\":88:125  uint public gaslimit = block.gaslimit */\n    tag_18:\n      sload(0x00)\n      dup2\n      jump\t// out\n        /* \"First.sol\":265:300  uint public ChainID = block.chainid */\n    tag_21:\n      sload(0x04)\n      dup2\n      jump\t// out\n        /* \"First.sol\":224:258  uint public BlockNo = block.number */\n    tag_24:\n      sload(0x03)\n      dup2\n      jump\t// out\n        /* \"First.sol\":307:346  uint public TimeStamp = block.timestamp */\n    tag_27:\n      sload(0x05)\n      dup2\n      jump\t// out\n        /* \"#utility.yul\":7:133   */\n    tag_29:\n        /* \"#utility.yul\":44:51   */\n      0x00\n        /* \"#utility.yul\":84:126   */\n      0xffffffffffffffffffffffffffffffffffffffff\n        /* \"#utility.yul\":77:82   */\n      dup3\n        /* \"#utility.yul\":73:127   */\n      and\n        /* \"#utility.yul\":62:127   */\n      swap1\n      pop\n        /* \"#utility.yul\":7:133   */\n      swap2\n      swap1\n      pop\n      jump\t// out\n        /* \"#utility.yul\":139:235   */\n    tag_30:\n        /* \"#utility.yul\":176:183   */\n      0x00\n        /* \"#utility.yul\":205:229   */\n      tag_37\n        /* \"#utility.yul\":223:228   */\n      dup3\n        /* \"#utility.yul\":205:229   */\n      tag_29\n      jump\t// in\n    tag_37:\n        /* \"#utility.yul\":194:229   */\n      swap1\n      pop\n        /* \"#utility.yul\":139:235   */\n      swap2\n      swap1\n      pop\n      jump\t// out\n        /* \"#utility.yul\":241:359   */\n    tag_31:\n        /* \"#utility.yul\":328:352   */\n      tag_39\n        /* \"#utility.yul\":346:351   */\n      dup2\n        /* \"#utility.yul\":328:352   */\n      tag_30\n      jump\t// in\n    tag_39:\n        /* \"#utility.yul\":323:326   */\n      dup3\n        /* \"#utility.yul\":316:353   */\n      mstore\n        /* \"#utility.yul\":241:359   */\n      pop\n      pop\n      jump\t// out\n        /* \"#utility.yul\":365:587   */\n    tag_12:\n        /* \"#utility.yul\":458:462   */\n      0x00\n        /* \"#utility.yul\":496:498   */\n      0x20\n        /* \"#utility.yul\":485:494   */\n      dup3\n        /* \"#utility.yul\":481:499   */\n      add\n        /* \"#utility.yul\":473:499   */\n      swap1\n      pop\n        /* \"#utility.yul\":509:580   */\n      tag_41\n        /* \"#utility.yul\":577:578   */\n      0x00\n        /* \"#utility.yul\":566:575   */\n      dup4\n        /* \"#utility.yul\":562:579   */\n      add\n        /* \"#utility.yul\":553:559   */\n      dup5\n        /* \"#utility.yul\":509:580   */\n      tag_31\n      jump\t// in\n    tag_41:\n        /* \"#utility.yul\":365:587   */\n      swap3\n      swap2\n      pop\n      pop\n      jump\t// out\n        /* \"#utility.yul\":593:670   */\n    tag_32:\n        /* \"#utility.yul\":630:637   */\n      0x00\n        /* \"#utility.yul\":659:664   */\n      dup2\n        /* \"#utility.yul\":648:664   */\n      swap1\n      pop\n        /* \"#utility.yul\":593:670   */\n      swap2\n      swap1\n      pop\n      jump\t// out\n        /* \"#utility.yul\":676:794   */\n    tag_33:\n        /* \"#utility.yul\":763:787   */\n      tag_44\n        /* \"#utility.yul\":781:786   */\n      dup2\n        /* \"#utility.yul\":763:787   */\n      tag_32\n      jump\t// in\n    tag_44:\n        /* \"#utility.yul\":758:761   */\n      dup3\n        /* \"#utility.yul\":751:788   */\n      mstore\n        /* \"#utility.yul\":676:794   */\n      pop\n      pop\n      jump\t// out\n        /* \"#utility.yul\":800:1022   */\n    tag_16:\n        /* \"#utility.yul\":893:897   */\n      0x00\n        /* \"#utility.yul\":931:933   */\n      0x20\n        /* \"#utility.yul\":920:929   */\n      dup3\n        /* \"#utility.yul\":916:934   */\n      add\n        /* \"#utility.yul\":908:934   */\n      swap1\n      pop\n        /* \"#utility.yul\":944:1015   */\n      tag_46\n        /* \"#utility.yul\":1012:1013   */\n      0x00\n        /* \"#utility.yul\":1001:1010   */\n      dup4\n        /* \"#utility.yul\":997:1014   */\n      add\n        /* \"#utility.yul\":988:994   */\n      dup5\n        /* \"#utility.yul\":944:1015   */\n      tag_33\n      jump\t// in\n    tag_46:\n        /* \"#utility.yul\":800:1022   */\n      swap3\n      swap2\n      pop\n      pop\n      jump\t// out\n\n    auxdata: 0xa2646970667358221220c603a88699a4f914b0e97f95c156a9c50fbdb051ac2a27252188b1469868753664736f6c63430008120033\n}\n",
				"bytecode": {
					"linkReferences": {},
					"object": "60806040524560005533600160006101000a81548173ffffffffffffffffffffffffffffffffffffffff021916908373ffffffffffffffffffffffffffffffffffffffff1602179055503460025543600355466004554260055534801561006557600080fd5b50610225806100756000396000f3fe608060405234801561001057600080fd5b50600436106100625760003560e01c80631b9052b81461006757806326a361d4146100855780632a722839146100a35780636514242a146100c1578063adaa9e12146100df578063e177644a146100fd575b600080fd5b61006f61011b565b60405161007c91906101a0565b60405180910390f35b61008d610141565b60405161009a91906101d4565b60405180910390f35b6100ab610147565b6040516100b891906101d4565b60405180910390f35b6100c961014d565b6040516100d691906101d4565b60405180910390f35b6100e7610153565b6040516100f491906101d4565b60405180910390f35b610105610159565b60405161011291906101d4565b60405180910390f35b600160009054906101000a900473ffffffffffffffffffffffffffffffffffffffff1681565b60025481565b60005481565b60045481565b60035481565b60055481565b600073ffffffffffffffffffffffffffffffffffffffff82169050919050565b600061018a8261015f565b9050919050565b61019a8161017f565b82525050565b60006020820190506101b56000830184610191565b92915050565b6000819050919050565b6101ce816101bb565b82525050565b60006020820190506101e960008301846101c5565b9291505056fea2646970667358221220c603a88699a4f914b0e97f95c156a9c50fbdb051ac2a27252188b1469868753664736f6c63430008120033",
					"opcodes": "PUSH1 0x80 PUSH1 0x40 MSTORE GASLIMIT PUSH1 0x0 SSTORE CALLER PUSH1 0x1 PUSH1 0x0 PUSH2 0x100 EXP DUP2 SLOAD DUP2 PUSH20 0xFFFFFFFFFFFFFFFFFFFFFFFFFFFFFFFFFFFFFFFF MUL NOT AND SWAP1 DUP4 PUSH20 0xFFFFFFFFFFFFFFFFFFFFFFFFFFFFFFFFFFFFFFFF AND MUL OR SWAP1 SSTORE POP CALLVALUE PUSH1 0x2 SSTORE NUMBER PUSH1 0x3 SSTORE CHAINID PUSH1 0x4 SSTORE TIMESTAMP PUSH1 0x5 SSTORE CALLVALUE DUP1 ISZERO PUSH2 0x65 JUMPI PUSH1 0x0 DUP1 REVERT JUMPDEST POP PUSH2 0x225 DUP1 PUSH2 0x75 PUSH1 0x0 CODECOPY PUSH1 0x0 RETURN INVALID PUSH1 0x80 PUSH1 0x40 MSTORE CALLVALUE DUP1 ISZERO PUSH2 0x10 JUMPI PUSH1 0x0 DUP1 REVERT JUMPDEST POP PUSH1 0x4 CALLDATASIZE LT PUSH2 0x62 JUMPI PUSH1 0x0 CALLDATALOAD PUSH1 0xE0 SHR DUP1 PUSH4 0x1B9052B8 EQ PUSH2 0x67 JUMPI DUP1 PUSH4 0x26A361D4 EQ PUSH2 0x85 JUMPI DUP1 PUSH4 0x2A722839 EQ PUSH2 0xA3 JUMPI DUP1 PUSH4 0x6514242A EQ PUSH2 0xC1 JUMPI DUP1 PUSH4 0xADAA9E12 EQ PUSH2 0xDF JUMPI DUP1 PUSH4 0xE177644A EQ PUSH2 0xFD JUMPI JUMPDEST PUSH1 0x0 DUP1 REVERT JUMPDEST PUSH2 0x6F PUSH2 0x11B JUMP JUMPDEST PUSH1 0x40 MLOAD PUSH2 0x7C SWAP2 SWAP1 PUSH2 0x1A0 JUMP JUMPDEST PUSH1 0x40 MLOAD DUP1 SWAP2 SUB SWAP1 RETURN JUMPDEST PUSH2 0x8D PUSH2 0x141 JUMP JUMPDEST PUSH1 0x40 MLOAD PUSH2 0x9A SWAP2 SWAP1 PUSH2 0x1D4 JUMP JUMPDEST PUSH1 0x40 MLOAD DUP1 SWAP2 SUB SWAP1 RETURN JUMPDEST PUSH2 0xAB PUSH2 0x147 JUMP JUMPDEST PUSH1 0x40 MLOAD PUSH2 0xB8 SWAP2 SWAP1 PUSH2 0x1D4 JUMP JUMPDEST PUSH1 0x40 MLOAD DUP1 SWAP2 SUB SWAP1 RETURN JUMPDEST PUSH2 0xC9 PUSH2 0x14D JUMP JUMPDEST PUSH1 0x40 MLOAD PUSH2 0xD6 SWAP2 SWAP1 PUSH2 0x1D4 JUMP JUMPDEST PUSH1 0x40 MLOAD DUP1 SWAP2 SUB SWAP1 RETURN JUMPDEST PUSH2 0xE7 PUSH2 0x153 JUMP JUMPDEST PUSH1 0x40 MLOAD PUSH2 0xF4 SWAP2 SWAP1 PUSH2 0x1D4 JUMP JUMPDEST PUSH1 0x40 MLOAD DUP1 SWAP2 SUB SWAP1 RETURN JUMPDEST PUSH2 0x105 PUSH2 0x159 JUMP JUMPDEST PUSH1 0x40 MLOAD PUSH2 0x112 SWAP2 SWAP1 PUSH2 0x1D4 JUMP JUMPDEST PUSH1 0x40 MLOAD DUP1 SWAP2 SUB SWAP1 RETURN JUMPDEST PUSH1 0x1 PUSH1 0x0 SWAP1 SLOAD SWAP1 PUSH2 0x100 EXP SWAP1 DIV PUSH20 0xFFFFFFFFFFFFFFFFFFFFFFFFFFFFFFFFFFFFFFFF AND DUP2 JUMP JUMPDEST PUSH1 0x2 SLOAD DUP2 JUMP JUMPDEST PUSH1 0x0 SLOAD DUP2 JUMP JUMPDEST PUSH1 0x4 SLOAD DUP2 JUMP JUMPDEST PUSH1 0x3 SLOAD DUP2 JUMP JUMPDEST PUSH1 0x5 SLOAD DUP2 JUMP JUMPDEST PUSH1 0x0 PUSH20 0xFFFFFFFFFFFFFFFFFFFFFFFFFFFFFFFFFFFFFFFF DUP3 AND SWAP1 POP SWAP2 SWAP1 POP JUMP JUMPDEST PUSH1 0x0 PUSH2 0x18A DUP3 PUSH2 0x15F JUMP JUMPDEST SWAP1 POP SWAP2 SWAP1 POP JUMP JUMPDEST PUSH2 0x19A DUP2 PUSH2 0x17F JUMP JUMPDEST DUP3 MSTORE POP POP JUMP JUMPDEST PUSH1 0x0 PUSH1 0x20 DUP3 ADD SWAP1 POP PUSH2 0x1B5 PUSH1 0x0 DUP4 ADD DUP5 PUSH2 0x191 JUMP JUMPDEST SWAP3 SWAP2 POP POP JUMP JUMPDEST PUSH1 0x0 DUP2 SWAP1 POP SWAP2 SWAP1 POP JUMP JUMPDEST PUSH2 0x1CE DUP2 PUSH2 0x1BB JUMP JUMPDEST DUP3 MSTORE POP POP JUMP JUMPDEST PUSH1 0x0 PUSH1 0x20 DUP3 ADD SWAP1 POP PUSH2 0x1E9 PUSH1 0x0 DUP4 ADD DUP5 PUSH2 0x1C5 JUMP JUMPDEST SWAP3 SWAP2 POP POP JUMP INVALID LOG2 PUSH5 0x6970667358 0x22 SLT KECCAK256 0xC6 SUB 0xA8 DUP7 SWAP10 LOG4 0xF9 EQ 0xB0 0xE9 PUSH32 0x95C156A9C50FBDB051AC2A27252188B1469868753664736F6C63430008120033 "
				},
				"gasEstimates": {
					"creation": {
						"codeDepositCost": "109800",
						"executionCost": "134950",
						"totalCost": "244750"
					},
					"external": {
						"BlockNo()": "2495",
						"ChainID()": "2473",
						"EthValue()": "2429",
						"InteractContracter()": "2492",
						"TimeStamp()": "2517",
						"gaslimit()": "2451"
					}
				},
				"methodIdentifiers": {
					"BlockNo()": "adaa9e12",
					"ChainID()": "6514242a",
					"EthValue()": "26a361d4",
					"InteractContracter()": "1b9052b8",
					"TimeStamp()": "e177644a",
					"gaslimit()": "2a722839"
				}
			},
			"storageLayout": {
				"storage": [
					{
						"astId": 5,
						"contract": "First.sol:First",
						"label": "gaslimit",
						"offset": 0,
						"slot": "0",
						"type": "t_uint256"
					},
					{
						"astId": 9,
						"contract": "First.sol:First",
						"label": "InteractContracter",
						"offset": 0,
						"slot": "1",
						"type": "t_address"
					},
					{
						"astId": 13,
						"contract": "First.sol:First",
						"label": "EthValue",
						"offset": 0,
						"slot": "2",
						"type": "t_uint256"
					},
					{
						"astId": 17,
						"contract": "First.sol:First",
						"label": "BlockNo",
						"offset": 0,
						"slot": "3",
						"type": "t_uint256"
					},
					{
						"astId": 21,
						"contract": "First.sol:First",
						"label": "ChainID",
						"offset": 0,
						"slot": "4",
						"type": "t_uint256"
					},
					{
						"astId": 25,
						"contract": "First.sol:First",
						"label": "TimeStamp",
						"offset": 0,
						"slot": "5",
						"type": "t_uint256"
					}
				],
				"types": {
					"t_address": {
						"encoding": "inplace",
						"label": "address",
						"numberOfBytes": "20"
					},
					"t_uint256": {
						"encoding": "inplace",
						"label": "uint256",
						"numberOfBytes": "32"
					}
				}
			},
			"userdoc": {
				"kind": "user",
				"methods": {},
				"version": 1
			}
		}
	}
}