{
	"StructArray.sol": {
		"Struct": {
			"abi": [
				{
					"inputs": [
						{
							"internalType": "string",
							"name": "_name",
							"type": "string"
						},
						{
							"internalType": "uint256",
							"name": "_age",
							"type": "uint256"
						}
					],
					"name": "UpdateDetails",
					"outputs": [],
					"stateMutability": "nonpayable",
					"type": "function"
				},
				{
					"inputs": [
						{
							"internalType": "uint256",
							"name": "",
							"type": "uint256"
						}
					],
					"name": "person",
					"outputs": [
						{
							"internalType": "string",
							"name": "Name",
							"type": "string"
						},
						{
							"internalType": "uint256",
							"name": "Age",
							"type": "uint256"
						}
					],
					"stateMutability": "view",
					"type": "function"
				}
			],
			"devdoc": {
				"kind": "dev",
				"methods": {},
				"version": 1
			},
			"evm": {
				"assembly": "    /* \"StructArray.sol\":62:387  contract Struct{... */\n  mstore(0x40, 0x80)\n  callvalue\n  dup1\n  iszero\n  tag_1\n  jumpi\n  0x00\n  dup1\n  revert\ntag_1:\n  pop\n  dataSize(sub_0)\n  dup1\n  dataOffset(sub_0)\n  0x00\n  codecopy\n  0x00\n  return\nstop\n\nsub_0: assembly {\n        /* \"StructArray.sol\":62:387  contract Struct{... */\n      mstore(0x40, 0x80)\n      callvalue\n      dup1\n      iszero\n      tag_1\n      jumpi\n      0x00\n      dup1\n      revert\n    tag_1:\n      pop\n      jumpi(tag_2, lt(calldatasize, 0x04))\n      shr(0xe0, calldataload(0x00))\n      dup1\n      0x092a1820\n      eq\n      tag_3\n      jumpi\n      dup1\n      0xc8218e54\n      eq\n      tag_4\n      jumpi\n    tag_2:\n      0x00\n      dup1\n      revert\n        /* \"StructArray.sol\":154:191  Person[] /* Variable */ public person */\n    tag_3:\n      tag_5\n      0x04\n      dup1\n      calldatasize\n      sub\n      dup2\n      add\n      swap1\n      tag_6\n      swap2\n      swap1\n      tag_7\n      jump\t// in\n    tag_6:\n      tag_8\n      jump\t// in\n    tag_5:\n      mload(0x40)\n      tag_9\n      swap3\n      swap2\n      swap1\n      tag_10\n      jump\t// in\n    tag_9:\n      mload(0x40)\n      dup1\n      swap2\n      sub\n      swap1\n      return\n        /* \"StructArray.sol\":200:382  function UpdateDetails(string memory _name , uint _age) public {... */\n    tag_4:\n      tag_11\n      0x04\n      dup1\n      calldatasize\n      sub\n      dup2\n      add\n      swap1\n      tag_12\n      swap2\n      swap1\n      tag_13\n      jump\t// in\n    tag_12:\n      tag_14\n      jump\t// in\n    tag_11:\n      stop\n        /* \"StructArray.sol\":154:191  Person[] /* Variable */ public person */\n    tag_8:\n      0x00\n      dup2\n      dup2\n      sload\n      dup2\n      lt\n      tag_15\n      jumpi\n      0x00\n      dup1\n      revert\n    tag_15:\n      swap1\n      0x00\n      mstore\n      keccak256(0x00, 0x20)\n      swap1\n      0x02\n      mul\n      add\n      0x00\n      swap2\n      pop\n      swap1\n      pop\n      dup1\n      0x00\n      add\n      dup1\n      sload\n      tag_17\n      swap1\n      tag_18\n      jump\t// in\n    tag_17:\n      dup1\n      0x1f\n      add\n      0x20\n      dup1\n      swap2\n      div\n      mul\n      0x20\n      add\n      mload(0x40)\n      swap1\n      dup2\n      add\n      0x40\n      mstore\n      dup1\n      swap3\n      swap2\n      swap1\n      dup2\n      dup2\n      mstore\n      0x20\n      add\n      dup3\n      dup1\n      sload\n      tag_19\n      swap1\n      tag_18\n      jump\t// in\n    tag_19:\n      dup1\n      iszero\n      tag_20\n      jumpi\n      dup1\n      0x1f\n      lt\n      tag_21\n      jumpi\n      0x0100\n      dup1\n      dup4\n      sload\n      div\n      mul\n      dup4\n      mstore\n      swap2\n      0x20\n      add\n      swap2\n      jump(tag_20)\n    tag_21:\n      dup3\n      add\n      swap2\n      swap1\n      0x00\n      mstore\n      keccak256(0x00, 0x20)\n      swap1\n    tag_22:\n      dup2\n      sload\n      dup2\n      mstore\n      swap1\n      0x01\n      add\n      swap1\n      0x20\n      add\n      dup1\n      dup4\n      gt\n      tag_22\n      jumpi\n      dup3\n      swap1\n      sub\n      0x1f\n      and\n      dup3\n      add\n      swap2\n    tag_20:\n      pop\n      pop\n      pop\n      pop\n      pop\n      swap1\n      dup1\n      0x01\n      add\n      sload\n      swap1\n      pop\n      dup3\n      jump\t// out\n        /* \"StructArray.sol\":200:382  function UpdateDetails(string memory _name , uint _age) public {... */\n    tag_14:\n        /* \"StructArray.sol\":274:280  person */\n      0x00\n        /* \"StructArray.sol\":286:306  Person(_name , _age) */\n      mload(0x40)\n      dup1\n      0x40\n      add\n      0x40\n      mstore\n      dup1\n        /* \"StructArray.sol\":293:298  _name */\n      dup5\n        /* \"StructArray.sol\":286:306  Person(_name , _age) */\n      dup2\n      mstore\n      0x20\n      add\n        /* \"StructArray.sol\":301:305  _age */\n      dup4\n        /* \"StructArray.sol\":286:306  Person(_name , _age) */\n      dup2\n      mstore\n      pop\n        /* \"StructArray.sol\":274:307  person.push(Person(_name , _age)) */\n      swap1\n      dup1\n      0x01\n      dup2\n      sload\n      add\n      dup1\n      dup3\n      sstore\n      dup1\n      swap2\n      pop\n      pop\n      0x01\n      swap1\n      sub\n      swap1\n      0x00\n      mstore\n      keccak256(0x00, 0x20)\n      swap1\n      0x02\n      mul\n      add\n      0x00\n      swap1\n      swap2\n      swap1\n      swap2\n      swap1\n      swap2\n      pop\n      0x00\n      dup3\n      add\n      mload\n      dup2\n      0x00\n      add\n      swap1\n      dup2\n      tag_25\n      swap2\n      swap1\n      tag_26\n      jump\t// in\n    tag_25:\n      pop\n      0x20\n      dup3\n      add\n      mload\n      dup2\n      0x01\n      add\n      sstore\n      pop\n      pop\n        /* \"StructArray.sol\":200:382  function UpdateDetails(string memory _name , uint _age) public {... */\n      pop\n      pop\n      jump\t// out\n        /* \"#utility.yul\":7:82   */\n    tag_27:\n        /* \"#utility.yul\":40:46   */\n      0x00\n        /* \"#utility.yul\":73:75   */\n      0x40\n        /* \"#utility.yul\":67:76   */\n      mload\n        /* \"#utility.yul\":57:76   */\n      swap1\n      pop\n        /* \"#utility.yul\":7:82   */\n      swap1\n      jump\t// out\n        /* \"#utility.yul\":88:205   */\n    tag_28:\n        /* \"#utility.yul\":197:198   */\n      0x00\n        /* \"#utility.yul\":194:195   */\n      dup1\n        /* \"#utility.yul\":187:199   */\n      revert\n        /* \"#utility.yul\":211:328   */\n    tag_29:\n        /* \"#utility.yul\":320:321   */\n      0x00\n        /* \"#utility.yul\":317:318   */\n      dup1\n        /* \"#utility.yul\":310:322   */\n      revert\n        /* \"#utility.yul\":334:411   */\n    tag_30:\n        /* \"#utility.yul\":371:378   */\n      0x00\n        /* \"#utility.yul\":400:405   */\n      dup2\n        /* \"#utility.yul\":389:405   */\n      swap1\n      pop\n        /* \"#utility.yul\":334:411   */\n      swap2\n      swap1\n      pop\n      jump\t// out\n        /* \"#utility.yul\":417:539   */\n    tag_31:\n        /* \"#utility.yul\":490:514   */\n      tag_70\n        /* \"#utility.yul\":508:513   */\n      dup2\n        /* \"#utility.yul\":490:514   */\n      tag_30\n      jump\t// in\n    tag_70:\n        /* \"#utility.yul\":483:488   */\n      dup2\n        /* \"#utility.yul\":480:515   */\n      eq\n        /* \"#utility.yul\":470:533   */\n      tag_71\n      jumpi\n        /* \"#utility.yul\":529:530   */\n      0x00\n        /* \"#utility.yul\":526:527   */\n      dup1\n        /* \"#utility.yul\":519:531   */\n      revert\n        /* \"#utility.yul\":470:533   */\n    tag_71:\n        /* \"#utility.yul\":417:539   */\n      pop\n      jump\t// out\n        /* \"#utility.yul\":545:684   */\n    tag_32:\n        /* \"#utility.yul\":591:596   */\n      0x00\n        /* \"#utility.yul\":629:635   */\n      dup2\n        /* \"#utility.yul\":616:636   */\n      calldataload\n        /* \"#utility.yul\":607:636   */\n      swap1\n      pop\n        /* \"#utility.yul\":645:678   */\n      tag_73\n        /* \"#utility.yul\":672:677   */\n      dup2\n        /* \"#utility.yul\":645:678   */\n      tag_31\n      jump\t// in\n    tag_73:\n        /* \"#utility.yul\":545:684   */\n      swap3\n      swap2\n      pop\n      pop\n      jump\t// out\n        /* \"#utility.yul\":690:1019   */\n    tag_7:\n        /* \"#utility.yul\":749:755   */\n      0x00\n        /* \"#utility.yul\":798:800   */\n      0x20\n        /* \"#utility.yul\":786:795   */\n      dup3\n        /* \"#utility.yul\":777:784   */\n      dup5\n        /* \"#utility.yul\":773:796   */\n      sub\n        /* \"#utility.yul\":769:801   */\n      slt\n        /* \"#utility.yul\":766:885   */\n      iszero\n      tag_75\n      jumpi\n        /* \"#utility.yul\":804:883   */\n      tag_76\n      tag_28\n      jump\t// in\n    tag_76:\n        /* \"#utility.yul\":766:885   */\n    tag_75:\n        /* \"#utility.yul\":924:925   */\n      0x00\n        /* \"#utility.yul\":949:1002   */\n      tag_77\n        /* \"#utility.yul\":994:1001   */\n      dup5\n        /* \"#utility.yul\":985:991   */\n      dup3\n        /* \"#utility.yul\":974:983   */\n      dup6\n        /* \"#utility.yul\":970:992   */\n      add\n        /* \"#utility.yul\":949:1002   */\n      tag_32\n      jump\t// in\n    tag_77:\n        /* \"#utility.yul\":939:1002   */\n      swap2\n      pop\n        /* \"#utility.yul\":895:1012   */\n      pop\n        /* \"#utility.yul\":690:1019   */\n      swap3\n      swap2\n      pop\n      pop\n      jump\t// out\n        /* \"#utility.yul\":1025:1124   */\n    tag_33:\n        /* \"#utility.yul\":1077:1083   */\n      0x00\n        /* \"#utility.yul\":1111:1116   */\n      dup2\n        /* \"#utility.yul\":1105:1117   */\n      mload\n        /* \"#utility.yul\":1095:1117   */\n      swap1\n      pop\n        /* \"#utility.yul\":1025:1124   */\n      swap2\n      swap1\n      pop\n      jump\t// out\n        /* \"#utility.yul\":1130:1299   */\n    tag_34:\n        /* \"#utility.yul\":1214:1225   */\n      0x00\n        /* \"#utility.yul\":1248:1254   */\n      dup3\n        /* \"#utility.yul\":1243:1246   */\n      dup3\n        /* \"#utility.yul\":1236:1255   */\n      mstore\n        /* \"#utility.yul\":1288:1292   */\n      0x20\n        /* \"#utility.yul\":1283:1286   */\n      dup3\n        /* \"#utility.yul\":1279:1293   */\n      add\n        /* \"#utility.yul\":1264:1293   */\n      swap1\n      pop\n        /* \"#utility.yul\":1130:1299   */\n      swap3\n      swap2\n      pop\n      pop\n      jump\t// out\n        /* \"#utility.yul\":1305:1551   */\n    tag_35:\n        /* \"#utility.yul\":1386:1387   */\n      0x00\n        /* \"#utility.yul\":1396:1509   */\n    tag_81:\n        /* \"#utility.yul\":1410:1416   */\n      dup4\n        /* \"#utility.yul\":1407:1408   */\n      dup2\n        /* \"#utility.yul\":1404:1417   */\n      lt\n        /* \"#utility.yul\":1396:1509   */\n      iszero\n      tag_83\n      jumpi\n        /* \"#utility.yul\":1495:1496   */\n      dup1\n        /* \"#utility.yul\":1490:1493   */\n      dup3\n        /* \"#utility.yul\":1486:1497   */\n      add\n        /* \"#utility.yul\":1480:1498   */\n      mload\n        /* \"#utility.yul\":1476:1477   */\n      dup2\n        /* \"#utility.yul\":1471:1474   */\n      dup5\n        /* \"#utility.yul\":1467:1478   */\n      add\n        /* \"#utility.yul\":1460:1499   */\n      mstore\n        /* \"#utility.yul\":1432:1434   */\n      0x20\n        /* \"#utility.yul\":1429:1430   */\n      dup2\n        /* \"#utility.yul\":1425:1435   */\n      add\n        /* \"#utility.yul\":1420:1435   */\n      swap1\n      pop\n        /* \"#utility.yul\":1396:1509   */\n      jump(tag_81)\n    tag_83:\n        /* \"#utility.yul\":1543:1544   */\n      0x00\n        /* \"#utility.yul\":1534:1540   */\n      dup5\n        /* \"#utility.yul\":1529:1532   */\n      dup5\n        /* \"#utility.yul\":1525:1541   */\n      add\n        /* \"#utility.yul\":1518:1545   */\n      mstore\n        /* \"#utility.yul\":1367:1551   */\n      pop\n        /* \"#utility.yul\":1305:1551   */\n      pop\n      pop\n      pop\n      jump\t// out\n        /* \"#utility.yul\":1557:1659   */\n    tag_36:\n        /* \"#utility.yul\":1598:1604   */\n      0x00\n        /* \"#utility.yul\":1649:1651   */\n      0x1f\n        /* \"#utility.yul\":1645:1652   */\n      not\n        /* \"#utility.yul\":1640:1642   */\n      0x1f\n        /* \"#utility.yul\":1633:1638   */\n      dup4\n        /* \"#utility.yul\":1629:1643   */\n      add\n        /* \"#utility.yul\":1625:1653   */\n      and\n        /* \"#utility.yul\":1615:1653   */\n      swap1\n      pop\n        /* \"#utility.yul\":1557:1659   */\n      swap2\n      swap1\n      pop\n      jump\t// out\n        /* \"#utility.yul\":1665:2042   */\n    tag_37:\n        /* \"#utility.yul\":1753:1756   */\n      0x00\n        /* \"#utility.yul\":1781:1820   */\n      tag_86\n        /* \"#utility.yul\":1814:1819   */\n      dup3\n        /* \"#utility.yul\":1781:1820   */\n      tag_33\n      jump\t// in\n    tag_86:\n        /* \"#utility.yul\":1836:1907   */\n      tag_87\n        /* \"#utility.yul\":1900:1906   */\n      dup2\n        /* \"#utility.yul\":1895:1898   */\n      dup6\n        /* \"#utility.yul\":1836:1907   */\n      tag_34\n      jump\t// in\n    tag_87:\n        /* \"#utility.yul\":1829:1907   */\n      swap4\n      pop\n        /* \"#utility.yul\":1916:1981   */\n      tag_88\n        /* \"#utility.yul\":1974:1980   */\n      dup2\n        /* \"#utility.yul\":1969:1972   */\n      dup6\n        /* \"#utility.yul\":1962:1966   */\n      0x20\n        /* \"#utility.yul\":1955:1960   */\n      dup7\n        /* \"#utility.yul\":1951:1967   */\n      add\n        /* \"#utility.yul\":1916:1981   */\n      tag_35\n      jump\t// in\n    tag_88:\n        /* \"#utility.yul\":2006:2035   */\n      tag_89\n        /* \"#utility.yul\":2028:2034   */\n      dup2\n        /* \"#utility.yul\":2006:2035   */\n      tag_36\n      jump\t// in\n    tag_89:\n        /* \"#utility.yul\":2001:2004   */\n      dup5\n        /* \"#utility.yul\":1997:2036   */\n      add\n        /* \"#utility.yul\":1990:2036   */\n      swap2\n      pop\n        /* \"#utility.yul\":1757:2042   */\n      pop\n        /* \"#utility.yul\":1665:2042   */\n      swap3\n      swap2\n      pop\n      pop\n      jump\t// out\n        /* \"#utility.yul\":2048:2166   */\n    tag_38:\n        /* \"#utility.yul\":2135:2159   */\n      tag_91\n        /* \"#utility.yul\":2153:2158   */\n      dup2\n        /* \"#utility.yul\":2135:2159   */\n      tag_30\n      jump\t// in\n    tag_91:\n        /* \"#utility.yul\":2130:2133   */\n      dup3\n        /* \"#utility.yul\":2123:2160   */\n      mstore\n        /* \"#utility.yul\":2048:2166   */\n      pop\n      pop\n      jump\t// out\n        /* \"#utility.yul\":2172:2595   */\n    tag_10:\n        /* \"#utility.yul\":2313:2317   */\n      0x00\n        /* \"#utility.yul\":2351:2353   */\n      0x40\n        /* \"#utility.yul\":2340:2349   */\n      dup3\n        /* \"#utility.yul\":2336:2354   */\n      add\n        /* \"#utility.yul\":2328:2354   */\n      swap1\n      pop\n        /* \"#utility.yul\":2400:2409   */\n      dup2\n        /* \"#utility.yul\":2394:2398   */\n      dup2\n        /* \"#utility.yul\":2390:2410   */\n      sub\n        /* \"#utility.yul\":2386:2387   */\n      0x00\n        /* \"#utility.yul\":2375:2384   */\n      dup4\n        /* \"#utility.yul\":2371:2388   */\n      add\n        /* \"#utility.yul\":2364:2411   */\n      mstore\n        /* \"#utility.yul\":2428:2506   */\n      tag_93\n        /* \"#utility.yul\":2501:2505   */\n      dup2\n        /* \"#utility.yul\":2492:2498   */\n      dup6\n        /* \"#utility.yul\":2428:2506   */\n      tag_37\n      jump\t// in\n    tag_93:\n        /* \"#utility.yul\":2420:2506   */\n      swap1\n      pop\n        /* \"#utility.yul\":2516:2588   */\n      tag_94\n        /* \"#utility.yul\":2584:2586   */\n      0x20\n        /* \"#utility.yul\":2573:2582   */\n      dup4\n        /* \"#utility.yul\":2569:2587   */\n      add\n        /* \"#utility.yul\":2560:2566   */\n      dup5\n        /* \"#utility.yul\":2516:2588   */\n      tag_38\n      jump\t// in\n    tag_94:\n        /* \"#utility.yul\":2172:2595   */\n      swap4\n      swap3\n      pop\n      pop\n      pop\n      jump\t// out\n        /* \"#utility.yul\":2601:2718   */\n    tag_39:\n        /* \"#utility.yul\":2710:2711   */\n      0x00\n        /* \"#utility.yul\":2707:2708   */\n      dup1\n        /* \"#utility.yul\":2700:2712   */\n      revert\n        /* \"#utility.yul\":2724:2841   */\n    tag_40:\n        /* \"#utility.yul\":2833:2834   */\n      0x00\n        /* \"#utility.yul\":2830:2831   */\n      dup1\n        /* \"#utility.yul\":2823:2835   */\n      revert\n        /* \"#utility.yul\":2847:3027   */\n    tag_41:\n        /* \"#utility.yul\":2895:2972   */\n      0x4e487b7100000000000000000000000000000000000000000000000000000000\n        /* \"#utility.yul\":2892:2893   */\n      0x00\n        /* \"#utility.yul\":2885:2973   */\n      mstore\n        /* \"#utility.yul\":2992:2996   */\n      0x41\n        /* \"#utility.yul\":2989:2990   */\n      0x04\n        /* \"#utility.yul\":2982:2997   */\n      mstore\n        /* \"#utility.yul\":3016:3020   */\n      0x24\n        /* \"#utility.yul\":3013:3014   */\n      0x00\n        /* \"#utility.yul\":3006:3021   */\n      revert\n        /* \"#utility.yul\":3033:3314   */\n    tag_42:\n        /* \"#utility.yul\":3116:3143   */\n      tag_99\n        /* \"#utility.yul\":3138:3142   */\n      dup3\n        /* \"#utility.yul\":3116:3143   */\n      tag_36\n      jump\t// in\n    tag_99:\n        /* \"#utility.yul\":3108:3114   */\n      dup2\n        /* \"#utility.yul\":3104:3144   */\n      add\n        /* \"#utility.yul\":3246:3252   */\n      dup2\n        /* \"#utility.yul\":3234:3244   */\n      dup2\n        /* \"#utility.yul\":3231:3253   */\n      lt\n        /* \"#utility.yul\":3210:3228   */\n      0xffffffffffffffff\n        /* \"#utility.yul\":3198:3208   */\n      dup3\n        /* \"#utility.yul\":3195:3229   */\n      gt\n        /* \"#utility.yul\":3192:3254   */\n      or\n        /* \"#utility.yul\":3189:3277   */\n      iszero\n      tag_100\n      jumpi\n        /* \"#utility.yul\":3257:3275   */\n      tag_101\n      tag_41\n      jump\t// in\n    tag_101:\n        /* \"#utility.yul\":3189:3277   */\n    tag_100:\n        /* \"#utility.yul\":3297:3307   */\n      dup1\n        /* \"#utility.yul\":3293:3295   */\n      0x40\n        /* \"#utility.yul\":3286:3308   */\n      mstore\n        /* \"#utility.yul\":3076:3314   */\n      pop\n        /* \"#utility.yul\":3033:3314   */\n      pop\n      pop\n      jump\t// out\n        /* \"#utility.yul\":3320:3449   */\n    tag_43:\n        /* \"#utility.yul\":3354:3360   */\n      0x00\n        /* \"#utility.yul\":3381:3401   */\n      tag_103\n      tag_27\n      jump\t// in\n    tag_103:\n        /* \"#utility.yul\":3371:3401   */\n      swap1\n      pop\n        /* \"#utility.yul\":3410:3443   */\n      tag_104\n        /* \"#utility.yul\":3438:3442   */\n      dup3\n        /* \"#utility.yul\":3430:3436   */\n      dup3\n        /* \"#utility.yul\":3410:3443   */\n      tag_42\n      jump\t// in\n    tag_104:\n        /* \"#utility.yul\":3320:3449   */\n      swap2\n      swap1\n      pop\n      jump\t// out\n        /* \"#utility.yul\":3455:3763   */\n    tag_44:\n        /* \"#utility.yul\":3517:3521   */\n      0x00\n        /* \"#utility.yul\":3607:3625   */\n      0xffffffffffffffff\n        /* \"#utility.yul\":3599:3605   */\n      dup3\n        /* \"#utility.yul\":3596:3626   */\n      gt\n        /* \"#utility.yul\":3593:3649   */\n      iszero\n      tag_106\n      jumpi\n        /* \"#utility.yul\":3629:3647   */\n      tag_107\n      tag_41\n      jump\t// in\n    tag_107:\n        /* \"#utility.yul\":3593:3649   */\n    tag_106:\n        /* \"#utility.yul\":3667:3696   */\n      tag_108\n        /* \"#utility.yul\":3689:3695   */\n      dup3\n        /* \"#utility.yul\":3667:3696   */\n      tag_36\n      jump\t// in\n    tag_108:\n        /* \"#utility.yul\":3659:3696   */\n      swap1\n      pop\n        /* \"#utility.yul\":3751:3755   */\n      0x20\n        /* \"#utility.yul\":3745:3749   */\n      dup2\n        /* \"#utility.yul\":3741:3756   */\n      add\n        /* \"#utility.yul\":3733:3756   */\n      swap1\n      pop\n        /* \"#utility.yul\":3455:3763   */\n      swap2\n      swap1\n      pop\n      jump\t// out\n        /* \"#utility.yul\":3769:3915   */\n    tag_45:\n        /* \"#utility.yul\":3866:3872   */\n      dup3\n        /* \"#utility.yul\":3861:3864   */\n      dup2\n        /* \"#utility.yul\":3856:3859   */\n      dup4\n        /* \"#utility.yul\":3843:3873   */\n      calldatacopy\n        /* \"#utility.yul\":3907:3908   */\n      0x00\n        /* \"#utility.yul\":3898:3904   */\n      dup4\n        /* \"#utility.yul\":3893:3896   */\n      dup4\n        /* \"#utility.yul\":3889:3905   */\n      add\n        /* \"#utility.yul\":3882:3909   */\n      mstore\n        /* \"#utility.yul\":3769:3915   */\n      pop\n      pop\n      pop\n      jump\t// out\n        /* \"#utility.yul\":3921:4346   */\n    tag_46:\n        /* \"#utility.yul\":3999:4004   */\n      0x00\n        /* \"#utility.yul\":4024:4090   */\n      tag_111\n        /* \"#utility.yul\":4040:4089   */\n      tag_112\n        /* \"#utility.yul\":4082:4088   */\n      dup5\n        /* \"#utility.yul\":4040:4089   */\n      tag_44\n      jump\t// in\n    tag_112:\n        /* \"#utility.yul\":4024:4090   */\n      tag_43\n      jump\t// in\n    tag_111:\n        /* \"#utility.yul\":4015:4090   */\n      swap1\n      pop\n        /* \"#utility.yul\":4113:4119   */\n      dup3\n        /* \"#utility.yul\":4106:4111   */\n      dup2\n        /* \"#utility.yul\":4099:4120   */\n      mstore\n        /* \"#utility.yul\":4151:4155   */\n      0x20\n        /* \"#utility.yul\":4144:4149   */\n      dup2\n        /* \"#utility.yul\":4140:4156   */\n      add\n        /* \"#utility.yul\":4189:4192   */\n      dup5\n        /* \"#utility.yul\":4180:4186   */\n      dup5\n        /* \"#utility.yul\":4175:4178   */\n      dup5\n        /* \"#utility.yul\":4171:4187   */\n      add\n        /* \"#utility.yul\":4168:4193   */\n      gt\n        /* \"#utility.yul\":4165:4277   */\n      iszero\n      tag_113\n      jumpi\n        /* \"#utility.yul\":4196:4275   */\n      tag_114\n      tag_40\n      jump\t// in\n    tag_114:\n        /* \"#utility.yul\":4165:4277   */\n    tag_113:\n        /* \"#utility.yul\":4286:4340   */\n      tag_115\n        /* \"#utility.yul\":4333:4339   */\n      dup5\n        /* \"#utility.yul\":4328:4331   */\n      dup3\n        /* \"#utility.yul\":4323:4326   */\n      dup6\n        /* \"#utility.yul\":4286:4340   */\n      tag_45\n      jump\t// in\n    tag_115:\n        /* \"#utility.yul\":4005:4346   */\n      pop\n        /* \"#utility.yul\":3921:4346   */\n      swap4\n      swap3\n      pop\n      pop\n      pop\n      jump\t// out\n        /* \"#utility.yul\":4366:4706   */\n    tag_47:\n        /* \"#utility.yul\":4422:4427   */\n      0x00\n        /* \"#utility.yul\":4471:4474   */\n      dup3\n        /* \"#utility.yul\":4464:4468   */\n      0x1f\n        /* \"#utility.yul\":4456:4462   */\n      dup4\n        /* \"#utility.yul\":4452:4469   */\n      add\n        /* \"#utility.yul\":4448:4475   */\n      slt\n        /* \"#utility.yul\":4438:4560   */\n      tag_117\n      jumpi\n        /* \"#utility.yul\":4479:4558   */\n      tag_118\n      tag_39\n      jump\t// in\n    tag_118:\n        /* \"#utility.yul\":4438:4560   */\n    tag_117:\n        /* \"#utility.yul\":4596:4602   */\n      dup2\n        /* \"#utility.yul\":4583:4603   */\n      calldataload\n        /* \"#utility.yul\":4621:4700   */\n      tag_119\n        /* \"#utility.yul\":4696:4699   */\n      dup5\n        /* \"#utility.yul\":4688:4694   */\n      dup3\n        /* \"#utility.yul\":4681:4685   */\n      0x20\n        /* \"#utility.yul\":4673:4679   */\n      dup7\n        /* \"#utility.yul\":4669:4686   */\n      add\n        /* \"#utility.yul\":4621:4700   */\n      tag_46\n      jump\t// in\n    tag_119:\n        /* \"#utility.yul\":4612:4700   */\n      swap2\n      pop\n        /* \"#utility.yul\":4428:4706   */\n      pop\n        /* \"#utility.yul\":4366:4706   */\n      swap3\n      swap2\n      pop\n      pop\n      jump\t// out\n        /* \"#utility.yul\":4712:5366   */\n    tag_13:\n        /* \"#utility.yul\":4790:4796   */\n      0x00\n        /* \"#utility.yul\":4798:4804   */\n      dup1\n        /* \"#utility.yul\":4847:4849   */\n      0x40\n        /* \"#utility.yul\":4835:4844   */\n      dup4\n        /* \"#utility.yul\":4826:4833   */\n      dup6\n        /* \"#utility.yul\":4822:4845   */\n      sub\n        /* \"#utility.yul\":4818:4850   */\n      slt\n        /* \"#utility.yul\":4815:4934   */\n      iszero\n      tag_121\n      jumpi\n        /* \"#utility.yul\":4853:4932   */\n      tag_122\n      tag_28\n      jump\t// in\n    tag_122:\n        /* \"#utility.yul\":4815:4934   */\n    tag_121:\n        /* \"#utility.yul\":5001:5002   */\n      0x00\n        /* \"#utility.yul\":4990:4999   */\n      dup4\n        /* \"#utility.yul\":4986:5003   */\n      add\n        /* \"#utility.yul\":4973:5004   */\n      calldataload\n        /* \"#utility.yul\":5031:5049   */\n      0xffffffffffffffff\n        /* \"#utility.yul\":5023:5029   */\n      dup2\n        /* \"#utility.yul\":5020:5050   */\n      gt\n        /* \"#utility.yul\":5017:5134   */\n      iszero\n      tag_123\n      jumpi\n        /* \"#utility.yul\":5053:5132   */\n      tag_124\n      tag_29\n      jump\t// in\n    tag_124:\n        /* \"#utility.yul\":5017:5134   */\n    tag_123:\n        /* \"#utility.yul\":5158:5221   */\n      tag_125\n        /* \"#utility.yul\":5213:5220   */\n      dup6\n        /* \"#utility.yul\":5204:5210   */\n      dup3\n        /* \"#utility.yul\":5193:5202   */\n      dup7\n        /* \"#utility.yul\":5189:5211   */\n      add\n        /* \"#utility.yul\":5158:5221   */\n      tag_47\n      jump\t// in\n    tag_125:\n        /* \"#utility.yul\":5148:5221   */\n      swap3\n      pop\n        /* \"#utility.yul\":4944:5231   */\n      pop\n        /* \"#utility.yul\":5270:5272   */\n      0x20\n        /* \"#utility.yul\":5296:5349   */\n      tag_126\n        /* \"#utility.yul\":5341:5348   */\n      dup6\n        /* \"#utility.yul\":5332:5338   */\n      dup3\n        /* \"#utility.yul\":5321:5330   */\n      dup7\n        /* \"#utility.yul\":5317:5339   */\n      add\n        /* \"#utility.yul\":5296:5349   */\n      tag_32\n      jump\t// in\n    tag_126:\n        /* \"#utility.yul\":5286:5349   */\n      swap2\n      pop\n        /* \"#utility.yul\":5241:5359   */\n      pop\n        /* \"#utility.yul\":4712:5366   */\n      swap3\n      pop\n      swap3\n      swap1\n      pop\n      jump\t// out\n        /* \"#utility.yul\":5372:5552   */\n    tag_48:\n        /* \"#utility.yul\":5420:5497   */\n      0x4e487b7100000000000000000000000000000000000000000000000000000000\n        /* \"#utility.yul\":5417:5418   */\n      0x00\n        /* \"#utility.yul\":5410:5498   */\n      mstore\n        /* \"#utility.yul\":5517:5521   */\n      0x22\n        /* \"#utility.yul\":5514:5515   */\n      0x04\n        /* \"#utility.yul\":5507:5522   */\n      mstore\n        /* \"#utility.yul\":5541:5545   */\n      0x24\n        /* \"#utility.yul\":5538:5539   */\n      0x00\n        /* \"#utility.yul\":5531:5546   */\n      revert\n        /* \"#utility.yul\":5558:5878   */\n    tag_18:\n        /* \"#utility.yul\":5602:5608   */\n      0x00\n        /* \"#utility.yul\":5639:5640   */\n      0x02\n        /* \"#utility.yul\":5633:5637   */\n      dup3\n        /* \"#utility.yul\":5629:5641   */\n      div\n        /* \"#utility.yul\":5619:5641   */\n      swap1\n      pop\n        /* \"#utility.yul\":5686:5687   */\n      0x01\n        /* \"#utility.yul\":5680:5684   */\n      dup3\n        /* \"#utility.yul\":5676:5688   */\n      and\n        /* \"#utility.yul\":5707:5725   */\n      dup1\n        /* \"#utility.yul\":5697:5778   */\n      tag_129\n      jumpi\n        /* \"#utility.yul\":5763:5767   */\n      0x7f\n        /* \"#utility.yul\":5755:5761   */\n      dup3\n        /* \"#utility.yul\":5751:5768   */\n      and\n        /* \"#utility.yul\":5741:5768   */\n      swap2\n      pop\n        /* \"#utility.yul\":5697:5778   */\n    tag_129:\n        /* \"#utility.yul\":5825:5827   */\n      0x20\n        /* \"#utility.yul\":5817:5823   */\n      dup3\n        /* \"#utility.yul\":5814:5828   */\n      lt\n        /* \"#utility.yul\":5794:5812   */\n      dup2\n        /* \"#utility.yul\":5791:5829   */\n      sub\n        /* \"#utility.yul\":5788:5872   */\n      tag_130\n      jumpi\n        /* \"#utility.yul\":5844:5862   */\n      tag_131\n      tag_48\n      jump\t// in\n    tag_131:\n        /* \"#utility.yul\":5788:5872   */\n    tag_130:\n        /* \"#utility.yul\":5609:5878   */\n      pop\n        /* \"#utility.yul\":5558:5878   */\n      swap2\n      swap1\n      pop\n      jump\t// out\n        /* \"#utility.yul\":5884:6025   */\n    tag_49:\n        /* \"#utility.yul\":5933:5937   */\n      0x00\n        /* \"#utility.yul\":5956:5959   */\n      dup2\n        /* \"#utility.yul\":5948:5959   */\n      swap1\n      pop\n        /* \"#utility.yul\":5979:5982   */\n      dup2\n        /* \"#utility.yul\":5976:5977   */\n      0x00\n        /* \"#utility.yul\":5969:5983   */\n      mstore\n        /* \"#utility.yul\":6013:6017   */\n      0x20\n        /* \"#utility.yul\":6010:6011   */\n      0x00\n        /* \"#utility.yul\":6000:6018   */\n      keccak256\n        /* \"#utility.yul\":5992:6018   */\n      swap1\n      pop\n        /* \"#utility.yul\":5884:6025   */\n      swap2\n      swap1\n      pop\n      jump\t// out\n        /* \"#utility.yul\":6031:6124   */\n    tag_50:\n        /* \"#utility.yul\":6068:6074   */\n      0x00\n        /* \"#utility.yul\":6115:6117   */\n      0x20\n        /* \"#utility.yul\":6110:6112   */\n      0x1f\n        /* \"#utility.yul\":6103:6108   */\n      dup4\n        /* \"#utility.yul\":6099:6113   */\n      add\n        /* \"#utility.yul\":6095:6118   */\n      div\n        /* \"#utility.yul\":6085:6118   */\n      swap1\n      pop\n        /* \"#utility.yul\":6031:6124   */\n      swap2\n      swap1\n      pop\n      jump\t// out\n        /* \"#utility.yul\":6130:6237   */\n    tag_51:\n        /* \"#utility.yul\":6174:6182   */\n      0x00\n        /* \"#utility.yul\":6224:6229   */\n      dup3\n        /* \"#utility.yul\":6218:6222   */\n      dup3\n        /* \"#utility.yul\":6214:6230   */\n      shl\n        /* \"#utility.yul\":6193:6230   */\n      swap1\n      pop\n        /* \"#utility.yul\":6130:6237   */\n      swap3\n      swap2\n      pop\n      pop\n      jump\t// out\n        /* \"#utility.yul\":6243:6636   */\n    tag_52:\n        /* \"#utility.yul\":6312:6318   */\n      0x00\n        /* \"#utility.yul\":6362:6363   */\n      0x08\n        /* \"#utility.yul\":6350:6360   */\n      dup4\n        /* \"#utility.yul\":6346:6364   */\n      mul\n        /* \"#utility.yul\":6385:6482   */\n      tag_136\n        /* \"#utility.yul\":6415:6481   */\n      0xffffffffffffffffffffffffffffffffffffffffffffffffffffffffffffffff\n        /* \"#utility.yul\":6404:6413   */\n      dup3\n        /* \"#utility.yul\":6385:6482   */\n      tag_51\n      jump\t// in\n    tag_136:\n        /* \"#utility.yul\":6503:6542   */\n      tag_137\n        /* \"#utility.yul\":6533:6541   */\n      dup7\n        /* \"#utility.yul\":6522:6531   */\n      dup4\n        /* \"#utility.yul\":6503:6542   */\n      tag_51\n      jump\t// in\n    tag_137:\n        /* \"#utility.yul\":6491:6542   */\n      swap6\n      pop\n        /* \"#utility.yul\":6575:6579   */\n      dup1\n        /* \"#utility.yul\":6571:6580   */\n      not\n        /* \"#utility.yul\":6564:6569   */\n      dup5\n        /* \"#utility.yul\":6560:6581   */\n      and\n        /* \"#utility.yul\":6551:6581   */\n      swap4\n      pop\n        /* \"#utility.yul\":6624:6628   */\n      dup1\n        /* \"#utility.yul\":6614:6622   */\n      dup7\n        /* \"#utility.yul\":6610:6629   */\n      and\n        /* \"#utility.yul\":6603:6608   */\n      dup5\n        /* \"#utility.yul\":6600:6630   */\n      or\n        /* \"#utility.yul\":6590:6630   */\n      swap3\n      pop\n        /* \"#utility.yul\":6319:6636   */\n      pop\n      pop\n        /* \"#utility.yul\":6243:6636   */\n      swap4\n      swap3\n      pop\n      pop\n      pop\n      jump\t// out\n        /* \"#utility.yul\":6642:6702   */\n    tag_53:\n        /* \"#utility.yul\":6670:6673   */\n      0x00\n        /* \"#utility.yul\":6691:6696   */\n      dup2\n        /* \"#utility.yul\":6684:6696   */\n      swap1\n      pop\n        /* \"#utility.yul\":6642:6702   */\n      swap2\n      swap1\n      pop\n      jump\t// out\n        /* \"#utility.yul\":6708:6850   */\n    tag_54:\n        /* \"#utility.yul\":6758:6767   */\n      0x00\n        /* \"#utility.yul\":6791:6844   */\n      tag_140\n        /* \"#utility.yul\":6809:6843   */\n      tag_141\n        /* \"#utility.yul\":6818:6842   */\n      tag_142\n        /* \"#utility.yul\":6836:6841   */\n      dup5\n        /* \"#utility.yul\":6818:6842   */\n      tag_30\n      jump\t// in\n    tag_142:\n        /* \"#utility.yul\":6809:6843   */\n      tag_53\n      jump\t// in\n    tag_141:\n        /* \"#utility.yul\":6791:6844   */\n      tag_30\n      jump\t// in\n    tag_140:\n        /* \"#utility.yul\":6778:6844   */\n      swap1\n      pop\n        /* \"#utility.yul\":6708:6850   */\n      swap2\n      swap1\n      pop\n      jump\t// out\n        /* \"#utility.yul\":6856:6931   */\n    tag_55:\n        /* \"#utility.yul\":6899:6902   */\n      0x00\n        /* \"#utility.yul\":6920:6925   */\n      dup2\n        /* \"#utility.yul\":6913:6925   */\n      swap1\n      pop\n        /* \"#utility.yul\":6856:6931   */\n      swap2\n      swap1\n      pop\n      jump\t// out\n        /* \"#utility.yul\":6937:7206   */\n    tag_56:\n        /* \"#utility.yul\":7047:7086   */\n      tag_145\n        /* \"#utility.yul\":7078:7085   */\n      dup4\n        /* \"#utility.yul\":7047:7086   */\n      tag_54\n      jump\t// in\n    tag_145:\n        /* \"#utility.yul\":7108:7199   */\n      tag_146\n        /* \"#utility.yul\":7157:7198   */\n      tag_147\n        /* \"#utility.yul\":7181:7197   */\n      dup3\n        /* \"#utility.yul\":7157:7198   */\n      tag_55\n      jump\t// in\n    tag_147:\n        /* \"#utility.yul\":7149:7155   */\n      dup5\n        /* \"#utility.yul\":7142:7146   */\n      dup5\n        /* \"#utility.yul\":7136:7147   */\n      sload\n        /* \"#utility.yul\":7108:7199   */\n      tag_52\n      jump\t// in\n    tag_146:\n        /* \"#utility.yul\":7102:7106   */\n      dup3\n        /* \"#utility.yul\":7095:7200   */\n      sstore\n        /* \"#utility.yul\":7013:7206   */\n      pop\n        /* \"#utility.yul\":6937:7206   */\n      pop\n      pop\n      pop\n      jump\t// out\n        /* \"#utility.yul\":7212:7285   */\n    tag_57:\n        /* \"#utility.yul\":7257:7260   */\n      0x00\n        /* \"#utility.yul\":7212:7285   */\n      swap1\n      jump\t// out\n        /* \"#utility.yul\":7291:7480   */\n    tag_58:\n        /* \"#utility.yul\":7368:7400   */\n      tag_150\n      tag_57\n      jump\t// in\n    tag_150:\n        /* \"#utility.yul\":7409:7474   */\n      tag_151\n        /* \"#utility.yul\":7467:7473   */\n      dup2\n        /* \"#utility.yul\":7459:7465   */\n      dup5\n        /* \"#utility.yul\":7453:7457   */\n      dup5\n        /* \"#utility.yul\":7409:7474   */\n      tag_56\n      jump\t// in\n    tag_151:\n        /* \"#utility.yul\":7344:7480   */\n      pop\n        /* \"#utility.yul\":7291:7480   */\n      pop\n      pop\n      jump\t// out\n        /* \"#utility.yul\":7486:7672   */\n    tag_59:\n        /* \"#utility.yul\":7546:7666   */\n    tag_153:\n        /* \"#utility.yul\":7563:7566   */\n      dup2\n        /* \"#utility.yul\":7556:7561   */\n      dup2\n        /* \"#utility.yul\":7553:7567   */\n      lt\n        /* \"#utility.yul\":7546:7666   */\n      iszero\n      tag_155\n      jumpi\n        /* \"#utility.yul\":7617:7656   */\n      tag_156\n        /* \"#utility.yul\":7654:7655   */\n      0x00\n        /* \"#utility.yul\":7647:7652   */\n      dup3\n        /* \"#utility.yul\":7617:7656   */\n      tag_58\n      jump\t// in\n    tag_156:\n        /* \"#utility.yul\":7590:7591   */\n      0x01\n        /* \"#utility.yul\":7583:7588   */\n      dup2\n        /* \"#utility.yul\":7579:7592   */\n      add\n        /* \"#utility.yul\":7570:7592   */\n      swap1\n      pop\n        /* \"#utility.yul\":7546:7666   */\n      jump(tag_153)\n    tag_155:\n        /* \"#utility.yul\":7486:7672   */\n      pop\n      pop\n      jump\t// out\n        /* \"#utility.yul\":7678:8221   */\n    tag_60:\n        /* \"#utility.yul\":7779:7781   */\n      0x1f\n        /* \"#utility.yul\":7774:7777   */\n      dup3\n        /* \"#utility.yul\":7771:7782   */\n      gt\n        /* \"#utility.yul\":7768:8214   */\n      iszero\n      tag_158\n      jumpi\n        /* \"#utility.yul\":7813:7851   */\n      tag_159\n        /* \"#utility.yul\":7845:7850   */\n      dup2\n        /* \"#utility.yul\":7813:7851   */\n      tag_49\n      jump\t// in\n    tag_159:\n        /* \"#utility.yul\":7897:7926   */\n      tag_160\n        /* \"#utility.yul\":7915:7925   */\n      dup5\n        /* \"#utility.yul\":7897:7926   */\n      tag_50\n      jump\t// in\n    tag_160:\n        /* \"#utility.yul\":7887:7895   */\n      dup2\n        /* \"#utility.yul\":7883:7927   */\n      add\n        /* \"#utility.yul\":8080:8082   */\n      0x20\n        /* \"#utility.yul\":8068:8078   */\n      dup6\n        /* \"#utility.yul\":8065:8083   */\n      lt\n        /* \"#utility.yul\":8062:8111   */\n      iszero\n      tag_161\n      jumpi\n        /* \"#utility.yul\":8101:8109   */\n      dup2\n        /* \"#utility.yul\":8086:8109   */\n      swap1\n      pop\n        /* \"#utility.yul\":8062:8111   */\n    tag_161:\n        /* \"#utility.yul\":8124:8204   */\n      tag_162\n        /* \"#utility.yul\":8180:8202   */\n      tag_163\n        /* \"#utility.yul\":8198:8201   */\n      dup6\n        /* \"#utility.yul\":8180:8202   */\n      tag_50\n      jump\t// in\n    tag_163:\n        /* \"#utility.yul\":8170:8178   */\n      dup4\n        /* \"#utility.yul\":8166:8203   */\n      add\n        /* \"#utility.yul\":8153:8164   */\n      dup3\n        /* \"#utility.yul\":8124:8204   */\n      tag_59\n      jump\t// in\n    tag_162:\n        /* \"#utility.yul\":7783:8214   */\n      pop\n      pop\n        /* \"#utility.yul\":7768:8214   */\n    tag_158:\n        /* \"#utility.yul\":7678:8221   */\n      pop\n      pop\n      pop\n      jump\t// out\n        /* \"#utility.yul\":8227:8344   */\n    tag_61:\n        /* \"#utility.yul\":8281:8289   */\n      0x00\n        /* \"#utility.yul\":8331:8336   */\n      dup3\n        /* \"#utility.yul\":8325:8329   */\n      dup3\n        /* \"#utility.yul\":8321:8337   */\n      shr\n        /* \"#utility.yul\":8300:8337   */\n      swap1\n      pop\n        /* \"#utility.yul\":8227:8344   */\n      swap3\n      swap2\n      pop\n      pop\n      jump\t// out\n        /* \"#utility.yul\":8350:8519   */\n    tag_62:\n        /* \"#utility.yul\":8394:8400   */\n      0x00\n        /* \"#utility.yul\":8427:8478   */\n      tag_166\n        /* \"#utility.yul\":8475:8476   */\n      0x00\n        /* \"#utility.yul\":8471:8477   */\n      not\n        /* \"#utility.yul\":8463:8468   */\n      dup5\n        /* \"#utility.yul\":8460:8461   */\n      0x08\n        /* \"#utility.yul\":8456:8469   */\n      mul\n        /* \"#utility.yul\":8427:8478   */\n      tag_61\n      jump\t// in\n    tag_166:\n        /* \"#utility.yul\":8423:8479   */\n      not\n        /* \"#utility.yul\":8508:8512   */\n      dup1\n        /* \"#utility.yul\":8502:8506   */\n      dup4\n        /* \"#utility.yul\":8498:8513   */\n      and\n        /* \"#utility.yul\":8488:8513   */\n      swap2\n      pop\n        /* \"#utility.yul\":8401:8519   */\n      pop\n        /* \"#utility.yul\":8350:8519   */\n      swap3\n      swap2\n      pop\n      pop\n      jump\t// out\n        /* \"#utility.yul\":8524:8819   */\n    tag_63:\n        /* \"#utility.yul\":8600:8604   */\n      0x00\n        /* \"#utility.yul\":8746:8775   */\n      tag_168\n        /* \"#utility.yul\":8771:8774   */\n      dup4\n        /* \"#utility.yul\":8765:8769   */\n      dup4\n        /* \"#utility.yul\":8746:8775   */\n      tag_62\n      jump\t// in\n    tag_168:\n        /* \"#utility.yul\":8738:8775   */\n      swap2\n      pop\n        /* \"#utility.yul\":8808:8811   */\n      dup3\n        /* \"#utility.yul\":8805:8806   */\n      0x02\n        /* \"#utility.yul\":8801:8812   */\n      mul\n        /* \"#utility.yul\":8795:8799   */\n      dup3\n        /* \"#utility.yul\":8792:8813   */\n      or\n        /* \"#utility.yul\":8784:8813   */\n      swap1\n      pop\n        /* \"#utility.yul\":8524:8819   */\n      swap3\n      swap2\n      pop\n      pop\n      jump\t// out\n        /* \"#utility.yul\":8824:10219   */\n    tag_26:\n        /* \"#utility.yul\":8941:8978   */\n      tag_170\n        /* \"#utility.yul\":8974:8977   */\n      dup3\n        /* \"#utility.yul\":8941:8978   */\n      tag_33\n      jump\t// in\n    tag_170:\n        /* \"#utility.yul\":9043:9061   */\n      0xffffffffffffffff\n        /* \"#utility.yul\":9035:9041   */\n      dup2\n        /* \"#utility.yul\":9032:9062   */\n      gt\n        /* \"#utility.yul\":9029:9085   */\n      iszero\n      tag_171\n      jumpi\n        /* \"#utility.yul\":9065:9083   */\n      tag_172\n      tag_41\n      jump\t// in\n    tag_172:\n        /* \"#utility.yul\":9029:9085   */\n    tag_171:\n        /* \"#utility.yul\":9109:9147   */\n      tag_173\n        /* \"#utility.yul\":9141:9145   */\n      dup3\n        /* \"#utility.yul\":9135:9146   */\n      sload\n        /* \"#utility.yul\":9109:9147   */\n      tag_18\n      jump\t// in\n    tag_173:\n        /* \"#utility.yul\":9194:9261   */\n      tag_174\n        /* \"#utility.yul\":9254:9260   */\n      dup3\n        /* \"#utility.yul\":9246:9252   */\n      dup3\n        /* \"#utility.yul\":9240:9244   */\n      dup6\n        /* \"#utility.yul\":9194:9261   */\n      tag_60\n      jump\t// in\n    tag_174:\n        /* \"#utility.yul\":9288:9289   */\n      0x00\n        /* \"#utility.yul\":9312:9316   */\n      0x20\n        /* \"#utility.yul\":9299:9316   */\n      swap1\n      pop\n        /* \"#utility.yul\":9344:9346   */\n      0x1f\n        /* \"#utility.yul\":9336:9342   */\n      dup4\n        /* \"#utility.yul\":9333:9347   */\n      gt\n        /* \"#utility.yul\":9361:9362   */\n      0x01\n        /* \"#utility.yul\":9356:9974   */\n      dup2\n      eq\n      tag_176\n      jumpi\n        /* \"#utility.yul\":10018:10019   */\n      0x00\n        /* \"#utility.yul\":10035:10041   */\n      dup5\n        /* \"#utility.yul\":10032:10109   */\n      iszero\n      tag_177\n      jumpi\n        /* \"#utility.yul\":10084:10093   */\n      dup3\n        /* \"#utility.yul\":10079:10082   */\n      dup8\n        /* \"#utility.yul\":10075:10094   */\n      add\n        /* \"#utility.yul\":10069:10095   */\n      mload\n        /* \"#utility.yul\":10060:10095   */\n      swap1\n      pop\n        /* \"#utility.yul\":10032:10109   */\n    tag_177:\n        /* \"#utility.yul\":10135:10202   */\n      tag_178\n        /* \"#utility.yul\":10195:10201   */\n      dup6\n        /* \"#utility.yul\":10188:10193   */\n      dup3\n        /* \"#utility.yul\":10135:10202   */\n      tag_63\n      jump\t// in\n    tag_178:\n        /* \"#utility.yul\":10129:10133   */\n      dup7\n        /* \"#utility.yul\":10122:10203   */\n      sstore\n        /* \"#utility.yul\":9991:10213   */\n      pop\n        /* \"#utility.yul\":9326:10213   */\n      jump(tag_175)\n        /* \"#utility.yul\":9356:9974   */\n    tag_176:\n        /* \"#utility.yul\":9408:9412   */\n      0x1f\n        /* \"#utility.yul\":9404:9413   */\n      not\n        /* \"#utility.yul\":9396:9402   */\n      dup5\n        /* \"#utility.yul\":9392:9414   */\n      and\n        /* \"#utility.yul\":9442:9479   */\n      tag_179\n        /* \"#utility.yul\":9474:9478   */\n      dup7\n        /* \"#utility.yul\":9442:9479   */\n      tag_49\n      jump\t// in\n    tag_179:\n        /* \"#utility.yul\":9501:9502   */\n      0x00\n        /* \"#utility.yul\":9515:9723   */\n    tag_180:\n        /* \"#utility.yul\":9529:9536   */\n      dup3\n        /* \"#utility.yul\":9526:9527   */\n      dup2\n        /* \"#utility.yul\":9523:9537   */\n      lt\n        /* \"#utility.yul\":9515:9723   */\n      iszero\n      tag_182\n      jumpi\n        /* \"#utility.yul\":9608:9617   */\n      dup5\n        /* \"#utility.yul\":9603:9606   */\n      dup10\n        /* \"#utility.yul\":9599:9618   */\n      add\n        /* \"#utility.yul\":9593:9619   */\n      mload\n        /* \"#utility.yul\":9585:9591   */\n      dup3\n        /* \"#utility.yul\":9578:9620   */\n      sstore\n        /* \"#utility.yul\":9659:9660   */\n      0x01\n        /* \"#utility.yul\":9651:9657   */\n      dup3\n        /* \"#utility.yul\":9647:9661   */\n      add\n        /* \"#utility.yul\":9637:9661   */\n      swap2\n      pop\n        /* \"#utility.yul\":9706:9708   */\n      0x20\n        /* \"#utility.yul\":9695:9704   */\n      dup6\n        /* \"#utility.yul\":9691:9709   */\n      add\n        /* \"#utility.yul\":9678:9709   */\n      swap5\n      pop\n        /* \"#utility.yul\":9552:9556   */\n      0x20\n        /* \"#utility.yul\":9549:9550   */\n      dup2\n        /* \"#utility.yul\":9545:9557   */\n      add\n        /* \"#utility.yul\":9540:9557   */\n      swap1\n      pop\n        /* \"#utility.yul\":9515:9723   */\n      jump(tag_180)\n    tag_182:\n        /* \"#utility.yul\":9751:9757   */\n      dup7\n        /* \"#utility.yul\":9742:9749   */\n      dup4\n        /* \"#utility.yul\":9739:9758   */\n      lt\n        /* \"#utility.yul\":9736:9915   */\n      iszero\n      tag_183\n      jumpi\n        /* \"#utility.yul\":9809:9818   */\n      dup5\n        /* \"#utility.yul\":9804:9807   */\n      dup10\n        /* \"#utility.yul\":9800:9819   */\n      add\n        /* \"#utility.yul\":9794:9820   */\n      mload\n        /* \"#utility.yul\":9852:9900   */\n      tag_184\n        /* \"#utility.yul\":9894:9898   */\n      0x1f\n        /* \"#utility.yul\":9886:9892   */\n      dup10\n        /* \"#utility.yul\":9882:9899   */\n      and\n        /* \"#utility.yul\":9871:9880   */\n      dup3\n        /* \"#utility.yul\":9852:9900   */\n      tag_62\n      jump\t// in\n    tag_184:\n        /* \"#utility.yul\":9844:9850   */\n      dup4\n        /* \"#utility.yul\":9837:9901   */\n      sstore\n        /* \"#utility.yul\":9759:9915   */\n      pop\n        /* \"#utility.yul\":9736:9915   */\n    tag_183:\n        /* \"#utility.yul\":9961:9962   */\n      0x01\n        /* \"#utility.yul\":9957:9958   */\n      0x02\n        /* \"#utility.yul\":9949:9955   */\n      dup9\n        /* \"#utility.yul\":9945:9959   */\n      mul\n        /* \"#utility.yul\":9941:9963   */\n      add\n        /* \"#utility.yul\":9935:9939   */\n      dup9\n        /* \"#utility.yul\":9928:9964   */\n      sstore\n        /* \"#utility.yul\":9363:9974   */\n      pop\n      pop\n      pop\n        /* \"#utility.yul\":9326:10213   */\n    tag_175:\n      pop\n        /* \"#utility.yul\":8916:10219   */\n      pop\n      pop\n      pop\n        /* \"#utility.yul\":8824:10219   */\n      pop\n      pop\n      jump\t// out\n\n    auxdata: 0xa2646970667358221220846efa93dfe2ec6239b38b18cfb475dbe5e6e46a02698551167367ff2b50283f64736f6c63430008120033\n}\n",
				"bytecode": {
					"linkReferences": {},
					"object": "608060405234801561001057600080fd5b50610795806100206000396000f3fe608060405234801561001057600080fd5b50600436106100365760003560e01c8063092a18201461003b578063c8218e541461006c575b600080fd5b610055600480360381019061005091906101f4565b610088565b6040516100639291906102c0565b60405180910390f35b61008660048036038101906100819190610425565b610144565b005b6000818154811061009857600080fd5b90600052602060002090600202016000915090508060000180546100bb906104b0565b80601f01602080910402602001604051908101604052809291908181526020018280546100e7906104b0565b80156101345780601f1061010957610100808354040283529160200191610134565b820191906000526020600020905b81548152906001019060200180831161011757829003601f168201915b5050505050908060010154905082565b600060405180604001604052808481526020018381525090806001815401808255809150506001900390600052602060002090600202016000909190919091506000820151816000019081610199919061068d565b506020820151816001015550505050565b6000604051905090565b600080fd5b600080fd5b6000819050919050565b6101d1816101be565b81146101dc57600080fd5b50565b6000813590506101ee816101c8565b92915050565b60006020828403121561020a576102096101b4565b5b6000610218848285016101df565b91505092915050565b600081519050919050565b600082825260208201905092915050565b60005b8381101561025b578082015181840152602081019050610240565b60008484015250505050565b6000601f19601f8301169050919050565b600061028382610221565b61028d818561022c565b935061029d81856020860161023d565b6102a681610267565b840191505092915050565b6102ba816101be565b82525050565b600060408201905081810360008301526102da8185610278565b90506102e960208301846102b1565b9392505050565b600080fd5b600080fd5b7f4e487b7100000000000000000000000000000000000000000000000000000000600052604160045260246000fd5b61033282610267565b810181811067ffffffffffffffff82111715610351576103506102fa565b5b80604052505050565b60006103646101aa565b90506103708282610329565b919050565b600067ffffffffffffffff8211156103905761038f6102fa565b5b61039982610267565b9050602081019050919050565b82818337600083830152505050565b60006103c86103c384610375565b61035a565b9050828152602081018484840111156103e4576103e36102f5565b5b6103ef8482856103a6565b509392505050565b600082601f83011261040c5761040b6102f0565b5b813561041c8482602086016103b5565b91505092915050565b6000806040838503121561043c5761043b6101b4565b5b600083013567ffffffffffffffff81111561045a576104596101b9565b5b610466858286016103f7565b9250506020610477858286016101df565b9150509250929050565b7f4e487b7100000000000000000000000000000000000000000000000000000000600052602260045260246000fd5b600060028204905060018216806104c857607f821691505b6020821081036104db576104da610481565b5b50919050565b60008190508160005260206000209050919050565b60006020601f8301049050919050565b600082821b905092915050565b6000600883026105437fffffffffffffffffffffffffffffffffffffffffffffffffffffffffffffffff82610506565b61054d8683610506565b95508019841693508086168417925050509392505050565b6000819050919050565b600061058a610585610580846101be565b610565565b6101be565b9050919050565b6000819050919050565b6105a48361056f565b6105b86105b082610591565b848454610513565b825550505050565b600090565b6105cd6105c0565b6105d881848461059b565b505050565b5b818110156105fc576105f16000826105c5565b6001810190506105de565b5050565b601f82111561064157610612816104e1565b61061b846104f6565b8101602085101561062a578190505b61063e610636856104f6565b8301826105dd565b50505b505050565b600082821c905092915050565b600061066460001984600802610646565b1980831691505092915050565b600061067d8383610653565b9150826002028217905092915050565b61069682610221565b67ffffffffffffffff8111156106af576106ae6102fa565b5b6106b982546104b0565b6106c4828285610600565b600060209050601f8311600181146106f757600084156106e5578287015190505b6106ef8582610671565b865550610757565b601f198416610705866104e1565b60005b8281101561072d57848901518255600182019150602085019450602081019050610708565b8683101561074a5784890151610746601f891682610653565b8355505b6001600288020188555050505b50505050505056fea2646970667358221220846efa93dfe2ec6239b38b18cfb475dbe5e6e46a02698551167367ff2b50283f64736f6c63430008120033",
					"opcodes": "PUSH1 0x80 PUSH1 0x40 MSTORE CALLVALUE DUP1 ISZERO PUSH2 0x10 JUMPI PUSH1 0x0 DUP1 REVERT JUMPDEST POP PUSH2 0x795 DUP1 PUSH2 0x20 PUSH1 0x0 CODECOPY PUSH1 0x0 RETURN INVALID PUSH1 0x80 PUSH1 0x40 MSTORE CALLVALUE DUP1 ISZERO PUSH2 0x10 JUMPI PUSH1 0x0 DUP1 REVERT JUMPDEST POP PUSH1 0x4 CALLDATASIZE LT PUSH2 0x36 JUMPI PUSH1 0x0 CALLDATALOAD PUSH1 0xE0 SHR DUP1 PUSH4 0x92A1820 EQ PUSH2 0x3B JUMPI DUP1 PUSH4 0xC8218E54 EQ PUSH2 0x6C JUMPI JUMPDEST PUSH1 0x0 DUP1 REVERT JUMPDEST PUSH2 0x55 PUSH1 0x4 DUP1 CALLDATASIZE SUB DUP2 ADD SWAP1 PUSH2 0x50 SWAP2 SWAP1 PUSH2 0x1F4 JUMP JUMPDEST PUSH2 0x88 JUMP JUMPDEST PUSH1 0x40 MLOAD PUSH2 0x63 SWAP3 SWAP2 SWAP1 PUSH2 0x2C0 JUMP JUMPDEST PUSH1 0x40 MLOAD DUP1 SWAP2 SUB SWAP1 RETURN JUMPDEST PUSH2 0x86 PUSH1 0x4 DUP1 CALLDATASIZE SUB DUP2 ADD SWAP1 PUSH2 0x81 SWAP2 SWAP1 PUSH2 0x425 JUMP JUMPDEST PUSH2 0x144 JUMP JUMPDEST STOP JUMPDEST PUSH1 0x0 DUP2 DUP2 SLOAD DUP2 LT PUSH2 0x98 JUMPI PUSH1 0x0 DUP1 REVERT JUMPDEST SWAP1 PUSH1 0x0 MSTORE PUSH1 0x20 PUSH1 0x0 KECCAK256 SWAP1 PUSH1 0x2 MUL ADD PUSH1 0x0 SWAP2 POP SWAP1 POP DUP1 PUSH1 0x0 ADD DUP1 SLOAD PUSH2 0xBB SWAP1 PUSH2 0x4B0 JUMP JUMPDEST DUP1 PUSH1 0x1F ADD PUSH1 0x20 DUP1 SWAP2 DIV MUL PUSH1 0x20 ADD PUSH1 0x40 MLOAD SWAP1 DUP2 ADD PUSH1 0x40 MSTORE DUP1 SWAP3 SWAP2 SWAP1 DUP2 DUP2 MSTORE PUSH1 0x20 ADD DUP3 DUP1 SLOAD PUSH2 0xE7 SWAP1 PUSH2 0x4B0 JUMP JUMPDEST DUP1 ISZERO PUSH2 0x134 JUMPI DUP1 PUSH1 0x1F LT PUSH2 0x109 JUMPI PUSH2 0x100 DUP1 DUP4 SLOAD DIV MUL DUP4 MSTORE SWAP2 PUSH1 0x20 ADD SWAP2 PUSH2 0x134 JUMP JUMPDEST DUP3 ADD SWAP2 SWAP1 PUSH1 0x0 MSTORE PUSH1 0x20 PUSH1 0x0 KECCAK256 SWAP1 JUMPDEST DUP2 SLOAD DUP2 MSTORE SWAP1 PUSH1 0x1 ADD SWAP1 PUSH1 0x20 ADD DUP1 DUP4 GT PUSH2 0x117 JUMPI DUP3 SWAP1 SUB PUSH1 0x1F AND DUP3 ADD SWAP2 JUMPDEST POP POP POP POP POP SWAP1 DUP1 PUSH1 0x1 ADD SLOAD SWAP1 POP DUP3 JUMP JUMPDEST PUSH1 0x0 PUSH1 0x40 MLOAD DUP1 PUSH1 0x40 ADD PUSH1 0x40 MSTORE DUP1 DUP5 DUP2 MSTORE PUSH1 0x20 ADD DUP4 DUP2 MSTORE POP SWAP1 DUP1 PUSH1 0x1 DUP2 SLOAD ADD DUP1 DUP3 SSTORE DUP1 SWAP2 POP POP PUSH1 0x1 SWAP1 SUB SWAP1 PUSH1 0x0 MSTORE PUSH1 0x20 PUSH1 0x0 KECCAK256 SWAP1 PUSH1 0x2 MUL ADD PUSH1 0x0 SWAP1 SWAP2 SWAP1 SWAP2 SWAP1 SWAP2 POP PUSH1 0x0 DUP3 ADD MLOAD DUP2 PUSH1 0x0 ADD SWAP1 DUP2 PUSH2 0x199 SWAP2 SWAP1 PUSH2 0x68D JUMP JUMPDEST POP PUSH1 0x20 DUP3 ADD MLOAD DUP2 PUSH1 0x1 ADD SSTORE POP POP POP POP JUMP JUMPDEST PUSH1 0x0 PUSH1 0x40 MLOAD SWAP1 POP SWAP1 JUMP JUMPDEST PUSH1 0x0 DUP1 REVERT JUMPDEST PUSH1 0x0 DUP1 REVERT JUMPDEST PUSH1 0x0 DUP2 SWAP1 POP SWAP2 SWAP1 POP JUMP JUMPDEST PUSH2 0x1D1 DUP2 PUSH2 0x1BE JUMP JUMPDEST DUP2 EQ PUSH2 0x1DC JUMPI PUSH1 0x0 DUP1 REVERT JUMPDEST POP JUMP JUMPDEST PUSH1 0x0 DUP2 CALLDATALOAD SWAP1 POP PUSH2 0x1EE DUP2 PUSH2 0x1C8 JUMP JUMPDEST SWAP3 SWAP2 POP POP JUMP JUMPDEST PUSH1 0x0 PUSH1 0x20 DUP3 DUP5 SUB SLT ISZERO PUSH2 0x20A JUMPI PUSH2 0x209 PUSH2 0x1B4 JUMP JUMPDEST JUMPDEST PUSH1 0x0 PUSH2 0x218 DUP5 DUP3 DUP6 ADD PUSH2 0x1DF JUMP JUMPDEST SWAP2 POP POP SWAP3 SWAP2 POP POP JUMP JUMPDEST PUSH1 0x0 DUP2 MLOAD SWAP1 POP SWAP2 SWAP1 POP JUMP JUMPDEST PUSH1 0x0 DUP3 DUP3 MSTORE PUSH1 0x20 DUP3 ADD SWAP1 POP SWAP3 SWAP2 POP POP JUMP JUMPDEST PUSH1 0x0 JUMPDEST DUP4 DUP2 LT ISZERO PUSH2 0x25B JUMPI DUP1 DUP3 ADD MLOAD DUP2 DUP5 ADD MSTORE PUSH1 0x20 DUP2 ADD SWAP1 POP PUSH2 0x240 JUMP JUMPDEST PUSH1 0x0 DUP5 DUP5 ADD MSTORE POP POP POP POP JUMP JUMPDEST PUSH1 0x0 PUSH1 0x1F NOT PUSH1 0x1F DUP4 ADD AND SWAP1 POP SWAP2 SWAP1 POP JUMP JUMPDEST PUSH1 0x0 PUSH2 0x283 DUP3 PUSH2 0x221 JUMP JUMPDEST PUSH2 0x28D DUP2 DUP6 PUSH2 0x22C JUMP JUMPDEST SWAP4 POP PUSH2 0x29D DUP2 DUP6 PUSH1 0x20 DUP7 ADD PUSH2 0x23D JUMP JUMPDEST PUSH2 0x2A6 DUP2 PUSH2 0x267 JUMP JUMPDEST DUP5 ADD SWAP2 POP POP SWAP3 SWAP2 POP POP JUMP JUMPDEST PUSH2 0x2BA DUP2 PUSH2 0x1BE JUMP JUMPDEST DUP3 MSTORE POP POP JUMP JUMPDEST PUSH1 0x0 PUSH1 0x40 DUP3 ADD SWAP1 POP DUP2 DUP2 SUB PUSH1 0x0 DUP4 ADD MSTORE PUSH2 0x2DA DUP2 DUP6 PUSH2 0x278 JUMP JUMPDEST SWAP1 POP PUSH2 0x2E9 PUSH1 0x20 DUP4 ADD DUP5 PUSH2 0x2B1 JUMP JUMPDEST SWAP4 SWAP3 POP POP POP JUMP JUMPDEST PUSH1 0x0 DUP1 REVERT JUMPDEST PUSH1 0x0 DUP1 REVERT JUMPDEST PUSH32 0x4E487B7100000000000000000000000000000000000000000000000000000000 PUSH1 0x0 MSTORE PUSH1 0x41 PUSH1 0x4 MSTORE PUSH1 0x24 PUSH1 0x0 REVERT JUMPDEST PUSH2 0x332 DUP3 PUSH2 0x267 JUMP JUMPDEST DUP2 ADD DUP2 DUP2 LT PUSH8 0xFFFFFFFFFFFFFFFF DUP3 GT OR ISZERO PUSH2 0x351 JUMPI PUSH2 0x350 PUSH2 0x2FA JUMP JUMPDEST JUMPDEST DUP1 PUSH1 0x40 MSTORE POP POP POP JUMP JUMPDEST PUSH1 0x0 PUSH2 0x364 PUSH2 0x1AA JUMP JUMPDEST SWAP1 POP PUSH2 0x370 DUP3 DUP3 PUSH2 0x329 JUMP JUMPDEST SWAP2 SWAP1 POP JUMP JUMPDEST PUSH1 0x0 PUSH8 0xFFFFFFFFFFFFFFFF DUP3 GT ISZERO PUSH2 0x390 JUMPI PUSH2 0x38F PUSH2 0x2FA JUMP JUMPDEST JUMPDEST PUSH2 0x399 DUP3 PUSH2 0x267 JUMP JUMPDEST SWAP1 POP PUSH1 0x20 DUP2 ADD SWAP1 POP SWAP2 SWAP1 POP JUMP JUMPDEST DUP3 DUP2 DUP4 CALLDATACOPY PUSH1 0x0 DUP4 DUP4 ADD MSTORE POP POP POP JUMP JUMPDEST PUSH1 0x0 PUSH2 0x3C8 PUSH2 0x3C3 DUP5 PUSH2 0x375 JUMP JUMPDEST PUSH2 0x35A JUMP JUMPDEST SWAP1 POP DUP3 DUP2 MSTORE PUSH1 0x20 DUP2 ADD DUP5 DUP5 DUP5 ADD GT ISZERO PUSH2 0x3E4 JUMPI PUSH2 0x3E3 PUSH2 0x2F5 JUMP JUMPDEST JUMPDEST PUSH2 0x3EF DUP5 DUP3 DUP6 PUSH2 0x3A6 JUMP JUMPDEST POP SWAP4 SWAP3 POP POP POP JUMP JUMPDEST PUSH1 0x0 DUP3 PUSH1 0x1F DUP4 ADD SLT PUSH2 0x40C JUMPI PUSH2 0x40B PUSH2 0x2F0 JUMP JUMPDEST JUMPDEST DUP2 CALLDATALOAD PUSH2 0x41C DUP5 DUP3 PUSH1 0x20 DUP7 ADD PUSH2 0x3B5 JUMP JUMPDEST SWAP2 POP POP SWAP3 SWAP2 POP POP JUMP JUMPDEST PUSH1 0x0 DUP1 PUSH1 0x40 DUP4 DUP6 SUB SLT ISZERO PUSH2 0x43C JUMPI PUSH2 0x43B PUSH2 0x1B4 JUMP JUMPDEST JUMPDEST PUSH1 0x0 DUP4 ADD CALLDATALOAD PUSH8 0xFFFFFFFFFFFFFFFF DUP2 GT ISZERO PUSH2 0x45A JUMPI PUSH2 0x459 PUSH2 0x1B9 JUMP JUMPDEST JUMPDEST PUSH2 0x466 DUP6 DUP3 DUP7 ADD PUSH2 0x3F7 JUMP JUMPDEST SWAP3 POP POP PUSH1 0x20 PUSH2 0x477 DUP6 DUP3 DUP7 ADD PUSH2 0x1DF JUMP JUMPDEST SWAP2 POP POP SWAP3 POP SWAP3 SWAP1 POP JUMP JUMPDEST PUSH32 0x4E487B7100000000000000000000000000000000000000000000000000000000 PUSH1 0x0 MSTORE PUSH1 0x22 PUSH1 0x4 MSTORE PUSH1 0x24 PUSH1 0x0 REVERT JUMPDEST PUSH1 0x0 PUSH1 0x2 DUP3 DIV SWAP1 POP PUSH1 0x1 DUP3 AND DUP1 PUSH2 0x4C8 JUMPI PUSH1 0x7F DUP3 AND SWAP2 POP JUMPDEST PUSH1 0x20 DUP3 LT DUP2 SUB PUSH2 0x4DB JUMPI PUSH2 0x4DA PUSH2 0x481 JUMP JUMPDEST JUMPDEST POP SWAP2 SWAP1 POP JUMP JUMPDEST PUSH1 0x0 DUP2 SWAP1 POP DUP2 PUSH1 0x0 MSTORE PUSH1 0x20 PUSH1 0x0 KECCAK256 SWAP1 POP SWAP2 SWAP1 POP JUMP JUMPDEST PUSH1 0x0 PUSH1 0x20 PUSH1 0x1F DUP4 ADD DIV SWAP1 POP SWAP2 SWAP1 POP JUMP JUMPDEST PUSH1 0x0 DUP3 DUP3 SHL SWAP1 POP SWAP3 SWAP2 POP POP JUMP JUMPDEST PUSH1 0x0 PUSH1 0x8 DUP4 MUL PUSH2 0x543 PUSH32 0xFFFFFFFFFFFFFFFFFFFFFFFFFFFFFFFFFFFFFFFFFFFFFFFFFFFFFFFFFFFFFFFF DUP3 PUSH2 0x506 JUMP JUMPDEST PUSH2 0x54D DUP7 DUP4 PUSH2 0x506 JUMP JUMPDEST SWAP6 POP DUP1 NOT DUP5 AND SWAP4 POP DUP1 DUP7 AND DUP5 OR SWAP3 POP POP POP SWAP4 SWAP3 POP POP POP JUMP JUMPDEST PUSH1 0x0 DUP2 SWAP1 POP SWAP2 SWAP1 POP JUMP JUMPDEST PUSH1 0x0 PUSH2 0x58A PUSH2 0x585 PUSH2 0x580 DUP5 PUSH2 0x1BE JUMP JUMPDEST PUSH2 0x565 JUMP JUMPDEST PUSH2 0x1BE JUMP JUMPDEST SWAP1 POP SWAP2 SWAP1 POP JUMP JUMPDEST PUSH1 0x0 DUP2 SWAP1 POP SWAP2 SWAP1 POP JUMP JUMPDEST PUSH2 0x5A4 DUP4 PUSH2 0x56F JUMP JUMPDEST PUSH2 0x5B8 PUSH2 0x5B0 DUP3 PUSH2 0x591 JUMP JUMPDEST DUP5 DUP5 SLOAD PUSH2 0x513 JUMP JUMPDEST DUP3 SSTORE POP POP POP POP JUMP JUMPDEST PUSH1 0x0 SWAP1 JUMP JUMPDEST PUSH2 0x5CD PUSH2 0x5C0 JUMP JUMPDEST PUSH2 0x5D8 DUP2 DUP5 DUP5 PUSH2 0x59B JUMP JUMPDEST POP POP POP JUMP JUMPDEST JUMPDEST DUP2 DUP2 LT ISZERO PUSH2 0x5FC JUMPI PUSH2 0x5F1 PUSH1 0x0 DUP3 PUSH2 0x5C5 JUMP JUMPDEST PUSH1 0x1 DUP2 ADD SWAP1 POP PUSH2 0x5DE JUMP JUMPDEST POP POP JUMP JUMPDEST PUSH1 0x1F DUP3 GT ISZERO PUSH2 0x641 JUMPI PUSH2 0x612 DUP2 PUSH2 0x4E1 JUMP JUMPDEST PUSH2 0x61B DUP5 PUSH2 0x4F6 JUMP JUMPDEST DUP2 ADD PUSH1 0x20 DUP6 LT ISZERO PUSH2 0x62A JUMPI DUP2 SWAP1 POP JUMPDEST PUSH2 0x63E PUSH2 0x636 DUP6 PUSH2 0x4F6 JUMP JUMPDEST DUP4 ADD DUP3 PUSH2 0x5DD JUMP JUMPDEST POP POP JUMPDEST POP POP POP JUMP JUMPDEST PUSH1 0x0 DUP3 DUP3 SHR SWAP1 POP SWAP3 SWAP2 POP POP JUMP JUMPDEST PUSH1 0x0 PUSH2 0x664 PUSH1 0x0 NOT DUP5 PUSH1 0x8 MUL PUSH2 0x646 JUMP JUMPDEST NOT DUP1 DUP4 AND SWAP2 POP POP SWAP3 SWAP2 POP POP JUMP JUMPDEST PUSH1 0x0 PUSH2 0x67D DUP4 DUP4 PUSH2 0x653 JUMP JUMPDEST SWAP2 POP DUP3 PUSH1 0x2 MUL DUP3 OR SWAP1 POP SWAP3 SWAP2 POP POP JUMP JUMPDEST PUSH2 0x696 DUP3 PUSH2 0x221 JUMP JUMPDEST PUSH8 0xFFFFFFFFFFFFFFFF DUP2 GT ISZERO PUSH2 0x6AF JUMPI PUSH2 0x6AE PUSH2 0x2FA JUMP JUMPDEST JUMPDEST PUSH2 0x6B9 DUP3 SLOAD PUSH2 0x4B0 JUMP JUMPDEST PUSH2 0x6C4 DUP3 DUP3 DUP6 PUSH2 0x600 JUMP JUMPDEST PUSH1 0x0 PUSH1 0x20 SWAP1 POP PUSH1 0x1F DUP4 GT PUSH1 0x1 DUP2 EQ PUSH2 0x6F7 JUMPI PUSH1 0x0 DUP5 ISZERO PUSH2 0x6E5 JUMPI DUP3 DUP8 ADD MLOAD SWAP1 POP JUMPDEST PUSH2 0x6EF DUP6 DUP3 PUSH2 0x671 JUMP JUMPDEST DUP7 SSTORE POP PUSH2 0x757 JUMP JUMPDEST PUSH1 0x1F NOT DUP5 AND PUSH2 0x705 DUP7 PUSH2 0x4E1 JUMP JUMPDEST PUSH1 0x0 JUMPDEST DUP3 DUP2 LT ISZERO PUSH2 0x72D JUMPI DUP5 DUP10 ADD MLOAD DUP3 SSTORE PUSH1 0x1 DUP3 ADD SWAP2 POP PUSH1 0x20 DUP6 ADD SWAP5 POP PUSH1 0x20 DUP2 ADD SWAP1 POP PUSH2 0x708 JUMP JUMPDEST DUP7 DUP4 LT ISZERO PUSH2 0x74A JUMPI DUP5 DUP10 ADD MLOAD PUSH2 0x746 PUSH1 0x1F DUP10 AND DUP3 PUSH2 0x653 JUMP JUMPDEST DUP4 SSTORE POP JUMPDEST PUSH1 0x1 PUSH1 0x2 DUP9 MUL ADD DUP9 SSTORE POP POP POP JUMPDEST POP POP POP POP POP POP JUMP INVALID LOG2 PUSH5 0x6970667358 0x22 SLT KECCAK256 DUP5 PUSH15 0xFA93DFE2EC6239B38B18CFB475DBE5 0xE6 0xE4 PUSH11 0x2698551167367FF2B5028 EXTCODEHASH PUSH5 0x736F6C6343 STOP ADDMOD SLT STOP CALLER "
				},
				"gasEstimates": {
					"creation": {
						"codeDepositCost": "388200",
						"executionCost": "424",
						"totalCost": "388624"
					},
					"external": {
						"UpdateDetails(string,uint256)": "infinite",
						"person(uint256)": "infinite"
					}
				},
				"methodIdentifiers": {
					"UpdateDetails(string,uint256)": "c8218e54",
					"person(uint256)": "092a1820"
				}
			},
			"storageLayout": {
				"storage": [
					{
						"astId": 10,
						"contract": "StructArray.sol:Struct",
						"label": "person",
						"offset": 0,
						"slot": "0",
						"type": "t_array(t_struct(Person)6_storage)dyn_storage"
					}
				],
				"types": {
					"t_array(t_struct(Person)6_storage)dyn_storage": {
						"base": "t_struct(Person)6_storage",
						"encoding": "dynamic_array",
						"label": "struct Struct.Person[]",
						"numberOfBytes": "32"
					},
					"t_string_storage": {
						"encoding": "bytes",
						"label": "string",
						"numberOfBytes": "32"
					},
					"t_struct(Person)6_storage": {
						"encoding": "inplace",
						"label": "struct Struct.Person",
						"members": [
							{
								"astId": 3,
								"contract": "StructArray.sol:Struct",
								"label": "Name",
								"offset": 0,
								"slot": "0",
								"type": "t_string_storage"
							},
							{
								"astId": 5,
								"contract": "StructArray.sol:Struct",
								"label": "Age",
								"offset": 0,
								"slot": "1",
								"type": "t_uint256"
							}
						],
						"numberOfBytes": "64"
					},
					"t_uint256": {
						"encoding": "inplace",
						"label": "uint256",
						"numberOfBytes": "32"
					}
				}
			},
			"userdoc": {
				"kind": "user",
				"methods": {},
				"version": 1
			}
		}
	}
}