{
	"Comparision_operators.sol": {
		"Comparision_operator": {
			"abi": [
				{
					"inputs": [],
					"name": "greaterthan",
					"outputs": [
						{
							"internalType": "bool",
							"name": "",
							"type": "bool"
						}
					],
					"stateMutability": "view",
					"type": "function"
				},
				{
					"inputs": [],
					"name": "greaterthanorequalto",
					"outputs": [
						{
							"internalType": "bool",
							"name": "",
							"type": "bool"
						}
					],
					"stateMutability": "view",
					"type": "function"
				},
				{
					"inputs": [],
					"name": "isequalto",
					"outputs": [
						{
							"internalType": "bool",
							"name": "",
							"type": "bool"
						}
					],
					"stateMutability": "view",
					"type": "function"
				},
				{
					"inputs": [],
					"name": "lessthan",
					"outputs": [
						{
							"internalType": "bool",
							"name": "",
							"type": "bool"
						}
					],
					"stateMutability": "view",
					"type": "function"
				},
				{
					"inputs": [],
					"name": "lessthanorequalto",
					"outputs": [
						{
							"internalType": "bool",
							"name": "",
							"type": "bool"
						}
					],
					"stateMutability": "view",
					"type": "function"
				},
				{
					"inputs": [],
					"name": "notequalto",
					"outputs": [
						{
							"internalType": "bool",
							"name": "",
							"type": "bool"
						}
					],
					"stateMutability": "view",
					"type": "function"
				}
			],
			"devdoc": {
				"kind": "dev",
				"methods": {},
				"version": 1
			},
			"evm": {
				"assembly": "    /* \"Comparision_operators.sol\":62:846  contract Comparision_operator{... */\n  mstore(0x40, 0x80)\n    /* \"Comparision_operators.sol\":165:166  5 */\n  0x05\n    /* \"Comparision_operators.sol\":156:166  uint a = 5 */\n  0x00\n  sstore\n    /* \"Comparision_operators.sol\":182:183  6 */\n  0x06\n    /* \"Comparision_operators.sol\":173:183  uint b = 6 */\n  0x01\n  sstore\n    /* \"Comparision_operators.sol\":62:846  contract Comparision_operator{... */\n  callvalue\n  dup1\n  iszero\n  tag_1\n  jumpi\n  0x00\n  dup1\n  revert\ntag_1:\n  pop\n  dataSize(sub_0)\n  dup1\n  dataOffset(sub_0)\n  0x00\n  codecopy\n  0x00\n  return\nstop\n\nsub_0: assembly {\n        /* \"Comparision_operators.sol\":62:846  contract Comparision_operator{... */\n      mstore(0x40, 0x80)\n      callvalue\n      dup1\n      iszero\n      tag_1\n      jumpi\n      0x00\n      dup1\n      revert\n    tag_1:\n      pop\n      jumpi(tag_2, lt(calldatasize, 0x04))\n      shr(0xe0, calldataload(0x00))\n      dup1\n      0x6cb2ba67\n      eq\n      tag_3\n      jumpi\n      dup1\n      0x6eff532e\n      eq\n      tag_4\n      jumpi\n      dup1\n      0xb2f76c69\n      eq\n      tag_5\n      jumpi\n      dup1\n      0xf4809a28\n      eq\n      tag_6\n      jumpi\n      dup1\n      0xf55a8bed\n      eq\n      tag_7\n      jumpi\n      dup1\n      0xf7db3c13\n      eq\n      tag_8\n      jumpi\n    tag_2:\n      0x00\n      dup1\n      revert\n        /* \"Comparision_operators.sol\":405:502  function lessthan() public view returns(bool){... */\n    tag_3:\n      tag_9\n      tag_10\n      jump\t// in\n    tag_9:\n      mload(0x40)\n      tag_11\n      swap2\n      swap1\n      tag_12\n      jump\t// in\n    tag_11:\n      mload(0x40)\n      dup1\n      swap2\n      sub\n      swap1\n      return\n        /* \"Comparision_operators.sol\":618:725  function lessthanorequalto() public view returns(bool){... */\n    tag_4:\n      tag_13\n      tag_14\n      jump\t// in\n    tag_13:\n      mload(0x40)\n      tag_15\n      swap2\n      swap1\n      tag_12\n      jump\t// in\n    tag_15:\n      mload(0x40)\n      dup1\n      swap2\n      sub\n      swap1\n      return\n        /* \"Comparision_operators.sol\":297:397  function notequalto() public view returns(bool){... */\n    tag_5:\n      tag_16\n      tag_17\n      jump\t// in\n    tag_16:\n      mload(0x40)\n      tag_18\n      swap2\n      swap1\n      tag_12\n      jump\t// in\n    tag_18:\n      mload(0x40)\n      dup1\n      swap2\n      sub\n      swap1\n      return\n        /* \"Comparision_operators.sol\":510:610  function greaterthan() public view returns(bool){... */\n    tag_6:\n      tag_19\n      tag_20\n      jump\t// in\n    tag_19:\n      mload(0x40)\n      tag_21\n      swap2\n      swap1\n      tag_12\n      jump\t// in\n    tag_21:\n      mload(0x40)\n      dup1\n      swap2\n      sub\n      swap1\n      return\n        /* \"Comparision_operators.sol\":733:843  function greaterthanorequalto() public view returns(bool){... */\n    tag_7:\n      tag_22\n      tag_23\n      jump\t// in\n    tag_22:\n      mload(0x40)\n      tag_24\n      swap2\n      swap1\n      tag_12\n      jump\t// in\n    tag_24:\n      mload(0x40)\n      dup1\n      swap2\n      sub\n      swap1\n      return\n        /* \"Comparision_operators.sol\":190:289  function isequalto() public view returns(bool){... */\n    tag_8:\n      tag_25\n      tag_26\n      jump\t// in\n    tag_25:\n      mload(0x40)\n      tag_27\n      swap2\n      swap1\n      tag_12\n      jump\t// in\n    tag_27:\n      mload(0x40)\n      dup1\n      swap2\n      sub\n      swap1\n      return\n        /* \"Comparision_operators.sol\":405:502  function lessthan() public view returns(bool){... */\n    tag_10:\n        /* \"Comparision_operators.sol\":445:449  bool */\n      0x00\n        /* \"Comparision_operators.sol\":457:468  bool result */\n      dup1\n        /* \"Comparision_operators.sol\":473:474  b */\n      sload(0x01)\n        /* \"Comparision_operators.sol\":471:472  a */\n      sload(0x00)\n        /* \"Comparision_operators.sol\":471:474  a<b */\n      lt\n        /* \"Comparision_operators.sol\":457:474  bool result = a<b */\n      swap1\n      pop\n        /* \"Comparision_operators.sol\":488:494  result */\n      dup1\n        /* \"Comparision_operators.sol\":481:494  return result */\n      swap2\n      pop\n      pop\n        /* \"Comparision_operators.sol\":405:502  function lessthan() public view returns(bool){... */\n      swap1\n      jump\t// out\n        /* \"Comparision_operators.sol\":618:725  function lessthanorequalto() public view returns(bool){... */\n    tag_14:\n        /* \"Comparision_operators.sol\":667:671  bool */\n      0x00\n        /* \"Comparision_operators.sol\":679:690  bool result */\n      dup1\n        /* \"Comparision_operators.sol\":696:697  b */\n      sload(0x01)\n        /* \"Comparision_operators.sol\":693:694  a */\n      sload(0x00)\n        /* \"Comparision_operators.sol\":693:697  a<=b */\n      gt\n      iszero\n        /* \"Comparision_operators.sol\":679:697  bool result = a<=b */\n      swap1\n      pop\n        /* \"Comparision_operators.sol\":711:717  result */\n      dup1\n        /* \"Comparision_operators.sol\":704:717  return result */\n      swap2\n      pop\n      pop\n        /* \"Comparision_operators.sol\":618:725  function lessthanorequalto() public view returns(bool){... */\n      swap1\n      jump\t// out\n        /* \"Comparision_operators.sol\":297:397  function notequalto() public view returns(bool){... */\n    tag_17:\n        /* \"Comparision_operators.sol\":339:343  bool */\n      0x00\n        /* \"Comparision_operators.sol\":351:362  bool result */\n      dup1\n        /* \"Comparision_operators.sol\":368:369  b */\n      sload(0x01)\n        /* \"Comparision_operators.sol\":365:366  a */\n      sload(0x00)\n        /* \"Comparision_operators.sol\":365:369  a!=b */\n      eq\n      iszero\n        /* \"Comparision_operators.sol\":351:369  bool result = a!=b */\n      swap1\n      pop\n        /* \"Comparision_operators.sol\":383:389  result */\n      dup1\n        /* \"Comparision_operators.sol\":376:389  return result */\n      swap2\n      pop\n      pop\n        /* \"Comparision_operators.sol\":297:397  function notequalto() public view returns(bool){... */\n      swap1\n      jump\t// out\n        /* \"Comparision_operators.sol\":510:610  function greaterthan() public view returns(bool){... */\n    tag_20:\n        /* \"Comparision_operators.sol\":553:557  bool */\n      0x00\n        /* \"Comparision_operators.sol\":565:576  bool result */\n      dup1\n        /* \"Comparision_operators.sol\":581:582  b */\n      sload(0x01)\n        /* \"Comparision_operators.sol\":579:580  a */\n      sload(0x00)\n        /* \"Comparision_operators.sol\":579:582  a>b */\n      gt\n        /* \"Comparision_operators.sol\":565:582  bool result = a>b */\n      swap1\n      pop\n        /* \"Comparision_operators.sol\":596:602  result */\n      dup1\n        /* \"Comparision_operators.sol\":589:602  return result */\n      swap2\n      pop\n      pop\n        /* \"Comparision_operators.sol\":510:610  function greaterthan() public view returns(bool){... */\n      swap1\n      jump\t// out\n        /* \"Comparision_operators.sol\":733:843  function greaterthanorequalto() public view returns(bool){... */\n    tag_23:\n        /* \"Comparision_operators.sol\":785:789  bool */\n      0x00\n        /* \"Comparision_operators.sol\":797:808  bool result */\n      dup1\n        /* \"Comparision_operators.sol\":814:815  b */\n      sload(0x01)\n        /* \"Comparision_operators.sol\":811:812  a */\n      sload(0x00)\n        /* \"Comparision_operators.sol\":811:815  a>=b */\n      lt\n      iszero\n        /* \"Comparision_operators.sol\":797:815  bool result = a>=b */\n      swap1\n      pop\n        /* \"Comparision_operators.sol\":829:835  result */\n      dup1\n        /* \"Comparision_operators.sol\":822:835  return result */\n      swap2\n      pop\n      pop\n        /* \"Comparision_operators.sol\":733:843  function greaterthanorequalto() public view returns(bool){... */\n      swap1\n      jump\t// out\n        /* \"Comparision_operators.sol\":190:289  function isequalto() public view returns(bool){... */\n    tag_26:\n        /* \"Comparision_operators.sol\":231:235  bool */\n      0x00\n        /* \"Comparision_operators.sol\":243:254  bool result */\n      dup1\n        /* \"Comparision_operators.sol\":260:261  b */\n      sload(0x01)\n        /* \"Comparision_operators.sol\":257:258  a */\n      sload(0x00)\n        /* \"Comparision_operators.sol\":257:261  a==b */\n      eq\n        /* \"Comparision_operators.sol\":243:261  bool result = a==b */\n      swap1\n      pop\n        /* \"Comparision_operators.sol\":275:281  result */\n      dup1\n        /* \"Comparision_operators.sol\":268:281  return result */\n      swap2\n      pop\n      pop\n        /* \"Comparision_operators.sol\":190:289  function isequalto() public view returns(bool){... */\n      swap1\n      jump\t// out\n        /* \"#utility.yul\":7:97   */\n    tag_34:\n        /* \"#utility.yul\":41:48   */\n      0x00\n        /* \"#utility.yul\":84:89   */\n      dup2\n        /* \"#utility.yul\":77:90   */\n      iszero\n        /* \"#utility.yul\":70:91   */\n      iszero\n        /* \"#utility.yul\":59:91   */\n      swap1\n      pop\n        /* \"#utility.yul\":7:97   */\n      swap2\n      swap1\n      pop\n      jump\t// out\n        /* \"#utility.yul\":103:212   */\n    tag_35:\n        /* \"#utility.yul\":184:205   */\n      tag_39\n        /* \"#utility.yul\":199:204   */\n      dup2\n        /* \"#utility.yul\":184:205   */\n      tag_34\n      jump\t// in\n    tag_39:\n        /* \"#utility.yul\":179:182   */\n      dup3\n        /* \"#utility.yul\":172:206   */\n      mstore\n        /* \"#utility.yul\":103:212   */\n      pop\n      pop\n      jump\t// out\n        /* \"#utility.yul\":218:428   */\n    tag_12:\n        /* \"#utility.yul\":305:309   */\n      0x00\n        /* \"#utility.yul\":343:345   */\n      0x20\n        /* \"#utility.yul\":332:341   */\n      dup3\n        /* \"#utility.yul\":328:346   */\n      add\n        /* \"#utility.yul\":320:346   */\n      swap1\n      pop\n        /* \"#utility.yul\":356:421   */\n      tag_41\n        /* \"#utility.yul\":418:419   */\n      0x00\n        /* \"#utility.yul\":407:416   */\n      dup4\n        /* \"#utility.yul\":403:420   */\n      add\n        /* \"#utility.yul\":394:400   */\n      dup5\n        /* \"#utility.yul\":356:421   */\n      tag_35\n      jump\t// in\n    tag_41:\n        /* \"#utility.yul\":218:428   */\n      swap3\n      swap2\n      pop\n      pop\n      jump\t// out\n\n    auxdata: 0xa2646970667358221220a245e6c81a3390f0dbb3e70c518c306aed9d02e5958501eb5d8143fbbe58b2ee64736f6c63430008120033\n}\n",
				"bytecode": {
					"linkReferences": {},
					"object": "60806040526005600055600660015534801561001a57600080fd5b506101fc8061002a6000396000f3fe608060405234801561001057600080fd5b50600436106100625760003560e01c80636cb2ba67146100675780636eff532e14610085578063b2f76c69146100a3578063f4809a28146100c1578063f55a8bed146100df578063f7db3c13146100fd575b600080fd5b61006f61011b565b60405161007c91906101ab565b60405180910390f35b61008d61012e565b60405161009a91906101ab565b60405180910390f35b6100ab610142565b6040516100b891906101ab565b60405180910390f35b6100c9610156565b6040516100d691906101ab565b60405180910390f35b6100e7610169565b6040516100f491906101ab565b60405180910390f35b61010561017d565b60405161011291906101ab565b60405180910390f35b6000806001546000541090508091505090565b600080600154600054111590508091505090565b600080600154600054141590508091505090565b6000806001546000541190508091505090565b600080600154600054101590508091505090565b6000806001546000541490508091505090565b60008115159050919050565b6101a581610190565b82525050565b60006020820190506101c0600083018461019c565b9291505056fea2646970667358221220a245e6c81a3390f0dbb3e70c518c306aed9d02e5958501eb5d8143fbbe58b2ee64736f6c63430008120033",
					"opcodes": "PUSH1 0x80 PUSH1 0x40 MSTORE PUSH1 0x5 PUSH1 0x0 SSTORE PUSH1 0x6 PUSH1 0x1 SSTORE CALLVALUE DUP1 ISZERO PUSH2 0x1A JUMPI PUSH1 0x0 DUP1 REVERT JUMPDEST POP PUSH2 0x1FC DUP1 PUSH2 0x2A PUSH1 0x0 CODECOPY PUSH1 0x0 RETURN INVALID PUSH1 0x80 PUSH1 0x40 MSTORE CALLVALUE DUP1 ISZERO PUSH2 0x10 JUMPI PUSH1 0x0 DUP1 REVERT JUMPDEST POP PUSH1 0x4 CALLDATASIZE LT PUSH2 0x62 JUMPI PUSH1 0x0 CALLDATALOAD PUSH1 0xE0 SHR DUP1 PUSH4 0x6CB2BA67 EQ PUSH2 0x67 JUMPI DUP1 PUSH4 0x6EFF532E EQ PUSH2 0x85 JUMPI DUP1 PUSH4 0xB2F76C69 EQ PUSH2 0xA3 JUMPI DUP1 PUSH4 0xF4809A28 EQ PUSH2 0xC1 JUMPI DUP1 PUSH4 0xF55A8BED EQ PUSH2 0xDF JUMPI DUP1 PUSH4 0xF7DB3C13 EQ PUSH2 0xFD JUMPI JUMPDEST PUSH1 0x0 DUP1 REVERT JUMPDEST PUSH2 0x6F PUSH2 0x11B JUMP JUMPDEST PUSH1 0x40 MLOAD PUSH2 0x7C SWAP2 SWAP1 PUSH2 0x1AB JUMP JUMPDEST PUSH1 0x40 MLOAD DUP1 SWAP2 SUB SWAP1 RETURN JUMPDEST PUSH2 0x8D PUSH2 0x12E JUMP JUMPDEST PUSH1 0x40 MLOAD PUSH2 0x9A SWAP2 SWAP1 PUSH2 0x1AB JUMP JUMPDEST PUSH1 0x40 MLOAD DUP1 SWAP2 SUB SWAP1 RETURN JUMPDEST PUSH2 0xAB PUSH2 0x142 JUMP JUMPDEST PUSH1 0x40 MLOAD PUSH2 0xB8 SWAP2 SWAP1 PUSH2 0x1AB JUMP JUMPDEST PUSH1 0x40 MLOAD DUP1 SWAP2 SUB SWAP1 RETURN JUMPDEST PUSH2 0xC9 PUSH2 0x156 JUMP JUMPDEST PUSH1 0x40 MLOAD PUSH2 0xD6 SWAP2 SWAP1 PUSH2 0x1AB JUMP JUMPDEST PUSH1 0x40 MLOAD DUP1 SWAP2 SUB SWAP1 RETURN JUMPDEST PUSH2 0xE7 PUSH2 0x169 JUMP JUMPDEST PUSH1 0x40 MLOAD PUSH2 0xF4 SWAP2 SWAP1 PUSH2 0x1AB JUMP JUMPDEST PUSH1 0x40 MLOAD DUP1 SWAP2 SUB SWAP1 RETURN JUMPDEST PUSH2 0x105 PUSH2 0x17D JUMP JUMPDEST PUSH1 0x40 MLOAD PUSH2 0x112 SWAP2 SWAP1 PUSH2 0x1AB JUMP JUMPDEST PUSH1 0x40 MLOAD DUP1 SWAP2 SUB SWAP1 RETURN JUMPDEST PUSH1 0x0 DUP1 PUSH1 0x1 SLOAD PUSH1 0x0 SLOAD LT SWAP1 POP DUP1 SWAP2 POP POP SWAP1 JUMP JUMPDEST PUSH1 0x0 DUP1 PUSH1 0x1 SLOAD PUSH1 0x0 SLOAD GT ISZERO SWAP1 POP DUP1 SWAP2 POP POP SWAP1 JUMP JUMPDEST PUSH1 0x0 DUP1 PUSH1 0x1 SLOAD PUSH1 0x0 SLOAD EQ ISZERO SWAP1 POP DUP1 SWAP2 POP POP SWAP1 JUMP JUMPDEST PUSH1 0x0 DUP1 PUSH1 0x1 SLOAD PUSH1 0x0 SLOAD GT SWAP1 POP DUP1 SWAP2 POP POP SWAP1 JUMP JUMPDEST PUSH1 0x0 DUP1 PUSH1 0x1 SLOAD PUSH1 0x0 SLOAD LT ISZERO SWAP1 POP DUP1 SWAP2 POP POP SWAP1 JUMP JUMPDEST PUSH1 0x0 DUP1 PUSH1 0x1 SLOAD PUSH1 0x0 SLOAD EQ SWAP1 POP DUP1 SWAP2 POP POP SWAP1 JUMP JUMPDEST PUSH1 0x0 DUP2 ISZERO ISZERO SWAP1 POP SWAP2 SWAP1 POP JUMP JUMPDEST PUSH2 0x1A5 DUP2 PUSH2 0x190 JUMP JUMPDEST DUP3 MSTORE POP POP JUMP JUMPDEST PUSH1 0x0 PUSH1 0x20 DUP3 ADD SWAP1 POP PUSH2 0x1C0 PUSH1 0x0 DUP4 ADD DUP5 PUSH2 0x19C JUMP JUMPDEST SWAP3 SWAP2 POP POP JUMP INVALID LOG2 PUSH5 0x6970667358 0x22 SLT KECCAK256 LOG2 GASLIMIT 0xE6 0xC8 BYTE CALLER SWAP1 CREATE 0xDB 0xB3 0xE7 0xC MLOAD DUP13 ADDRESS PUSH11 0xED9D02E5958501EB5D8143 0xFB 0xBE PC 0xB2 0xEE PUSH5 0x736F6C6343 STOP ADDMOD SLT STOP CALLER "
				},
				"gasEstimates": {
					"creation": {
						"codeDepositCost": "101600",
						"executionCost": "44359",
						"totalCost": "145959"
					},
					"external": {
						"greaterthan()": "4606",
						"greaterthanorequalto()": "4631",
						"isequalto()": "4650",
						"lessthan()": "4540",
						"lessthanorequalto()": "4565",
						"notequalto()": "4587"
					}
				},
				"methodIdentifiers": {
					"greaterthan()": "f4809a28",
					"greaterthanorequalto()": "f55a8bed",
					"isequalto()": "f7db3c13",
					"lessthan()": "6cb2ba67",
					"lessthanorequalto()": "6eff532e",
					"notequalto()": "b2f76c69"
				}
			},
			"storageLayout": {
				"storage": [
					{
						"astId": 4,
						"contract": "Comparision_operators.sol:Comparision_operator",
						"label": "a",
						"offset": 0,
						"slot": "0",
						"type": "t_uint256"
					},
					{
						"astId": 7,
						"contract": "Comparision_operators.sol:Comparision_operator",
						"label": "b",
						"offset": 0,
						"slot": "1",
						"type": "t_uint256"
					}
				],
				"types": {
					"t_uint256": {
						"encoding": "inplace",
						"label": "uint256",
						"numberOfBytes": "32"
					}
				}
			},
			"userdoc": {
				"kind": "user",
				"methods": {},
				"version": 1
			}
		}
	}
}