{
	"Barray.sol": {
		"B": {
			"abi": [
				{
					"inputs": [],
					"name": "ReadAInfo",
					"outputs": [
						{
							"internalType": "uint256",
							"name": "",
							"type": "uint256"
						}
					],
					"stateMutability": "view",
					"type": "function"
				},
				{
					"inputs": [
						{
							"internalType": "uint256",
							"name": "_number",
							"type": "uint256"
						}
					],
					"name": "UpdateAInfo",
					"outputs": [],
					"stateMutability": "nonpayable",
					"type": "function"
				},
				{
					"inputs": [],
					"name": "a",
					"outputs": [
						{
							"internalType": "contract A",
							"name": "",
							"type": "address"
						}
					],
					"stateMutability": "view",
					"type": "function"
				},
				{
					"inputs": [
						{
							"internalType": "uint256",
							"name": "",
							"type": "uint256"
						}
					],
					"name": "aArr",
					"outputs": [
						{
							"internalType": "contract A",
							"name": "",
							"type": "address"
						}
					],
					"stateMutability": "view",
					"type": "function"
				},
				{
					"inputs": [],
					"name": "pushArr",
					"outputs": [],
					"stateMutability": "nonpayable",
					"type": "function"
				}
			],
			"devdoc": {
				"kind": "dev",
				"methods": {},
				"version": 1
			},
			"evm": {
				"assembly": "    /* \"Barray.sol\":83:470  contract B{... */\n  mstore(0x40, 0x80)\n    /* \"Barray.sol\":170:212  0x93f8dddd876c7dBE3323723500e83E202A7C96CC */\n  0x93f8dddd876c7dbe3323723500e83e202a7c96cc\n    /* \"Barray.sol\":155:213  A public a = A(0x93f8dddd876c7dBE3323723500e83E202A7C96CC) */\n  0x01\n  exp(0x0100, 0x00)\n  dup2\n  sload\n  dup2\n  0xffffffffffffffffffffffffffffffffffffffff\n  mul\n  not\n  and\n  swap1\n  dup4\n  0xffffffffffffffffffffffffffffffffffffffff\n  and\n  mul\n  or\n  swap1\n  sstore\n  pop\n    /* \"Barray.sol\":83:470  contract B{... */\n  callvalue\n  dup1\n  iszero\n  tag_1\n  jumpi\n  0x00\n  dup1\n  revert\ntag_1:\n  pop\n  dataSize(sub_0)\n  dup1\n  dataOffset(sub_0)\n  0x00\n  codecopy\n  0x00\n  return\nstop\n\nsub_0: assembly {\n        /* \"Barray.sol\":83:470  contract B{... */\n      mstore(0x40, 0x80)\n      callvalue\n      dup1\n      iszero\n      tag_1\n      jumpi\n      0x00\n      dup1\n      revert\n    tag_1:\n      pop\n      jumpi(tag_2, lt(calldatasize, 0x04))\n      shr(0xe0, calldataload(0x00))\n      dup1\n      0x0dbe671f\n      eq\n      tag_3\n      jumpi\n      dup1\n      0x41af56ee\n      eq\n      tag_4\n      jumpi\n      dup1\n      0x68a0f1b9\n      eq\n      tag_5\n      jumpi\n      dup1\n      0x7154d5bf\n      eq\n      tag_6\n      jumpi\n      dup1\n      0xaefe46bf\n      eq\n      tag_7\n      jumpi\n    tag_2:\n      0x00\n      dup1\n      revert\n        /* \"Barray.sol\":155:213  A public a = A(0x93f8dddd876c7dBE3323723500e83E202A7C96CC) */\n    tag_3:\n      tag_8\n      tag_9\n      jump\t// in\n    tag_8:\n      mload(0x40)\n      tag_10\n      swap2\n      swap1\n      tag_11\n      jump\t// in\n    tag_10:\n      mload(0x40)\n      dup1\n      swap2\n      sub\n      swap1\n      return\n        /* \"Barray.sol\":222:278  function pushArr() public{... */\n    tag_4:\n      tag_12\n      tag_13\n      jump\t// in\n    tag_12:\n      stop\n        /* \"Barray.sol\":286:371  function UpdateAInfo(uint _number) public{... */\n    tag_5:\n      tag_14\n      0x04\n      dup1\n      calldatasize\n      sub\n      dup2\n      add\n      swap1\n      tag_15\n      swap2\n      swap1\n      tag_16\n      jump\t// in\n    tag_15:\n      tag_17\n      jump\t// in\n    tag_14:\n      stop\n        /* \"Barray.sol\":379:467  function ReadAInfo() public view returns(uint){... */\n    tag_6:\n      tag_18\n      tag_19\n      jump\t// in\n    tag_18:\n      mload(0x40)\n      tag_20\n      swap2\n      swap1\n      tag_21\n      jump\t// in\n    tag_20:\n      mload(0x40)\n      dup1\n      swap2\n      sub\n      swap1\n      return\n        /* \"Barray.sol\":133:148  A[] public aArr */\n    tag_7:\n      tag_22\n      0x04\n      dup1\n      calldatasize\n      sub\n      dup2\n      add\n      swap1\n      tag_23\n      swap2\n      swap1\n      tag_16\n      jump\t// in\n    tag_23:\n      tag_24\n      jump\t// in\n    tag_22:\n      mload(0x40)\n      tag_25\n      swap2\n      swap1\n      tag_11\n      jump\t// in\n    tag_25:\n      mload(0x40)\n      dup1\n      swap2\n      sub\n      swap1\n      return\n        /* \"Barray.sol\":155:213  A public a = A(0x93f8dddd876c7dBE3323723500e83E202A7C96CC) */\n    tag_9:\n      0x01\n      0x00\n      swap1\n      sload\n      swap1\n      0x0100\n      exp\n      swap1\n      div\n      0xffffffffffffffffffffffffffffffffffffffff\n      and\n      dup2\n      jump\t// out\n        /* \"Barray.sol\":222:278  function pushArr() public{... */\n    tag_13:\n        /* \"Barray.sol\":258:262  aArr */\n      0x00\n        /* \"Barray.sol\":268:269  a */\n      0x01\n      0x00\n      swap1\n      sload\n      swap1\n      0x0100\n      exp\n      swap1\n      div\n      0xffffffffffffffffffffffffffffffffffffffff\n      and\n        /* \"Barray.sol\":258:270  aArr.push(a) */\n      swap1\n      dup1\n      0x01\n      dup2\n      sload\n      add\n      dup1\n      dup3\n      sstore\n      dup1\n      swap2\n      pop\n      pop\n      0x01\n      swap1\n      sub\n      swap1\n      0x00\n      mstore\n      keccak256(0x00, 0x20)\n      add\n      0x00\n      swap1\n      swap2\n      swap1\n      swap2\n      swap1\n      swap2\n      0x0100\n      exp\n      dup2\n      sload\n      dup2\n      0xffffffffffffffffffffffffffffffffffffffff\n      mul\n      not\n      and\n      swap1\n      dup4\n      0xffffffffffffffffffffffffffffffffffffffff\n      and\n      mul\n      or\n      swap1\n      sstore\n      pop\n        /* \"Barray.sol\":222:278  function pushArr() public{... */\n      jump\t// out\n        /* \"Barray.sol\":286:371  function UpdateAInfo(uint _number) public{... */\n    tag_17:\n        /* \"Barray.sol\":338:342  aArr */\n      0x00\n        /* \"Barray.sol\":343:344  0 */\n      dup1\n        /* \"Barray.sol\":338:345  aArr[0] */\n      dup2\n      sload\n      dup2\n      lt\n      tag_29\n      jumpi\n      tag_30\n      tag_31\n      jump\t// in\n    tag_30:\n    tag_29:\n      swap1\n      0x00\n      mstore\n      keccak256(0x00, 0x20)\n      add\n      0x00\n      swap1\n      sload\n      swap1\n      0x0100\n      exp\n      swap1\n      div\n      0xffffffffffffffffffffffffffffffffffffffff\n      and\n        /* \"Barray.sol\":338:354  aArr[0].UpdateNo */\n      0xffffffffffffffffffffffffffffffffffffffff\n      and\n      0x3b7c9713\n        /* \"Barray.sol\":355:362  _number */\n      dup3\n        /* \"Barray.sol\":338:363  aArr[0].UpdateNo(_number) */\n      mload(0x40)\n      dup3\n      0xffffffff\n      and\n      0xe0\n      shl\n      dup2\n      mstore\n      0x04\n      add\n      tag_33\n      swap2\n      swap1\n      tag_21\n      jump\t// in\n    tag_33:\n      0x00\n      mload(0x40)\n      dup1\n      dup4\n      sub\n      dup2\n      0x00\n      dup8\n      dup1\n      extcodesize\n      iszero\n      dup1\n      iszero\n      tag_34\n      jumpi\n      0x00\n      dup1\n      revert\n    tag_34:\n      pop\n      gas\n      call\n      iszero\n      dup1\n      iszero\n      tag_36\n      jumpi\n      returndatasize\n      0x00\n      dup1\n      returndatacopy\n      revert(0x00, returndatasize)\n    tag_36:\n      pop\n      pop\n      pop\n      pop\n        /* \"Barray.sol\":286:371  function UpdateAInfo(uint _number) public{... */\n      pop\n      jump\t// out\n        /* \"Barray.sol\":379:467  function ReadAInfo() public view returns(uint){... */\n    tag_19:\n        /* \"Barray.sol\":420:424  uint */\n      0x00\n        /* \"Barray.sol\":443:447  aArr */\n      dup1\n        /* \"Barray.sol\":448:449  0 */\n      0x00\n        /* \"Barray.sol\":443:450  aArr[0] */\n      dup2\n      sload\n      dup2\n      lt\n      tag_38\n      jumpi\n      tag_39\n      tag_31\n      jump\t// in\n    tag_39:\n    tag_38:\n      swap1\n      0x00\n      mstore\n      keccak256(0x00, 0x20)\n      add\n      0x00\n      swap1\n      sload\n      swap1\n      0x0100\n      exp\n      swap1\n      div\n      0xffffffffffffffffffffffffffffffffffffffff\n      and\n        /* \"Barray.sol\":443:457  aArr[0].ReadNo */\n      0xffffffffffffffffffffffffffffffffffffffff\n      and\n      0x7e48e9fd\n        /* \"Barray.sol\":443:459  aArr[0].ReadNo() */\n      mload(0x40)\n      dup2\n      0xffffffff\n      and\n      0xe0\n      shl\n      dup2\n      mstore\n      0x04\n      add\n      0x20\n      mload(0x40)\n      dup1\n      dup4\n      sub\n      dup2\n      dup7\n      gas\n      staticcall\n      iszero\n      dup1\n      iszero\n      tag_42\n      jumpi\n      returndatasize\n      0x00\n      dup1\n      returndatacopy\n      revert(0x00, returndatasize)\n    tag_42:\n      pop\n      pop\n      pop\n      pop\n      mload(0x40)\n      returndatasize\n      not(0x1f)\n      0x1f\n      dup3\n      add\n      and\n      dup3\n      add\n      dup1\n      0x40\n      mstore\n      pop\n      dup2\n      add\n      swap1\n      tag_43\n      swap2\n      swap1\n      tag_44\n      jump\t// in\n    tag_43:\n        /* \"Barray.sol\":436:459  return aArr[0].ReadNo() */\n      swap1\n      pop\n        /* \"Barray.sol\":379:467  function ReadAInfo() public view returns(uint){... */\n      swap1\n      jump\t// out\n        /* \"Barray.sol\":133:148  A[] public aArr */\n    tag_24:\n      0x00\n      dup2\n      dup2\n      sload\n      dup2\n      lt\n      tag_45\n      jumpi\n      0x00\n      dup1\n      revert\n    tag_45:\n      swap1\n      0x00\n      mstore\n      keccak256(0x00, 0x20)\n      add\n      0x00\n      swap2\n      pop\n      sload\n      swap1\n      0x0100\n      exp\n      swap1\n      div\n      0xffffffffffffffffffffffffffffffffffffffff\n      and\n      dup2\n      jump\t// out\n        /* \"#utility.yul\":7:133   */\n    tag_47:\n        /* \"#utility.yul\":44:51   */\n      0x00\n        /* \"#utility.yul\":84:126   */\n      0xffffffffffffffffffffffffffffffffffffffff\n        /* \"#utility.yul\":77:82   */\n      dup3\n        /* \"#utility.yul\":73:127   */\n      and\n        /* \"#utility.yul\":62:127   */\n      swap1\n      pop\n        /* \"#utility.yul\":7:133   */\n      swap2\n      swap1\n      pop\n      jump\t// out\n        /* \"#utility.yul\":139:199   */\n    tag_48:\n        /* \"#utility.yul\":167:170   */\n      0x00\n        /* \"#utility.yul\":188:193   */\n      dup2\n        /* \"#utility.yul\":181:193   */\n      swap1\n      pop\n        /* \"#utility.yul\":139:199   */\n      swap2\n      swap1\n      pop\n      jump\t// out\n        /* \"#utility.yul\":205:347   */\n    tag_49:\n        /* \"#utility.yul\":255:264   */\n      0x00\n        /* \"#utility.yul\":288:341   */\n      tag_65\n        /* \"#utility.yul\":306:340   */\n      tag_66\n        /* \"#utility.yul\":315:339   */\n      tag_67\n        /* \"#utility.yul\":333:338   */\n      dup5\n        /* \"#utility.yul\":315:339   */\n      tag_47\n      jump\t// in\n    tag_67:\n        /* \"#utility.yul\":306:340   */\n      tag_48\n      jump\t// in\n    tag_66:\n        /* \"#utility.yul\":288:341   */\n      tag_47\n      jump\t// in\n    tag_65:\n        /* \"#utility.yul\":275:341   */\n      swap1\n      pop\n        /* \"#utility.yul\":205:347   */\n      swap2\n      swap1\n      pop\n      jump\t// out\n        /* \"#utility.yul\":353:479   */\n    tag_50:\n        /* \"#utility.yul\":403:412   */\n      0x00\n        /* \"#utility.yul\":436:473   */\n      tag_69\n        /* \"#utility.yul\":467:472   */\n      dup3\n        /* \"#utility.yul\":436:473   */\n      tag_49\n      jump\t// in\n    tag_69:\n        /* \"#utility.yul\":423:473   */\n      swap1\n      pop\n        /* \"#utility.yul\":353:479   */\n      swap2\n      swap1\n      pop\n      jump\t// out\n        /* \"#utility.yul\":485:619   */\n    tag_51:\n        /* \"#utility.yul\":543:552   */\n      0x00\n        /* \"#utility.yul\":576:613   */\n      tag_71\n        /* \"#utility.yul\":607:612   */\n      dup3\n        /* \"#utility.yul\":576:613   */\n      tag_50\n      jump\t// in\n    tag_71:\n        /* \"#utility.yul\":563:613   */\n      swap1\n      pop\n        /* \"#utility.yul\":485:619   */\n      swap2\n      swap1\n      pop\n      jump\t// out\n        /* \"#utility.yul\":625:772   */\n    tag_52:\n        /* \"#utility.yul\":720:765   */\n      tag_73\n        /* \"#utility.yul\":759:764   */\n      dup2\n        /* \"#utility.yul\":720:765   */\n      tag_51\n      jump\t// in\n    tag_73:\n        /* \"#utility.yul\":715:718   */\n      dup3\n        /* \"#utility.yul\":708:766   */\n      mstore\n        /* \"#utility.yul\":625:772   */\n      pop\n      pop\n      jump\t// out\n        /* \"#utility.yul\":778:1016   */\n    tag_11:\n        /* \"#utility.yul\":879:883   */\n      0x00\n        /* \"#utility.yul\":917:919   */\n      0x20\n        /* \"#utility.yul\":906:915   */\n      dup3\n        /* \"#utility.yul\":902:920   */\n      add\n        /* \"#utility.yul\":894:920   */\n      swap1\n      pop\n        /* \"#utility.yul\":930:1009   */\n      tag_75\n        /* \"#utility.yul\":1006:1007   */\n      0x00\n        /* \"#utility.yul\":995:1004   */\n      dup4\n        /* \"#utility.yul\":991:1008   */\n      add\n        /* \"#utility.yul\":982:988   */\n      dup5\n        /* \"#utility.yul\":930:1009   */\n      tag_52\n      jump\t// in\n    tag_75:\n        /* \"#utility.yul\":778:1016   */\n      swap3\n      swap2\n      pop\n      pop\n      jump\t// out\n        /* \"#utility.yul\":1103:1220   */\n    tag_54:\n        /* \"#utility.yul\":1212:1213   */\n      0x00\n        /* \"#utility.yul\":1209:1210   */\n      dup1\n        /* \"#utility.yul\":1202:1214   */\n      revert\n        /* \"#utility.yul\":1349:1426   */\n    tag_56:\n        /* \"#utility.yul\":1386:1393   */\n      0x00\n        /* \"#utility.yul\":1415:1420   */\n      dup2\n        /* \"#utility.yul\":1404:1420   */\n      swap1\n      pop\n        /* \"#utility.yul\":1349:1426   */\n      swap2\n      swap1\n      pop\n      jump\t// out\n        /* \"#utility.yul\":1432:1554   */\n    tag_57:\n        /* \"#utility.yul\":1505:1529   */\n      tag_81\n        /* \"#utility.yul\":1523:1528   */\n      dup2\n        /* \"#utility.yul\":1505:1529   */\n      tag_56\n      jump\t// in\n    tag_81:\n        /* \"#utility.yul\":1498:1503   */\n      dup2\n        /* \"#utility.yul\":1495:1530   */\n      eq\n        /* \"#utility.yul\":1485:1548   */\n      tag_82\n      jumpi\n        /* \"#utility.yul\":1544:1545   */\n      0x00\n        /* \"#utility.yul\":1541:1542   */\n      dup1\n        /* \"#utility.yul\":1534:1546   */\n      revert\n        /* \"#utility.yul\":1485:1548   */\n    tag_82:\n        /* \"#utility.yul\":1432:1554   */\n      pop\n      jump\t// out\n        /* \"#utility.yul\":1560:1699   */\n    tag_58:\n        /* \"#utility.yul\":1606:1611   */\n      0x00\n        /* \"#utility.yul\":1644:1650   */\n      dup2\n        /* \"#utility.yul\":1631:1651   */\n      calldataload\n        /* \"#utility.yul\":1622:1651   */\n      swap1\n      pop\n        /* \"#utility.yul\":1660:1693   */\n      tag_84\n        /* \"#utility.yul\":1687:1692   */\n      dup2\n        /* \"#utility.yul\":1660:1693   */\n      tag_57\n      jump\t// in\n    tag_84:\n        /* \"#utility.yul\":1560:1699   */\n      swap3\n      swap2\n      pop\n      pop\n      jump\t// out\n        /* \"#utility.yul\":1705:2034   */\n    tag_16:\n        /* \"#utility.yul\":1764:1770   */\n      0x00\n        /* \"#utility.yul\":1813:1815   */\n      0x20\n        /* \"#utility.yul\":1801:1810   */\n      dup3\n        /* \"#utility.yul\":1792:1799   */\n      dup5\n        /* \"#utility.yul\":1788:1811   */\n      sub\n        /* \"#utility.yul\":1784:1816   */\n      slt\n        /* \"#utility.yul\":1781:1900   */\n      iszero\n      tag_86\n      jumpi\n        /* \"#utility.yul\":1819:1898   */\n      tag_87\n      tag_54\n      jump\t// in\n    tag_87:\n        /* \"#utility.yul\":1781:1900   */\n    tag_86:\n        /* \"#utility.yul\":1939:1940   */\n      0x00\n        /* \"#utility.yul\":1964:2017   */\n      tag_88\n        /* \"#utility.yul\":2009:2016   */\n      dup5\n        /* \"#utility.yul\":2000:2006   */\n      dup3\n        /* \"#utility.yul\":1989:1998   */\n      dup6\n        /* \"#utility.yul\":1985:2007   */\n      add\n        /* \"#utility.yul\":1964:2017   */\n      tag_58\n      jump\t// in\n    tag_88:\n        /* \"#utility.yul\":1954:2017   */\n      swap2\n      pop\n        /* \"#utility.yul\":1910:2027   */\n      pop\n        /* \"#utility.yul\":1705:2034   */\n      swap3\n      swap2\n      pop\n      pop\n      jump\t// out\n        /* \"#utility.yul\":2040:2158   */\n    tag_59:\n        /* \"#utility.yul\":2127:2151   */\n      tag_90\n        /* \"#utility.yul\":2145:2150   */\n      dup2\n        /* \"#utility.yul\":2127:2151   */\n      tag_56\n      jump\t// in\n    tag_90:\n        /* \"#utility.yul\":2122:2125   */\n      dup3\n        /* \"#utility.yul\":2115:2152   */\n      mstore\n        /* \"#utility.yul\":2040:2158   */\n      pop\n      pop\n      jump\t// out\n        /* \"#utility.yul\":2164:2386   */\n    tag_21:\n        /* \"#utility.yul\":2257:2261   */\n      0x00\n        /* \"#utility.yul\":2295:2297   */\n      0x20\n        /* \"#utility.yul\":2284:2293   */\n      dup3\n        /* \"#utility.yul\":2280:2298   */\n      add\n        /* \"#utility.yul\":2272:2298   */\n      swap1\n      pop\n        /* \"#utility.yul\":2308:2379   */\n      tag_92\n        /* \"#utility.yul\":2376:2377   */\n      0x00\n        /* \"#utility.yul\":2365:2374   */\n      dup4\n        /* \"#utility.yul\":2361:2378   */\n      add\n        /* \"#utility.yul\":2352:2358   */\n      dup5\n        /* \"#utility.yul\":2308:2379   */\n      tag_59\n      jump\t// in\n    tag_92:\n        /* \"#utility.yul\":2164:2386   */\n      swap3\n      swap2\n      pop\n      pop\n      jump\t// out\n        /* \"#utility.yul\":2392:2572   */\n    tag_31:\n        /* \"#utility.yul\":2440:2517   */\n      0x4e487b7100000000000000000000000000000000000000000000000000000000\n        /* \"#utility.yul\":2437:2438   */\n      0x00\n        /* \"#utility.yul\":2430:2518   */\n      mstore\n        /* \"#utility.yul\":2537:2541   */\n      0x32\n        /* \"#utility.yul\":2534:2535   */\n      0x04\n        /* \"#utility.yul\":2527:2542   */\n      mstore\n        /* \"#utility.yul\":2561:2565   */\n      0x24\n        /* \"#utility.yul\":2558:2559   */\n      0x00\n        /* \"#utility.yul\":2551:2566   */\n      revert\n        /* \"#utility.yul\":2578:2721   */\n    tag_60:\n        /* \"#utility.yul\":2635:2640   */\n      0x00\n        /* \"#utility.yul\":2666:2672   */\n      dup2\n        /* \"#utility.yul\":2660:2673   */\n      mload\n        /* \"#utility.yul\":2651:2673   */\n      swap1\n      pop\n        /* \"#utility.yul\":2682:2715   */\n      tag_95\n        /* \"#utility.yul\":2709:2714   */\n      dup2\n        /* \"#utility.yul\":2682:2715   */\n      tag_57\n      jump\t// in\n    tag_95:\n        /* \"#utility.yul\":2578:2721   */\n      swap3\n      swap2\n      pop\n      pop\n      jump\t// out\n        /* \"#utility.yul\":2727:3078   */\n    tag_44:\n        /* \"#utility.yul\":2797:2803   */\n      0x00\n        /* \"#utility.yul\":2846:2848   */\n      0x20\n        /* \"#utility.yul\":2834:2843   */\n      dup3\n        /* \"#utility.yul\":2825:2832   */\n      dup5\n        /* \"#utility.yul\":2821:2844   */\n      sub\n        /* \"#utility.yul\":2817:2849   */\n      slt\n        /* \"#utility.yul\":2814:2933   */\n      iszero\n      tag_97\n      jumpi\n        /* \"#utility.yul\":2852:2931   */\n      tag_98\n      tag_54\n      jump\t// in\n    tag_98:\n        /* \"#utility.yul\":2814:2933   */\n    tag_97:\n        /* \"#utility.yul\":2972:2973   */\n      0x00\n        /* \"#utility.yul\":2997:3061   */\n      tag_99\n        /* \"#utility.yul\":3053:3060   */\n      dup5\n        /* \"#utility.yul\":3044:3050   */\n      dup3\n        /* \"#utility.yul\":3033:3042   */\n      dup6\n        /* \"#utility.yul\":3029:3051   */\n      add\n        /* \"#utility.yul\":2997:3061   */\n      tag_60\n      jump\t// in\n    tag_99:\n        /* \"#utility.yul\":2987:3061   */\n      swap2\n      pop\n        /* \"#utility.yul\":2943:3071   */\n      pop\n        /* \"#utility.yul\":2727:3078   */\n      swap3\n      swap2\n      pop\n      pop\n      jump\t// out\n\n    auxdata: 0xa264697066735822122009f436f893724ce5bae3eb1d29a1b1a881d01887087ae47f1b5da167a8c7d6a664736f6c63430008120033\n}\n",
				"bytecode": {
					"linkReferences": {},
					"object": "60806040527393f8dddd876c7dbe3323723500e83e202a7c96cc600160006101000a81548173ffffffffffffffffffffffffffffffffffffffff021916908373ffffffffffffffffffffffffffffffffffffffff16021790555034801561006557600080fd5b5061050d806100756000396000f3fe608060405234801561001057600080fd5b50600436106100575760003560e01c80630dbe671f1461005c57806341af56ee1461007a57806368a0f1b9146100845780637154d5bf146100a0578063aefe46bf146100be575b600080fd5b6100646100ee565b60405161007191906103b9565b60405180910390f35b610082610114565b005b61009e6004803603810190610099919061040f565b61019b565b005b6100a8610247565b6040516100b5919061044b565b60405180910390f35b6100d860048036038101906100d3919061040f565b6102fb565b6040516100e591906103b9565b60405180910390f35b600160009054906101000a900473ffffffffffffffffffffffffffffffffffffffff1681565b6000600160009054906101000a900473ffffffffffffffffffffffffffffffffffffffff169080600181540180825580915050600190039060005260206000200160009091909190916101000a81548173ffffffffffffffffffffffffffffffffffffffff021916908373ffffffffffffffffffffffffffffffffffffffff160217905550565b600080815481106101af576101ae610466565b5b9060005260206000200160009054906101000a900473ffffffffffffffffffffffffffffffffffffffff1673ffffffffffffffffffffffffffffffffffffffff16633b7c9713826040518263ffffffff1660e01b8152600401610212919061044b565b600060405180830381600087803b15801561022c57600080fd5b505af1158015610240573d6000803e3d6000fd5b5050505050565b60008060008154811061025d5761025c610466565b5b9060005260206000200160009054906101000a900473ffffffffffffffffffffffffffffffffffffffff1673ffffffffffffffffffffffffffffffffffffffff16637e48e9fd6040518163ffffffff1660e01b8152600401602060405180830381865afa1580156102d2573d6000803e3d6000fd5b505050506040513d601f19601f820116820180604052508101906102f691906104aa565b905090565b6000818154811061030b57600080fd5b906000526020600020016000915054906101000a900473ffffffffffffffffffffffffffffffffffffffff1681565b600073ffffffffffffffffffffffffffffffffffffffff82169050919050565b6000819050919050565b600061037f61037a6103758461033a565b61035a565b61033a565b9050919050565b600061039182610364565b9050919050565b60006103a382610386565b9050919050565b6103b381610398565b82525050565b60006020820190506103ce60008301846103aa565b92915050565b600080fd5b6000819050919050565b6103ec816103d9565b81146103f757600080fd5b50565b600081359050610409816103e3565b92915050565b600060208284031215610425576104246103d4565b5b6000610433848285016103fa565b91505092915050565b610445816103d9565b82525050565b6000602082019050610460600083018461043c565b92915050565b7f4e487b7100000000000000000000000000000000000000000000000000000000600052603260045260246000fd5b6000815190506104a4816103e3565b92915050565b6000602082840312156104c0576104bf6103d4565b5b60006104ce84828501610495565b9150509291505056fea264697066735822122009f436f893724ce5bae3eb1d29a1b1a881d01887087ae47f1b5da167a8c7d6a664736f6c63430008120033",
					"opcodes": "PUSH1 0x80 PUSH1 0x40 MSTORE PUSH20 0x93F8DDDD876C7DBE3323723500E83E202A7C96CC PUSH1 0x1 PUSH1 0x0 PUSH2 0x100 EXP DUP2 SLOAD DUP2 PUSH20 0xFFFFFFFFFFFFFFFFFFFFFFFFFFFFFFFFFFFFFFFF MUL NOT AND SWAP1 DUP4 PUSH20 0xFFFFFFFFFFFFFFFFFFFFFFFFFFFFFFFFFFFFFFFF AND MUL OR SWAP1 SSTORE POP CALLVALUE DUP1 ISZERO PUSH2 0x65 JUMPI PUSH1 0x0 DUP1 REVERT JUMPDEST POP PUSH2 0x50D DUP1 PUSH2 0x75 PUSH1 0x0 CODECOPY PUSH1 0x0 RETURN INVALID PUSH1 0x80 PUSH1 0x40 MSTORE CALLVALUE DUP1 ISZERO PUSH2 0x10 JUMPI PUSH1 0x0 DUP1 REVERT JUMPDEST POP PUSH1 0x4 CALLDATASIZE LT PUSH2 0x57 JUMPI PUSH1 0x0 CALLDATALOAD PUSH1 0xE0 SHR DUP1 PUSH4 0xDBE671F EQ PUSH2 0x5C JUMPI DUP1 PUSH4 0x41AF56EE EQ PUSH2 0x7A JUMPI DUP1 PUSH4 0x68A0F1B9 EQ PUSH2 0x84 JUMPI DUP1 PUSH4 0x7154D5BF EQ PUSH2 0xA0 JUMPI DUP1 PUSH4 0xAEFE46BF EQ PUSH2 0xBE JUMPI JUMPDEST PUSH1 0x0 DUP1 REVERT JUMPDEST PUSH2 0x64 PUSH2 0xEE JUMP JUMPDEST PUSH1 0x40 MLOAD PUSH2 0x71 SWAP2 SWAP1 PUSH2 0x3B9 JUMP JUMPDEST PUSH1 0x40 MLOAD DUP1 SWAP2 SUB SWAP1 RETURN JUMPDEST PUSH2 0x82 PUSH2 0x114 JUMP JUMPDEST STOP JUMPDEST PUSH2 0x9E PUSH1 0x4 DUP1 CALLDATASIZE SUB DUP2 ADD SWAP1 PUSH2 0x99 SWAP2 SWAP1 PUSH2 0x40F JUMP JUMPDEST PUSH2 0x19B JUMP JUMPDEST STOP JUMPDEST PUSH2 0xA8 PUSH2 0x247 JUMP JUMPDEST PUSH1 0x40 MLOAD PUSH2 0xB5 SWAP2 SWAP1 PUSH2 0x44B JUMP JUMPDEST PUSH1 0x40 MLOAD DUP1 SWAP2 SUB SWAP1 RETURN JUMPDEST PUSH2 0xD8 PUSH1 0x4 DUP1 CALLDATASIZE SUB DUP2 ADD SWAP1 PUSH2 0xD3 SWAP2 SWAP1 PUSH2 0x40F JUMP JUMPDEST PUSH2 0x2FB JUMP JUMPDEST PUSH1 0x40 MLOAD PUSH2 0xE5 SWAP2 SWAP1 PUSH2 0x3B9 JUMP JUMPDEST PUSH1 0x40 MLOAD DUP1 SWAP2 SUB SWAP1 RETURN JUMPDEST PUSH1 0x1 PUSH1 0x0 SWAP1 SLOAD SWAP1 PUSH2 0x100 EXP SWAP1 DIV PUSH20 0xFFFFFFFFFFFFFFFFFFFFFFFFFFFFFFFFFFFFFFFF AND DUP2 JUMP JUMPDEST PUSH1 0x0 PUSH1 0x1 PUSH1 0x0 SWAP1 SLOAD SWAP1 PUSH2 0x100 EXP SWAP1 DIV PUSH20 0xFFFFFFFFFFFFFFFFFFFFFFFFFFFFFFFFFFFFFFFF AND SWAP1 DUP1 PUSH1 0x1 DUP2 SLOAD ADD DUP1 DUP3 SSTORE DUP1 SWAP2 POP POP PUSH1 0x1 SWAP1 SUB SWAP1 PUSH1 0x0 MSTORE PUSH1 0x20 PUSH1 0x0 KECCAK256 ADD PUSH1 0x0 SWAP1 SWAP2 SWAP1 SWAP2 SWAP1 SWAP2 PUSH2 0x100 EXP DUP2 SLOAD DUP2 PUSH20 0xFFFFFFFFFFFFFFFFFFFFFFFFFFFFFFFFFFFFFFFF MUL NOT AND SWAP1 DUP4 PUSH20 0xFFFFFFFFFFFFFFFFFFFFFFFFFFFFFFFFFFFFFFFF AND MUL OR SWAP1 SSTORE POP JUMP JUMPDEST PUSH1 0x0 DUP1 DUP2 SLOAD DUP2 LT PUSH2 0x1AF JUMPI PUSH2 0x1AE PUSH2 0x466 JUMP JUMPDEST JUMPDEST SWAP1 PUSH1 0x0 MSTORE PUSH1 0x20 PUSH1 0x0 KECCAK256 ADD PUSH1 0x0 SWAP1 SLOAD SWAP1 PUSH2 0x100 EXP SWAP1 DIV PUSH20 0xFFFFFFFFFFFFFFFFFFFFFFFFFFFFFFFFFFFFFFFF AND PUSH20 0xFFFFFFFFFFFFFFFFFFFFFFFFFFFFFFFFFFFFFFFF AND PUSH4 0x3B7C9713 DUP3 PUSH1 0x40 MLOAD DUP3 PUSH4 0xFFFFFFFF AND PUSH1 0xE0 SHL DUP2 MSTORE PUSH1 0x4 ADD PUSH2 0x212 SWAP2 SWAP1 PUSH2 0x44B JUMP JUMPDEST PUSH1 0x0 PUSH1 0x40 MLOAD DUP1 DUP4 SUB DUP2 PUSH1 0x0 DUP8 DUP1 EXTCODESIZE ISZERO DUP1 ISZERO PUSH2 0x22C JUMPI PUSH1 0x0 DUP1 REVERT JUMPDEST POP GAS CALL ISZERO DUP1 ISZERO PUSH2 0x240 JUMPI RETURNDATASIZE PUSH1 0x0 DUP1 RETURNDATACOPY RETURNDATASIZE PUSH1 0x0 REVERT JUMPDEST POP POP POP POP POP JUMP JUMPDEST PUSH1 0x0 DUP1 PUSH1 0x0 DUP2 SLOAD DUP2 LT PUSH2 0x25D JUMPI PUSH2 0x25C PUSH2 0x466 JUMP JUMPDEST JUMPDEST SWAP1 PUSH1 0x0 MSTORE PUSH1 0x20 PUSH1 0x0 KECCAK256 ADD PUSH1 0x0 SWAP1 SLOAD SWAP1 PUSH2 0x100 EXP SWAP1 DIV PUSH20 0xFFFFFFFFFFFFFFFFFFFFFFFFFFFFFFFFFFFFFFFF AND PUSH20 0xFFFFFFFFFFFFFFFFFFFFFFFFFFFFFFFFFFFFFFFF AND PUSH4 0x7E48E9FD PUSH1 0x40 MLOAD DUP2 PUSH4 0xFFFFFFFF AND PUSH1 0xE0 SHL DUP2 MSTORE PUSH1 0x4 ADD PUSH1 0x20 PUSH1 0x40 MLOAD DUP1 DUP4 SUB DUP2 DUP7 GAS STATICCALL ISZERO DUP1 ISZERO PUSH2 0x2D2 JUMPI RETURNDATASIZE PUSH1 0x0 DUP1 RETURNDATACOPY RETURNDATASIZE PUSH1 0x0 REVERT JUMPDEST POP POP POP POP PUSH1 0x40 MLOAD RETURNDATASIZE PUSH1 0x1F NOT PUSH1 0x1F DUP3 ADD AND DUP3 ADD DUP1 PUSH1 0x40 MSTORE POP DUP2 ADD SWAP1 PUSH2 0x2F6 SWAP2 SWAP1 PUSH2 0x4AA JUMP JUMPDEST SWAP1 POP SWAP1 JUMP JUMPDEST PUSH1 0x0 DUP2 DUP2 SLOAD DUP2 LT PUSH2 0x30B JUMPI PUSH1 0x0 DUP1 REVERT JUMPDEST SWAP1 PUSH1 0x0 MSTORE PUSH1 0x20 PUSH1 0x0 KECCAK256 ADD PUSH1 0x0 SWAP2 POP SLOAD SWAP1 PUSH2 0x100 EXP SWAP1 DIV PUSH20 0xFFFFFFFFFFFFFFFFFFFFFFFFFFFFFFFFFFFFFFFF AND DUP2 JUMP JUMPDEST PUSH1 0x0 PUSH20 0xFFFFFFFFFFFFFFFFFFFFFFFFFFFFFFFFFFFFFFFF DUP3 AND SWAP1 POP SWAP2 SWAP1 POP JUMP JUMPDEST PUSH1 0x0 DUP2 SWAP1 POP SWAP2 SWAP1 POP JUMP JUMPDEST PUSH1 0x0 PUSH2 0x37F PUSH2 0x37A PUSH2 0x375 DUP5 PUSH2 0x33A JUMP JUMPDEST PUSH2 0x35A JUMP JUMPDEST PUSH2 0x33A JUMP JUMPDEST SWAP1 POP SWAP2 SWAP1 POP JUMP JUMPDEST PUSH1 0x0 PUSH2 0x391 DUP3 PUSH2 0x364 JUMP JUMPDEST SWAP1 POP SWAP2 SWAP1 POP JUMP JUMPDEST PUSH1 0x0 PUSH2 0x3A3 DUP3 PUSH2 0x386 JUMP JUMPDEST SWAP1 POP SWAP2 SWAP1 POP JUMP JUMPDEST PUSH2 0x3B3 DUP2 PUSH2 0x398 JUMP JUMPDEST DUP3 MSTORE POP POP JUMP JUMPDEST PUSH1 0x0 PUSH1 0x20 DUP3 ADD SWAP1 POP PUSH2 0x3CE PUSH1 0x0 DUP4 ADD DUP5 PUSH2 0x3AA JUMP JUMPDEST SWAP3 SWAP2 POP POP JUMP JUMPDEST PUSH1 0x0 DUP1 REVERT JUMPDEST PUSH1 0x0 DUP2 SWAP1 POP SWAP2 SWAP1 POP JUMP JUMPDEST PUSH2 0x3EC DUP2 PUSH2 0x3D9 JUMP JUMPDEST DUP2 EQ PUSH2 0x3F7 JUMPI PUSH1 0x0 DUP1 REVERT JUMPDEST POP JUMP JUMPDEST PUSH1 0x0 DUP2 CALLDATALOAD SWAP1 POP PUSH2 0x409 DUP2 PUSH2 0x3E3 JUMP JUMPDEST SWAP3 SWAP2 POP POP JUMP JUMPDEST PUSH1 0x0 PUSH1 0x20 DUP3 DUP5 SUB SLT ISZERO PUSH2 0x425 JUMPI PUSH2 0x424 PUSH2 0x3D4 JUMP JUMPDEST JUMPDEST PUSH1 0x0 PUSH2 0x433 DUP5 DUP3 DUP6 ADD PUSH2 0x3FA JUMP JUMPDEST SWAP2 POP POP SWAP3 SWAP2 POP POP JUMP JUMPDEST PUSH2 0x445 DUP2 PUSH2 0x3D9 JUMP JUMPDEST DUP3 MSTORE POP POP JUMP JUMPDEST PUSH1 0x0 PUSH1 0x20 DUP3 ADD SWAP1 POP PUSH2 0x460 PUSH1 0x0 DUP4 ADD DUP5 PUSH2 0x43C JUMP JUMPDEST SWAP3 SWAP2 POP POP JUMP JUMPDEST PUSH32 0x4E487B7100000000000000000000000000000000000000000000000000000000 PUSH1 0x0 MSTORE PUSH1 0x32 PUSH1 0x4 MSTORE PUSH1 0x24 PUSH1 0x0 REVERT JUMPDEST PUSH1 0x0 DUP2 MLOAD SWAP1 POP PUSH2 0x4A4 DUP2 PUSH2 0x3E3 JUMP JUMPDEST SWAP3 SWAP2 POP POP JUMP JUMPDEST PUSH1 0x0 PUSH1 0x20 DUP3 DUP5 SUB SLT ISZERO PUSH2 0x4C0 JUMPI PUSH2 0x4BF PUSH2 0x3D4 JUMP JUMPDEST JUMPDEST PUSH1 0x0 PUSH2 0x4CE DUP5 DUP3 DUP6 ADD PUSH2 0x495 JUMP JUMPDEST SWAP2 POP POP SWAP3 SWAP2 POP POP JUMP INVALID LOG2 PUSH5 0x6970667358 0x22 SLT KECCAK256 MULMOD DELEGATECALL CALLDATASIZE 0xF8 SWAP4 PUSH19 0x4CE5BAE3EB1D29A1B1A881D01887087AE47F1B 0x5D LOG1 PUSH8 0xA8C7D6A664736F6C PUSH4 0x43000812 STOP CALLER "
				},
				"gasEstimates": {
					"creation": {
						"codeDepositCost": "258600",
						"executionCost": "24567",
						"totalCost": "283167"
					},
					"external": {
						"ReadAInfo()": "infinite",
						"UpdateAInfo(uint256)": "infinite",
						"a()": "infinite",
						"aArr(uint256)": "infinite",
						"pushArr()": "50859"
					}
				},
				"methodIdentifiers": {
					"ReadAInfo()": "7154d5bf",
					"UpdateAInfo(uint256)": "68a0f1b9",
					"a()": "0dbe671f",
					"aArr(uint256)": "aefe46bf",
					"pushArr()": "41af56ee"
				}
			},
			"storageLayout": {
				"storage": [
					{
						"astId": 29,
						"contract": "Barray.sol:B",
						"label": "aArr",
						"offset": 0,
						"slot": "0",
						"type": "t_array(t_contract(A)22)dyn_storage"
					},
					{
						"astId": 35,
						"contract": "Barray.sol:B",
						"label": "a",
						"offset": 0,
						"slot": "1",
						"type": "t_contract(A)22"
					}
				],
				"types": {
					"t_array(t_contract(A)22)dyn_storage": {
						"base": "t_contract(A)22",
						"encoding": "dynamic_array",
						"label": "contract A[]",
						"numberOfBytes": "32"
					},
					"t_contract(A)22": {
						"encoding": "inplace",
						"label": "contract A",
						"numberOfBytes": "20"
					}
				}
			},
			"userdoc": {
				"kind": "user",
				"methods": {},
				"version": 1
			}
		}
	}
}