{
	"data": {
		"bytecode": {
			"linkReferences": {},
			"object": "608060405234801561001057600080fd5b506104c6806100206000396000f3fe608060405234801561001057600080fd5b50600436106100625760003560e01c8063476e4aa4146100675780635df61201146100835780635e81b8d7146100a15780637d815d57146100bf578063a4ece52c146100db578063d5220cc9146100e5575b600080fd5b610081600480360381019061007c9190610298565b610101565b005b61008b61017e565b60405161009891906102d4565b60405180910390f35b6100a961018a565b6040516100b691906103ad565b60405180910390f35b6100d960048036038101906100d49190610298565b6101e2565b005b6100e3610207565b005b6100ff60048036038101906100fa9190610298565b610231565b005b6000600160008054905061011591906103fe565b8154811061012657610125610432565b5b90600052602060002001546000828154811061014557610144610432565b5b9060005260206000200181905550600080548061016557610164610461565b5b6001900381819060005260206000200160009055905550565b60008080549050905090565b606060008054806020026020016040519081016040528092919081815260200182805480156101d857602002820191906000526020600020905b8154815260200190600101908083116101c4575b5050505050905090565b600081815481106101f6576101f5610432565b5b906000526020600020016000905550565b600080548061021957610218610461565b5b60019003818190600052602060002001600090559055565b600081908060018154018082558091505060019003906000526020600020016000909190919091505550565b600080fd5b6000819050919050565b61027581610262565b811461028057600080fd5b50565b6000813590506102928161026c565b92915050565b6000602082840312156102ae576102ad61025d565b5b60006102bc84828501610283565b91505092915050565b6102ce81610262565b82525050565b60006020820190506102e960008301846102c5565b92915050565b600081519050919050565b600082825260208201905092915050565b6000819050602082019050919050565b61032481610262565b82525050565b6000610336838361031b565b60208301905092915050565b6000602082019050919050565b600061035a826102ef565b61036481856102fa565b935061036f8361030b565b8060005b838110156103a0578151610387888261032a565b975061039283610342565b925050600181019050610373565b5085935050505092915050565b600060208201905081810360008301526103c7818461034f565b905092915050565b7f4e487b7100000000000000000000000000000000000000000000000000000000600052601160045260246000fd5b600061040982610262565b915061041483610262565b925082820390508181111561042c5761042b6103cf565b5b92915050565b7f4e487b7100000000000000000000000000000000000000000000000000000000600052603260045260246000fd5b7f4e487b7100000000000000000000000000000000000000000000000000000000600052603160045260246000fdfea26469706673582212204746cb5a5b466bdf82e05220e0458be762b8020e557de4b8c623505826f487e864736f6c63430008120033",
			"opcodes": "PUSH1 0x80 PUSH1 0x40 MSTORE CALLVALUE DUP1 ISZERO PUSH2 0x10 JUMPI PUSH1 0x0 DUP1 REVERT JUMPDEST POP PUSH2 0x4C6 DUP1 PUSH2 0x20 PUSH1 0x0 CODECOPY PUSH1 0x0 RETURN INVALID PUSH1 0x80 PUSH1 0x40 MSTORE CALLVALUE DUP1 ISZERO PUSH2 0x10 JUMPI PUSH1 0x0 DUP1 REVERT JUMPDEST POP PUSH1 0x4 CALLDATASIZE LT PUSH2 0x62 JUMPI PUSH1 0x0 CALLDATALOAD PUSH1 0xE0 SHR DUP1 PUSH4 0x476E4AA4 EQ PUSH2 0x67 JUMPI DUP1 PUSH4 0x5DF61201 EQ PUSH2 0x83 JUMPI DUP1 PUSH4 0x5E81B8D7 EQ PUSH2 0xA1 JUMPI DUP1 PUSH4 0x7D815D57 EQ PUSH2 0xBF JUMPI DUP1 PUSH4 0xA4ECE52C EQ PUSH2 0xDB JUMPI DUP1 PUSH4 0xD5220CC9 EQ PUSH2 0xE5 JUMPI JUMPDEST PUSH1 0x0 DUP1 REVERT JUMPDEST PUSH2 0x81 PUSH1 0x4 DUP1 CALLDATASIZE SUB DUP2 ADD SWAP1 PUSH2 0x7C SWAP2 SWAP1 PUSH2 0x298 JUMP JUMPDEST PUSH2 0x101 JUMP JUMPDEST STOP JUMPDEST PUSH2 0x8B PUSH2 0x17E JUMP JUMPDEST PUSH1 0x40 MLOAD PUSH2 0x98 SWAP2 SWAP1 PUSH2 0x2D4 JUMP JUMPDEST PUSH1 0x40 MLOAD DUP1 SWAP2 SUB SWAP1 RETURN JUMPDEST PUSH2 0xA9 PUSH2 0x18A JUMP JUMPDEST PUSH1 0x40 MLOAD PUSH2 0xB6 SWAP2 SWAP1 PUSH2 0x3AD JUMP JUMPDEST PUSH1 0x40 MLOAD DUP1 SWAP2 SUB SWAP1 RETURN JUMPDEST PUSH2 0xD9 PUSH1 0x4 DUP1 CALLDATASIZE SUB DUP2 ADD SWAP1 PUSH2 0xD4 SWAP2 SWAP1 PUSH2 0x298 JUMP JUMPDEST PUSH2 0x1E2 JUMP JUMPDEST STOP JUMPDEST PUSH2 0xE3 PUSH2 0x207 JUMP JUMPDEST STOP JUMPDEST PUSH2 0xFF PUSH1 0x4 DUP1 CALLDATASIZE SUB DUP2 ADD SWAP1 PUSH2 0xFA SWAP2 SWAP1 PUSH2 0x298 JUMP JUMPDEST PUSH2 0x231 JUMP JUMPDEST STOP JUMPDEST PUSH1 0x0 PUSH1 0x1 PUSH1 0x0 DUP1 SLOAD SWAP1 POP PUSH2 0x115 SWAP2 SWAP1 PUSH2 0x3FE JUMP JUMPDEST DUP2 SLOAD DUP2 LT PUSH2 0x126 JUMPI PUSH2 0x125 PUSH2 0x432 JUMP JUMPDEST JUMPDEST SWAP1 PUSH1 0x0 MSTORE PUSH1 0x20 PUSH1 0x0 KECCAK256 ADD SLOAD PUSH1 0x0 DUP3 DUP2 SLOAD DUP2 LT PUSH2 0x145 JUMPI PUSH2 0x144 PUSH2 0x432 JUMP JUMPDEST JUMPDEST SWAP1 PUSH1 0x0 MSTORE PUSH1 0x20 PUSH1 0x0 KECCAK256 ADD DUP2 SWAP1 SSTORE POP PUSH1 0x0 DUP1 SLOAD DUP1 PUSH2 0x165 JUMPI PUSH2 0x164 PUSH2 0x461 JUMP JUMPDEST JUMPDEST PUSH1 0x1 SWAP1 SUB DUP2 DUP2 SWAP1 PUSH1 0x0 MSTORE PUSH1 0x20 PUSH1 0x0 KECCAK256 ADD PUSH1 0x0 SWAP1 SSTORE SWAP1 SSTORE POP JUMP JUMPDEST PUSH1 0x0 DUP1 DUP1 SLOAD SWAP1 POP SWAP1 POP SWAP1 JUMP JUMPDEST PUSH1 0x60 PUSH1 0x0 DUP1 SLOAD DUP1 PUSH1 0x20 MUL PUSH1 0x20 ADD PUSH1 0x40 MLOAD SWAP1 DUP2 ADD PUSH1 0x40 MSTORE DUP1 SWAP3 SWAP2 SWAP1 DUP2 DUP2 MSTORE PUSH1 0x20 ADD DUP3 DUP1 SLOAD DUP1 ISZERO PUSH2 0x1D8 JUMPI PUSH1 0x20 MUL DUP3 ADD SWAP2 SWAP1 PUSH1 0x0 MSTORE PUSH1 0x20 PUSH1 0x0 KECCAK256 SWAP1 JUMPDEST DUP2 SLOAD DUP2 MSTORE PUSH1 0x20 ADD SWAP1 PUSH1 0x1 ADD SWAP1 DUP1 DUP4 GT PUSH2 0x1C4 JUMPI JUMPDEST POP POP POP POP POP SWAP1 POP SWAP1 JUMP JUMPDEST PUSH1 0x0 DUP2 DUP2 SLOAD DUP2 LT PUSH2 0x1F6 JUMPI PUSH2 0x1F5 PUSH2 0x432 JUMP JUMPDEST JUMPDEST SWAP1 PUSH1 0x0 MSTORE PUSH1 0x20 PUSH1 0x0 KECCAK256 ADD PUSH1 0x0 SWAP1 SSTORE POP JUMP JUMPDEST PUSH1 0x0 DUP1 SLOAD DUP1 PUSH2 0x219 JUMPI PUSH2 0x218 PUSH2 0x461 JUMP JUMPDEST JUMPDEST PUSH1 0x1 SWAP1 SUB DUP2 DUP2 SWAP1 PUSH1 0x0 MSTORE PUSH1 0x20 PUSH1 0x0 KECCAK256 ADD PUSH1 0x0 SWAP1 SSTORE SWAP1 SSTORE JUMP JUMPDEST PUSH1 0x0 DUP2 SWAP1 DUP1 PUSH1 0x1 DUP2 SLOAD ADD DUP1 DUP3 SSTORE DUP1 SWAP2 POP POP PUSH1 0x1 SWAP1 SUB SWAP1 PUSH1 0x0 MSTORE PUSH1 0x20 PUSH1 0x0 KECCAK256 ADD PUSH1 0x0 SWAP1 SWAP2 SWAP1 SWAP2 SWAP1 SWAP2 POP SSTORE POP JUMP JUMPDEST PUSH1 0x0 DUP1 REVERT JUMPDEST PUSH1 0x0 DUP2 SWAP1 POP SWAP2 SWAP1 POP JUMP JUMPDEST PUSH2 0x275 DUP2 PUSH2 0x262 JUMP JUMPDEST DUP2 EQ PUSH2 0x280 JUMPI PUSH1 0x0 DUP1 REVERT JUMPDEST POP JUMP JUMPDEST PUSH1 0x0 DUP2 CALLDATALOAD SWAP1 POP PUSH2 0x292 DUP2 PUSH2 0x26C JUMP JUMPDEST SWAP3 SWAP2 POP POP JUMP JUMPDEST PUSH1 0x0 PUSH1 0x20 DUP3 DUP5 SUB SLT ISZERO PUSH2 0x2AE JUMPI PUSH2 0x2AD PUSH2 0x25D JUMP JUMPDEST JUMPDEST PUSH1 0x0 PUSH2 0x2BC DUP5 DUP3 DUP6 ADD PUSH2 0x283 JUMP JUMPDEST SWAP2 POP POP SWAP3 SWAP2 POP POP JUMP JUMPDEST PUSH2 0x2CE DUP2 PUSH2 0x262 JUMP JUMPDEST DUP3 MSTORE POP POP JUMP JUMPDEST PUSH1 0x0 PUSH1 0x20 DUP3 ADD SWAP1 POP PUSH2 0x2E9 PUSH1 0x0 DUP4 ADD DUP5 PUSH2 0x2C5 JUMP JUMPDEST SWAP3 SWAP2 POP POP JUMP JUMPDEST PUSH1 0x0 DUP2 MLOAD SWAP1 POP SWAP2 SWAP1 POP JUMP JUMPDEST PUSH1 0x0 DUP3 DUP3 MSTORE PUSH1 0x20 DUP3 ADD SWAP1 POP SWAP3 SWAP2 POP POP JUMP JUMPDEST PUSH1 0x0 DUP2 SWAP1 POP PUSH1 0x20 DUP3 ADD SWAP1 POP SWAP2 SWAP1 POP JUMP JUMPDEST PUSH2 0x324 DUP2 PUSH2 0x262 JUMP JUMPDEST DUP3 MSTORE POP POP JUMP JUMPDEST PUSH1 0x0 PUSH2 0x336 DUP4 DUP4 PUSH2 0x31B JUMP JUMPDEST PUSH1 0x20 DUP4 ADD SWAP1 POP SWAP3 SWAP2 POP POP JUMP JUMPDEST PUSH1 0x0 PUSH1 0x20 DUP3 ADD SWAP1 POP SWAP2 SWAP1 POP JUMP JUMPDEST PUSH1 0x0 PUSH2 0x35A DUP3 PUSH2 0x2EF JUMP JUMPDEST PUSH2 0x364 DUP2 DUP6 PUSH2 0x2FA JUMP JUMPDEST SWAP4 POP PUSH2 0x36F DUP4 PUSH2 0x30B JUMP JUMPDEST DUP1 PUSH1 0x0 JUMPDEST DUP4 DUP2 LT ISZERO PUSH2 0x3A0 JUMPI DUP2 MLOAD PUSH2 0x387 DUP9 DUP3 PUSH2 0x32A JUMP JUMPDEST SWAP8 POP PUSH2 0x392 DUP4 PUSH2 0x342 JUMP JUMPDEST SWAP3 POP POP PUSH1 0x1 DUP2 ADD SWAP1 POP PUSH2 0x373 JUMP JUMPDEST POP DUP6 SWAP4 POP POP POP POP SWAP3 SWAP2 POP POP JUMP JUMPDEST PUSH1 0x0 PUSH1 0x20 DUP3 ADD SWAP1 POP DUP2 DUP2 SUB PUSH1 0x0 DUP4 ADD MSTORE PUSH2 0x3C7 DUP2 DUP5 PUSH2 0x34F JUMP JUMPDEST SWAP1 POP SWAP3 SWAP2 POP POP JUMP JUMPDEST PUSH32 0x4E487B7100000000000000000000000000000000000000000000000000000000 PUSH1 0x0 MSTORE PUSH1 0x11 PUSH1 0x4 MSTORE PUSH1 0x24 PUSH1 0x0 REVERT JUMPDEST PUSH1 0x0 PUSH2 0x409 DUP3 PUSH2 0x262 JUMP JUMPDEST SWAP2 POP PUSH2 0x414 DUP4 PUSH2 0x262 JUMP JUMPDEST SWAP3 POP DUP3 DUP3 SUB SWAP1 POP DUP2 DUP2 GT ISZERO PUSH2 0x42C JUMPI PUSH2 0x42B PUSH2 0x3CF JUMP JUMPDEST JUMPDEST SWAP3 SWAP2 POP POP JUMP JUMPDEST PUSH32 0x4E487B7100000000000000000000000000000000000000000000000000000000 PUSH1 0x0 MSTORE PUSH1 0x32 PUSH1 0x4 MSTORE PUSH1 0x24 PUSH1 0x0 REVERT JUMPDEST PUSH32 0x4E487B7100000000000000000000000000000000000000000000000000000000 PUSH1 0x0 MSTORE PUSH1 0x31 PUSH1 0x4 MSTORE PUSH1 0x24 PUSH1 0x0 REVERT INVALID LOG2 PUSH5 0x6970667358 0x22 SLT KECCAK256 SELFBALANCE CHAINID 0xCB GAS JUMPDEST CHAINID PUSH12 0xDF82E05220E0458BE762B802 0xE SSTORE PUSH30 0xE4B8C623505826F487E864736F6C63430008120033000000000000000000 "
		},
		"gasEstimates": {
			"creation": {
				"codeDepositCost": "244400",
				"executionCost": "287",
				"totalCost": "244687"
			},
			"external": {
				"Delete(uint256)": "7639",
				"Push(uint256)": "46917",
				"Remove(uint256)": "infinite",
				"ReturnArray()": "infinite",
				"arrayLen()": "2445",
				"pop()": "29511"
			}
		},
		"methodIdentifiers": {
			"Delete(uint256)": "7d815d57",
			"Push(uint256)": "d5220cc9",
			"Remove(uint256)": "476e4aa4",
			"ReturnArray()": "5e81b8d7",
			"arrayLen()": "5df61201",
			"pop()": "a4ece52c"
		}
	},
	"abi": [
		{
			"inputs": [
				{
					"internalType": "uint256",
					"name": "_index",
					"type": "uint256"
				}
			],
			"name": "Delete",
			"outputs": [],
			"stateMutability": "nonpayable",
			"type": "function"
		},
		{
			"inputs": [
				{
					"internalType": "uint256",
					"name": "_num",
					"type": "uint256"
				}
			],
			"name": "Push",
			"outputs": [],
			"stateMutability": "nonpayable",
			"type": "function"
		},
		{
			"inputs": [
				{
					"internalType": "uint256",
					"name": "_index",
					"type": "uint256"
				}
			],
			"name": "Remove",
			"outputs": [],
			"stateMutability": "nonpayable",
			"type": "function"
		},
		{
			"inputs": [],
			"name": "ReturnArray",
			"outputs": [
				{
					"internalType": "uint256[]",
					"name": "",
					"type": "uint256[]"
				}
			],
			"stateMutability": "view",
			"type": "function"
		},
		{
			"inputs": [],
			"name": "arrayLen",
			"outputs": [
				{
					"internalType": "uint256",
					"name": "",
					"type": "uint256"
				}
			],
			"stateMutability": "view",
			"type": "function"
		},
		{
			"inputs": [],
			"name": "pop",
			"outputs": [],
			"stateMutability": "nonpayable",
			"type": "function"
		}
	]
}