{
	"data": {
		"bytecode": {
			"linkReferences": {},
			"object": "60806040526005600055600660015534801561001a57600080fd5b506101fc8061002a6000396000f3fe608060405234801561001057600080fd5b50600436106100625760003560e01c80636cb2ba67146100675780636eff532e14610085578063b2f76c69146100a3578063f4809a28146100c1578063f55a8bed146100df578063f7db3c13146100fd575b600080fd5b61006f61011b565b60405161007c91906101ab565b60405180910390f35b61008d61012e565b60405161009a91906101ab565b60405180910390f35b6100ab610142565b6040516100b891906101ab565b60405180910390f35b6100c9610156565b6040516100d691906101ab565b60405180910390f35b6100e7610169565b6040516100f491906101ab565b60405180910390f35b61010561017d565b60405161011291906101ab565b60405180910390f35b6000806001546000541090508091505090565b600080600154600054111590508091505090565b600080600154600054141590508091505090565b6000806001546000541190508091505090565b600080600154600054101590508091505090565b6000806001546000541490508091505090565b60008115159050919050565b6101a581610190565b82525050565b60006020820190506101c0600083018461019c565b9291505056fea2646970667358221220a245e6c81a3390f0dbb3e70c518c306aed9d02e5958501eb5d8143fbbe58b2ee64736f6c63430008120033",
			"opcodes": "PUSH1 0x80 PUSH1 0x40 MSTORE PUSH1 0x5 PUSH1 0x0 SSTORE PUSH1 0x6 PUSH1 0x1 SSTORE CALLVALUE DUP1 ISZERO PUSH2 0x1A JUMPI PUSH1 0x0 DUP1 REVERT JUMPDEST POP PUSH2 0x1FC DUP1 PUSH2 0x2A PUSH1 0x0 CODECOPY PUSH1 0x0 RETURN INVALID PUSH1 0x80 PUSH1 0x40 MSTORE CALLVALUE DUP1 ISZERO PUSH2 0x10 JUMPI PUSH1 0x0 DUP1 REVERT JUMPDEST POP PUSH1 0x4 CALLDATASIZE LT PUSH2 0x62 JUMPI PUSH1 0x0 CALLDATALOAD PUSH1 0xE0 SHR DUP1 PUSH4 0x6CB2BA67 EQ PUSH2 0x67 JUMPI DUP1 PUSH4 0x6EFF532E EQ PUSH2 0x85 JUMPI DUP1 PUSH4 0xB2F76C69 EQ PUSH2 0xA3 JUMPI DUP1 PUSH4 0xF4809A28 EQ PUSH2 0xC1 JUMPI DUP1 PUSH4 0xF55A8BED EQ PUSH2 0xDF JUMPI DUP1 PUSH4 0xF7DB3C13 EQ PUSH2 0xFD JUMPI JUMPDEST PUSH1 0x0 DUP1 REVERT JUMPDEST PUSH2 0x6F PUSH2 0x11B JUMP JUMPDEST PUSH1 0x40 MLOAD PUSH2 0x7C SWAP2 SWAP1 PUSH2 0x1AB JUMP JUMPDEST PUSH1 0x40 MLOAD DUP1 SWAP2 SUB SWAP1 RETURN JUMPDEST PUSH2 0x8D PUSH2 0x12E JUMP JUMPDEST PUSH1 0x40 MLOAD PUSH2 0x9A SWAP2 SWAP1 PUSH2 0x1AB JUMP JUMPDEST PUSH1 0x40 MLOAD DUP1 SWAP2 SUB SWAP1 RETURN JUMPDEST PUSH2 0xAB PUSH2 0x142 JUMP JUMPDEST PUSH1 0x40 MLOAD PUSH2 0xB8 SWAP2 SWAP1 PUSH2 0x1AB JUMP JUMPDEST PUSH1 0x40 MLOAD DUP1 SWAP2 SUB SWAP1 RETURN JUMPDEST PUSH2 0xC9 PUSH2 0x156 JUMP JUMPDEST PUSH1 0x40 MLOAD PUSH2 0xD6 SWAP2 SWAP1 PUSH2 0x1AB JUMP JUMPDEST PUSH1 0x40 MLOAD DUP1 SWAP2 SUB SWAP1 RETURN JUMPDEST PUSH2 0xE7 PUSH2 0x169 JUMP JUMPDEST PUSH1 0x40 MLOAD PUSH2 0xF4 SWAP2 SWAP1 PUSH2 0x1AB JUMP JUMPDEST PUSH1 0x40 MLOAD DUP1 SWAP2 SUB SWAP1 RETURN JUMPDEST PUSH2 0x105 PUSH2 0x17D JUMP JUMPDEST PUSH1 0x40 MLOAD PUSH2 0x112 SWAP2 SWAP1 PUSH2 0x1AB JUMP JUMPDEST PUSH1 0x40 MLOAD DUP1 SWAP2 SUB SWAP1 RETURN JUMPDEST PUSH1 0x0 DUP1 PUSH1 0x1 SLOAD PUSH1 0x0 SLOAD LT SWAP1 POP DUP1 SWAP2 POP POP SWAP1 JUMP JUMPDEST PUSH1 0x0 DUP1 PUSH1 0x1 SLOAD PUSH1 0x0 SLOAD GT ISZERO SWAP1 POP DUP1 SWAP2 POP POP SWAP1 JUMP JUMPDEST PUSH1 0x0 DUP1 PUSH1 0x1 SLOAD PUSH1 0x0 SLOAD EQ ISZERO SWAP1 POP DUP1 SWAP2 POP POP SWAP1 JUMP JUMPDEST PUSH1 0x0 DUP1 PUSH1 0x1 SLOAD PUSH1 0x0 SLOAD GT SWAP1 POP DUP1 SWAP2 POP POP SWAP1 JUMP JUMPDEST PUSH1 0x0 DUP1 PUSH1 0x1 SLOAD PUSH1 0x0 SLOAD LT ISZERO SWAP1 POP DUP1 SWAP2 POP POP SWAP1 JUMP JUMPDEST PUSH1 0x0 DUP1 PUSH1 0x1 SLOAD PUSH1 0x0 SLOAD EQ SWAP1 POP DUP1 SWAP2 POP POP SWAP1 JUMP JUMPDEST PUSH1 0x0 DUP2 ISZERO ISZERO SWAP1 POP SWAP2 SWAP1 POP JUMP JUMPDEST PUSH2 0x1A5 DUP2 PUSH2 0x190 JUMP JUMPDEST DUP3 MSTORE POP POP JUMP JUMPDEST PUSH1 0x0 PUSH1 0x20 DUP3 ADD SWAP1 POP PUSH2 0x1C0 PUSH1 0x0 DUP4 ADD DUP5 PUSH2 0x19C JUMP JUMPDEST SWAP3 SWAP2 POP POP JUMP INVALID LOG2 PUSH5 0x6970667358 0x22 SLT KECCAK256 LOG2 GASLIMIT 0xE6 0xC8 BYTE CALLER SWAP1 CREATE 0xDB 0xB3 0xE7 0xC MLOAD DUP13 ADDRESS PUSH11 0xED9D02E5958501EB5D8143 0xFB 0xBE PC 0xB2 0xEE PUSH5 0x736F6C6343 STOP ADDMOD SLT STOP CALLER "
		},
		"gasEstimates": {
			"creation": {
				"codeDepositCost": "101600",
				"executionCost": "44359",
				"totalCost": "145959"
			},
			"external": {
				"greaterthan()": "4606",
				"greaterthanorequalto()": "4631",
				"isequalto()": "4650",
				"lessthan()": "4540",
				"lessthanorequalto()": "4565",
				"notequalto()": "4587"
			}
		},
		"methodIdentifiers": {
			"greaterthan()": "f4809a28",
			"greaterthanorequalto()": "f55a8bed",
			"isequalto()": "f7db3c13",
			"lessthan()": "6cb2ba67",
			"lessthanorequalto()": "6eff532e",
			"notequalto()": "b2f76c69"
		}
	},
	"abi": [
		{
			"inputs": [],
			"name": "greaterthan",
			"outputs": [
				{
					"internalType": "bool",
					"name": "",
					"type": "bool"
				}
			],
			"stateMutability": "view",
			"type": "function"
		},
		{
			"inputs": [],
			"name": "greaterthanorequalto",
			"outputs": [
				{
					"internalType": "bool",
					"name": "",
					"type": "bool"
				}
			],
			"stateMutability": "view",
			"type": "function"
		},
		{
			"inputs": [],
			"name": "isequalto",
			"outputs": [
				{
					"internalType": "bool",
					"name": "",
					"type": "bool"
				}
			],
			"stateMutability": "view",
			"type": "function"
		},
		{
			"inputs": [],
			"name": "lessthan",
			"outputs": [
				{
					"internalType": "bool",
					"name": "",
					"type": "bool"
				}
			],
			"stateMutability": "view",
			"type": "function"
		},
		{
			"inputs": [],
			"name": "lessthanorequalto",
			"outputs": [
				{
					"internalType": "bool",
					"name": "",
					"type": "bool"
				}
			],
			"stateMutability": "view",
			"type": "function"
		},
		{
			"inputs": [],
			"name": "notequalto",
			"outputs": [
				{
					"internalType": "bool",
					"name": "",
					"type": "bool"
				}
			],
			"stateMutability": "view",
			"type": "function"
		}
	]
}