{
	"data": {
		"bytecode": {
			"linkReferences": {},
			"object": "608060405234801561001057600080fd5b506107ea806100206000396000f3fe608060405234801561001057600080fd5b50600436106100415760003560e01c80636f0c8a7a1461004657806377ec2b5514610064578063c8218e5414610083575b600080fd5b61004e61009f565b60405161005b919061029a565b60405180910390f35b61006c610133565b60405161007a9291906102d5565b60405180910390f35b61009d6004803603810190610098919061047a565b6101cd565b005b60606000800180546100b090610505565b80601f01602080910402602001604051908101604052809291908181526020018280546100dc90610505565b80156101295780601f106100fe57610100808354040283529160200191610129565b820191906000526020600020905b81548152906001019060200180831161010c57829003601f168201915b5050505050905090565b600080600001805461014490610505565b80601f016020809104026020016040519081016040528092919081815260200182805461017090610505565b80156101bd5780601f10610192576101008083540402835291602001916101bd565b820191906000526020600020905b8154815290600101906020018083116101a057829003601f168201915b5050505050908060010154905082565b6040518060400160405280838152602001828152506000808201518160000190816101f891906106e2565b50602082015181600101559050505050565b600081519050919050565b600082825260208201905092915050565b60005b83811015610244578082015181840152602081019050610229565b60008484015250505050565b6000601f19601f8301169050919050565b600061026c8261020a565b6102768185610215565b9350610286818560208601610226565b61028f81610250565b840191505092915050565b600060208201905081810360008301526102b48184610261565b905092915050565b6000819050919050565b6102cf816102bc565b82525050565b600060408201905081810360008301526102ef8185610261565b90506102fe60208301846102c6565b9392505050565b6000604051905090565b600080fd5b600080fd5b600080fd5b600080fd5b7f4e487b7100000000000000000000000000000000000000000000000000000000600052604160045260246000fd5b61035b82610250565b810181811067ffffffffffffffff8211171561037a57610379610323565b5b80604052505050565b600061038d610305565b90506103998282610352565b919050565b600067ffffffffffffffff8211156103b9576103b8610323565b5b6103c282610250565b9050602081019050919050565b82818337600083830152505050565b60006103f16103ec8461039e565b610383565b90508281526020810184848401111561040d5761040c61031e565b5b6104188482856103cf565b509392505050565b600082601f83011261043557610434610319565b5b81356104458482602086016103de565b91505092915050565b610457816102bc565b811461046257600080fd5b50565b6000813590506104748161044e565b92915050565b600080604083850312156104915761049061030f565b5b600083013567ffffffffffffffff8111156104af576104ae610314565b5b6104bb85828601610420565b92505060206104cc85828601610465565b9150509250929050565b7f4e487b7100000000000000000000000000000000000000000000000000000000600052602260045260246000fd5b6000600282049050600182168061051d57607f821691505b6020821081036105305761052f6104d6565b5b50919050565b60008190508160005260206000209050919050565b60006020601f8301049050919050565b600082821b905092915050565b6000600883026105987fffffffffffffffffffffffffffffffffffffffffffffffffffffffffffffffff8261055b565b6105a2868361055b565b95508019841693508086168417925050509392505050565b6000819050919050565b60006105df6105da6105d5846102bc565b6105ba565b6102bc565b9050919050565b6000819050919050565b6105f9836105c4565b61060d610605826105e6565b848454610568565b825550505050565b600090565b610622610615565b61062d8184846105f0565b505050565b5b818110156106515761064660008261061a565b600181019050610633565b5050565b601f8211156106965761066781610536565b6106708461054b565b8101602085101561067f578190505b61069361068b8561054b565b830182610632565b50505b505050565b600082821c905092915050565b60006106b96000198460080261069b565b1980831691505092915050565b60006106d283836106a8565b9150826002028217905092915050565b6106eb8261020a565b67ffffffffffffffff81111561070457610703610323565b5b61070e8254610505565b610719828285610655565b600060209050601f83116001811461074c576000841561073a578287015190505b61074485826106c6565b8655506107ac565b601f19841661075a86610536565b60005b828110156107825784890151825560018201915060208501945060208101905061075d565b8683101561079f578489015161079b601f8916826106a8565b8355505b6001600288020188555050505b50505050505056fea2646970667358221220d409f0e8ae23797a859bdf6d4327287cb084cfe41ed7f73748b3d0c8bd335a2464736f6c63430008120033",
			"opcodes": "PUSH1 0x80 PUSH1 0x40 MSTORE CALLVALUE DUP1 ISZERO PUSH2 0x10 JUMPI PUSH1 0x0 DUP1 REVERT JUMPDEST POP PUSH2 0x7EA DUP1 PUSH2 0x20 PUSH1 0x0 CODECOPY PUSH1 0x0 RETURN INVALID PUSH1 0x80 PUSH1 0x40 MSTORE CALLVALUE DUP1 ISZERO PUSH2 0x10 JUMPI PUSH1 0x0 DUP1 REVERT JUMPDEST POP PUSH1 0x4 CALLDATASIZE LT PUSH2 0x41 JUMPI PUSH1 0x0 CALLDATALOAD PUSH1 0xE0 SHR DUP1 PUSH4 0x6F0C8A7A EQ PUSH2 0x46 JUMPI DUP1 PUSH4 0x77EC2B55 EQ PUSH2 0x64 JUMPI DUP1 PUSH4 0xC8218E54 EQ PUSH2 0x83 JUMPI JUMPDEST PUSH1 0x0 DUP1 REVERT JUMPDEST PUSH2 0x4E PUSH2 0x9F JUMP JUMPDEST PUSH1 0x40 MLOAD PUSH2 0x5B SWAP2 SWAP1 PUSH2 0x29A JUMP JUMPDEST PUSH1 0x40 MLOAD DUP1 SWAP2 SUB SWAP1 RETURN JUMPDEST PUSH2 0x6C PUSH2 0x133 JUMP JUMPDEST PUSH1 0x40 MLOAD PUSH2 0x7A SWAP3 SWAP2 SWAP1 PUSH2 0x2D5 JUMP JUMPDEST PUSH1 0x40 MLOAD DUP1 SWAP2 SUB SWAP1 RETURN JUMPDEST PUSH2 0x9D PUSH1 0x4 DUP1 CALLDATASIZE SUB DUP2 ADD SWAP1 PUSH2 0x98 SWAP2 SWAP1 PUSH2 0x47A JUMP JUMPDEST PUSH2 0x1CD JUMP JUMPDEST STOP JUMPDEST PUSH1 0x60 PUSH1 0x0 DUP1 ADD DUP1 SLOAD PUSH2 0xB0 SWAP1 PUSH2 0x505 JUMP JUMPDEST DUP1 PUSH1 0x1F ADD PUSH1 0x20 DUP1 SWAP2 DIV MUL PUSH1 0x20 ADD PUSH1 0x40 MLOAD SWAP1 DUP2 ADD PUSH1 0x40 MSTORE DUP1 SWAP3 SWAP2 SWAP1 DUP2 DUP2 MSTORE PUSH1 0x20 ADD DUP3 DUP1 SLOAD PUSH2 0xDC SWAP1 PUSH2 0x505 JUMP JUMPDEST DUP1 ISZERO PUSH2 0x129 JUMPI DUP1 PUSH1 0x1F LT PUSH2 0xFE JUMPI PUSH2 0x100 DUP1 DUP4 SLOAD DIV MUL DUP4 MSTORE SWAP2 PUSH1 0x20 ADD SWAP2 PUSH2 0x129 JUMP JUMPDEST DUP3 ADD SWAP2 SWAP1 PUSH1 0x0 MSTORE PUSH1 0x20 PUSH1 0x0 KECCAK256 SWAP1 JUMPDEST DUP2 SLOAD DUP2 MSTORE SWAP1 PUSH1 0x1 ADD SWAP1 PUSH1 0x20 ADD DUP1 DUP4 GT PUSH2 0x10C JUMPI DUP3 SWAP1 SUB PUSH1 0x1F AND DUP3 ADD SWAP2 JUMPDEST POP POP POP POP POP SWAP1 POP SWAP1 JUMP JUMPDEST PUSH1 0x0 DUP1 PUSH1 0x0 ADD DUP1 SLOAD PUSH2 0x144 SWAP1 PUSH2 0x505 JUMP JUMPDEST DUP1 PUSH1 0x1F ADD PUSH1 0x20 DUP1 SWAP2 DIV MUL PUSH1 0x20 ADD PUSH1 0x40 MLOAD SWAP1 DUP2 ADD PUSH1 0x40 MSTORE DUP1 SWAP3 SWAP2 SWAP1 DUP2 DUP2 MSTORE PUSH1 0x20 ADD DUP3 DUP1 SLOAD PUSH2 0x170 SWAP1 PUSH2 0x505 JUMP JUMPDEST DUP1 ISZERO PUSH2 0x1BD JUMPI DUP1 PUSH1 0x1F LT PUSH2 0x192 JUMPI PUSH2 0x100 DUP1 DUP4 SLOAD DIV MUL DUP4 MSTORE SWAP2 PUSH1 0x20 ADD SWAP2 PUSH2 0x1BD JUMP JUMPDEST DUP3 ADD SWAP2 SWAP1 PUSH1 0x0 MSTORE PUSH1 0x20 PUSH1 0x0 KECCAK256 SWAP1 JUMPDEST DUP2 SLOAD DUP2 MSTORE SWAP1 PUSH1 0x1 ADD SWAP1 PUSH1 0x20 ADD DUP1 DUP4 GT PUSH2 0x1A0 JUMPI DUP3 SWAP1 SUB PUSH1 0x1F AND DUP3 ADD SWAP2 JUMPDEST POP POP POP POP POP SWAP1 DUP1 PUSH1 0x1 ADD SLOAD SWAP1 POP DUP3 JUMP JUMPDEST PUSH1 0x40 MLOAD DUP1 PUSH1 0x40 ADD PUSH1 0x40 MSTORE DUP1 DUP4 DUP2 MSTORE PUSH1 0x20 ADD DUP3 DUP2 MSTORE POP PUSH1 0x0 DUP1 DUP3 ADD MLOAD DUP2 PUSH1 0x0 ADD SWAP1 DUP2 PUSH2 0x1F8 SWAP2 SWAP1 PUSH2 0x6E2 JUMP JUMPDEST POP PUSH1 0x20 DUP3 ADD MLOAD DUP2 PUSH1 0x1 ADD SSTORE SWAP1 POP POP POP POP JUMP JUMPDEST PUSH1 0x0 DUP2 MLOAD SWAP1 POP SWAP2 SWAP1 POP JUMP JUMPDEST PUSH1 0x0 DUP3 DUP3 MSTORE PUSH1 0x20 DUP3 ADD SWAP1 POP SWAP3 SWAP2 POP POP JUMP JUMPDEST PUSH1 0x0 JUMPDEST DUP4 DUP2 LT ISZERO PUSH2 0x244 JUMPI DUP1 DUP3 ADD MLOAD DUP2 DUP5 ADD MSTORE PUSH1 0x20 DUP2 ADD SWAP1 POP PUSH2 0x229 JUMP JUMPDEST PUSH1 0x0 DUP5 DUP5 ADD MSTORE POP POP POP POP JUMP JUMPDEST PUSH1 0x0 PUSH1 0x1F NOT PUSH1 0x1F DUP4 ADD AND SWAP1 POP SWAP2 SWAP1 POP JUMP JUMPDEST PUSH1 0x0 PUSH2 0x26C DUP3 PUSH2 0x20A JUMP JUMPDEST PUSH2 0x276 DUP2 DUP6 PUSH2 0x215 JUMP JUMPDEST SWAP4 POP PUSH2 0x286 DUP2 DUP6 PUSH1 0x20 DUP7 ADD PUSH2 0x226 JUMP JUMPDEST PUSH2 0x28F DUP2 PUSH2 0x250 JUMP JUMPDEST DUP5 ADD SWAP2 POP POP SWAP3 SWAP2 POP POP JUMP JUMPDEST PUSH1 0x0 PUSH1 0x20 DUP3 ADD SWAP1 POP DUP2 DUP2 SUB PUSH1 0x0 DUP4 ADD MSTORE PUSH2 0x2B4 DUP2 DUP5 PUSH2 0x261 JUMP JUMPDEST SWAP1 POP SWAP3 SWAP2 POP POP JUMP JUMPDEST PUSH1 0x0 DUP2 SWAP1 POP SWAP2 SWAP1 POP JUMP JUMPDEST PUSH2 0x2CF DUP2 PUSH2 0x2BC JUMP JUMPDEST DUP3 MSTORE POP POP JUMP JUMPDEST PUSH1 0x0 PUSH1 0x40 DUP3 ADD SWAP1 POP DUP2 DUP2 SUB PUSH1 0x0 DUP4 ADD MSTORE PUSH2 0x2EF DUP2 DUP6 PUSH2 0x261 JUMP JUMPDEST SWAP1 POP PUSH2 0x2FE PUSH1 0x20 DUP4 ADD DUP5 PUSH2 0x2C6 JUMP JUMPDEST SWAP4 SWAP3 POP POP POP JUMP JUMPDEST PUSH1 0x0 PUSH1 0x40 MLOAD SWAP1 POP SWAP1 JUMP JUMPDEST PUSH1 0x0 DUP1 REVERT JUMPDEST PUSH1 0x0 DUP1 REVERT JUMPDEST PUSH1 0x0 DUP1 REVERT JUMPDEST PUSH1 0x0 DUP1 REVERT JUMPDEST PUSH32 0x4E487B7100000000000000000000000000000000000000000000000000000000 PUSH1 0x0 MSTORE PUSH1 0x41 PUSH1 0x4 MSTORE PUSH1 0x24 PUSH1 0x0 REVERT JUMPDEST PUSH2 0x35B DUP3 PUSH2 0x250 JUMP JUMPDEST DUP2 ADD DUP2 DUP2 LT PUSH8 0xFFFFFFFFFFFFFFFF DUP3 GT OR ISZERO PUSH2 0x37A JUMPI PUSH2 0x379 PUSH2 0x323 JUMP JUMPDEST JUMPDEST DUP1 PUSH1 0x40 MSTORE POP POP POP JUMP JUMPDEST PUSH1 0x0 PUSH2 0x38D PUSH2 0x305 JUMP JUMPDEST SWAP1 POP PUSH2 0x399 DUP3 DUP3 PUSH2 0x352 JUMP JUMPDEST SWAP2 SWAP1 POP JUMP JUMPDEST PUSH1 0x0 PUSH8 0xFFFFFFFFFFFFFFFF DUP3 GT ISZERO PUSH2 0x3B9 JUMPI PUSH2 0x3B8 PUSH2 0x323 JUMP JUMPDEST JUMPDEST PUSH2 0x3C2 DUP3 PUSH2 0x250 JUMP JUMPDEST SWAP1 POP PUSH1 0x20 DUP2 ADD SWAP1 POP SWAP2 SWAP1 POP JUMP JUMPDEST DUP3 DUP2 DUP4 CALLDATACOPY PUSH1 0x0 DUP4 DUP4 ADD MSTORE POP POP POP JUMP JUMPDEST PUSH1 0x0 PUSH2 0x3F1 PUSH2 0x3EC DUP5 PUSH2 0x39E JUMP JUMPDEST PUSH2 0x383 JUMP JUMPDEST SWAP1 POP DUP3 DUP2 MSTORE PUSH1 0x20 DUP2 ADD DUP5 DUP5 DUP5 ADD GT ISZERO PUSH2 0x40D JUMPI PUSH2 0x40C PUSH2 0x31E JUMP JUMPDEST JUMPDEST PUSH2 0x418 DUP5 DUP3 DUP6 PUSH2 0x3CF JUMP JUMPDEST POP SWAP4 SWAP3 POP POP POP JUMP JUMPDEST PUSH1 0x0 DUP3 PUSH1 0x1F DUP4 ADD SLT PUSH2 0x435 JUMPI PUSH2 0x434 PUSH2 0x319 JUMP JUMPDEST JUMPDEST DUP2 CALLDATALOAD PUSH2 0x445 DUP5 DUP3 PUSH1 0x20 DUP7 ADD PUSH2 0x3DE JUMP JUMPDEST SWAP2 POP POP SWAP3 SWAP2 POP POP JUMP JUMPDEST PUSH2 0x457 DUP2 PUSH2 0x2BC JUMP JUMPDEST DUP2 EQ PUSH2 0x462 JUMPI PUSH1 0x0 DUP1 REVERT JUMPDEST POP JUMP JUMPDEST PUSH1 0x0 DUP2 CALLDATALOAD SWAP1 POP PUSH2 0x474 DUP2 PUSH2 0x44E JUMP JUMPDEST SWAP3 SWAP2 POP POP JUMP JUMPDEST PUSH1 0x0 DUP1 PUSH1 0x40 DUP4 DUP6 SUB SLT ISZERO PUSH2 0x491 JUMPI PUSH2 0x490 PUSH2 0x30F JUMP JUMPDEST JUMPDEST PUSH1 0x0 DUP4 ADD CALLDATALOAD PUSH8 0xFFFFFFFFFFFFFFFF DUP2 GT ISZERO PUSH2 0x4AF JUMPI PUSH2 0x4AE PUSH2 0x314 JUMP JUMPDEST JUMPDEST PUSH2 0x4BB DUP6 DUP3 DUP7 ADD PUSH2 0x420 JUMP JUMPDEST SWAP3 POP POP PUSH1 0x20 PUSH2 0x4CC DUP6 DUP3 DUP7 ADD PUSH2 0x465 JUMP JUMPDEST SWAP2 POP POP SWAP3 POP SWAP3 SWAP1 POP JUMP JUMPDEST PUSH32 0x4E487B7100000000000000000000000000000000000000000000000000000000 PUSH1 0x0 MSTORE PUSH1 0x22 PUSH1 0x4 MSTORE PUSH1 0x24 PUSH1 0x0 REVERT JUMPDEST PUSH1 0x0 PUSH1 0x2 DUP3 DIV SWAP1 POP PUSH1 0x1 DUP3 AND DUP1 PUSH2 0x51D JUMPI PUSH1 0x7F DUP3 AND SWAP2 POP JUMPDEST PUSH1 0x20 DUP3 LT DUP2 SUB PUSH2 0x530 JUMPI PUSH2 0x52F PUSH2 0x4D6 JUMP JUMPDEST JUMPDEST POP SWAP2 SWAP1 POP JUMP JUMPDEST PUSH1 0x0 DUP2 SWAP1 POP DUP2 PUSH1 0x0 MSTORE PUSH1 0x20 PUSH1 0x0 KECCAK256 SWAP1 POP SWAP2 SWAP1 POP JUMP JUMPDEST PUSH1 0x0 PUSH1 0x20 PUSH1 0x1F DUP4 ADD DIV SWAP1 POP SWAP2 SWAP1 POP JUMP JUMPDEST PUSH1 0x0 DUP3 DUP3 SHL SWAP1 POP SWAP3 SWAP2 POP POP JUMP JUMPDEST PUSH1 0x0 PUSH1 0x8 DUP4 MUL PUSH2 0x598 PUSH32 0xFFFFFFFFFFFFFFFFFFFFFFFFFFFFFFFFFFFFFFFFFFFFFFFFFFFFFFFFFFFFFFFF DUP3 PUSH2 0x55B JUMP JUMPDEST PUSH2 0x5A2 DUP7 DUP4 PUSH2 0x55B JUMP JUMPDEST SWAP6 POP DUP1 NOT DUP5 AND SWAP4 POP DUP1 DUP7 AND DUP5 OR SWAP3 POP POP POP SWAP4 SWAP3 POP POP POP JUMP JUMPDEST PUSH1 0x0 DUP2 SWAP1 POP SWAP2 SWAP1 POP JUMP JUMPDEST PUSH1 0x0 PUSH2 0x5DF PUSH2 0x5DA PUSH2 0x5D5 DUP5 PUSH2 0x2BC JUMP JUMPDEST PUSH2 0x5BA JUMP JUMPDEST PUSH2 0x2BC JUMP JUMPDEST SWAP1 POP SWAP2 SWAP1 POP JUMP JUMPDEST PUSH1 0x0 DUP2 SWAP1 POP SWAP2 SWAP1 POP JUMP JUMPDEST PUSH2 0x5F9 DUP4 PUSH2 0x5C4 JUMP JUMPDEST PUSH2 0x60D PUSH2 0x605 DUP3 PUSH2 0x5E6 JUMP JUMPDEST DUP5 DUP5 SLOAD PUSH2 0x568 JUMP JUMPDEST DUP3 SSTORE POP POP POP POP JUMP JUMPDEST PUSH1 0x0 SWAP1 JUMP JUMPDEST PUSH2 0x622 PUSH2 0x615 JUMP JUMPDEST PUSH2 0x62D DUP2 DUP5 DUP5 PUSH2 0x5F0 JUMP JUMPDEST POP POP POP JUMP JUMPDEST JUMPDEST DUP2 DUP2 LT ISZERO PUSH2 0x651 JUMPI PUSH2 0x646 PUSH1 0x0 DUP3 PUSH2 0x61A JUMP JUMPDEST PUSH1 0x1 DUP2 ADD SWAP1 POP PUSH2 0x633 JUMP JUMPDEST POP POP JUMP JUMPDEST PUSH1 0x1F DUP3 GT ISZERO PUSH2 0x696 JUMPI PUSH2 0x667 DUP2 PUSH2 0x536 JUMP JUMPDEST PUSH2 0x670 DUP5 PUSH2 0x54B JUMP JUMPDEST DUP2 ADD PUSH1 0x20 DUP6 LT ISZERO PUSH2 0x67F JUMPI DUP2 SWAP1 POP JUMPDEST PUSH2 0x693 PUSH2 0x68B DUP6 PUSH2 0x54B JUMP JUMPDEST DUP4 ADD DUP3 PUSH2 0x632 JUMP JUMPDEST POP POP JUMPDEST POP POP POP JUMP JUMPDEST PUSH1 0x0 DUP3 DUP3 SHR SWAP1 POP SWAP3 SWAP2 POP POP JUMP JUMPDEST PUSH1 0x0 PUSH2 0x6B9 PUSH1 0x0 NOT DUP5 PUSH1 0x8 MUL PUSH2 0x69B JUMP JUMPDEST NOT DUP1 DUP4 AND SWAP2 POP POP SWAP3 SWAP2 POP POP JUMP JUMPDEST PUSH1 0x0 PUSH2 0x6D2 DUP4 DUP4 PUSH2 0x6A8 JUMP JUMPDEST SWAP2 POP DUP3 PUSH1 0x2 MUL DUP3 OR SWAP1 POP SWAP3 SWAP2 POP POP JUMP JUMPDEST PUSH2 0x6EB DUP3 PUSH2 0x20A JUMP JUMPDEST PUSH8 0xFFFFFFFFFFFFFFFF DUP2 GT ISZERO PUSH2 0x704 JUMPI PUSH2 0x703 PUSH2 0x323 JUMP JUMPDEST JUMPDEST PUSH2 0x70E DUP3 SLOAD PUSH2 0x505 JUMP JUMPDEST PUSH2 0x719 DUP3 DUP3 DUP6 PUSH2 0x655 JUMP JUMPDEST PUSH1 0x0 PUSH1 0x20 SWAP1 POP PUSH1 0x1F DUP4 GT PUSH1 0x1 DUP2 EQ PUSH2 0x74C JUMPI PUSH1 0x0 DUP5 ISZERO PUSH2 0x73A JUMPI DUP3 DUP8 ADD MLOAD SWAP1 POP JUMPDEST PUSH2 0x744 DUP6 DUP3 PUSH2 0x6C6 JUMP JUMPDEST DUP7 SSTORE POP PUSH2 0x7AC JUMP JUMPDEST PUSH1 0x1F NOT DUP5 AND PUSH2 0x75A DUP7 PUSH2 0x536 JUMP JUMPDEST PUSH1 0x0 JUMPDEST DUP3 DUP2 LT ISZERO PUSH2 0x782 JUMPI DUP5 DUP10 ADD MLOAD DUP3 SSTORE PUSH1 0x1 DUP3 ADD SWAP2 POP PUSH1 0x20 DUP6 ADD SWAP5 POP PUSH1 0x20 DUP2 ADD SWAP1 POP PUSH2 0x75D JUMP JUMPDEST DUP7 DUP4 LT ISZERO PUSH2 0x79F JUMPI DUP5 DUP10 ADD MLOAD PUSH2 0x79B PUSH1 0x1F DUP10 AND DUP3 PUSH2 0x6A8 JUMP JUMPDEST DUP4 SSTORE POP JUMPDEST PUSH1 0x1 PUSH1 0x2 DUP9 MUL ADD DUP9 SSTORE POP POP POP JUMPDEST POP POP POP POP POP POP JUMP INVALID LOG2 PUSH5 0x6970667358 0x22 SLT KECCAK256 0xD4 MULMOD CREATE 0xE8 0xAE 0x23 PUSH26 0x7A859BDF6D4327287CB084CFE41ED7F73748B3D0C8BD335A2464 PUSH20 0x6F6C634300081200330000000000000000000000 "
		},
		"gasEstimates": {
			"creation": {
				"codeDepositCost": "405200",
				"executionCost": "443",
				"totalCost": "405643"
			},
			"external": {
				"ReadData()": "infinite",
				"UpdateDetails(string,uint256)": "infinite",
				"person()": "infinite"
			}
		},
		"methodIdentifiers": {
			"ReadData()": "6f0c8a7a",
			"UpdateDetails(string,uint256)": "c8218e54",
			"person()": "77ec2b55"
		}
	},
	"abi": [
		{
			"inputs": [],
			"name": "ReadData",
			"outputs": [
				{
					"internalType": "string",
					"name": "",
					"type": "string"
				}
			],
			"stateMutability": "view",
			"type": "function"
		},
		{
			"inputs": [
				{
					"internalType": "string",
					"name": "_name",
					"type": "string"
				},
				{
					"internalType": "uint256",
					"name": "_age",
					"type": "uint256"
				}
			],
			"name": "UpdateDetails",
			"outputs": [],
			"stateMutability": "nonpayable",
			"type": "function"
		},
		{
			"inputs": [],
			"name": "person",
			"outputs": [
				{
					"internalType": "string",
					"name": "Name",
					"type": "string"
				},
				{
					"internalType": "uint256",
					"name": "Age",
					"type": "uint256"
				}
			],
			"stateMutability": "view",
			"type": "function"
		}
	]
}