{
	"data": {
		"bytecode": {
			"linkReferences": {},
			"object": "608060405234801561001057600080fd5b506104a8806100206000396000f3fe60806040526004361061003f5760003560e01c80633d64125b1461004457806357ea89b614610081578063b8d180a514610098578063ed21248c146100c3575b600080fd5b34801561005057600080fd5b5061006b600480360381019061006691906102eb565b6100cd565b6040516100789190610331565b60405180910390f35b34801561008d57600080fd5b506100966100e5565b005b3480156100a457600080fd5b506100ad610229565b6040516100ba9190610331565b60405180910390f35b6100cb610231565b005b60006020528060005260406000206000915090505481565b60008060003373ffffffffffffffffffffffffffffffffffffffff1673ffffffffffffffffffffffffffffffffffffffff1681526020019081526020016000205490506000811161013557600080fd5b60003373ffffffffffffffffffffffffffffffffffffffff168260405161015b9061037d565b60006040518083038185875af1925050503d8060008114610198576040519150601f19603f3d011682016040523d82523d6000602084013e61019d565b606091505b50509050806101e1576040517f08c379a00000000000000000000000000000000000000000000000000000000081526004016101d8906103ef565b60405180910390fd5b60008060003373ffffffffffffffffffffffffffffffffffffffff1673ffffffffffffffffffffffffffffffffffffffff168152602001908152602001600020819055505050565b600047905090565b346000803373ffffffffffffffffffffffffffffffffffffffff1673ffffffffffffffffffffffffffffffffffffffff168152602001908152602001600020600082825461027f919061043e565b92505081905550565b600080fd5b600073ffffffffffffffffffffffffffffffffffffffff82169050919050565b60006102b88261028d565b9050919050565b6102c8816102ad565b81146102d357600080fd5b50565b6000813590506102e5816102bf565b92915050565b60006020828403121561030157610300610288565b5b600061030f848285016102d6565b91505092915050565b6000819050919050565b61032b81610318565b82525050565b60006020820190506103466000830184610322565b92915050565b600081905092915050565b50565b600061036760008361034c565b915061037282610357565b600082019050919050565b60006103888261035a565b9150819050919050565b600082825260208201905092915050565b7f6e6f7420656e6f7567682062616c616e63650000000000000000000000000000600082015250565b60006103d9601283610392565b91506103e4826103a3565b602082019050919050565b60006020820190508181036000830152610408816103cc565b9050919050565b7f4e487b7100000000000000000000000000000000000000000000000000000000600052601160045260246000fd5b600061044982610318565b915061045483610318565b925082820190508082111561046c5761046b61040f565b5b9291505056fea2646970667358221220195d7014099b1f43be63d6d6386db5ef4158416c5aea8d45feae4cf03adf655164736f6c63430008120033",
			"opcodes": "PUSH1 0x80 PUSH1 0x40 MSTORE CALLVALUE DUP1 ISZERO PUSH2 0x10 JUMPI PUSH1 0x0 DUP1 REVERT JUMPDEST POP PUSH2 0x4A8 DUP1 PUSH2 0x20 PUSH1 0x0 CODECOPY PUSH1 0x0 RETURN INVALID PUSH1 0x80 PUSH1 0x40 MSTORE PUSH1 0x4 CALLDATASIZE LT PUSH2 0x3F JUMPI PUSH1 0x0 CALLDATALOAD PUSH1 0xE0 SHR DUP1 PUSH4 0x3D64125B EQ PUSH2 0x44 JUMPI DUP1 PUSH4 0x57EA89B6 EQ PUSH2 0x81 JUMPI DUP1 PUSH4 0xB8D180A5 EQ PUSH2 0x98 JUMPI DUP1 PUSH4 0xED21248C EQ PUSH2 0xC3 JUMPI JUMPDEST PUSH1 0x0 DUP1 REVERT JUMPDEST CALLVALUE DUP1 ISZERO PUSH2 0x50 JUMPI PUSH1 0x0 DUP1 REVERT JUMPDEST POP PUSH2 0x6B PUSH1 0x4 DUP1 CALLDATASIZE SUB DUP2 ADD SWAP1 PUSH2 0x66 SWAP2 SWAP1 PUSH2 0x2EB JUMP JUMPDEST PUSH2 0xCD JUMP JUMPDEST PUSH1 0x40 MLOAD PUSH2 0x78 SWAP2 SWAP1 PUSH2 0x331 JUMP JUMPDEST PUSH1 0x40 MLOAD DUP1 SWAP2 SUB SWAP1 RETURN JUMPDEST CALLVALUE DUP1 ISZERO PUSH2 0x8D JUMPI PUSH1 0x0 DUP1 REVERT JUMPDEST POP PUSH2 0x96 PUSH2 0xE5 JUMP JUMPDEST STOP JUMPDEST CALLVALUE DUP1 ISZERO PUSH2 0xA4 JUMPI PUSH1 0x0 DUP1 REVERT JUMPDEST POP PUSH2 0xAD PUSH2 0x229 JUMP JUMPDEST PUSH1 0x40 MLOAD PUSH2 0xBA SWAP2 SWAP1 PUSH2 0x331 JUMP JUMPDEST PUSH1 0x40 MLOAD DUP1 SWAP2 SUB SWAP1 RETURN JUMPDEST PUSH2 0xCB PUSH2 0x231 JUMP JUMPDEST STOP JUMPDEST PUSH1 0x0 PUSH1 0x20 MSTORE DUP1 PUSH1 0x0 MSTORE PUSH1 0x40 PUSH1 0x0 KECCAK256 PUSH1 0x0 SWAP2 POP SWAP1 POP SLOAD DUP2 JUMP JUMPDEST PUSH1 0x0 DUP1 PUSH1 0x0 CALLER PUSH20 0xFFFFFFFFFFFFFFFFFFFFFFFFFFFFFFFFFFFFFFFF AND PUSH20 0xFFFFFFFFFFFFFFFFFFFFFFFFFFFFFFFFFFFFFFFF AND DUP2 MSTORE PUSH1 0x20 ADD SWAP1 DUP2 MSTORE PUSH1 0x20 ADD PUSH1 0x0 KECCAK256 SLOAD SWAP1 POP PUSH1 0x0 DUP2 GT PUSH2 0x135 JUMPI PUSH1 0x0 DUP1 REVERT JUMPDEST PUSH1 0x0 CALLER PUSH20 0xFFFFFFFFFFFFFFFFFFFFFFFFFFFFFFFFFFFFFFFF AND DUP3 PUSH1 0x40 MLOAD PUSH2 0x15B SWAP1 PUSH2 0x37D JUMP JUMPDEST PUSH1 0x0 PUSH1 0x40 MLOAD DUP1 DUP4 SUB DUP2 DUP6 DUP8 GAS CALL SWAP3 POP POP POP RETURNDATASIZE DUP1 PUSH1 0x0 DUP2 EQ PUSH2 0x198 JUMPI PUSH1 0x40 MLOAD SWAP2 POP PUSH1 0x1F NOT PUSH1 0x3F RETURNDATASIZE ADD AND DUP3 ADD PUSH1 0x40 MSTORE RETURNDATASIZE DUP3 MSTORE RETURNDATASIZE PUSH1 0x0 PUSH1 0x20 DUP5 ADD RETURNDATACOPY PUSH2 0x19D JUMP JUMPDEST PUSH1 0x60 SWAP2 POP JUMPDEST POP POP SWAP1 POP DUP1 PUSH2 0x1E1 JUMPI PUSH1 0x40 MLOAD PUSH32 0x8C379A000000000000000000000000000000000000000000000000000000000 DUP2 MSTORE PUSH1 0x4 ADD PUSH2 0x1D8 SWAP1 PUSH2 0x3EF JUMP JUMPDEST PUSH1 0x40 MLOAD DUP1 SWAP2 SUB SWAP1 REVERT JUMPDEST PUSH1 0x0 DUP1 PUSH1 0x0 CALLER PUSH20 0xFFFFFFFFFFFFFFFFFFFFFFFFFFFFFFFFFFFFFFFF AND PUSH20 0xFFFFFFFFFFFFFFFFFFFFFFFFFFFFFFFFFFFFFFFF AND DUP2 MSTORE PUSH1 0x20 ADD SWAP1 DUP2 MSTORE PUSH1 0x20 ADD PUSH1 0x0 KECCAK256 DUP2 SWAP1 SSTORE POP POP POP JUMP JUMPDEST PUSH1 0x0 SELFBALANCE SWAP1 POP SWAP1 JUMP JUMPDEST CALLVALUE PUSH1 0x0 DUP1 CALLER PUSH20 0xFFFFFFFFFFFFFFFFFFFFFFFFFFFFFFFFFFFFFFFF AND PUSH20 0xFFFFFFFFFFFFFFFFFFFFFFFFFFFFFFFFFFFFFFFF AND DUP2 MSTORE PUSH1 0x20 ADD SWAP1 DUP2 MSTORE PUSH1 0x20 ADD PUSH1 0x0 KECCAK256 PUSH1 0x0 DUP3 DUP3 SLOAD PUSH2 0x27F SWAP2 SWAP1 PUSH2 0x43E JUMP JUMPDEST SWAP3 POP POP DUP2 SWAP1 SSTORE POP JUMP JUMPDEST PUSH1 0x0 DUP1 REVERT JUMPDEST PUSH1 0x0 PUSH20 0xFFFFFFFFFFFFFFFFFFFFFFFFFFFFFFFFFFFFFFFF DUP3 AND SWAP1 POP SWAP2 SWAP1 POP JUMP JUMPDEST PUSH1 0x0 PUSH2 0x2B8 DUP3 PUSH2 0x28D JUMP JUMPDEST SWAP1 POP SWAP2 SWAP1 POP JUMP JUMPDEST PUSH2 0x2C8 DUP2 PUSH2 0x2AD JUMP JUMPDEST DUP2 EQ PUSH2 0x2D3 JUMPI PUSH1 0x0 DUP1 REVERT JUMPDEST POP JUMP JUMPDEST PUSH1 0x0 DUP2 CALLDATALOAD SWAP1 POP PUSH2 0x2E5 DUP2 PUSH2 0x2BF JUMP JUMPDEST SWAP3 SWAP2 POP POP JUMP JUMPDEST PUSH1 0x0 PUSH1 0x20 DUP3 DUP5 SUB SLT ISZERO PUSH2 0x301 JUMPI PUSH2 0x300 PUSH2 0x288 JUMP JUMPDEST JUMPDEST PUSH1 0x0 PUSH2 0x30F DUP5 DUP3 DUP6 ADD PUSH2 0x2D6 JUMP JUMPDEST SWAP2 POP POP SWAP3 SWAP2 POP POP JUMP JUMPDEST PUSH1 0x0 DUP2 SWAP1 POP SWAP2 SWAP1 POP JUMP JUMPDEST PUSH2 0x32B DUP2 PUSH2 0x318 JUMP JUMPDEST DUP3 MSTORE POP POP JUMP JUMPDEST PUSH1 0x0 PUSH1 0x20 DUP3 ADD SWAP1 POP PUSH2 0x346 PUSH1 0x0 DUP4 ADD DUP5 PUSH2 0x322 JUMP JUMPDEST SWAP3 SWAP2 POP POP JUMP JUMPDEST PUSH1 0x0 DUP2 SWAP1 POP SWAP3 SWAP2 POP POP JUMP JUMPDEST POP JUMP JUMPDEST PUSH1 0x0 PUSH2 0x367 PUSH1 0x0 DUP4 PUSH2 0x34C JUMP JUMPDEST SWAP2 POP PUSH2 0x372 DUP3 PUSH2 0x357 JUMP JUMPDEST PUSH1 0x0 DUP3 ADD SWAP1 POP SWAP2 SWAP1 POP JUMP JUMPDEST PUSH1 0x0 PUSH2 0x388 DUP3 PUSH2 0x35A JUMP JUMPDEST SWAP2 POP DUP2 SWAP1 POP SWAP2 SWAP1 POP JUMP JUMPDEST PUSH1 0x0 DUP3 DUP3 MSTORE PUSH1 0x20 DUP3 ADD SWAP1 POP SWAP3 SWAP2 POP POP JUMP JUMPDEST PUSH32 0x6E6F7420656E6F7567682062616C616E63650000000000000000000000000000 PUSH1 0x0 DUP3 ADD MSTORE POP JUMP JUMPDEST PUSH1 0x0 PUSH2 0x3D9 PUSH1 0x12 DUP4 PUSH2 0x392 JUMP JUMPDEST SWAP2 POP PUSH2 0x3E4 DUP3 PUSH2 0x3A3 JUMP JUMPDEST PUSH1 0x20 DUP3 ADD SWAP1 POP SWAP2 SWAP1 POP JUMP JUMPDEST PUSH1 0x0 PUSH1 0x20 DUP3 ADD SWAP1 POP DUP2 DUP2 SUB PUSH1 0x0 DUP4 ADD MSTORE PUSH2 0x408 DUP2 PUSH2 0x3CC JUMP JUMPDEST SWAP1 POP SWAP2 SWAP1 POP JUMP JUMPDEST PUSH32 0x4E487B7100000000000000000000000000000000000000000000000000000000 PUSH1 0x0 MSTORE PUSH1 0x11 PUSH1 0x4 MSTORE PUSH1 0x24 PUSH1 0x0 REVERT JUMPDEST PUSH1 0x0 PUSH2 0x449 DUP3 PUSH2 0x318 JUMP JUMPDEST SWAP2 POP PUSH2 0x454 DUP4 PUSH2 0x318 JUMP JUMPDEST SWAP3 POP DUP3 DUP3 ADD SWAP1 POP DUP1 DUP3 GT ISZERO PUSH2 0x46C JUMPI PUSH2 0x46B PUSH2 0x40F JUMP JUMPDEST JUMPDEST SWAP3 SWAP2 POP POP JUMP INVALID LOG2 PUSH5 0x6970667358 0x22 SLT KECCAK256 NOT 0x5D PUSH17 0x14099B1F43BE63D6D6386DB5EF4158416C GAS 0xEA DUP14 GASLIMIT INVALID 0xAE 0x4C CREATE GASPRICE 0xDF PUSH6 0x5164736F6C63 NUMBER STOP ADDMOD SLT STOP CALLER "
		},
		"gasEstimates": {
			"creation": {
				"codeDepositCost": "238400",
				"executionCost": "281",
				"totalCost": "238681"
			},
			"external": {
				"BalanceInContract()": "361",
				"Deposit()": "infinite",
				"Withdraw()": "infinite",
				"balanceof(address)": "2792"
			}
		},
		"methodIdentifiers": {
			"BalanceInContract()": "b8d180a5",
			"Deposit()": "ed21248c",
			"Withdraw()": "57ea89b6",
			"balanceof(address)": "3d64125b"
		}
	},
	"abi": [
		{
			"inputs": [],
			"name": "BalanceInContract",
			"outputs": [
				{
					"internalType": "uint256",
					"name": "",
					"type": "uint256"
				}
			],
			"stateMutability": "view",
			"type": "function"
		},
		{
			"inputs": [],
			"name": "Deposit",
			"outputs": [],
			"stateMutability": "payable",
			"type": "function"
		},
		{
			"inputs": [],
			"name": "Withdraw",
			"outputs": [],
			"stateMutability": "nonpayable",
			"type": "function"
		},
		{
			"inputs": [
				{
					"internalType": "address",
					"name": "",
					"type": "address"
				}
			],
			"name": "balanceof",
			"outputs": [
				{
					"internalType": "uint256",
					"name": "",
					"type": "uint256"
				}
			],
			"stateMutability": "view",
			"type": "function"
		}
	]
}